:020000040800F2
:2000000000000220C5110008591200085912000859120008591200085912000800000000A1
:200020000000000000000000000000005912000859120008000000005912000865090008F1
:20004000591200085912000859120008591200085912000859120008591200085912000808
:200060005912000859120008591200085912000859120008591200085912000859120008E8
:200080005912000859120008591200085912000859120008591200085912000859120008C8
:2000A0005912000859120008591200085912000859120008591200085912000859120008A8
:2000C00059120008591200085912000859120008591200084111000839100008BD10000861
:2000E000591200085912000859120008591200085912000859120008591200085912000868
:20010000591200085912000859120008591200085912000859120008591200085912000847
:20012000591200085912000859120008591200085912000859120008591200085912000827
:20014000591200085912000859120008591200085912000859120008591200085912000807
:2001600059120008591200085912000859120008591200085912000880B400AF094B1B6813
:20018000084A43F00103136000BF064B1B685B0803F00103002BF8D000BF00BFBD465DF8AD
:2001A000047B70470038024080B400AF094B1B68084A43F48033136000BF064B1B685B0C2C
:2001C00003F00103002BF8D000BF00BFBD465DF8047B70470038024080B400AF094B1B68F5
:2001E000084A43F08073136000BF064B1B685B0E03F00103002BF8D000BF00BFBD465DF858
:20020000047B70470038024080B400AF094B1B68084A23F08073136000BF064B1B685B0EAD
:2002200003F00103002BF8D100BF00BFBD465DF8047B70470038024080B483B000AF0346EE
:20024000FB710F4B1B680E4A23F0030313600C4B1A68FB7903F00303094913430B6000BF59
:20026000074B1B689B0803F00302FB799A42F7D100BF00BF0C37BD465DF8047B704700BFE8
:200280000838024080B584B000AF7860FFF7BCFF0023FB607B685B7803F03F03FA6813431A
:2002A000FB607B685B889B011A4647F6C0731340FA681343FB607B681B795B08DBB2013BA8
:2002C0001B0403F44033FA681343FB607B681B789B051A46FB681343FB607B685B791B0620
:2002E00003F07063FA681343FB60034AFB68136000BF1037BD4680BD0438024080B483B0D7
:2003000000AF0346FB710A4B1B68094A23F0F0031360074B1B68FA7912011146044A0B4387
:20032000136000BF0C37BD465DF8047B704700BF0838024080B483B000AF0346FB710A4B59
:200340001B68094A23F4E0531360074B1B68FA7992021146044A0B43136000BF0C37BD46C3
:200360005DF8047B704700BF0838024080B483B000AF0346FB710A4B1B68094A23F4604301
:200380001360074B1B68FA7952031146044A0B43136000BF0C37BD465DF8047B704700BF98
:2003A0000838024080B582B000AF78607B68002B39D07B681B78022B12D0022B35DC002BC8
:2003C00002D0012B06D030E0FFF7D6FE0020FFF733FF2BE0FFF7E8FE0120FFF72DFF25E0F8
:2003E0007B689B78012B02D1FFF7DEFE01E0FFF7C3FE7B6802331846FFF744FFFFF7ECFE0F
:200400007B681B7A1846FFF779FF7B685B7A1846FFF790FF7B689B7A1846FFF7A7FF0220E9
:20042000FFF70AFF02E000BF00E000BF0837BD4680BD000080B483B000AF03460A46FB71E3
:200440001346BB71FB79042B43D801A252F823F0650400087B04000891040008A704000811
:20046000BD0400081E4B1B68BA79012101FA02F211461B4A0B4313602CE01A4B1B68BA79DF
:20048000012101FA02F21146164A0B43136021E0154B1B68BA79012101FA02F21146124AF8
:2004A0000B43136016E0114B1B68BA79012101FA02F211460D4A0B4313600BE00C4B1B682E
:2004C000BA79012101FA02F21146094A0B43136000E000BF00BF0C37BD465DF8047B70473E
:2004E000303802403438024038380240403802404438024080B483B000AF03460A46FB715F
:200500001346BB71FB79042B48D801A252F823F0250500083D050008550500086D0500083B
:2005200085050008214B1B68BA79012101FA02F2D24311461D4A0B40136030E01C4B1B686B
:20054000BA79012101FA02F2D2431146184A0B40136024E0174B1B68BA79012101FA02F29E
:20056000D2431146134A0B40136018E0124B1B68BA79012101FA02F2D24311460E4A0B40C9
:2005800013600CE00D4B1B68BA79012101FA02F2D2431146094A0B40136000E000BF00BF02
:2005A0000C37BD465DF8047B704700BF303802403438024038380240403802404438024029
:2005C00080B485B000AF0346FB710023FB73FB791F2B05D8FB7901229A400C4B1A600DE0F3
:2005E000FB793B2B08D8FB79203BFB71FB7901229A40074B1A6001E00123FB73FB7B184682
:200600001437BD465DF8047B704700BF00E100E004E100E080B485B000AF0346FB710023CC
:20062000FB73FB791F2B05D8FB7901229A400C4B1A600DE0FB793B2B08D8FB79203BFB718D
:20064000FB7901229A40074B1A6001E00123FB73FB7B18461437BD465DF8047B704700BF7E
:2006600080E100E084E100E080B485B000AF0346FB710023FB73FB791F2B05D8FB79012264
:200680009A400C4B1A600DE0FB793B2B08D8FB79203BFB71FB7901229A40074B1A6001E0AF
:2006A0000123FB73FB7B18461437BD465DF8047B704700BF00E200E004E200E080B485B04B
:2006C00000AF0346FB710023FB73FB791F2B05D8FB7901229A400C4B1A600DE0FB793B2B81
:2006E00008D8FB79203BFB71FB7901229A40074B1A6001E00123FB73FB7B18461437BD460D
:200700005DF8047B704700BF80E200E084E200E080B485B000AF03463960FB710023FB7310
:20072000FB791F2B0BD8134B1A68FB7922FA03F3DBB203F00103DAB23B681A7013E0FB790E
:200740003B2B0ED8FB79203BFB710B4B1A68FB7922FA03F3DBB203F00103DAB23B681A7077
:2007600001E00123FB73FB7B18461437BD465DF8047B704700E300E004E300E080B485B066
:2007800000AF0346FB710B46BB7113467B71134B134A1A600223FB7397F90730002B16DB88
:2007A00097F90730002B12DBBA79FB7B02FA03F35AB297F9053013435BB2DAB297F9073038
:2007C00003F1604303F564431201D2B21A7000BF1437BD465DF8047B704700BF0CED00E092
:2007E0000005FA0580B400AF044A13686FF38203136000BFBD465DF8047B704710E000E0D2
:2008000080B584B000AF78607B684FF4FA6202FB03F3FB600C4B00221A600C4AFB681360F9
:200820000B4A136843F00103136000BF084B1B68C3F30043DBB2002BF8D000F069F800BF20
:200840001037BD4680BD00BF18E000E014E000E010E000E080B485B000AF78603960012329
:20086000FB733B68002B02D10223FB7311E00023FB730B4A3B6813600A4A7B6813600A4AEB
:20088000136843F002031360074A136843F001031360FB7B18461437BD465DF8047B70470F
:2008A0000C00002014E000E010E000E080B485B000AF786039600123FB733B68002B02D1AC
:2008C0000223FB7315E00023FB730D4A3B6813600C4A7B68013B13600B4B00221A600B4A63
:2008E000136843F002031360084A136843F001031360FB7B18461437BD465DF8047B7047AE
:200900000C00002014E000E018E000E010E000E080B400AF044A13686FF30003136000BFEC
:20092000BD465DF8047B704710E000E080B400AF044B1A68044B1B68D31A1846BD465DF830
:20094000047B704714E000E018E000E080B400AF034B1B681846BD465DF8047B704700BF56
:2009600018E000E080B500AF024B1B68984700BF80BD00BF0C00002080B483B000AF0346C6
:20098000FB71FB79072B23D801A252F823F000BFB1090008B5090008B9090008BD0900086B
:2009A000C1090008C5090008C9090008CD0900080B4B0EE00B4B0CE00B4B0AE00B4B08E0D3
:2009C0000B4B06E00B4B04E00B4B02E00B4B00E0002318460C37BD465DF8047B704700BF22
:2009E000000002400004024000080240000C0240001002400014024000180240001C024077
:200A000090B585B000AF0446084611461A462346FB710346BB710B467B7113463B71FB795E
:200A20001846FFF7A9FFF860FB68002B01D1012365E0BB790F2B01D9022360E0FB681B6806
:200A4000BA795200032101FA02F2D2431A40FB681A60FB681B687A7902F00301BA7952005E
:200A600001FA02F21A43FB681A607B79012B02D07B79022B12D1FB685B68BA79012101FAE1
:200A800002F2D2431A40FB685A60FB685B683979BA7901FA02F21A43FB685A60FB689B68FC
:200AA000BA795200032101FA02F2D2431A40FB689A60FB689B6897F8202002F00301BA7974
:200AC000520001FA02F21A43FB689A60FB68DB68BA795200032101FA02F2D2431A40FB680B
:200AE000DA60FB68DB6897F8242002F00301BA79520001FA02F21A43FB68DA60002318465E
:200B00001437BD4690BD80B584B000AF0346FB710B46BB7113467B71FB791846FFF72CFFB8
:200B2000F860FB68002B01D1012318E0BB790F2B01D9022313E07B79012B07D1BB79012232
:200B400002FA03F31A46FB689A6107E0BB791033012202FA03F31A46FB689A610023184633
:200B60001037BD4680BD80B584B000AF03460A46FB711346BB71FB791846FFF7FDFEF86031
:200B8000FB68002B01D101230EE0BB790F2B01D9022309E0FB685B69BA79012101FA02F222
:200BA0005A40FB685A61002318461037BD4680BD80B584B000AF03463A60FB710B46BB7191
:200BC000FB791846FFF7D8FEF860FB68002B01D1012310E0BB790F2B01D902230BE0FB68F0
:200BE0001A69BB7922FA03F3DBB203F00103DAB23B681A70002318461037BD4680BD0000E7
:200C000080B487B000AF0346FB710B46BB7113467B71FB79072B68D801A252F823F000BF9E
:200C2000410C0008470C00084D0C0008530C0008590C00085F0C0008650C00086B0C000864
:200C40002D4B7B6114E02D4B7B6111E02C4B7B610EE02C4B7B610BE02B4B7B6108E02B4BD8
:200C60007B6105E02A4B7B6102E02A4B7B6100BF7B6920333B617B692433FB60BB79072BA1
:200C800018D8BB799B00BB723B691B68BA7A0F2101FA02F2D2431A403B691A603B691B683A
:200CA0007A7902F00F01BA7A01FA02F21A433B691A601BE0BB79083BDBB29B00FB72FB6837
:200CC0001B68FA7A0F2101FA02F2D2431A40FB681A60FB681B687A7902F00F01FA7A01FA68
:200CE00002F21A43FB681A6000E000BF1C37BD465DF8047B704700BF0000024000040240FF
:200D000000080240000C0240001002400014024000180240001C024080B485B000AF03467A
:200D2000FB710023FB60FB79022B0CD0022B0DDC002B02D0012B03D008E0084BFB6006E0BE
:200D4000074BFB6003E0074BFB6000E000BFFB6818461437BD465DF8047B704700100140CC
:200D6000004400400048004080B586B000AF03463960FB710023FB751DE03A681B4B83FBE9
:200D800002139910D317C91A0B469B000B445B00D11ACAB2FB7D591CF9753032D2B218333F
:200DA0003B4403F80C2C3B68104A82FB03129210DB17D31A3B603B68002BDEDCFB7DBB75A6
:200DC0000CE0BB7D013B07F10C02D118FB790122184600F0A7F8BB7D013BBB75BB7D002B39
:200DE000EFD100BF00BF1837BD4680BD6766666680B586B000AF0346B9607A60FB73BB68A6
:200E0000002B00F08B80FB7B1846FFF785FF78617B690C331B687A690C3223F400531360E1
:200E2000BB681B685A087B681A44BB681B68B2FBF3F33B617B6908331A463B691360BB68DB
:200E4000DB79012B08D17B690C331B687A690C3243F48053136007E07B690C331B687A6985
:200E60000C3223F480531360BB685B79002B08D17B690C331B687A690C3223F480631360A8
:200E80001CE07B690C331B687A690C3243F480631360BB685B79022B08D17B690C331B685F
:200EA0007A690C3243F40073136007E07B690C331B687A690C3223F4007313607B69103322
:200EC0001B687A69103223F4405313607B6910331B68BA689279120311467A6910320B4397
:200EE00013607B690C331B68BA68127A11467A690C320B4313607B690C331B68BA6812799F
:200F000011467A690C320B4313607B690C331B687A690C3243F40053136000E000BF1837E6
:200F2000BD4680BD80B584B000AF03463960FB711346BB71FB791846FFF7EEFEB860002397
:200F4000FB7311E000BFBB681B68DB0903F00103002BF8D0FB7B3A6813441A78BB680433A4
:200F60001A60FB7B0133FB73FA7BBB799A42E9D300BF00BF1037BD4680BD000080B582B032
:200F800000AF03463960FB713B68002B08DAFB7901220C491846FFF7C5FF3B685B423B60C5
:200FA0003B68002B06D1FB79012207491846FFF7B9FF04E0FB7939681846FFF7D5FE08373A
:200FC000BD4680BDA8130008AC13000880B483B000AF78607B68002B02D0044A7B681360D5
:200FE00000BF0C37BD465DF8047B70471400002080B483B000AF78607B68002B02D0044A11
:201000007B68136000BF0C37BD465DF8047B70471800002080B483B000AF78607B68002BB6
:2010200002D0044A7B68136000BF0C37BD465DF8047B70471C00002080B586B000AF012033
:20104000FFF76AFE78617B691B683B613B6903F02003002B0BD07B6904331B68DAB2154B0C
:201060001A70154B1B68134A1278104698473B6903F00803002B07D07B691B68FB607B699D
:2010800004331B68FB60FB683B6903F00403002B03D07B691B68BB60BB683B6903F00203FB
:2010A000002B03D07B691B687B607B6800BF1837BD4680BD100000201800002080B586B0EC
:2010C00000AF0220FFF728FE78617B691B683B613B6903F02003002B0BD07B6904331B68E9
:2010E000DAB2154B1A70154B1B68134A1278104698473B6903F00803002B07D07B691B6870
:20110000FB607B6904331B68FB60FB683B6903F00403002B03D07B691B68BB60BB683B6933
:2011200003F00203002B03D07B691B687B607B6800BF1837BD4680BD100000201C000020DA
:2011400080B586B000AF0020FFF7E6FD78617B691B683B613B6903F02003002B0BD07B69FC
:2011600004331B68DAB2154B1A70154B1B68134A1278104698473B6903F00803002B07D09C
:201180007B691B68FB607B6904331B68FB60FB683B6903F00403002B03D07B691B68BB6013
:2011A000BB683B6903F00203002B03D07B691B687B607B6800BF1837BD4680BD10000020CF
:2011C0001400002080B586B000AF00237B6000237B6100233B611B4A1B4BD31A9B107B60C7
:2011E0001A4B7B61184B3B610023FB600AE07A69131D7B613B69191D396112681A60FB688D
:201200000133FB60FA687B689A42F0D3104A114BD31A9B107B600F4B3B610023BB6007E017
:201220003B691A1D3A6100221A60BB680133BB60BA687B689A42F3D300F0A4F800F010F8FF
:20124000FEE700BF0C00002000000020BC130008380000200C00002080B400AFFEE700007B
:2012600080B582B000AF00F069F800F075F8274B1B681B0FDBB203F00103DAB2244B1A7082
:20128000224B1B68DB0EDBB203F00103DAB2214B1A701E4B1B689B0EDBB203F00103DAB2CA
:2012A0001D4B1A70194B1B685B0FDBB203F00103FB71072219490120FFF734FE154B1B7834
:2012C000002B06D1124B1B78002B02D1FB79002B0BD0134B134A1A60134B1B681A46134BD0
:2012E0001A60124B1B6898470EE00B4B1B78002BDFD00B4B0E4A1A600E4B1B681A460E4B47
:201300001A600D4B1B689847D3E700BF74380240340000203500002036000020B013000868
:2013200008ED00E000800008048000082C00002000400008044000083000002080B500AFB0
:20134000034A04490120FFF753FD00BF80BD00BF0024F4000000002080B582B002AF00235E
:201360000193032300930023022202210020FFF747FB072202210020FFF742FC00BFBD46FC
:2013800080BD000080B500AF0648FFF70BF800210020FFF74FF811210320FFF74BF800BF1A
:2013A00080BD00BF200000202D000000300000000A20424D200A00000000022000C20100CC
:0813C00008000000000000001D
:2040000000000220A95E00083D5F00083D5F00083D5F00083D5F00083D5F0008000000003B
:204020000000000000000000000000003D5F00083D5F0008000000003D5F000865490008DE
:204040003D5F00083D5F00083D5F00083D5F00083D5F00083D5F00083D5F00083D5F000840
:204060003D5F00083D5F00083D5F00083D5F00083D5F00083D5F00083D5F00083D5F000820
:204080003D5F00083D5F00083D5F00083D5F00083D5F00083D5F00083D5F00083D5F000800
:2040A0003D5F00083D5F00083D5F00083D5F00083D5F00083D5F00083D5F00083D5F0008E0
:2040C0003D5F00083D5F00083D5F00083D5F00083D5F00084151000839500008BD5000086C
:2040E0003D5F00083D5F00083D5F00083D5F00083D5F00083D5F00083D5F00083D5F0008A0
:204100003D5F00083D5F00083D5F00083D5F00083D5F00083D5F00083D5F00083D5F00087F
:204120003D5F00083D5F00083D5F00083D5F00083D5F00083D5F00083D5F00083D5F00085F
:204140003D5F00083D5F00083D5F00083D5F00083D5F00083D5F00083D5F00083D5F00083F
:204160003D5F00083D5F00083D5F00083D5F00083D5F00083D5F000880B400AF094B1B68AD
:20418000084A43F00103136000BF064B1B685B0803F00103002BF8D000BF00BFBD465DF86D
:2041A000047B70470038024080B400AF094B1B68084A43F48033136000BF064B1B685B0CEC
:2041C00003F00103002BF8D000BF00BFBD465DF8047B70470038024080B400AF094B1B68B5
:2041E000084A43F08073136000BF064B1B685B0E03F00103002BF8D000BF00BFBD465DF818
:20420000047B70470038024080B400AF094B1B68084A23F08073136000BF064B1B685B0E6D
:2042200003F00103002BF8D100BF00BFBD465DF8047B70470038024080B483B000AF0346AE
:20424000FB710F4B1B680E4A23F0030313600C4B1A68FB7903F00303094913430B6000BF19
:20426000074B1B689B0803F00302FB799A42F7D100BF00BF0C37BD465DF8047B704700BFA8
:204280000838024080B584B000AF7860FFF7BCFF0023FB607B685B7803F03F03FA681343DA
:2042A000FB607B685B889B011A4647F6C0731340FA681343FB607B681B795B08DBB2013B68
:2042C0001B0403F44033FA681343FB607B681B789B051A46FB681343FB607B685B791B06E0
:2042E00003F07063FA681343FB60034AFB68136000BF1037BD4680BD0438024080B483B097
:2043000000AF0346FB710A4B1B68094A23F0F0031360074B1B68FA7912011146044A0B4347
:20432000136000BF0C37BD465DF8047B704700BF0838024080B483B000AF0346FB710A4B19
:204340001B68094A23F4E0531360074B1B68FA7992021146044A0B43136000BF0C37BD4683
:204360005DF8047B704700BF0838024080B483B000AF0346FB710A4B1B68094A23F46043C1
:204380001360074B1B68FA7952031146044A0B43136000BF0C37BD465DF8047B704700BF58
:2043A0000838024080B582B000AF78607B68002B39D07B681B78022B12D0022B35DC002B88
:2043C00002D0012B06D030E0FFF7D6FE0020FFF733FF2BE0FFF7E8FE0120FFF72DFF25E0B8
:2043E0007B689B78012B02D1FFF7DEFE01E0FFF7C3FE7B6802331846FFF744FFFFF7ECFECF
:204400007B681B7A1846FFF779FF7B685B7A1846FFF790FF7B689B7A1846FFF7A7FF0220A9
:20442000FFF70AFF02E000BF00E000BF0837BD4680BD000080B483B000AF03460A46FB71A3
:204440001346BB71FB79042B43D801A252F823F0654400087B44000891440008A7440008D1
:20446000BD4400081E4B1B68BA79012101FA02F211461B4A0B4313602CE01A4B1B68BA795F
:20448000012101FA02F21146164A0B43136021E0154B1B68BA79012101FA02F21146124AB8
:2044A0000B43136016E0114B1B68BA79012101FA02F211460D4A0B4313600BE00C4B1B68EE
:2044C000BA79012101FA02F21146094A0B43136000E000BF00BF0C37BD465DF8047B7047FE
:2044E000303802403438024038380240403802404438024080B483B000AF03460A46FB711F
:204500001346BB71FB79042B48D801A252F823F0254500083D450008554500086D450008FB
:2045200085450008214B1B68BA79012101FA02F2D24311461D4A0B40136030E01C4B1B68EB
:20454000BA79012101FA02F2D2431146184A0B40136024E0174B1B68BA79012101FA02F25E
:20456000D2431146134A0B40136018E0124B1B68BA79012101FA02F2D24311460E4A0B4089
:2045800013600CE00D4B1B68BA79012101FA02F2D2431146094A0B40136000E000BF00BFC2
:2045A0000C37BD465DF8047B704700BF3038024034380240383802404038024044380240E9
:2045C00080B485B000AF0346FB710023FB73FB791F2B05D8FB7901229A400C4B1A600DE0B3
:2045E000FB793B2B08D8FB79203BFB71FB7901229A40074B1A6001E00123FB73FB7B184642
:204600001437BD465DF8047B704700BF00E100E004E100E080B485B000AF0346FB7100238C
:20462000FB73FB791F2B05D8FB7901229A400C4B1A600DE0FB793B2B08D8FB79203BFB714D
:20464000FB7901229A40074B1A6001E00123FB73FB7B18461437BD465DF8047B704700BF3E
:2046600080E100E084E100E080B485B000AF0346FB710023FB73FB791F2B05D8FB79012224
:204680009A400C4B1A600DE0FB793B2B08D8FB79203BFB71FB7901229A40074B1A6001E06F
:2046A0000123FB73FB7B18461437BD465DF8047B704700BF00E200E004E200E080B485B00B
:2046C00000AF0346FB710023FB73FB791F2B05D8FB7901229A400C4B1A600DE0FB793B2B41
:2046E00008D8FB79203BFB71FB7901229A40074B1A6001E00123FB73FB7B18461437BD46CD
:204700005DF8047B704700BF80E200E084E200E080B485B000AF03463960FB710023FB73D0
:20472000FB791F2B0BD8134B1A68FB7922FA03F3DBB203F00103DAB23B681A7013E0FB79CE
:204740003B2B0ED8FB79203BFB710B4B1A68FB7922FA03F3DBB203F00103DAB23B681A7037
:2047600001E00123FB73FB7B18461437BD465DF8047B704700E300E004E300E080B485B026
:2047800000AF0346FB710B46BB7113467B71134B134A1A600223FB7397F90730002B16DB48
:2047A00097F90730002B12DBBA79FB7B02FA03F35AB297F9053013435BB2DAB297F90730F8
:2047C00003F1604303F564431201D2B21A7000BF1437BD465DF8047B704700BF0CED00E052
:2047E0000005FA0580B400AF044A13686FF38203136000BFBD465DF8047B704710E000E092
:2048000080B584B000AF78607B684FF4FA6202FB03F3FB600C4B00221A600C4AFB681360B9
:204820000B4A136843F00103136000BF084B1B68C3F30043DBB2002BF8D000F069F800BFE0
:204840001037BD4680BD00BF18E000E014E000E010E000E080B485B000AF786039600123E9
:20486000FB733B68002B02D10223FB7311E00023FB730B4A3B6813600A4A7B6813600A4AAB
:20488000136843F002031360074A136843F001031360FB7B18461437BD465DF8047B7047CF
:2048A0001C00002014E000E010E000E080B485B000AF786039600123FB733B68002B02D15C
:2048C0000223FB7315E00023FB730D4A3B6813600C4A7B68013B13600B4B00221A600B4A23
:2048E000136843F002031360084A136843F001031360FB7B18461437BD465DF8047B70476E
:204900001C00002014E000E018E000E010E000E080B400AF044A13686FF30003136000BF9C
:20492000BD465DF8047B704710E000E080B400AF044B1A68044B1B68D31A1846BD465DF8F0
:20494000047B704714E000E018E000E080B400AF034B1B681846BD465DF8047B704700BF16
:2049600018E000E080B500AF024B1B68984700BF80BD00BF1C00002080B483B000AF034676
:20498000FB71FB79072B23D801A252F823F000BFB1490008B5490008B9490008BD4900082B
:2049A000C1490008C5490008C9490008CD4900080B4B0EE00B4B0CE00B4B0AE00B4B08E093
:2049C0000B4B06E00B4B04E00B4B02E00B4B00E0002318460C37BD465DF8047B704700BFE2
:2049E000000002400004024000080240000C0240001002400014024000180240001C024037
:204A000090B585B000AF0446084611461A462346FB710346BB710B467B7113463B71FB791E
:204A20001846FFF7A9FFF860FB68002B01D1012365E0BB790F2B01D9022360E0FB681B68C6
:204A4000BA795200032101FA02F2D2431A40FB681A60FB681B687A7902F00301BA7952001E
:204A600001FA02F21A43FB681A607B79012B02D07B79022B12D1FB685B68BA79012101FAA1
:204A800002F2D2431A40FB685A60FB685B683979BA7901FA02F21A43FB685A60FB689B68BC
:204AA000BA795200032101FA02F2D2431A40FB689A60FB689B6897F8202002F00301BA7934
:204AC000520001FA02F21A43FB689A60FB68DB68BA795200032101FA02F2D2431A40FB68CB
:204AE000DA60FB68DB6897F8242002F00301BA79520001FA02F21A43FB68DA60002318461E
:204B00001437BD4690BD80B584B000AF0346FB710B46BB7113467B71FB791846FFF72CFF78
:204B2000F860FB68002B01D1012318E0BB790F2B01D9022313E07B79012B07D1BB790122F2
:204B400002FA03F31A46FB689A6107E0BB791033012202FA03F31A46FB689A6100231846F3
:204B60001037BD4680BD80B584B000AF03460A46FB711346BB71FB791846FFF7FDFEF860F1
:204B8000FB68002B01D101230EE0BB790F2B01D9022309E0FB685B69BA79012101FA02F2E2
:204BA0005A40FB685A61002318461037BD4680BD80B584B000AF03463A60FB710B46BB7151
:204BC000FB791846FFF7D8FEF860FB68002B01D1012310E0BB790F2B01D902230BE0FB68B0
:204BE0001A69BB7922FA03F3DBB203F00103DAB23B681A70002318461037BD4680BD0000A7
:204C000080B487B000AF0346FB710B46BB7113467B71FB79072B68D801A252F823F000BF5E
:204C2000414C0008474C00084D4C0008534C0008594C00085F4C0008654C00086B4C000824
:204C40002D4B7B6114E02D4B7B6111E02C4B7B610EE02C4B7B610BE02B4B7B6108E02B4B98
:204C60007B6105E02A4B7B6102E02A4B7B6100BF7B6920333B617B692433FB60BB79072B61
:204C800018D8BB799B00BB723B691B68BA7A0F2101FA02F2D2431A403B691A603B691B68FA
:204CA0007A7902F00F01BA7A01FA02F21A433B691A601BE0BB79083BDBB29B00FB72FB68F7
:204CC0001B68FA7A0F2101FA02F2D2431A40FB681A60FB681B687A7902F00F01FA7A01FA28
:204CE00002F21A43FB681A6000E000BF1C37BD465DF8047B704700BF0000024000040240BF
:204D000000080240000C0240001002400014024000180240001C024080B485B000AF03463A
:204D2000FB710023FB60FB79022B0CD0022B0DDC002B02D0012B03D008E0084BFB6006E07E
:204D4000074BFB6003E0074BFB6000E000BFFB6818461437BD465DF8047B7047001001408C
:204D6000004400400048004080B586B000AF03463960FB710023FB751DE03A681B4B83FBA9
:204D800002139910D317C91A0B469B000B445B00D11ACAB2FB7D591CF9753032D2B21833FF
:204DA0003B4403F80C2C3B68104A82FB03129210DB17D31A3B603B68002BDEDCFB7DBB7566
:204DC0000CE0BB7D013B07F10C02D118FB790122184600F0A7F8BB7D013BBB75BB7D002BF9
:204DE000EFD100BF00BF1837BD4680BD6766666680B586B000AF0346B9607A60FB73BB6866
:204E0000002B00F08B80FB7B1846FFF785FF78617B690C331B687A690C3223F400531360A1
:204E2000BB681B685A087B681A44BB681B68B2FBF3F33B617B6908331A463B691360BB689B
:204E4000DB79012B08D17B690C331B687A690C3243F48053136007E07B690C331B687A6945
:204E60000C3223F480531360BB685B79002B08D17B690C331B687A690C3223F48063136068
:204E80001CE07B690C331B687A690C3243F480631360BB685B79022B08D17B690C331B681F
:204EA0007A690C3243F40073136007E07B690C331B687A690C3223F4007313607B691033E2
:204EC0001B687A69103223F4405313607B6910331B68BA689279120311467A6910320B4357
:204EE00013607B690C331B68BA68127A11467A690C320B4313607B690C331B68BA6812795F
:204F000011467A690C320B4313607B690C331B687A690C3243F40053136000E000BF1837A6
:204F2000BD4680BD80B584B000AF03463960FB711346BB71FB791846FFF7EEFEB860002357
:204F4000FB7311E000BFBB681B68DB0903F00103002BF8D0FB7B3A6813441A78BB68043364
:204F60001A60FB7B0133FB73FA7BBB799A42E9D300BF00BF1037BD4680BD000080B582B0F2
:204F800000AF03463960FB713B68002B08DAFB7901220C491846FFF7C5FF3B685B423B6085
:204FA0003B68002B06D1FB79012207491846FFF7B9FF04E0FB7939681846FFF7D5FE0837FA
:204FC000BD4680BDE0600008E460000880B483B000AF78607B68002B02D0044A7B6813608B
:204FE00000BF0C37BD465DF8047B70472400002080B483B000AF78607B68002B02D0044AC1
:205000007B68136000BF0C37BD465DF8047B70472800002080B483B000AF78607B68002B66
:2050200002D0044A7B68136000BF0C37BD465DF8047B70472C00002080B586B000AF0120E3
:20504000FFF76AFE78617B691B683B613B6903F02003002B0BD07B6904331B68DAB2154BCC
:205060001A70154B1B68134A1278104698473B6903F00803002B07D07B691B68FB607B695D
:2050800004331B68FB60FB683B6903F00403002B03D07B691B68BB60BB683B6903F00203BB
:2050A000002B03D07B691B687B607B6800BF1837BD4680BD200000202800002080B586B08C
:2050C00000AF0220FFF728FE78617B691B683B613B6903F02003002B0BD07B6904331B68A9
:2050E000DAB2154B1A70154B1B68134A1278104698473B6903F00803002B07D07B691B6830
:20510000FB607B6904331B68FB60FB683B6903F00403002B03D07B691B68BB60BB683B69F3
:2051200003F00203002B03D07B691B687B607B6800BF1837BD4680BD200000202C0000207A
:2051400080B586B000AF0020FFF7E6FD78617B691B683B613B6903F02003002B0BD07B69BC
:2051600004331B68DAB2154B1A70154B1B68134A1278104698473B6903F00803002B07D05C
:205180007B691B68FB607B6904331B68FB60FB683B6903F00403002B03D07B691B68BB60D3
:2051A000BB683B6903F00203002B03D07B691B687B607B6800BF1837BD4680BD200000207F
:2051C0002400002080B400AF074B1B68002B05DA064B074A1A60054B064A1A6000BFBD46D1
:2051E0005DF8047B704700BF103C0240043C024023016745AB89EFCD80B400AF054B1B68DF
:20520000044A43F00043136000BFBD465DF8047B704700BF103C024080B400AF044B1B6808
:20522000DB0FDBB21846BD465DF8047B704700BF103C024080B400AF054B1B68044A43F087
:20524000F303136000BFBD465DF8047B704700BF0C3C024080B483B000AF114B7B6002E020
:205260007B68013B7B600F4B1B6803F48033002B02D07B68002BF3D17B68002B01D10223D9
:2052800008E0084B1B6803F0F203002B01D0012300E0002318460C37BD465DF8047B704716
:2052A000404B4C000C3C024080B483B000AF78607B68B3F1006F05D37B68064A934201D8F0
:2052C000012300E00023DBB218460C37BD465DF8047B7047FFFF070880B483B000AF7860F0
:2052E0007B68184A934201D2002324E07B68164A934201D201231EE07B68144A934201D2A4
:20530000022318E07B68124A934201D8032312E07B68104A934201D804230CE07B680E4A32
:20532000934201D8052306E07B680C4A934201D8062300E0072318460C37BD465DF8047B1F
:20534000704700BF004000080080000800C00008FFFF0008FFFF0108FFFF0308FFFF05081E
:2053600080B483B000AF78607B68072B23D801A252F823F0955300089B5300089F5300084F
:20538000A3530008A7530008AB530008AF530008B35300084FF000630EE00A4B0CE00A4BC9
:2053A0000AE00A4B08E00A4B06E00A4B04E00A4B02E00A4B00E0002318460C37BD465DF8CA
:2053C000047B7047004000080080000800C0000800000108000002080000040800000608D2
:2053E00080B483B000AF78607B68072B2AD801A252F823F0155400081B5400082154000843
:20540000275400082D54000833540008395400083F5400084FF4804315E04FF4804312E0CE
:205420004FF480430FE04FF480430CE04FF4803309E04FF4003306E04FF4003303E04FF4AE
:20544000003300E0002318460C37BD465DF8047B704700BF80B584B000AF78607B68072B23
:2054600001D9042334E0FFF7ADFEFFF7E3FEFFF7F1FE0346FB73FB7B002B03D0FFF7BCFEDF
:20548000FB7B25E0144B1B68134A23F078031360114B1A687B68DB000F4913430B600E4B43
:2054A0001B680D4A43F0020313600B4B1B680A4A43F480331360FFF7CDFE0346FB73064B14
:2054C0001B68054A23F002031360FFF795FEFB7B18461037BD4680BD103C024090B587B081
:2054E00000AF786039607A683B681344013B3B617B687B617868FFF7D7FE0346002B05D025
:205500003869FFF7D1FE0346002B19D104231CE07869FFF7E1FEF860F868FFF79BFF03465D
:20552000FB72FB7A002B01D0FB7A0EE0F868FFF717FF0446F868FFF753FF034623447B6140
:205540007A693B699A42E3D9002318461C37BD4690BD000080B582B000AFFFF733FEFFF7D5
:2055600069FEFFF777FE0346FB71FB79002B03D0FFF742FEFB7918E00E4B1B680D4A43F02A
:20558000040313600B4B1B680A4A43F480331360FFF760FE0346FB71064B1B68054A23F0C8
:2055A00004031360FFF728FEFB7918460837BD4680BD00BF103C024080B584B000AF7860C7
:2055C0000B46FB707868FFF76FFE0346002B01D104232EE0FFF7F6FDFFF72CFEFFF73AFE1A
:2055E0000346FB73FB7B002B03D0FFF705FEFB7B1FE0124B1B68114A23F4407313600F4B40
:205600000E4A1B6813600D4B1B680C4A43F0010313607B68FA781A70FFF71CFE0346FB73BB
:20562000064B1B68054A23F001031360FFF7E4FDFB7B18461037BD4680BD00BF103C02403E
:2056400080B584B000AF78600B467B807868FFF72BFE0346002B01D1042337E07B6803F0B5
:205660000103002B01D0032330E0FFF7ABFDFFF7E1FDFFF7EFFD0346FB73FB7B002B03D075
:20568000FFF7BAFDFB7B21E0124B1B68114A23F4407313600F4B1B680E4A43F4807313609C
:2056A0000C4B1B680B4A43F0010313607B687A881A80FFF7CFFD0346FB73064B1B68054AF6
:2056C00023F001031360FFF797FDFB7B18461037BD4680BD103C024080B584B000AF7860DD
:2056E00039607868FFF7E0FD0346002B01D1042337E07B6803F00303002B01D0032330E0CC
:20570000FFF760FDFFF796FDFFF7A4FD0346FB73FB7B002B03D0FFF76FFDFB7B21E0134BB4
:205720001B68124A23F440731360104B1B680F4A43F4007313600D4B1B680C4A43F0010391
:2057400013607B683A681A60FFF784FD0346FB73064B1B68054A23F001031360FFF74CFDBD
:20576000FB7B18461037BD4680BD00BF103C024080B586B000AFF860B9607A6000237B611D
:20578000F868FFF791FD0346002B09D0FA687B681344013B1846FFF787FD0346002B01D1E2
:2057A000042321E07968F86800F0ABF80346002B15D1062318E0FA687B69D018BA687B693E
:2057C00013441B781946FFF7F7FE0346FB74FB7C002B01D0FB7C07E07B6901337B617A6935
:2057E0007B689A42E7D3002318461837BD4680BD80B588B000AFF860B9607A600023FB613A
:20580000F868FFF751FD0346002B09D0FA687B681344013B1846FFF747FD0346002B01D1E1
:20582000042344E0FB6803F00303002B01D003233DE07968F86800F064F80346002B17D199
:20584000062334E0BA68FB6913441B687B61FA68FB69134479691846FFF73EFF0346FB7685
:20586000FB7E002B01D0FB7E21E0FB690433FB61FB6904337A689A42E4D213E0FA68FB697A
:20588000D018BA68FB6913441B781946FFF794FE0346FB76FB7E002B01D0FB7E07E0FB69D6
:2058A0000133FB61FA697B689A42E7D3002318462037BD4680BD80B487B000AFF860B960D9
:2058C0007A60FB683B6100237B610FE03A697B6913441A78B9687B690B441B789A4202D0FC
:2058E0004FF0FF3307E07B6901337B617A697B689A42EBD3002318461C37BD465DF8047B51
:20590000704780B485B000AF786039607B68BB600023FB600AE0BA68FB6813441B78FF2B48
:2059200001D0002307E0FB680133FB60FA683B689A42F0D3012318461437BD465DF8047B52
:20594000704780B586B000AFF860B9607A60FB683B61F868FFF7A8FC0346002B09D0FA6883
:205960007B681344013B1846FFF79EFC0346002B01D1042312E000237B610AE03A697B69F4
:205980001A44B9687B690B4412781A707B6901337B617A697B689A42F0D300231846183718
:2059A000BD4680BD80B400AF72B600BFBD465DF8047B704780B400AF62B600BFBD465DF83D
:2059C000047B704780B584B000AF78603960FFF7E9FF39687868FFF77FFE0346FB73FFF789
:2059E000E9FFFB7B18461037BD4680BD80B485B000AF0023FB6020E0FB68BB600023FB71C1
:205A000010E0BB6803F00103002B05D0BB685A08104B5340BB6002E0BB685B08BB60FB79F7
:205A20000133FB71FB79072BEBD90B49FB68BA6841F82320FB680133FB60FB68FF2BDBD9D4
:205A4000064B01221A7000BF1437BD465DF8047B704700BF2083B8ED4000002040040020E5
:205A600080B485B000AF786039604FF0FF33FB600023BB6011E0FB681A0A7968BB680B44C8
:205A80001B781946FB684B40DBB20A4951F823305340FB60BB680133BB60BA683B689A42A9
:205AA000E9D3FB68DB4318461437BD465DF8047B704700BF4000002080B483B000AF0346F4
:205AC000FB71144B1B78002B09D1FB79552B1BD1104B01221A70104B00221A7014E00F4B26
:205AE00001221A700E4B00221A600E4B1B6849F6C372934209D80B4B1B685A1C09490A60F3
:205B00000949FA79CA5400E000BF0C37BD465DF8047B70470DA400200EA40020300000203F
:205B200020A4002008A400204404002080B586B000AFA24B1B68042B13D1A14BDB78DBB2E4
:205B40001A069F4B9B78DBB21B041A439C4B5B78DBB21B0213439A4A1278D2B21343994A3A
:205B60001360964B1B68082B13D1954BDB79DBB21A06934B9B79DBB21B041A43904B5B79AC
:205B8000DBB21B0213438E4A1279D2B213438E4A13608A4B1B680C2B13D1894BDB7ADBB254
:205BA0001A06874B9B7ADBB21B041A43844B5B7ADBB21B021343824A127AD2B21343834A32
:205BC0001360824B1B6803F10C027C4B1B689A4269D17F4B1B78002B65D17E4A7B4B1B68D1
:205BE00019461046FFF73CFF7861774B1B687A699A420ED1092278490120FFF793F9022052
:205C0000FFF728FC0320FFF725FC714B01221A7049E0724B1B780133DAB2704B1A70152212
:205C20006F490120FFF77EF96C4B1B7819460120FFF7A4F903226B490120FFF773F9674BB3
:205C40001B78022B14D9FB23FB7207F10B03012219460020FFF766F91E2263490120FFF70C
:205C600061F95E4B00221A70604B00221A7008E0FA23BB7207F10A03012219460020FFF74F
:205C800051F9524B00221A604C4B00221A604E4B00221A604E4B00221A70554B00221A7088
:205CA000544B554A1A604A4B1B78012B10D1504B1B78002B0CD172B64E4B1B684549434A62
:205CC00012681846FFF794FD62B6494B01221A70474B1B78012B40F0C180484B1B78012BF8
:205CE00040F0BC80444B1B683B61454B1B68FB603B69B3F1005F35D33B69424A934231D85F
:205D0000FB683D4A93422DD3FB683F4A934229D8AC237B7207F10903012219460020FFF7AA
:205D200001F9122239490120FFF7FCF82B4B00221A70304B304A1A602C4B00221A70224B87
:205D400000221A60224B00221A70294B00221A701A4B00221A601D4B00221A602C4B2D4A7B
:205D60001A6078E01D4B1B780133DAB21B4B1A701E2229490120FFF7D5F8184B1B781946BB
:205D80000120FFF7FBF8032216490120FFF7CAF8124B1B78022B41D9FB233B7207F1080397
:205DA000012219460020FFF7BDF81E220E490120FFF7B8F8094B00221A7037E008A4002055
:205DC00044040020380000203C000020340000200CA4002050040020E86000080EA40020ED
:205DE000F46000080C610008106100080DA40020310000200000002000800008300000203F
:205E0000048000080000022000000808346100080CED00E00400FA0548610008FA23FB7111
:205E2000FB1D012219460020FFF77CF8124B00221A60124B00221A70114B00221A70114BD8
:205E400000221A70104B00221A60104B00221A600F4B104A1A60104B00221A700F4B1B6896
:205E600044F62062934202D90D4B0E4A1A6000BF1837BD4680BD00BF3C0000200DA4002052
:205E80000CA400203100002008A400203400002000000020008000083000002020A40020E5
:205EA0000CED00E00400FA0580B586B000AF00237B6000237B6100233B611B4A1B4BD31A78
:205EC0009B107B601A4B7B61184B3B610023FB600AE07A69131D7B613B69191D39611268B7
:205EE0001A60FB680133FB60FA687B689A42F0D3104A114BD31A9B107B600F4B3B61002310
:205F0000BB6007E03B691A1D3A6100221A60BB680133BB60BA687B689A42F3D300F0B8F8B4
:205F200000F032F8FEE700BF1C00002000000020B062000824A400201C00002080B400AF26
:205F4000FEE7000080B500AF0C4B1B6801330B4A13600A4B1A680A4BA3FB02139B094FF4DC
:205F60007A7101FB03F3D31A002B04D1012205490120FEF7D7FF00BF80BD00BF20A400205B
:205F8000D34D62106861000880B500AF00F03EF800F028F80E220F490120FEF7C3FF4322BF
:205FA0000D490120FEF7BEFF10220C490120FEF7B9FFFEF717FC2620FEF702FB08494FF48F
:205FC000FA60FEF773FCFFF711FD00F07FF8FFF7ADFDFCE76C6100087C610008C061000832
:205FE000455F000880B500AF054A06490120FEF7FFFE034A04490020FEF7FAFE00BF80BDBD
:206000000024F400100000200400002080B582B002AF002301930323009300230222022122
:206020000020FEF7EDFC072202210020FEF7E8FD0023019303230093002302220321002021
:20604000FEF7DEFC072203210020FEF7D9FD00230193032300930023022209210020FEF743
:20606000CFFC0023019303230093002302220A210020FEF7C5FC072209210020FEF7C0FD78
:2060800007220A210020FEF7BBFD00BFBD4680BD80B500AF0B48FEF785F90B4B1B680A4A09
:2060A00043F08073136000210020FEF7C3F904210420FEF7BFF911210320FEF7BBF900BFA2
:2060C00080BD00BF14A400207438024080B500AF0248FEF78DFF00BF80BD00BFB95A000879
:2060E0002D000000300000000A435243204F4B210A0000000A435243204641494C454421B4
:2061000020417474656D7074200000002F330A00464154414C3A206D6178207265747269A6
:20612000657320E280942061626F7274696E670A000000000A566572696669636174696F72
:206140006E204F4B210A00000A566572696669636174696F6E204641494C45442120417444
:2061600074656D70742000002E0000000A42544C442053657373696F6E0A000042544C4443
:206180002077696C6C206A756D7020746F206170706C69636174696F6E20696E20323020FB
:2061A0007365636F6E6473206966206E6F20646174612069732072656365697665640A00DD
:2061C00057616974696E6720666F72206461746100000000000000000000000000000000CB
:2061E00000000000000000000000000000000000000000000000000000000000000000009F
:206200000000000000010203040506070809000000000000000A0B0C0D0E0F000000000006
:206220000000000000000000000000000000000000000000000A0B0C0D0E0F000000000013
:2062400000000220000000000000000000000000000000000000000000000000000000001C
:206260000000000000000000000000000000000000000000000102030405060708090000F1
:2062800000000000000A0B0C0D0E0F000000000000000000000000000000000000000000B3
:2062A00000000000000A0B0C0D0E0F00000000000080000800C201000C000000200000001C
:0C62C00000C201000C00000020000000E3
:2080000000000220D1D4000865D50008A9D40008BDD4000865D5000865D5000800000000AD
:2080200000000000000000000000000081D4000865D500080000000051D40008658900087E
:2080400065D5000865D5000865D5000865D5000865D5000865D5000865D5000865D5000810
:2080600065D5000865D5000865D5000865D5000865D5000865D5000865D5000865D50008F0
:2080800065D5000865D5000865D5000865D5000865D5000865D5000865D5000865D50008D0
:2080A00065D5000865D5000865D5000865D50008EDC5000829C6000865C6000899B900087A
:2080C000A7B90008B5B90008C3B9000865D5000865D50008E1930008D99200085D930008D3
:2080E00065D5000865D5000865D5000865D5000865D5000865D5000865D5000865D5000870
:2081000065D5000865D50008A1C6000865D5000865D5000865D5000849AE000885AE00086C
:2081200065D5000865D5000865D5000865D5000865D5000865D5000865D5000865D500082F
:2081400065D5000865D5000865D5000865D5000865D5000865D50008D1B90008DFB9000861
:2081600065D5000865D5000865D5000865D5000865D5000865D5000880B400AF094B1B68B9
:20818000084A43F00103136000BF064B1B685B0803F00103002BF8D000BF00BFBD465DF82D
:2081A000047B70470038024080B400AF094B1B68084A43F48033136000BF064B1B685B0CAC
:2081C00003F00103002BF8D000BF00BFBD465DF8047B70470038024080B400AF094B1B6875
:2081E000084A43F08073136000BF064B1B685B0E03F00103002BF8D000BF00BFBD465DF8D8
:20820000047B70470038024080B400AF094B1B68084A23F08073136000BF064B1B685B0E2D
:2082200003F00103002BF8D100BF00BFBD465DF8047B70470038024080B483B000AF03466E
:20824000FB710F4B1B680E4A23F0030313600C4B1A68FB7903F00303094913430B6000BFD9
:20826000074B1B689B0803F00302FB799A42F7D100BF00BF0C37BD465DF8047B704700BF68
:208280000838024080B584B000AF7860FFF7BCFF0023FB607B685B7803F03F03FA6813439A
:2082A000FB607B685B889B011A4647F6C0731340FA681343FB607B681B795B08DBB2013B28
:2082C0001B0403F44033FA681343FB607B681B789B051A46FB681343FB607B685B791B06A0
:2082E00003F07063FA681343FB60034AFB68136000BF1037BD4680BD0438024080B483B057
:2083000000AF0346FB710A4B1B68094A23F0F0031360074B1B68FA7912011146044A0B4307
:20832000136000BF0C37BD465DF8047B704700BF0838024080B483B000AF0346FB710A4BD9
:208340001B68094A23F4E0531360074B1B68FA7992021146044A0B43136000BF0C37BD4643
:208360005DF8047B704700BF0838024080B483B000AF0346FB710A4B1B68094A23F4604381
:208380001360074B1B68FA7952031146044A0B43136000BF0C37BD465DF8047B704700BF18
:2083A0000838024080B582B000AF78607B68002B39D07B681B78022B12D0022B35DC002B48
:2083C00002D0012B06D030E0FFF7D6FE0020FFF733FF2BE0FFF7E8FE0120FFF72DFF25E078
:2083E0007B689B78012B02D1FFF7DEFE01E0FFF7C3FE7B6802331846FFF744FFFFF7ECFE8F
:208400007B681B7A1846FFF779FF7B685B7A1846FFF790FF7B689B7A1846FFF7A7FF022069
:20842000FFF70AFF02E000BF00E000BF0837BD4680BD000080B483B000AF03460A46FB7163
:208440001346BB71FB79042B43D801A252F823F0658400087B84000891840008A784000891
:20846000BD8400081E4B1B68BA79012101FA02F211461B4A0B4313602CE01A4B1B68BA79DF
:20848000012101FA02F21146164A0B43136021E0154B1B68BA79012101FA02F21146124A78
:2084A0000B43136016E0114B1B68BA79012101FA02F211460D4A0B4313600BE00C4B1B68AE
:2084C000BA79012101FA02F21146094A0B43136000E000BF00BF0C37BD465DF8047B7047BE
:2084E000303802403438024038380240403802404438024080B483B000AF03460A46FB71DF
:208500001346BB71FB79042B48D801A252F823F0258500083D850008558500086D850008BB
:2085200085850008214B1B68BA79012101FA02F2D24311461D4A0B40136030E01C4B1B686B
:20854000BA79012101FA02F2D2431146184A0B40136024E0174B1B68BA79012101FA02F21E
:20856000D2431146134A0B40136018E0124B1B68BA79012101FA02F2D24311460E4A0B4049
:2085800013600CE00D4B1B68BA79012101FA02F2D2431146094A0B40136000E000BF00BF82
:2085A0000C37BD465DF8047B704700BF3038024034380240383802404038024044380240A9
:2085C00080B485B000AF0346FB710023FB73FB791F2B05D8FB7901229A400C4B1A600DE073
:2085E000FB793B2B08D8FB79203BFB71FB7901229A40074B1A6001E00123FB73FB7B184602
:208600001437BD465DF8047B704700BF00E100E004E100E080B485B000AF0346FB7100234C
:20862000FB73FB791F2B05D8FB7901229A400C4B1A600DE0FB793B2B08D8FB79203BFB710D
:20864000FB7901229A40074B1A6001E00123FB73FB7B18461437BD465DF8047B704700BFFE
:2086600080E100E084E100E080B485B000AF0346FB710023FB73FB791F2B05D8FB790122E4
:208680009A400C4B1A600DE0FB793B2B08D8FB79203BFB71FB7901229A40074B1A6001E02F
:2086A0000123FB73FB7B18461437BD465DF8047B704700BF00E200E004E200E080B485B0CB
:2086C00000AF0346FB710023FB73FB791F2B05D8FB7901229A400C4B1A600DE0FB793B2B01
:2086E00008D8FB79203BFB71FB7901229A40074B1A6001E00123FB73FB7B18461437BD468D
:208700005DF8047B704700BF80E200E084E200E080B485B000AF03463960FB710023FB7390
:20872000FB791F2B0BD8134B1A68FB7922FA03F3DBB203F00103DAB23B681A7013E0FB798E
:208740003B2B0ED8FB79203BFB710B4B1A68FB7922FA03F3DBB203F00103DAB23B681A70F7
:2087600001E00123FB73FB7B18461437BD465DF8047B704700E300E004E300E080B485B0E6
:2087800000AF0346FB710B46BB7113467B71134B134A1A600223FB7397F90730002B16DB08
:2087A00097F90730002B12DBBA79FB7B02FA03F35AB297F9053013435BB2DAB297F90730B8
:2087C00003F1604303F564431201D2B21A7000BF1437BD465DF8047B704700BF0CED00E012
:2087E0000005FA0580B400AF044A13686FF38203136000BFBD465DF8047B704710E000E052
:2088000080B584B000AF78607B684FF4FA6202FB03F3FB600C4B00221A600C4AFB68136079
:208820000B4A136843F00103136000BF084B1B68C3F30043DBB2002BF8D000F069F800BFA0
:208840001037BD4680BD00BF18E000E014E000E010E000E080B485B000AF786039600123A9
:20886000FB733B68002B02D10223FB7311E00023FB730B4A3B6813600A4A7B6813600A4A6B
:20888000136843F002031360074A136843F001031360FB7B18461437BD465DF8047B70478F
:2088A0006000002014E000E010E000E080B485B000AF786039600123FB733B68002B02D1D8
:2088C0000223FB7315E00023FB730D4A3B6813600C4A7B68013B13600B4B00221A600B4AE3
:2088E000136843F002031360084A136843F001031360FB7B18461437BD465DF8047B70472E
:208900006000002014E000E018E000E010E000E080B400AF044A13686FF30003136000BF18
:20892000BD465DF8047B704710E000E080B400AF044B1A68044B1B68D31A1846BD465DF8B0
:20894000047B704714E000E018E000E080B400AF034B1B681846BD465DF8047B704700BFD6
:2089600018E000E080B500AF024B1B68984700BF80BD00BF6000002080B483B000AF0346F2
:20898000FB71FB79072B23D801A252F823F000BFB1890008B5890008B9890008BD890008EB
:2089A000C1890008C5890008C9890008CD8900080B4B0EE00B4B0CE00B4B0AE00B4B08E053
:2089C0000B4B06E00B4B04E00B4B02E00B4B00E0002318460C37BD465DF8047B704700BFA2
:2089E000000002400004024000080240000C0240001002400014024000180240001C0240F7
:208A000090B585B000AF0446084611461A462346FB710346BB710B467B7113463B71FB79DE
:208A20001846FFF7A9FFF860FB68002B01D1012365E0BB790F2B01D9022360E0FB681B6886
:208A4000BA795200032101FA02F2D2431A40FB681A60FB681B687A7902F00301BA795200DE
:208A600001FA02F21A43FB681A607B79012B02D07B79022B12D1FB685B68BA79012101FA61
:208A800002F2D2431A40FB685A60FB685B683979BA7901FA02F21A43FB685A60FB689B687C
:208AA000BA795200032101FA02F2D2431A40FB689A60FB689B6897F8202002F00301BA79F4
:208AC000520001FA02F21A43FB689A60FB68DB68BA795200032101FA02F2D2431A40FB688B
:208AE000DA60FB68DB6897F8242002F00301BA79520001FA02F21A43FB68DA6000231846DE
:208B00001437BD4690BD80B584B000AF0346FB710B46BB7113467B71FB791846FFF72CFF38
:208B2000F860FB68002B01D1012318E0BB790F2B01D9022313E07B79012B07D1BB790122B2
:208B400002FA03F31A46FB689A6107E0BB791033012202FA03F31A46FB689A6100231846B3
:208B60001037BD4680BD80B584B000AF03460A46FB711346BB71FB791846FFF7FDFEF860B1
:208B8000FB68002B01D101230EE0BB790F2B01D9022309E0FB685B69BA79012101FA02F2A2
:208BA0005A40FB685A61002318461037BD4680BD80B584B000AF03463A60FB710B46BB7111
:208BC000FB791846FFF7D8FEF860FB68002B01D1012310E0BB790F2B01D902230BE0FB6870
:208BE0001A69BB7922FA03F3DBB203F00103DAB23B681A70002318461037BD4680BD000067
:208C000080B487B000AF0346FB710B46BB7113467B71FB79072B68D801A252F823F000BF1E
:208C2000418C0008478C00084D8C0008538C0008598C00085F8C0008658C00086B8C0008E4
:208C40002D4B7B6114E02D4B7B6111E02C4B7B610EE02C4B7B610BE02B4B7B6108E02B4B58
:208C60007B6105E02A4B7B6102E02A4B7B6100BF7B6920333B617B692433FB60BB79072B21
:208C800018D8BB799B00BB723B691B68BA7A0F2101FA02F2D2431A403B691A603B691B68BA
:208CA0007A7902F00F01BA7A01FA02F21A433B691A601BE0BB79083BDBB29B00FB72FB68B7
:208CC0001B68FA7A0F2101FA02F2D2431A40FB681A60FB681B687A7902F00F01FA7A01FAE8
:208CE00002F21A43FB681A6000E000BF1C37BD465DF8047B704700BF00000240000402407F
:208D000000080240000C0240001002400014024000180240001C024080B485B000AF0346FA
:208D20000A46FB711346BB71FB79092B19D81F4B1968FA7913465B001344072202FA03F3D5
:208D4000DB431A4A0B401360184B1968B879FA7913465B00134400FA03F3144A0B43136031
:208D60001EE0FB79122B1BD8FB791A4652001344DBB21E3BFB730E4B1B68FA7B072101FA0C
:208D800002F2D24311460A4A0B401360084B1B68B979FA7B01FA02F21146054A0B4313608E
:208DA00000BF1437BD465DF8047B7047102001400C20014080B582B000AF344B1B68334AA8
:208DC00023F440331360314B1B68304A43F4803313602F4B1B682E4A23F0010313602D4B49
:208DE0001B682C4A23F0407313602A4B294A1B681360274B1B68264A23F002031360244B04
:208E00001B68234A43F480631360214B1B68204A23F4006313601D4B1B681C4A23F48003A4
:208E200013601A4B1B68194A43F400031360194B1B68184A23F480731360174B1B68164ABC
:208E400023F4700313600023FB7107E0FB7907211846FFF761FFFB790133FB71FB79122B8A
:208E6000F4D90B4B1B680A4A43F00103136000233B6002E03B6801333B603B68074A934273
:208E8000F8D900BF00BF0837BD4680BD0423014008200140042001402C2001409F8601001B
:208EA00080B483B000AF0346FB71154B1B68144A23F022031360FB79124A03F01F031360A3
:208EC000114B1B68104A23F4700313600F4B1B680E4A43F08043136000BF094B1B6803F035
:208EE0000203002BF9D00A4B1B689BB2C3F30B039BB218460C37BD465DF8047B704700BF55
:208F000000200140342001402C200140082001404C20014080B586B000AF0346FB710023C6
:208F20007B610023FB7415E0FB791846FFF7B8FF03461A467B6913447B610023FB6002E02F
:208F4000FB680133FB60FB68B3F5FA7FF8D3FB7C0133FB74FB7C3F2BE6D97B699B099BB241
:208F600018461837BD4680BD80B584B000AF0346FB71FB791846FFF7CDFF0346FB81FB895A
:208F800040F6E44202FB03F31B0B18461037BD4680BD80B582B000AF03460A46FB71134603
:208FA000BB71BA79FB7911461846FFF7B5FE00BF0837BD4680BD000080B485B000AF0346E1
:208FC000FB710023FB60FB79022B0CD0022B0DDC002B02D0012B03D008E0084BFB6006E09C
:208FE000074BFB6003E0074BFB6000E000BFFB6818461437BD465DF8047B704700100140AA
:20900000004400400048004080B586B000AF03463960FB710023FB751DE03A681B4B83FBC6
:2090200002139910D317C91A0B469B000B445B00D11ACAB2FB7D591CF9753032D2B218331C
:209040003B4403F80C2C3B68104A82FB03129210DB17D31A3B603B68002BDEDCFB7DBB7583
:209060000CE0BB7D013B07F10C02D118FB790122184600F0A7F8BB7D013BBB75BB7D002B16
:20908000EFD100BF00BF1837BD4680BD6766666680B586B000AF0346B9607A60FB73BB6883
:2090A000002B00F08B80FB7B1846FFF785FF78617B690C331B687A690C3223F400531360BF
:2090C000BB681B685A087B681A44BB681B68B2FBF3F33B617B6908331A463B691360BB68B9
:2090E000DB79012B08D17B690C331B687A690C3243F48053136007E07B690C331B687A6963
:209100000C3223F480531360BB685B79002B08D17B690C331B687A690C3223F48063136085
:209120001CE07B690C331B687A690C3243F480631360BB685B79022B08D17B690C331B683C
:209140007A690C3243F40073136007E07B690C331B687A690C3223F4007313607B691033FF
:209160001B687A69103223F4405313607B6910331B68BA689279120311467A6910320B4374
:2091800013607B690C331B68BA68127A11467A690C320B4313607B690C331B68BA6812797C
:2091A00011467A690C320B4313607B690C331B687A690C3243F40053136000E000BF1837C4
:2091C000BD4680BD80B584B000AF03463960FB711346BB71FB791846FFF7EEFEB860002375
:2091E000FB7311E000BFBB681B68DB0903F00103002BF8D0FB7B3A6813441A78BB68043382
:209200001A60FB7B0133FB73FA7BBB799A42E9D300BF00BF1037BD4680BD000080B582B00F
:2092200000AF03463960FB713B68002B08DAFB7901220C491846FFF7C5FF3B685B423B60A2
:209240003B68002B06D1FB79012207491846FFF7B9FF04E0FB7939681846FFF7D5FE083717
:20926000BD4680BD68E000086CE0000880B483B000AF78607B68002B02D0044A7B68136098
:2092800000BF0C37BD465DF8047B70476800002080B483B000AF78607B68002B02D0044A9A
:2092A0007B68136000BF0C37BD465DF8047B70476C00002080B483B000AF78607B68002B40
:2092C00002D0044A7B68136000BF0C37BD465DF8047B70477000002080B586B000AF0120BD
:2092E000FFF76AFE78617B691B683B613B6903F02003002B0BD07B6904331B68DAB2154BEA
:209300001A70154B1B68134A1278104698473B6903F00803002B07D07B691B68FB607B697A
:2093200004331B68FB60FB683B6903F00403002B03D07B691B68BB60BB683B6903F00203D8
:20934000002B03D07B691B687B607B6800BF1837BD4680BD640000206C00002080B586B021
:2093600000AF0220FFF728FE78617B691B683B613B6903F02003002B0BD07B6904331B68C6
:20938000DAB2154B1A70154B1B68134A1278104698473B6903F00803002B07D07B691B684D
:2093A000FB607B6904331B68FB60FB683B6903F00403002B03D07B691B68BB60BB683B6911
:2093C00003F00203002B03D07B691B687B607B6800BF1837BD4680BD640000207000002010
:2093E00080B586B000AF0020FFF7E6FD78617B691B683B613B6903F02003002B0BD07B69DA
:2094000004331B68DAB2154B1A70154B1B68134A1278104698473B6903F00803002B07D079
:209420007B691B68FB607B6904331B68FB60FB683B6903F00403002B03D07B691B68BB60F0
:20944000BB683B6903F00203002B03D07B691B687B607B6800BF1837BD4680BD6400002058
:209460006800002080B400AFBFF34F8F30BF00BFBD465DF8047B704780B400AFBFF34F8F42
:2094800020BF00BFBD465DF8047B704780B582B000AF0346FB71094B1B68084A23F0040392
:2094A0001360FB79002B02D1FFF7DCFF01E0FFF7E3FF00BF0837BD4680BD00BF10ED00E063
:2094C00080B400AF054B1B68044A43F00203136000BFBD465DF8047B704700BF10ED00E0F4
:2094E00080B400AF054B1B68044A23F00203136000BFBD465DF8047B704700BF10ED00E0F4
:2095000080B582B000AF0346FB710B46BB7113467B711F4B1B681E4A23F002031360FB796A
:20952000012B06D11A4B1B68194A43F00103136005E0174B1B68164A23F001031360BB794B
:20954000002B06D0124B1B68114A43F40073136005E00F4B1B680E4A23F4007313600D4B43
:209560001B680C4A43F0040313607B79002B02D1FFF778FF01E0FFF77FFF064B1B68054A8E
:2095800023F00403136000BF0837BD4680BD00BF0070004010ED00E080B500AF0A4B1B68F8
:2095A000094A43F002031360074B1B68064A43F00C031360054B1B68044A43F00403136005
:2095C000FFF750FFFEE700BF0070004010ED00E080B483B000AF0346FB71FB79012B06D1D3
:2095E0000A4B1B68094A43F48073136008E0FB79022B05D1054B1B68044A43F40073136006
:2096000000BF0C37BD465DF8047B70470470004080B483B000AF0346FB71FB79012B06D1C4
:209620000A4B1B68094A23F48073136008E0FB79022B05D1054B1B68044A23F40073136005
:2096400000BF0C37BD465DF8047B70470470004080B400AF064B1B6803F00203002B01D01B
:20966000012300E000231846BD465DF8047B70470470004080B400AF054B1B68DBB203F0ED
:209680000103DBB21846BD465DF8047B704700BF0470004080B400AF054B1B68044A43F0A3
:2096A0000C03136000BFBD465DF8047B704700BF0070004080B485B000AF0346FB710C4B48
:2096C0001B68FB60FB6823F0E003FB60FB795B01FA681343FB60FB6843F01003FB60044AC3
:2096E000FB68136000BF1437BD465DF8047B70470070004080B400AF054B1B68044A23F035
:209700001003136000BFBD465DF8047B704700BF0070004080B400AF064B1B6803F0040356
:20972000002B01D0012300E000231846BD465DF8047B70470470004080B485B000AF034605
:209740000A46FB711346BB71FB79012B01D1094B00E0094BFB60BA7913465B001344DB005A
:209760001033FA68134418461437BD465DF8047B704700BF006002400064024080B485B046
:2097800000AF78607B6803F00303FB60FA6813465B0013445B0018461437BD465DF8047BC3
:2097A0007047000080B586B000AF03460A46FB711346BB71FB79012B01D10F4B00E00F4B48
:2097C0003B61BB79FB60FB68032B03D83B691B687B6102E03B695B687B61F868FFF7CEFFA7
:2097E000B8607A69BB6822FA03F303F03F0318461837BD4680BD00BF006002400064024010
:2098000080B586B000AF03463A60FB710B46BB71FB79012B01D10F4B00E00F4B7B61BB794C
:209820003B613869FFF7AAFFF8603B6803F03F02FB6802FA03F3BB603B69032B03D87B691C
:20984000BA689A6002E07B69BA68DA6000BF1837BD4680BD006002400064024080B483B0CD
:2098600000AF00237B601CE000233B6013E012497B68DA003B681344002241F833200E4977
:209880007B68DA003B681344DB000B4400225A603B6801333B603B68072BE8DD7B680133E8
:2098A0007B607B68012BDFDD00BF00BF0C37BD465DF8047B704700BF7400002080B584B0F7
:2098C00000AF78607B68002B02D14FF0FF3392E07B681A787B685B7819461046FFF72CFF3C
:2098E000B860BB681B6803F00103002B02D06FF0010380E0BB6800221A60BB6821225A6113
:209900007B6893F82730002B0CD0BB685B6943F00402BB685A61BB685B6943F00102BB683D
:209920005A6105E0BB685B6923F00402BB685A617B68DA68BB689A607B681A69BB68DA60A4
:209940007B685A69BB685A600023FB607B685B685B0603F06063FA681343FB607B681B7ABE
:20996000022B0AD0022B0EDC002B0BD0012B0AD1FB6843F04003FB6005E0FB6843F080038A
:20998000FB6000E000BF7B6893F82530002B03D0FB6843F48063FB607B6893F82430002B47
:2099A00003D0FB6843F40073FB607B68DB6903F4C043FA681343FB607B689B6903F4C05347
:2099C000FA681343FB607B681B6A03F44033FA681343FB607B6893F82630002B03D0FB686A
:2099E00043F48073FB60FB6843F01403FB60BB68FA681A60002318461037BD4680BD80B59E
:209A000084B000AF78607B68002B02D14FF0FF332CE07B681A787B685B7819461046FFF757
:209A20008BFEF860FB681B6803F00103002B02D06FF001031AE07B68DA68FB689A607B68A9
:209A40001A69FB68DA607B685A69FB685A607B6818787B685B783F221946FFF7D1FEFB6812
:209A60001B6843F00102FB681A60002318461037BD4680BD80B584B000AF03460A46FB712B
:209A80001346BB71BA79FB7911461846FFF754FEF860FB681B6823F00102FB681A6000E08C
:209AA00000BFFB681B6803F00103002BF8D1B979FB793F221846FFF7A3FE00BF1037BD4611
:209AC00080BD000080B485B000AFBA607B600346FB730B46BB73BB68002B1DD0FB7B012B29
:209AE00014BF01230023DBB21A46BB7B0D49D2001344BA6841F83320FB7B012B14BF012363
:209B00000023DBB21A46BB7B0649D2001344DB000B447A685A6000E000BF1437BD465DF87F
:209B2000047B70477400002080B588B000AF03460A46FB711346BB71BA79FB791146184659
:209B4000FFF730FEF8610223BB6108237B61FA69BB691340002B1DD0B979FB793E221846EA
:209B6000FFF74EFEFB79012B14BF01230023DBB21A46BB79D2001344DB001A4A13443B616D
:209B80003B691B68002B05D03B691B683A69526810469847FA697B691340002B1DD0B97901
:209BA000FB793E221846FFF72BFEFB79012B14BF01230023DBB21A46BB79D2001344DB0075
:209BC000084A1344FB60FB681B68002B05D0FB681B68FA6852681046984700BF2037BD464B
:209BE00080BD00BF7400002080B483B000AF03460A46FB711346BB80144B45F255521A606F
:209C000000BF134B1B6803F00103002BF9D1FB79104A03F00703136000BF0D4B1B6803F0ED
:209C20000203002BF9D1BB880B4AC3F30B031360064B4AF6AA221A60044B4CF6CC421A606B
:209C400000BF0C37BD465DF8047B7047003000400C300040043000400830004080B400AFB9
:209C6000044B4AF6AA221A6000BFBD465DF8047B704700BF0030004080B487B000AFF86021
:209C80000B467A60FB72FB7A062B02D87B68002B02D140F6FF731FE0FB7A124A32F81330E6
:209CA0003B617A683B69B2FBF3F3FA6802FB03F30D4AA2FB03239B097B617B69002B02D01F
:209CC0007B69013B7B617B69B3F5805F02D340F6FF737B617B699BB218461C37BD465DF88A
:209CE000047B704748E20008D34D621080B485B000AF78607B68002B23D00023FB607B6818
:209D00001B78DB0103F4C073FA681343FB607B685B7803F07F03FA681343FB607B68DB7823
:209D2000002B03D0FB6843F40073FB60084AFB6813607B689B7863F07F03DAB2054B1A6074
:209D400000E000BF1437BD465DF8047B704700BF042C0040002C004080B483B000AF034691
:209D6000FB71FB7963F07F03DAB2044B1A6000BF0C37BD465DF8047B704700BF002C00401E
:209D800080B400AF054B1B68044A23F00103136000BFBD465DF8047B704700BF082C0040B5
:209DA00080B400AF054B1B68DBB203F00103DBB21846BD465DF8047B704700BF082C0040BD
:209DC00080B489B000AFF8600B467A60FB727B68002B01D17F2323E0FB7A012202FA03F368
:209DE000BB61BB69114A03FB02F27B68B2FBF3F37B617B69002B01D17F2311E0FB684FF46A
:209E00007A7203FB02F27B69B2FBF3F3FB61FB693F2B01D93F23FB61FB69DBB24033DBB23A
:209E200018462437BD465DF8047B7047000024F480B483B000AF0346FB71FB790C4AA2FB91
:209E40000323DB08DBB21B01D8B2FA79084BA3FB0213D9080B469B000B445B00D31ADBB25C
:209E60000343DBB218460C37BD465DF8047B7047CDCCCCCC80B483B000AF0346FB71FB7970
:209E80001B09DBB21A46920013445B00DAB2FB7903F00F03DBB21344DBB218460C37BD4653
:209EA0005DF8047B7047000080B400AF054BCA221A60044B53221A6000BFBD465DF8047BAA
:209EC000704700BF2428004080B400AF034BFF221A6000BFBD465DF8047B704724280040DB
:209EE00080B483B000AF0F4B7B600F4B1B680E4A43F08003136007E07B68013B7B607B68F5
:209F0000002B01D1022306E0074B1B6803F04003002BF1D0002318460C37BD465DF8047BA7
:209F2000704700BFA08601000C28004080B400AF054B1B68044A23F08003136000BFBD4641
:209F40005DF8047B704700BF0C28004080B586B000AF78607B68002B01D1012388E0464B54
:209F60001B68454A43F4807313607B681B78012B17D1424B1B68414A43F001031360404BD8
:209F80007B6107E07B69013B7B617B69002B01D102236DE0394B1B6803F00203002BF1D0C4
:209FA0001AE07B681B78022B16D1364B1B68354A43F001031360344B3B6107E03B69013B0E
:209FC0003B613B69002B01D1022351E02D4B1B6803F00203002BF1D0284B1B681B0A03F001
:209FE0000303FB60FB68002B07D1244B1A687B681B781B02214913430B60204B1B681F4A94
:20A0000043F400431360FFF74FFFFFF769FF0346FB72FB7A002B03D0FFF756FFFB7A27E0C1
:20A020007B685B681B0403F4FE027B689B68C3F30E03164913430B607B681B7B012B06D11B
:20A04000134B1B68124A43F04003136005E0104B1B680F4A23F0400313600D4B1B680C4AC4
:20A0600043F020031360FFF761FFFFF72DFF002318461837BD4680BD0070004070380240F5
:20A0800020A1070074380240A0860100102800400828004080B584B000AF78607B68002BFD
:20A0A00001D1012341E0FFF7FFFEFFF719FF0346FB72FB7A002B03D0FFF706FFFB7A34E0DB
:20A0C0000023FB607B689B781846FFF7B1FE034603F07F03FA681343FB607B685B78184624
:20A0E000FFF7A6FE03461B0203F4FE43FA681343FB607B681B781846FFF79AFE03461B044B
:20A1000003F47C13FA681343FB607B68DB78012B03D1FB6843F48003FB60064AFB681360D2
:20A12000FFF704FFFFF7D0FE002318461037BD4680BD00BF0028004080B584B000AF786043
:20A140007B68002B01D1012331E01B4B1B68FB60FB68DBB203F07F03DBB21846FFF78AFED8
:20A1600003461A467B689A70FB681B0ADBB203F07F03DBB21846FFF77DFE03461A467B68D7
:20A180005A70FB681B0CDBB203F03F03DBB21846FFF770FE03461A467B681A70FB689B0D39
:20A1A000DBB203F00103DAB27B68DA70002318461037BD4680BD00BF0028004080B584B0CA
:20A1C00000AF78607B68002B01D101233EE0FFF76BFEFFF785FE0346FB73FB7B002B03D0D3
:20A1E000FFF772FEFB7B31E00023BB607B681B781846FFF71DFE034603F03F03BA68134359
:20A20000BB607B685B781846FFF712FE03461B0203F4F853BA681343BB607B68DB785B033A
:20A220009BB2BA681343BB607B689B781846FFF7FFFD03461B04BA681343BB60054ABB688B
:20A240001360FFF773FEFFF73FFE002318461037BD4680BD0428004080B584B000AF78608D
:20A260007B68002B01D1012330E01A4B1B681A4B1B68FB60FB68DBB203F03F03DBB218468F
:20A28000FFF7F8FD03461A467B681A70FB681B0ADBB203F01F03DBB21846FFF7EBFD034681
:20A2A0001A467B685A70FB685B0BDBB203F00703DAB27B68DA70FB681B0CDBB21846FFF71A
:20A2C000D9FD03461A467B689A70002318461037BD4680BD002800400428004080B586B0CB
:20A2E00000AF03463960FB711346BB713B68002B01D10123C2E0FFF7D7FDFB79002B06D136
:20A30000604B1B685F4A23F48073136005E05D4B1B685C4A23F400731360FB79002B01D1C5
:20A32000012300E00223FB60574B7B6109E07B69013B7B617B69002B03D1FFF7C5FD022376
:20A340009CE0524B1A68FB681340002BEFD000233B613B689B781846FFF76AFD034603F056
:20A360007F033A6913433B613B685B781846FFF75FFD03461B0203F4FE433A6913433B616D
:20A380003B681B781846FFF753FD03461B0403F47C133A6913433B613B68DB78012B03D16A
:20A3A0003B6943F480033B613B685B79002B0AD03B681B791B0603F070623B69134343F0DD
:20A3C00080433B610BE03B681B791846FFF730FD03461B0603F07C533A6913433B613B6817
:20A3E0001B7A002B03D03B6943F080033B613B68DB79002B03D03B6943F400433B613B6882
:20A400009B79002B03D03B6943F400033B613B685B7A002B03D03B6943F000433B61FB7910
:20A42000002B03D11A4A3B69136002E0194A3B691360FB79002B0FD1124B1B68114A43F455
:20A4400080731360BB79002B15D00E4B1B680D4A43F4805313600EE00A4B1B68094A43F452
:20A4600000731360BB79002B05D0064B1B68054A43F400531360FFF727FD002318461837B8
:20A48000BD4680BD08280040A08601000C2800401C2800402028004080B582B000AF034606
:20A4A000FB71FFF701FDFB79002B06D1094B1B68084A23F48853136005E0064B1B68054A30
:20A4C00023F408531360FFF7FFFC00BF0837BD4680BD00BF0828004080B483B000AF0346DA
:20A4E000FB71FB79002B06D1094B1B68084A23F48073136005E0064B1B68054A23F4007342
:20A50000136000BF0C37BD465DF8047B704700BF0C28004080B485B000AF0346FB71FB79C4
:20A52000002B02D14FF4807301E04FF40073FB60074B1A68FB681340002B01D0012300E06B
:20A54000002318461437BD465DF8047B704700BF0C28004080B584B000AF0346FB710B4650
:20A56000BB801346BB71FFF79FFC1E4B1B681D4A23F4806313601C4BFB6009E0FB68013B80
:20A58000FB60FB68002B03D1FFF79EFC022324E0164B1B6803F00403002BEFD0114B1B689E
:20A5A00023F00702FB7903F007030E4913430B600F4ABB8813600B4B1B680A4A43F48063A0
:20A5C0001360BB79002B05D0064B1B68054A43F480431360FFF778FC002318461037BD460F
:20A5E00080BD00BF08280040A08601000C2800401428004080B500AFFFF756FC044B1B68DA
:20A60000034A23F488431360FFF75EFC00BF80BD0828004080B400AF054B1B68044A23F4C1
:20A620008063136000BFBD465DF8047B704700BF0C28004080B400AF064B1B6803F48063B3
:20A64000002B01D0012300E000231846BD465DF8047B70470C28004080B582B000AF034618
:20A660000A46FB711346BB71FFF71EFCFB79002B06D0114B1B68104A43F00803136005E045
:20A680000D4B1B680C4A23F0080313600A4B1B68094A43F400631360BB79002B05D0064B3B
:20A6A0001B68054A43F400431360FFF70DFC00BF0837BD4680BD00BF0828004080B500AF8B
:20A6C000FFF7F2FB044B1B68034A23F408431360FFF7FAFB00BF80BD0828004080B584B0E3
:20A6E00000AF786039607B68002B30D02F4B1B68FB60FB68DBB203F07F03DBB21846FFF78E
:20A70000B9FB03461A467B689A70FB681B0ADBB203F07F03DBB21846FFF7ACFB03461A4634
:20A720007B685A70FB681B0CDBB203F03F03DBB21846FFF79FFB03461A467B681A70FB682C
:20A740009B0DDBB203F00103DAB27B68DA703B68002B26D0164B1B68BB60BB68DBB203F0AE
:20A760003F03DBB21846FFF785FB03461A463B681A70BB681B0ADBB203F01F03DBB218468B
:20A78000FFF778FB03461A463B685A70BB685B0BDBB203F00703DAB23B68DA703B680022E9
:20A7A0009A7000BF1037BD4680BD00BF302800403428004080B400AF054B1B68044A23F43B
:20A7C0000063136000BFBD465DF8047B704700BF0C28004080B483B000AF03463960FB71BF
:20A7E000FB79132B0FD80B4B1B680A4A43F480731360FB7903F1805303F614239B001A4690
:20A800003B68136000E000BF0C37BD465DF8047B704700BF0070004080B483B000AF0346E4
:20A82000FB71FB79132B01D9002306E0FB7903F1805303F614239B001B6818460C37BD46EA
:20A840005DF8047B7047000080B400AF064B1B6803F01003002B01D0012300E0002318462F
:20A86000BD465DF8047B70470C28004080B483B000AF0D4B1B680C4A23F0200313600B4B90
:20A880007B6000BF084B1B6803F02003002B05D17B68013B7B607B68002BF3D100BF0C3763
:20A8A000BD465DF8047B70470C280040A086010080B483B000AFF1EE103A7B607B68184614
:20A8C0000C37BD465DF8047B704780B483B000AF78607B68E1EE103A00BF0C37BD465DF863
:20A8E000047B704780B400AF0A4B1B68094A43F470031360BFF34F8FBFF36F8F064B1B68E3
:20A90000054A43F04043136000BFBD465DF8047B704700BF88ED00E034EF00E080B400AF78
:20A92000074B1B68064A23F470031360BFF34F8FBFF36F8F00BFBD465DF8047B704700BFA9
:20A9400088ED00E080B485B000AF0346FB714FF47003FB60FB791B0503F44012FB799B05D3
:20A9600003F440031343BB60094B1A68FB68DB431A400749BB6813430B60BFF34F8FBFF305
:20A980006F8F00BF1437BD465DF8047B704700BF88ED00E080B400AF054B1B68044A43F0D6
:20A9A0004043136000BFBD465DF8047B704700BF34EF00E080B400AF084B1B68074A43F055
:20A9C00000431360054B1B68044A23F08043136000BFBD465DF8047B704700BF34EF00E048
:20A9E00080B584B000AF0346FB71FFF761FFF860FB6823F44003FB60FB799B0503F4400376
:20AA0000FA681343FB60F868FFF75FFF00BF1037BD4680BD80B500AFFFF74AFF03469B0D15
:20AA2000DBB203F00303DBB2184680BD80B584B000AF0346FB71FFF73BFFF860FB79002B74
:20AA400004D0FB6843F08073FB6003E0FB6823F08073FB60F868FFF738FF00BF1037BD4601
:20AA600080BD80B584B000AF0346FB71FFF720FFF860FB79002B04D0FB6843F00073FB6088
:20AA800003E0FB6823F00073FB60F868FFF71DFF00BF1037BD4680BD80B500AFFFF708FFF6
:20AAA000034603F09F03184680BD80B584B000AF7860FFF7FDFEF8607B6803F09F03DB434E
:20AAC000FA681340FB60F868FFF7FFFE00BF1037BD4680BD80B500AF0C210020FDF7AAFC02
:20AAE00000F002F800BF80BD80B400AF034B01221A6000BFBD465DF8047B704708300240DB
:20AB000080B483B000AF7860054A7B681360044B1B6818460C37BD465DF8047B704700BFE2
:20AB20000030024080B588B000AF786039603B6803F003037B613B689B083B61FFF7D4FFF3
:20AB40000023FB6123E0FB699B007A6813441B781A06FB699B00013379680B441B781B0473
:20AB60001A43FB699B00023379680B441B781B021343FA699200033279680A4412781343D5
:20AB8000BB61224ABB691360FB690133FB61FA693B699A42D7D37B69002B30D00023BB61C7
:20ABA0003B699B00FB607B69032B09D07B69032B21D87B69012B15D07B69022B09D01AE02C
:20ABC000FB6802337A6813441B781B02BA691343BB61FB6801337A6813441B781B04BA69BA
:20ABE0001343BB617A68FB6813441B781B06BA691343BB6100E000BF044ABB691360034B2C
:20AC00001B6818462037BD4680BD00BF0030024080B586B000AF786039603B68042B01D855
:20AC2000012328E03B68043B7B617A687B6913441B781A067B69013379680B441B781B0460
:20AC40001A437B69023379680B441B781B0213437A69033279680A44127813433B617969A3
:20AC60007868FFF75FFFF860FA683B699A4214BF01230023DBB218461837BD4680BD0000D2
:20AC800080B400AF034B1B681846BD465DF8047B704700BF0030024080B483B000AF034684
:20ACA000FB71FB79062B01D1064B05E0FB79072B01D1054B00E0002318460C37BD465DF8B7
:20ACC000047B7047001000400014004080B584B000AF0346FB71FB791846FFF7DDFFF860D1
:20ACE000FB79062B02D0072B1FD03DE004210320FDF7A0FBFB68283307221A80FB682C3385
:20AD000040F2CF721A80FB680C331B889BB2FA680C3243F001039BB213803620FDF750FC47
:20AD200003461A46124B1A701EE005210320FDF781FBFB68283307221A80FB682C3340F257
:20AD4000CF721A80FB680C331B889BB2FA680C3243F001039BB213803720FDF731FC03460E
:20AD60001A46034B1A7000BF00BF1037BD4680BD0000002080B584B000AF0346FB71FB7935
:20AD80001846FFF789FFF860FB79062B02D0072B09D011E0FB681B889AB2FB6842F0010222
:20ADA00092B21A8008E0FB681B889AB2FB6842F0010292B21A8000BF00BF1037BD4680BD00
:20ADC00080B584B000AF0346FB71FB791846FFF763FFF860FB79062B02D0072B09D011E0B1
:20ADE000FB681B889AB2FB6822F0010292B21A8008E0FB681B889AB2FB6822F0010292B2B5
:20AE00001A8000BF00BF1037BD4680BD80B483B000AF03463960FB71FB79062B02D0072B86
:20AE200004D007E0064A3B68136003E0054A3B68136000BF00BF0C37BD465DF8047B70475A
:20AE4000F4000020F800002080B500AF0B4B1B889BB203F00103002B0ED0084B1B889BB259
:20AE6000064A23F001039BB21380054B1B68002B02D0034B1B68984700BF80BD10100040AF
:20AE8000F400002080B500AF0B4B1B889BB203F00103002B0ED0084B1B889BB2064A23F0CE
:20AEA00001039BB21380054B1B68002B02D0034B1B68984700BF80BD10140040F8000020B6
:20AEC00080B483B000AF0346FB71FB79022B01D9002303E0FB79044A52F8233018460C3726
:20AEE000BD465DF8047B704758E2000880B483B000AF78607B6804331B687A68043223F4C8
:20AF0000E063136000BF0C37BD465DF8047B704780B588B000AF03463960FB71FB791846AF
:20AF2000FFF7CEFFF860FB68002B00F0C4803B68002B00F0C080FB681A68FB6822F00102D9
:20AF40001A603B681B685E4AA2FB03239B0CBB60FB6804331B6823F03F02BB6803F03F035B
:20AF6000F968043113430B600023FB613B685B68544A934217D83B681A683B685B685B004D
:20AF8000B2FBF3F3BB61BB69032B01D80423BB61BB69C3F30B03FB61FB6820331A46BB6817
:20AFA000013313603AE0FB6943F40043FB613B681B7A012B10D1FB6943F48043FB613B68F4
:20AFC00019683B685A6813469B0013449A001344B1FBF3F37B6109E03B6819683B685A686F
:20AFE00013465B001344B1FBF3F37B617B69002B01D101237B617B69C3F30B03FA69134396
:20B00000FB61BB684FF4967202FB03F32E4AA2FB03239B09FA68203201331360FB681C3387
:20B020001A46FB6913603B685B7A012B09D13B685B89C3F30903FA68083243F40043136089
:20B0400008E03B685B895B00DBB2FA68083243F4804313603B68DB7B002B09D03B681B7C59
:20B060005B00DBB2FA680C3243F00103136004E0FB680C331A460023136001233B613B68BF
:20B080001B7B002B03D03B6943F480633B613B685B7B002B03D03B6943F040033B613B68F2
:20B0A0009B7B002B03D03B6943F080033B61FB683A691A6000E000BF2037BD4680BD00BF11
:20B0C00083DE1B43A0860100D34D621080B584B000AF0346FB71FB791846FFF7F1FEF8601C
:20B0E000FB68002B12D0FB681A68FB6822F001021A60F868FFF7FAFEFA7906491346DB00C5
:20B100009B1A9B000B4400221A7000E000BF1037BD4680BD0001002080B584B000AF03463C
:20B12000FB71FB791846FFF7CBFEB86042F21073FB60BB681A68BB6842F480721A6007E097
:20B14000FB68013BFB60FB68002B01D1032307E0BB6814331B6803F00103002BF0D0002396
:20B1600018461037BD4680BD80B584B000AF0346FB71FB791846FFF7A3FEF860FB681A6877
:20B18000FB6842F400721A60002318461037BD4680BD80B584B000AF0346FB710B46BB80C9
:20B1A0001346BB71FB791846FFF78AFEB86042F21073FB60BB885A00BB7903F00103B968A7
:20B1C000103113430B6016E0BB6814331B6803F48063002B07D0BB681A68BB6842F400723E
:20B1E0001A60012315E0FB68013BFB60FB68002B01D103230DE0BB6814331B6803F002036A
:20B20000002BE1D0BB6814331B68BB6818331B68002318461037BD4680BD80B584B000AF54
:20B2200003460A46FB711346BB71FB791846FFF747FEB86042F21073FB60BB6810331A4687
:20B24000BB79136007E0FB68013BFB60FB68002B01D1032307E0BB6814331B6803F0800396
:20B26000002BF0D0002318461037BD4680BD80B584B000AF03463960FB711346BB71FB797C
:20B280001846FFF71DFEB86042F21073FB60BB79002B06D0BB681A68BB6842F480621A6086
