:020000040800F2
:20000000000002207510000809110008091100080911000809110008091100080000000087
:200020000000000000000000000000000911000809110008000000000911000865090008E4
:20004000091100080911000809110008091100080911000809110008091100080911000890
:20006000091100080911000809110008091100080911000809110008091100080911000870
:20008000091100080911000809110008091100080911000809110008091100080911000850
:2000A000091100080911000809110008091100080911000809110008091100080911000830
:2000C000091100080911000809110008091100080911000809110008F10F0008091100082A
:2000E0000911000809110008091100080911000809110008091100080911000809110008F0
:200100000911000809110008091100080911000809110008091100080911000809110008CF
:200120000911000809110008091100080911000809110008091100080911000809110008AF
:2001400009110008091100080911000809110008091100080911000809110008091100088F
:2001600009110008091100080911000809110008091100080911000880B400AF094B1B68F9
:20018000084A43F00103136000BF064B1B685B0803F00103002BF8D000BF00BFBD465DF8AD
:2001A000047B70470038024080B400AF094B1B68084A43F48033136000BF064B1B685B0C2C
:2001C00003F00103002BF8D000BF00BFBD465DF8047B70470038024080B400AF094B1B68F5
:2001E000084A43F08073136000BF064B1B685B0E03F00103002BF8D000BF00BFBD465DF858
:20020000047B70470038024080B400AF094B1B68084A23F08073136000BF064B1B685B0EAD
:2002200003F00103002BF8D100BF00BFBD465DF8047B70470038024080B483B000AF0346EE
:20024000FB710F4B1B680E4A23F0030313600C4B1A68FB7903F00303094913430B6000BF59
:20026000074B1B689B0803F00302FB799A42F7D100BF00BF0C37BD465DF8047B704700BFE8
:200280000838024080B584B000AF7860FFF7BCFF0023FB607B685B7803F03F03FA6813431A
:2002A000FB607B685B889B011A4647F6C0731340FA681343FB607B681B795B08DBB2013BA8
:2002C0001B0403F44033FA681343FB607B681B789B051A46FB681343FB607B685B791B0620
:2002E00003F07063FA681343FB60034AFB68136000BF1037BD4680BD0438024080B483B0D7
:2003000000AF0346FB710A4B1B68094A23F0F0031360074B1B68FA7912011146044A0B4387
:20032000136000BF0C37BD465DF8047B704700BF0838024080B483B000AF0346FB710A4B59
:200340001B68094A23F4E0531360074B1B68FA7992021146044A0B43136000BF0C37BD46C3
:200360005DF8047B704700BF0838024080B483B000AF0346FB710A4B1B68094A23F4604301
:200380001360074B1B68FA7952031146044A0B43136000BF0C37BD465DF8047B704700BF98
:2003A0000838024080B582B000AF78607B68002B39D07B681B78022B12D0022B35DC002BC8
:2003C00002D0012B06D030E0FFF7D6FE0020FFF733FF2BE0FFF7E8FE0120FFF72DFF25E0F8
:2003E0007B689B78012B02D1FFF7DEFE01E0FFF7C3FE7B6802331846FFF744FFFFF7ECFE0F
:200400007B681B7A1846FFF779FF7B685B7A1846FFF790FF7B689B7A1846FFF7A7FF0220E9
:20042000FFF70AFF02E000BF00E000BF0837BD4680BD000080B483B000AF03460A46FB71E3
:200440001346BB71FB79042B43D801A252F823F0650400087B04000891040008A704000811
:20046000BD0400081E4B1B68BA79012101FA02F211461B4A0B4313602CE01A4B1B68BA79DF
:20048000012101FA02F21146164A0B43136021E0154B1B68BA79012101FA02F21146124AF8
:2004A0000B43136016E0114B1B68BA79012101FA02F211460D4A0B4313600BE00C4B1B682E
:2004C000BA79012101FA02F21146094A0B43136000E000BF00BF0C37BD465DF8047B70473E
:2004E000303802403438024038380240403802404438024080B483B000AF03460A46FB715F
:200500001346BB71FB79042B48D801A252F823F0250500083D050008550500086D0500083B
:2005200085050008214B1B68BA79012101FA02F2D24311461D4A0B40136030E01C4B1B686B
:20054000BA79012101FA02F2D2431146184A0B40136024E0174B1B68BA79012101FA02F29E
:20056000D2431146134A0B40136018E0124B1B68BA79012101FA02F2D24311460E4A0B40C9
:2005800013600CE00D4B1B68BA79012101FA02F2D2431146094A0B40136000E000BF00BF02
:2005A0000C37BD465DF8047B704700BF303802403438024038380240403802404438024029
:2005C00080B485B000AF0346FB710023FB73FB791F2B05D8FB7901229A400C4B1A600DE0F3
:2005E000FB793B2B08D8FB79203BFB71FB7901229A40074B1A6001E00123FB73FB7B184682
:200600001437BD465DF8047B704700BF00E100E004E100E080B485B000AF0346FB710023CC
:20062000FB73FB791F2B05D8FB7901229A400C4B1A600DE0FB793B2B08D8FB79203BFB718D
:20064000FB7901229A40074B1A6001E00123FB73FB7B18461437BD465DF8047B704700BF7E
:2006600080E100E084E100E080B485B000AF0346FB710023FB73FB791F2B05D8FB79012264
:200680009A400C4B1A600DE0FB793B2B08D8FB79203BFB71FB7901229A40074B1A6001E0AF
:2006A0000123FB73FB7B18461437BD465DF8047B704700BF00E200E004E200E080B485B04B
:2006C00000AF0346FB710023FB73FB791F2B05D8FB7901229A400C4B1A600DE0FB793B2B81
:2006E00008D8FB79203BFB71FB7901229A40074B1A6001E00123FB73FB7B18461437BD460D
:200700005DF8047B704700BF80E200E084E200E080B485B000AF03463960FB710023FB7310
:20072000FB791F2B0BD8134B1A68FB7922FA03F3DBB203F00103DAB23B681A7013E0FB790E
:200740003B2B0ED8FB79203BFB710B4B1A68FB7922FA03F3DBB203F00103DAB23B681A7077
:2007600001E00123FB73FB7B18461437BD465DF8047B704700E300E004E300E080B485B066
:2007800000AF0346FB710B46BB7113467B71134B134A1A600223FB7397F90730002B16DB88
:2007A00097F90730002B12DBBA79FB7B02FA03F35AB297F9053013435BB2DAB297F9073038
:2007C00003F1604303F564431201D2B21A7000BF1437BD465DF8047B704700BF0CED00E092
:2007E0000005FA0580B400AF044A13686FF38203136000BFBD465DF8047B704710E000E0D2
:2008000080B584B000AF78607B684FF4FA6202FB03F3FB600C4B00221A600C4AFB681360F9
:200820000B4A136843F00103136000BF084B1B68C3F30043DBB2002BF8D000F069F800BF20
:200840001037BD4680BD00BF18E000E014E000E010E000E080B485B000AF78603960012329
:20086000FB733B68002B02D10223FB7311E00023FB730B4A3B6813600A4A7B6813600A4AEB
:20088000136843F002031360074A136843F001031360FB7B18461437BD465DF8047B70470F
:2008A0000C00002014E000E010E000E080B485B000AF786039600123FB733B68002B02D1AC
:2008C0000223FB7315E00023FB730D4A3B6813600C4A7B68013B13600B4B00221A600B4A63
:2008E000136843F002031360084A136843F001031360FB7B18461437BD465DF8047B7047AE
:200900000C00002014E000E018E000E010E000E080B400AF044A13686FF30003136000BFEC
:20092000BD465DF8047B704710E000E080B400AF044B1A68044B1B68D31A1846BD465DF830
:20094000047B704714E000E018E000E080B400AF034B1B681846BD465DF8047B704700BF56
:2009600018E000E080B500AF024B1B68984700BF80BD00BF0C00002080B483B000AF0346C6
:20098000FB71FB79072B23D801A252F823F000BFB1090008B5090008B9090008BD0900086B
:2009A000C1090008C5090008C9090008CD0900080B4B0EE00B4B0CE00B4B0AE00B4B08E0D3
:2009C0000B4B06E00B4B04E00B4B02E00B4B00E0002318460C37BD465DF8047B704700BF22
:2009E000000002400004024000080240000C0240001002400014024000180240001C024077
:200A000090B585B000AF0446084611461A462346FB710346BB710B467B7113463B71FB795E
:200A20001846FFF7A9FFF860FB68002B01D1012365E0BB790F2B01D9022360E0FB681B6806
:200A4000BA795200032101FA02F2D2431A40FB681A60FB681B687A7902F00301BA7952005E
:200A600001FA02F21A43FB681A607B79012B02D07B79022B12D1FB685B68BA79012101FAE1
:200A800002F2D2431A40FB685A60FB685B683979BA7901FA02F21A43FB685A60FB689B68FC
:200AA000BA795200032101FA02F2D2431A40FB689A60FB689B6897F8202002F00301BA7974
:200AC000520001FA02F21A43FB689A60FB68DB68BA795200032101FA02F2D2431A40FB680B
:200AE000DA60FB68DB6897F8242002F00301BA79520001FA02F21A43FB68DA60002318465E
:200B00001437BD4690BD80B584B000AF0346FB710B46BB7113467B71FB791846FFF72CFFB8
:200B2000F860FB68002B01D1012318E0BB790F2B01D9022313E07B79012B07D1BB79012232
:200B400002FA03F31A46FB689A6107E0BB791033012202FA03F31A46FB689A610023184633
:200B60001037BD4680BD80B584B000AF03460A46FB711346BB71FB791846FFF7FDFEF86031
:200B8000FB68002B01D101230EE0BB790F2B01D9022309E0FB685B69BA79012101FA02F222
:200BA0005A40FB685A61002318461037BD4680BD80B584B000AF03463A60FB710B46BB7191
:200BC000FB791846FFF7D8FEF860FB68002B01D1012310E0BB790F2B01D902230BE0FB68F0
:200BE0001A69BB7922FA03F3DBB203F00103DAB23B681A70002318461037BD4680BD0000E7
:200C000080B487B000AF0346FB710B46BB7113467B71FB79072B68D801A252F823F000BF9E
:200C2000410C0008470C00084D0C0008530C0008590C00085F0C0008650C00086B0C000864
:200C40002D4B7B6114E02D4B7B6111E02C4B7B610EE02C4B7B610BE02B4B7B6108E02B4BD8
:200C60007B6105E02A4B7B6102E02A4B7B6100BF7B6920333B617B692433FB60BB79072BA1
:200C800018D8BB799B00BB723B691B68BA7A0F2101FA02F2D2431A403B691A603B691B683A
:200CA0007A7902F00F01BA7A01FA02F21A433B691A601BE0BB79083BDBB29B00FB72FB6837
:200CC0001B68FA7A0F2101FA02F2D2431A40FB681A60FB681B687A7902F00F01FA7A01FA68
:200CE00002F21A43FB681A6000E000BF1C37BD465DF8047B704700BF0000024000040240FF
:200D000000080240000C0240001002400014024000180240001C024080B485B000AF03467A
:200D2000FB710023FB60FB79022B0CD0022B0DDC002B02D0012B03D008E0084BFB6006E0BE
:200D4000074BFB6003E0074BFB6000E000BFFB6818461437BD465DF8047B704700100140CC
:200D6000004400400048004080B586B000AF03463960FB710023FB751DE03A681B4B83FBE9
:200D800002139910D317C91A0B469B000B445B00D11ACAB2FB7D591CF9753032D2B218333F
:200DA0003B4403F80C2C3B68104A82FB03129210DB17D31A3B603B68002BDEDCFB7DBB75A6
:200DC0000CE0BB7D013B07F10C02D118FB790122184600F0A7F8BB7D013BBB75BB7D002B39
:200DE000EFD100BF00BF1837BD4680BD6766666680B586B000AF0346B9607A60FB73BB68A6
:200E0000002B00F08B80FB7B1846FFF785FF78617B690C331B687A690C3223F400531360E1
:200E2000BB681B685A087B681A44BB681B68B2FBF3F33B617B6908331A463B691360BB68DB
:200E4000DB79012B08D17B690C331B687A690C3243F48053136007E07B690C331B687A6985
:200E60000C3223F480531360BB685B79002B08D17B690C331B687A690C3223F480631360A8
:200E80001CE07B690C331B687A690C3243F480631360BB685B79022B08D17B690C331B685F
:200EA0007A690C3243F40073136007E07B690C331B687A690C3223F4007313607B69103322
:200EC0001B687A69103223F4405313607B6910331B68BA689279120311467A6910320B4397
:200EE00013607B690C331B68BA68127A11467A690C320B4313607B690C331B68BA6812799F
:200F000011467A690C320B4313607B690C331B687A690C3243F40053136000E000BF1837E6
:200F2000BD4680BD80B584B000AF03463960FB711346BB71FB791846FFF7EEFEB860002397
:200F4000FB7311E000BFBB681B68DB0903F00103002BF8D0FB7B3A6813441A78BB680433A4
:200F60001A60FB7B0133FB73FA7BBB799A42E9D300BF00BF1037BD4680BD000080B582B032
:200F800000AF03463960FB713B68002B08DAFB7901220C491846FFF7C5FF3B685B423B60C5
:200FA0003B68002B06D1FB79012207491846FFF7B9FF04E0FB7939681846FFF7D5FE08373A
:200FC000BD4680BD4C1200085012000880B483B000AF78607B68002B02D0044A7B6813608F
:200FE00000BF0C37BD465DF8047B70471400002080B586B000AF0120FFF78EFE78617B69B3
:201000001B683B613B6903F02003002B0BD07B6904331B68DAB2154B1A70154B1B68134A9D
:201020001278104698473B6903F00803002B07D07B691B68FB607B6904331B68FB60FB682F
:201040003B6903F00403002B03D07B691B68BB60BB683B6903F00203002B03D07B691B684E
:201060007B607B6800BF1837BD4680BD100000201400002080B586B000AF00237B600023C5
:201080007B6100233B611B4A1B4BD31A9B107B601A4B7B61184B3B610023FB600AE07A69EC
:2010A000131D7B613B69191D396112681A60FB680133FB60FA687B689A42F0D3104A114B30
:2010C000D31A9B107B600F4B3B610023BB6007E03B691A1D3A6100221A60BB680133BB60FE
:2010E000BA687B689A42F3D300F09EF800F010F8FEE700BF0C000020000000206012000861
:20110000300000200C00002080B400AFFEE7000080B500AF00F064F800F070F8244B1B6811
:201120001B0FDBB203F00103DAB2224B1A70204B1B68DB0EDBB203F00103DAB21E4B1A70A4
:201140001B4B1B689B0EDBB203F00103DAB21B4B1A70174B1B68164A43F0807313600722F6
:2011600017490120FFF7DEFE134B1B78002B03D1104B1B78002B0BD0124B134A1A60134BA6
:201180001B681A46124B1A60114B1B6898470EE00A4B1B78002BE2D00A4B0E4A1A600E4BA4
:2011A0001B681A460D4B1A600C4B1B689847D6E7743802402C0000202D0000202E0000202F
:2011C0005412000808ED00E000800008048000082400002000400008044000082800002098
:2011E00080B500AF034A04490120FFF701FE00BF80BD00BF0024F4000000002080B582B001
:2012000002AF00230193032300930023022202210020FFF7F5FB072202210020FFF7F0FCEF
:2012200000BFBD4680BD000080B500AF0648FFF7B9F800210020FFF7FDF811210320FFF75F
:20124000F9F800BF80BD00BF180000202D000000300000000A20424D200A00000000022048
:0C12600000100E0008000000000000005C
:2040000000000220C95900085D5A00085D5A00085D5A00085D5A00085D5A00080000000099
:204020000000000000000000000000005D5A00085D5A0008000000005D5A0008654900088D
:204040005D5A00085D5A00085D5A00085D5A00085D5A00085D5A00085D5A00085D5A000868
:204060005D5A00085D5A00085D5A00085D5A00085D5A00085D5A00085D5A00085D5A000848
:204080005D5A00085D5A00085D5A00085D5A00085D5A00085D5A00085D5A00085D5A000828
:2040A0005D5A00085D5A00085D5A00085D5A00085D5A00085D5A00085D5A00085D5A000808
:2040C0005D5A00085D5A00085D5A00085D5A00085D5A00085D5A0008F14F00085D5A00085F
:2040E0005D5A00085D5A00085D5A00085D5A00085D5A00085D5A00085D5A00085D5A0008C8
:204100005D5A00085D5A00085D5A00085D5A00085D5A00085D5A00085D5A00085D5A0008A7
:204120005D5A00085D5A00085D5A00085D5A00085D5A00085D5A00085D5A00085D5A000887
:204140005D5A00085D5A00085D5A00085D5A00085D5A00085D5A00085D5A00085D5A000867
:204160005D5A00085D5A00085D5A00085D5A00085D5A00085D5A000880B400AF094B1B680B
:20418000084A43F00103136000BF064B1B685B0803F00103002BF8D000BF00BFBD465DF86D
:2041A000047B70470038024080B400AF094B1B68084A43F48033136000BF064B1B685B0CEC
:2041C00003F00103002BF8D000BF00BFBD465DF8047B70470038024080B400AF094B1B68B5
:2041E000084A43F08073136000BF064B1B685B0E03F00103002BF8D000BF00BFBD465DF818
:20420000047B70470038024080B400AF094B1B68084A23F08073136000BF064B1B685B0E6D
:2042200003F00103002BF8D100BF00BFBD465DF8047B70470038024080B483B000AF0346AE
:20424000FB710F4B1B680E4A23F0030313600C4B1A68FB7903F00303094913430B6000BF19
:20426000074B1B689B0803F00302FB799A42F7D100BF00BF0C37BD465DF8047B704700BFA8
:204280000838024080B584B000AF7860FFF7BCFF0023FB607B685B7803F03F03FA681343DA
:2042A000FB607B685B889B011A4647F6C0731340FA681343FB607B681B795B08DBB2013B68
:2042C0001B0403F44033FA681343FB607B681B789B051A46FB681343FB607B685B791B06E0
:2042E00003F07063FA681343FB60034AFB68136000BF1037BD4680BD0438024080B483B097
:2043000000AF0346FB710A4B1B68094A23F0F0031360074B1B68FA7912011146044A0B4347
:20432000136000BF0C37BD465DF8047B704700BF0838024080B483B000AF0346FB710A4B19
:204340001B68094A23F4E0531360074B1B68FA7992021146044A0B43136000BF0C37BD4683
:204360005DF8047B704700BF0838024080B483B000AF0346FB710A4B1B68094A23F46043C1
:204380001360074B1B68FA7952031146044A0B43136000BF0C37BD465DF8047B704700BF58
:2043A0000838024080B582B000AF78607B68002B39D07B681B78022B12D0022B35DC002B88
:2043C00002D0012B06D030E0FFF7D6FE0020FFF733FF2BE0FFF7E8FE0120FFF72DFF25E0B8
:2043E0007B689B78012B02D1FFF7DEFE01E0FFF7C3FE7B6802331846FFF744FFFFF7ECFECF
:204400007B681B7A1846FFF779FF7B685B7A1846FFF790FF7B689B7A1846FFF7A7FF0220A9
:20442000FFF70AFF02E000BF00E000BF0837BD4680BD000080B483B000AF03460A46FB71A3
:204440001346BB71FB79042B43D801A252F823F0654400087B44000891440008A7440008D1
:20446000BD4400081E4B1B68BA79012101FA02F211461B4A0B4313602CE01A4B1B68BA795F
:20448000012101FA02F21146164A0B43136021E0154B1B68BA79012101FA02F21146124AB8
:2044A0000B43136016E0114B1B68BA79012101FA02F211460D4A0B4313600BE00C4B1B68EE
:2044C000BA79012101FA02F21146094A0B43136000E000BF00BF0C37BD465DF8047B7047FE
:2044E000303802403438024038380240403802404438024080B483B000AF03460A46FB711F
:204500001346BB71FB79042B48D801A252F823F0254500083D450008554500086D450008FB
:2045200085450008214B1B68BA79012101FA02F2D24311461D4A0B40136030E01C4B1B68EB
:20454000BA79012101FA02F2D2431146184A0B40136024E0174B1B68BA79012101FA02F25E
:20456000D2431146134A0B40136018E0124B1B68BA79012101FA02F2D24311460E4A0B4089
:2045800013600CE00D4B1B68BA79012101FA02F2D2431146094A0B40136000E000BF00BFC2
:2045A0000C37BD465DF8047B704700BF3038024034380240383802404038024044380240E9
:2045C00080B485B000AF0346FB710023FB73FB791F2B05D8FB7901229A400C4B1A600DE0B3
:2045E000FB793B2B08D8FB79203BFB71FB7901229A40074B1A6001E00123FB73FB7B184642
:204600001437BD465DF8047B704700BF00E100E004E100E080B485B000AF0346FB7100238C
:20462000FB73FB791F2B05D8FB7901229A400C4B1A600DE0FB793B2B08D8FB79203BFB714D
:20464000FB7901229A40074B1A6001E00123FB73FB7B18461437BD465DF8047B704700BF3E
:2046600080E100E084E100E080B485B000AF0346FB710023FB73FB791F2B05D8FB79012224
:204680009A400C4B1A600DE0FB793B2B08D8FB79203BFB71FB7901229A40074B1A6001E06F
:2046A0000123FB73FB7B18461437BD465DF8047B704700BF00E200E004E200E080B485B00B
:2046C00000AF0346FB710023FB73FB791F2B05D8FB7901229A400C4B1A600DE0FB793B2B41
:2046E00008D8FB79203BFB71FB7901229A40074B1A6001E00123FB73FB7B18461437BD46CD
:204700005DF8047B704700BF80E200E084E200E080B485B000AF03463960FB710023FB73D0
:20472000FB791F2B0BD8134B1A68FB7922FA03F3DBB203F00103DAB23B681A7013E0FB79CE
:204740003B2B0ED8FB79203BFB710B4B1A68FB7922FA03F3DBB203F00103DAB23B681A7037
:2047600001E00123FB73FB7B18461437BD465DF8047B704700E300E004E300E080B485B026
:2047800000AF0346FB710B46BB7113467B71134B134A1A600223FB7397F90730002B16DB48
:2047A00097F90730002B12DBBA79FB7B02FA03F35AB297F9053013435BB2DAB297F90730F8
:2047C00003F1604303F564431201D2B21A7000BF1437BD465DF8047B704700BF0CED00E052
:2047E0000005FA0580B400AF044A13686FF38203136000BFBD465DF8047B704710E000E092
:2048000080B584B000AF78607B684FF4FA6202FB03F3FB600C4B00221A600C4AFB681360B9
:204820000B4A136843F00103136000BF084B1B68C3F30043DBB2002BF8D000F069F800BFE0
:204840001037BD4680BD00BF18E000E014E000E010E000E080B485B000AF786039600123E9
:20486000FB733B68002B02D10223FB7311E00023FB730B4A3B6813600A4A7B6813600A4AAB
:20488000136843F002031360074A136843F001031360FB7B18461437BD465DF8047B7047CF
:2048A0001800002014E000E010E000E080B485B000AF786039600123FB733B68002B02D160
:2048C0000223FB7315E00023FB730D4A3B6813600C4A7B68013B13600B4B00221A600B4A23
:2048E000136843F002031360084A136843F001031360FB7B18461437BD465DF8047B70476E
:204900001800002014E000E018E000E010E000E080B400AF044A13686FF30003136000BFA0
:20492000BD465DF8047B704710E000E080B400AF044B1A68044B1B68D31A1846BD465DF8F0
:20494000047B704714E000E018E000E080B400AF034B1B681846BD465DF8047B704700BF16
:2049600018E000E080B500AF024B1B68984700BF80BD00BF1800002080B483B000AF03467A
:20498000FB71FB79072B23D801A252F823F000BFB1490008B5490008B9490008BD4900082B
:2049A000C1490008C5490008C9490008CD4900080B4B0EE00B4B0CE00B4B0AE00B4B08E093
:2049C0000B4B06E00B4B04E00B4B02E00B4B00E0002318460C37BD465DF8047B704700BFE2
:2049E000000002400004024000080240000C0240001002400014024000180240001C024037
:204A000090B585B000AF0446084611461A462346FB710346BB710B467B7113463B71FB791E
:204A20001846FFF7A9FFF860FB68002B01D1012365E0BB790F2B01D9022360E0FB681B68C6
:204A4000BA795200032101FA02F2D2431A40FB681A60FB681B687A7902F00301BA7952001E
:204A600001FA02F21A43FB681A607B79012B02D07B79022B12D1FB685B68BA79012101FAA1
:204A800002F2D2431A40FB685A60FB685B683979BA7901FA02F21A43FB685A60FB689B68BC
:204AA000BA795200032101FA02F2D2431A40FB689A60FB689B6897F8202002F00301BA7934
:204AC000520001FA02F21A43FB689A60FB68DB68BA795200032101FA02F2D2431A40FB68CB
:204AE000DA60FB68DB6897F8242002F00301BA79520001FA02F21A43FB68DA60002318461E
:204B00001437BD4690BD80B584B000AF0346FB710B46BB7113467B71FB791846FFF72CFF78
:204B2000F860FB68002B01D1012318E0BB790F2B01D9022313E07B79012B07D1BB790122F2
:204B400002FA03F31A46FB689A6107E0BB791033012202FA03F31A46FB689A6100231846F3
:204B60001037BD4680BD80B584B000AF03460A46FB711346BB71FB791846FFF7FDFEF860F1
:204B8000FB68002B01D101230EE0BB790F2B01D9022309E0FB685B69BA79012101FA02F2E2
:204BA0005A40FB685A61002318461037BD4680BD80B584B000AF03463A60FB710B46BB7151
:204BC000FB791846FFF7D8FEF860FB68002B01D1012310E0BB790F2B01D902230BE0FB68B0
:204BE0001A69BB7922FA03F3DBB203F00103DAB23B681A70002318461037BD4680BD0000A7
:204C000080B487B000AF0346FB710B46BB7113467B71FB79072B68D801A252F823F000BF5E
:204C2000414C0008474C00084D4C0008534C0008594C00085F4C0008654C00086B4C000824
:204C40002D4B7B6114E02D4B7B6111E02C4B7B610EE02C4B7B610BE02B4B7B6108E02B4B98
:204C60007B6105E02A4B7B6102E02A4B7B6100BF7B6920333B617B692433FB60BB79072B61
:204C800018D8BB799B00BB723B691B68BA7A0F2101FA02F2D2431A403B691A603B691B68FA
:204CA0007A7902F00F01BA7A01FA02F21A433B691A601BE0BB79083BDBB29B00FB72FB68F7
:204CC0001B68FA7A0F2101FA02F2D2431A40FB681A60FB681B687A7902F00F01FA7A01FA28
:204CE00002F21A43FB681A6000E000BF1C37BD465DF8047B704700BF0000024000040240BF
:204D000000080240000C0240001002400014024000180240001C024080B485B000AF03463A
:204D2000FB710023FB60FB79022B0CD0022B0DDC002B02D0012B03D008E0084BFB6006E07E
:204D4000074BFB6003E0074BFB6000E000BFFB6818461437BD465DF8047B7047001001408C
:204D6000004400400048004080B586B000AF03463960FB710023FB751DE03A681B4B83FBA9
:204D800002139910D317C91A0B469B000B445B00D11ACAB2FB7D591CF9753032D2B21833FF
:204DA0003B4403F80C2C3B68104A82FB03129210DB17D31A3B603B68002BDEDCFB7DBB7566
:204DC0000CE0BB7D013B07F10C02D118FB790122184600F0A7F8BB7D013BBB75BB7D002BF9
:204DE000EFD100BF00BF1837BD4680BD6766666680B586B000AF0346B9607A60FB73BB6866
:204E0000002B00F08B80FB7B1846FFF785FF78617B690C331B687A690C3223F400531360A1
:204E2000BB681B685A087B681A44BB681B68B2FBF3F33B617B6908331A463B691360BB689B
:204E4000DB79012B08D17B690C331B687A690C3243F48053136007E07B690C331B687A6945
:204E60000C3223F480531360BB685B79002B08D17B690C331B687A690C3223F48063136068
:204E80001CE07B690C331B687A690C3243F480631360BB685B79022B08D17B690C331B681F
:204EA0007A690C3243F40073136007E07B690C331B687A690C3223F4007313607B691033E2
:204EC0001B687A69103223F4405313607B6910331B68BA689279120311467A6910320B4357
:204EE00013607B690C331B68BA68127A11467A690C320B4313607B690C331B68BA6812795F
:204F000011467A690C320B4313607B690C331B687A690C3243F40053136000E000BF1837A6
:204F2000BD4680BD80B584B000AF03463960FB711346BB71FB791846FFF7EEFEB860002357
:204F4000FB7311E000BFBB681B68DB0903F00103002BF8D0FB7B3A6813441A78BB68043364
:204F60001A60FB7B0133FB73FA7BBB799A42E9D300BF00BF1037BD4680BD000080B582B0F2
:204F800000AF03463960FB713B68002B08DAFB7901220C491846FFF7C5FF3B685B423B6085
:204FA0003B68002B06D1FB79012207491846FFF7B9FF04E0FB7939681846FFF7D5FE0837FA
:204FC000BD4680BD505B0008545B000880B483B000AF78607B68002B02D0044A7B681360B5
:204FE00000BF0C37BD465DF8047B70472000002080B586B000AF0120FFF78EFE78617B6967
:205000001B683B613B6903F02003002B0ED07B6904331B68DAB2174B1A70174B1B68154A54
:20502000127810469847154B00221A603B6903F00803002B07D07B691B68FB607B69043334
:205040001B68FB60FB683B6903F00403002B03D07B691B68BB60BB683B6903F00203002B07
:2050600003D07B691B687B607B6800BF1837BD4680BD00BF1C000020200000204800002047
:2050800080B400AF074B1B68002B05DA064B074A1A60054B064A1A6000BFBD465DF8047B82
:2050A000704700BF103C0240043C024023016745AB89EFCD80B400AF054B1B68044A43F073
:2050C0000043136000BFBD465DF8047B704700BF103C024080B400AF044B1B68DB0FDBB254
:2050E0001846BD465DF8047B704700BF103C024080B400AF054B1B68044A43F0F3031360D7
:2051000000BFBD465DF8047B704700BF0C3C024080B483B000AF114B7B6002E07B68013BAB
:205120007B600F4B1B6803F48033002B02D07B68002BF3D17B68002B01D1022308E0084BFE
:205140001B6803F0F203002B01D0012300E0002318460C37BD465DF8047B7047404B4C00BB
:205160000C3C024080B483B000AF78607B68B3F1006F05D37B68064A934201D8012300E004
:205180000023DBB218460C37BD465DF8047B7047FFFF070880B483B000AF78607B68184AF0
:2051A000934201D2002324E07B68164A934201D201231EE07B68144A934201D2022318E00D
:2051C0007B68124A934201D8032312E07B68104A934201D804230CE07B680E4A934201D8E3
:2051E000052306E07B680C4A934201D8062300E0072318460C37BD465DF8047B704700BF99
:20520000004000080080000800C00008FFFF0008FFFF0108FFFF0308FFFF050880B483B06E
:2052200000AF78607B68072B23D801A252F823F051520008575200085B5200085F5200080D
:2052400063520008675200086B5200086F5200084FF000630EE00A4B0CE00A4B0AE00A4BDD
:2052600008E00A4B06E00A4B04E00A4B02E00A4B00E0002318460C37BD465DF8047B704714
:20528000004000080080000800C000080000010800000208000004080000060880B483B0E2
:2052A00000AF78607B68072B2AD801A252F823F0D1520008D7520008DD520008E352000880
:2052C000E9520008EF520008F5520008FB5200084FF4804315E04FF4804312E04FF48043A5
:2052E0000FE04FF480430CE04FF4803309E04FF4003306E04FF4003303E04FF4003300E0E3
:20530000002318460C37BD465DF8047B704700BF80B584B000AF78607B68072B01D9042376
:2053200034E0FFF7ADFEFFF7E3FEFFF7F1FE0346FB73FB7B002B03D0FFF7BCFEFB7B25E0A6
:20534000144B1B68134A23F078031360114B1A687B68DB000F4913430B600E4B1B680D4A25
:2053600043F0020313600B4B1B680A4A43F480331360FFF7CDFE0346FB73064B1B68054A5D
:2053800023F002031360FFF795FEFB7B18461037BD4680BD103C024090B587B000AF78600D
:2053A00039607A683B681344013B3B617B687B617868FFF7D7FE0346002B05D03869FFF756
:2053C000D1FE0346002B19D104231CE07869FFF7E1FEF860F868FFF79BFF0346FB72FB7A54
:2053E000002B01D0FB7A0EE0F868FFF717FF0446F868FFF753FF034623447B617A693B69DD
:205400009A42E3D9002318461C37BD4690BD000080B582B000AFFFF733FEFFF769FEFFF740
:2054200077FE0346FB71FB79002B03D0FFF742FEFB7918E00E4B1B680D4A43F0040313604E
:205440000B4B1B680A4A43F480331360FFF760FE0346FB71064B1B68054A23F00403136009
:20546000FFF728FEFB7918460837BD4680BD00BF103C024080B584B000AF78600B46FB70C6
:205480007868FFF76FFE0346002B01D104232EE0FFF7F6FDFFF72CFEFFF73AFE0346FB7360
:2054A000FB7B002B03D0FFF705FEFB7B1FE0124B1B68114A23F4407313600F4B0E4A1B685D
:2054C00013600D4B1B680C4A43F0010313607B68FA781A70FFF71CFE0346FB73064B1B6804
:2054E000054A23F001031360FFF7E4FDFB7B18461037BD4680BD00BF103C024080B584B0EB
:2055000000AF78600B467B807868FFF72BFE0346002B01D1042337E07B6803F00103002B30
:2055200001D0032330E0FFF7ABFDFFF7E1FDFFF7EFFD0346FB73FB7B002B03D0FFF7BAFD38
:20554000FB7B21E0124B1B68114A23F4407313600F4B1B680E4A43F4807313600C4B1B68B0
:205560000B4A43F0010313607B687A881A80FFF7CFFD0346FB73064B1B68054A23F00103FA
:205580001360FFF797FDFB7B18461037BD4680BD103C024080B584B000AF786039607868BC
:2055A000FFF7E0FD0346002B01D1042337E07B6803F00303002B01D0032330E0FFF760FD33
:2055C000FFF796FDFFF7A4FD0346FB73FB7B002B03D0FFF76FFDFB7B21E0134B1B68124A6A
:2055E00023F440731360104B1B680F4A43F4007313600D4B1B680C4A43F0010313607B685C
:205600003A681A60FFF784FD0346FB73064B1B68054A23F001031360FFF74CFDFB7B184680
:205620001037BD4680BD00BF103C024080B586B000AFF860B9607A6000237B61F868FFF7DC
:2056400091FD0346002B09D0FA687B681344013B1846FFF787FD0346002B01D1042321E051
:205660007968F86800F0ABF80346002B15D1062318E0FA687B69D018BA687B6913441B78BD
:205680001946FFF7F7FE0346FB74FB7C002B01D0FB7C07E07B6901337B617A697B689A42A1
:2056A000E7D3002318461837BD4680BD80B588B000AFF860B9607A600023FB61F868FFF7E4
:2056C00051FD0346002B09D0FA687B681344013B1846FFF747FD0346002B01D1042344E02E
:2056E000FB6803F00303002B01D003233DE07968F86800F064F80346002B17D1062334E0E9
:20570000BA68FB6913441B687B61FA68FB69134479691846FFF73EFF0346FB76FB7E002B5F
:2057200001D0FB7E21E0FB690433FB61FB6904337A689A42E4D213E0FA68FB69D018BA6855
:20574000FB6913441B781946FFF794FE0346FB76FB7E002B01D0FB7E07E0FB690133FB6191
:20576000FA697B689A42E7D3002318462037BD4680BD80B487B000AFF860B9607A60FB686D
:205780003B6100237B610FE03A697B6913441A78B9687B690B441B789A4202D04FF0FF3309
:2057A00007E07B6901337B617A697B689A42EBD3002318461C37BD465DF8047B704780B418
:2057C00085B000AF786039607B68BB600023FB600AE0BA68FB6813441B78FF2B01D0002381
:2057E00007E0FB680133FB60FA683B689A42F0D3012318461437BD465DF8047B704780B59C
:2058000086B000AFF860B9607A60FB683B61F868FFF7A8FC0346002B09D0FA687B68134476
:20582000013B1846FFF79EFC0346002B01D1042312E000237B610AE03A697B691A44B968F0
:205840007B690B4412781A707B6901337B617A697B689A42F0D3002318461837BD4680BD98
:2058600080B400AF72B600BFBD465DF8047B704780B400AF62B600BFBD465DF8047B704788
:2058800080B584B000AF78603960FFF7E9FF39687868FFF77FFE0346FB73FFF7E9FFFB7BA2
:2058A00018461037BD4680BD80B483B000AF786000BF18460C37BD465DF8047B7047000027
:2058C00080B483B000AF03460A46FB711346BB71FB79084AD35C1B015AB2BB790549CB5C62
:2058E0005BB213435BB2DBB218460C37BD465DF8047B7047645B000880B483B000AF034656
:20590000FB71084B01221A70074B1B685A1C06490A600649FA79CA5400BF0C37BD465DF8DD
:20592000047B704728000020300000202C00002080B500AF1B4B1B6842F21072934202D91A
:20594000194B1A4A1A60174B1B68C82B15D9184B1B78012B11D1174B1B6804221649184673
:20596000FFF707FF0346DAB2144B1A70134B1B78002B02D10C4B0D4A1A60114B1B68032B49
:205980000ED90C4B1B6804220E491846FFF78EFE084B1B680433074A1360094B00221A6028
:2059A00000BF80BD480000200CED00E00400FA0528000020000000200400002008000020F3
:2059C000300000202C00002080B586B000AF00237B6000237B6100233B611B4A1B4BD31A9D
:2059E0009B107B601A4B7B61184B3B610023FB600AE07A69131D7B613B69191D396112689C
:205A00001A60FB680133FB60FA687B689A42F0D3104A114BD31A9B107B600F4B3B610023F4
:205A2000BB6007E03B691A1D3A6100221A60BB680133BB60BA687B689A42F3D300F076F8DB
:205A400000F01EF8FEE700BF1800002000000020405C00084C0000201800002080B400AF19
:205A6000FEE7000080B400AF044B1B680133034A136000BFBD465DF8047B704748000020E3
:205A800080B500AF00F02EF800F01EF8FEF7AAFE2620FEF795FD09494FF4FA60FEF706FFB3
:205AA000082207490120FFF73DFA0220FFF730FC0448FFF78BFAFFF73BFFFCE7655A000839
:205AC000585B0008F958000880B500AF034A04490120FFF78DF900BF80BD00BF0024F400C4
:205AE0000C00002080B582B002AF00230193032300930023022202210020FEF781FF0722CA
:205B000002210020FFF77CF800230193032300930023022203210020FEF772FF072203212A
:205B20000020FFF76DF800BFBD4680BD80B500AF0648FEF737FC00210020FEF77BFC1121B2
:205B40000320FEF777FC00BF80BD00BF3C0000202D000000300000000A2042544C44200ACC
:205B6000000000000000000000000000000000000000000000000000000000000000000025
:205B80000000000000000000000000000000000000000000000102030405060708090000D8
:205BA00000000000000A0B0C0D0E0F0000000000000000000000000000000000000000009A
:205BC00000000000000A0B0C0D0E0F00000000000000022000000000000000000000000058
:205BE0000000000000000000000000000000000000000000000000000000000000000000A5
:205C00000000000000010203040506070809000000000000000A0B0C0D0E0F00000000000C
:205C20000000000000000000000000000000000000000000000A0B0C0D0E0F000000000019
:185C400000800008FFFFFFFF0500000000100E000C0000002000000079
:20800000000002207DAF000811B0000811B0000811B0000811B0000811B00008000000001D
:2080200000000000000000000000000011B0000811B000080000000011B0000865890008EF
:2080400011B0000811B0000811B0000811B0000811B0000811B0000811B0000811B00008D8
:2080600011B0000811B0000811B0000811B0000811B0000811B0000811B0000811B00008B8
:2080800011B0000811B0000811B0000811B0000811B0000811B0000811B0000811B0000898
:2080A00011B0000811B0000811B0000811B0000811B0000811B0000811B00008B19E0008EA
:2080C000819F0008B19F0008BF9F000811B0000811B000084191000839900008BD90000828
:2080E00011B0000811B0000811B0000811B0000811B0000811B0000811B0000811B0000838
:2081000011B0000811B0000811B0000811B0000811B0000811B000082D98000869980008D3
:2081200011B0000811B0000811B0000811B0000811B0000811B0000811B0000811B00008F7
:2081400011B0000811B0000811B0000811B0000811B0000811B00008CD9F0008DB9F000873
:2081600011B0000811B0000811B0000811B0000811B0000811B0000880B400AF094B1B688F
:20818000084A43F00103136000BF064B1B685B0803F00103002BF8D000BF00BFBD465DF82D
:2081A000047B70470038024080B400AF094B1B68084A43F48033136000BF064B1B685B0CAC
:2081C00003F00103002BF8D000BF00BFBD465DF8047B70470038024080B400AF094B1B6875
:2081E000084A43F08073136000BF064B1B685B0E03F00103002BF8D000BF00BFBD465DF8D8
:20820000047B70470038024080B400AF094B1B68084A23F08073136000BF064B1B685B0E2D
:2082200003F00103002BF8D100BF00BFBD465DF8047B70470038024080B483B000AF03466E
:20824000FB710F4B1B680E4A23F0030313600C4B1A68FB7903F00303094913430B6000BFD9
:20826000074B1B689B0803F00302FB799A42F7D100BF00BF0C37BD465DF8047B704700BF68
:208280000838024080B584B000AF7860FFF7BCFF0023FB607B685B7803F03F03FA6813439A
:2082A000FB607B685B889B011A4647F6C0731340FA681343FB607B681B795B08DBB2013B28
:2082C0001B0403F44033FA681343FB607B681B789B051A46FB681343FB607B685B791B06A0
:2082E00003F07063FA681343FB60034AFB68136000BF1037BD4680BD0438024080B483B057
:2083000000AF0346FB710A4B1B68094A23F0F0031360074B1B68FA7912011146044A0B4307
:20832000136000BF0C37BD465DF8047B704700BF0838024080B483B000AF0346FB710A4BD9
:208340001B68094A23F4E0531360074B1B68FA7992021146044A0B43136000BF0C37BD4643
:208360005DF8047B704700BF0838024080B483B000AF0346FB710A4B1B68094A23F4604381
:208380001360074B1B68FA7952031146044A0B43136000BF0C37BD465DF8047B704700BF18
:2083A0000838024080B582B000AF78607B68002B39D07B681B78022B12D0022B35DC002B48
:2083C00002D0012B06D030E0FFF7D6FE0020FFF733FF2BE0FFF7E8FE0120FFF72DFF25E078
:2083E0007B689B78012B02D1FFF7DEFE01E0FFF7C3FE7B6802331846FFF744FFFFF7ECFE8F
:208400007B681B7A1846FFF779FF7B685B7A1846FFF790FF7B689B7A1846FFF7A7FF022069
:20842000FFF70AFF02E000BF00E000BF0837BD4680BD000080B483B000AF03460A46FB7163
:208440001346BB71FB79042B43D801A252F823F0658400087B84000891840008A784000891
:20846000BD8400081E4B1B68BA79012101FA02F211461B4A0B4313602CE01A4B1B68BA79DF
:20848000012101FA02F21146164A0B43136021E0154B1B68BA79012101FA02F21146124A78
:2084A0000B43136016E0114B1B68BA79012101FA02F211460D4A0B4313600BE00C4B1B68AE
:2084C000BA79012101FA02F21146094A0B43136000E000BF00BF0C37BD465DF8047B7047BE
:2084E000303802403438024038380240403802404438024080B483B000AF03460A46FB71DF
:208500001346BB71FB79042B48D801A252F823F0258500083D850008558500086D850008BB
:2085200085850008214B1B68BA79012101FA02F2D24311461D4A0B40136030E01C4B1B686B
:20854000BA79012101FA02F2D2431146184A0B40136024E0174B1B68BA79012101FA02F21E
:20856000D2431146134A0B40136018E0124B1B68BA79012101FA02F2D24311460E4A0B4049
:2085800013600CE00D4B1B68BA79012101FA02F2D2431146094A0B40136000E000BF00BF82
:2085A0000C37BD465DF8047B704700BF3038024034380240383802404038024044380240A9
:2085C00080B485B000AF0346FB710023FB73FB791F2B05D8FB7901229A400C4B1A600DE073
:2085E000FB793B2B08D8FB79203BFB71FB7901229A40074B1A6001E00123FB73FB7B184602
:208600001437BD465DF8047B704700BF00E100E004E100E080B485B000AF0346FB7100234C
:20862000FB73FB791F2B05D8FB7901229A400C4B1A600DE0FB793B2B08D8FB79203BFB710D
:20864000FB7901229A40074B1A6001E00123FB73FB7B18461437BD465DF8047B704700BFFE
:2086600080E100E084E100E080B485B000AF0346FB710023FB73FB791F2B05D8FB790122E4
:208680009A400C4B1A600DE0FB793B2B08D8FB79203BFB71FB7901229A40074B1A6001E02F
:2086A0000123FB73FB7B18461437BD465DF8047B704700BF00E200E004E200E080B485B0CB
:2086C00000AF0346FB710023FB73FB791F2B05D8FB7901229A400C4B1A600DE0FB793B2B01
:2086E00008D8FB79203BFB71FB7901229A40074B1A6001E00123FB73FB7B18461437BD468D
:208700005DF8047B704700BF80E200E084E200E080B485B000AF03463960FB710023FB7390
:20872000FB791F2B0BD8134B1A68FB7922FA03F3DBB203F00103DAB23B681A7013E0FB798E
:208740003B2B0ED8FB79203BFB710B4B1A68FB7922FA03F3DBB203F00103DAB23B681A70F7
:2087600001E00123FB73FB7B18461437BD465DF8047B704700E300E004E300E080B485B0E6
:2087800000AF0346FB710B46BB7113467B71134B134A1A600223FB7397F90730002B16DB08
:2087A00097F90730002B12DBBA79FB7B02FA03F35AB297F9053013435BB2DAB297F90730B8
:2087C00003F1604303F564431201D2B21A7000BF1437BD465DF8047B704700BF0CED00E012
:2087E0000005FA0580B400AF044A13686FF38203136000BFBD465DF8047B704710E000E052
:2088000080B584B000AF78607B684FF4FA6202FB03F3FB600C4B00221A600C4AFB68136079
:208820000B4A136843F00103136000BF084B1B68C3F30043DBB2002BF8D000F069F800BFA0
:208840001037BD4680BD00BF18E000E014E000E010E000E080B485B000AF786039600123A9
:20886000FB733B68002B02D10223FB7311E00023FB730B4A3B6813600A4A7B6813600A4A6B
:20888000136843F002031360074A136843F001031360FB7B18461437BD465DF8047B70478F
:2088A0004800002014E000E010E000E080B485B000AF786039600123FB733B68002B02D1F0
:2088C0000223FB7315E00023FB730D4A3B6813600C4A7B68013B13600B4B00221A600B4AE3
:2088E000136843F002031360084A136843F001031360FB7B18461437BD465DF8047B70472E
:208900004800002014E000E018E000E010E000E080B400AF044A13686FF30003136000BF30
:20892000BD465DF8047B704710E000E080B400AF044B1A68044B1B68D31A1846BD465DF8B0
:20894000047B704714E000E018E000E080B400AF034B1B681846BD465DF8047B704700BFD6
:2089600018E000E080B500AF024B1B68984700BF80BD00BF4800002080B483B000AF03460A
:20898000FB71FB79072B23D801A252F823F000BFB1890008B5890008B9890008BD890008EB
:2089A000C1890008C5890008C9890008CD8900080B4B0EE00B4B0CE00B4B0AE00B4B08E053
:2089C0000B4B06E00B4B04E00B4B02E00B4B00E0002318460C37BD465DF8047B704700BFA2
:2089E000000002400004024000080240000C0240001002400014024000180240001C0240F7
:208A000090B585B000AF0446084611461A462346FB710346BB710B467B7113463B71FB79DE
:208A20001846FFF7A9FFF860FB68002B01D1012365E0BB790F2B01D9022360E0FB681B6886
:208A4000BA795200032101FA02F2D2431A40FB681A60FB681B687A7902F00301BA795200DE
:208A600001FA02F21A43FB681A607B79012B02D07B79022B12D1FB685B68BA79012101FA61
:208A800002F2D2431A40FB685A60FB685B683979BA7901FA02F21A43FB685A60FB689B687C
:208AA000BA795200032101FA02F2D2431A40FB689A60FB689B6897F8202002F00301BA79F4
:208AC000520001FA02F21A43FB689A60FB68DB68BA795200032101FA02F2D2431A40FB688B
:208AE000DA60FB68DB6897F8242002F00301BA79520001FA02F21A43FB68DA6000231846DE
:208B00001437BD4690BD80B584B000AF0346FB710B46BB7113467B71FB791846FFF72CFF38
:208B2000F860FB68002B01D1012318E0BB790F2B01D9022313E07B79012B07D1BB790122B2
:208B400002FA03F31A46FB689A6107E0BB791033012202FA03F31A46FB689A6100231846B3
:208B60001037BD4680BD80B584B000AF03460A46FB711346BB71FB791846FFF7FDFEF860B1
:208B8000FB68002B01D101230EE0BB790F2B01D9022309E0FB685B69BA79012101FA02F2A2
:208BA0005A40FB685A61002318461037BD4680BD80B584B000AF03463A60FB710B46BB7111
:208BC000FB791846FFF7D8FEF860FB68002B01D1012310E0BB790F2B01D902230BE0FB6870
:208BE0001A69BB7922FA03F3DBB203F00103DAB23B681A70002318461037BD4680BD000067
:208C000080B487B000AF0346FB710B46BB7113467B71FB79072B68D801A252F823F000BF1E
:208C2000418C0008478C00084D8C0008538C0008598C00085F8C0008658C00086B8C0008E4
:208C40002D4B7B6114E02D4B7B6111E02C4B7B610EE02C4B7B610BE02B4B7B6108E02B4B58
:208C60007B6105E02A4B7B6102E02A4B7B6100BF7B6920333B617B692433FB60BB79072B21
:208C800018D8BB799B00BB723B691B68BA7A0F2101FA02F2D2431A403B691A603B691B68BA
:208CA0007A7902F00F01BA7A01FA02F21A433B691A601BE0BB79083BDBB29B00FB72FB68B7
:208CC0001B68FA7A0F2101FA02F2D2431A40FB681A60FB681B687A7902F00F01FA7A01FAE8
:208CE00002F21A43FB681A6000E000BF1C37BD465DF8047B704700BF00000240000402407F
:208D000000080240000C0240001002400014024000180240001C024080B485B000AF0346FA
:208D2000FB710023FB60FB79022B0CD0022B0DDC002B02D0012B03D008E0084BFB6006E03E
:208D4000074BFB6003E0074BFB6000E000BFFB6818461437BD465DF8047B7047001001404C
:208D6000004400400048004080B586B000AF03463960FB710023FB751DE03A681B4B83FB69
:208D800002139910D317C91A0B469B000B445B00D11ACAB2FB7D591CF9753032D2B21833BF
:208DA0003B4403F80C2C3B68104A82FB03129210DB17D31A3B603B68002BDEDCFB7DBB7526
:208DC0000CE0BB7D013B07F10C02D118FB790122184600F0A7F8BB7D013BBB75BB7D002BB9
:208DE000EFD100BF00BF1837BD4680BD6766666680B586B000AF0346B9607A60FB73BB6826
:208E0000002B00F08B80FB7B1846FFF785FF78617B690C331B687A690C3223F40053136061
:208E2000BB681B685A087B681A44BB681B68B2FBF3F33B617B6908331A463B691360BB685B
:208E4000DB79012B08D17B690C331B687A690C3243F48053136007E07B690C331B687A6905
:208E60000C3223F480531360BB685B79002B08D17B690C331B687A690C3223F48063136028
:208E80001CE07B690C331B687A690C3243F480631360BB685B79022B08D17B690C331B68DF
:208EA0007A690C3243F40073136007E07B690C331B687A690C3223F4007313607B691033A2
:208EC0001B687A69103223F4405313607B6910331B68BA689279120311467A6910320B4317
:208EE00013607B690C331B68BA68127A11467A690C320B4313607B690C331B68BA6812791F
:208F000011467A690C320B4313607B690C331B687A690C3243F40053136000E000BF183766
:208F2000BD4680BD80B584B000AF03463960FB711346BB71FB791846FFF7EEFEB860002317
:208F4000FB7311E000BFBB681B68DB0903F00103002BF8D0FB7B3A6813441A78BB68043324
:208F60001A60FB7B0133FB73FA7BBB799A42E9D300BF00BF1037BD4680BD000080B582B0B2
:208F800000AF03463960FB713B68002B08DAFB7901220C491846FFF7C5FF3B685B423B6045
:208FA0003B68002B06D1FB79012207491846FFF7B9FF04E0FB7939681846FFF7D5FE0837BA
:208FC000BD4680BD4CB3000850B3000880B483B000AF78607B68002B02D0044A7B681360CD
:208FE00000BF0C37BD465DF8047B70475000002080B483B000AF78607B68002B02D0044A55
:209000007B68136000BF0C37BD465DF8047B70475400002080B483B000AF78607B68002BFA
:2090200002D0044A7B68136000BF0C37BD465DF8047B70475800002080B586B000AF012077
:20904000FFF76AFE78617B691B683B613B6903F02003002B0BD07B6904331B68DAB2154B8C
:209060001A70154B1B68134A1278104698473B6903F00803002B07D07B691B68FB607B691D
:2090800004331B68FB60FB683B6903F00403002B03D07B691B68BB60BB683B6903F002037B
:2090A000002B03D07B691B687B607B6800BF1837BD4680BD4C0000205400002080B586B0F4
:2090C00000AF0220FFF728FE78617B691B683B613B6903F02003002B0BD07B6904331B6869
:2090E000DAB2154B1A70154B1B68134A1278104698473B6903F00803002B07D07B691B68F0
:20910000FB607B6904331B68FB60FB683B6903F00403002B03D07B691B68BB60BB683B69B3
:2091200003F00203002B03D07B691B687B607B6800BF1837BD4680BD4C00002058000020E2
:2091400080B586B000AF0020FFF7E6FD78617B691B683B613B6903F02003002B0BD07B697C
:2091600004331B68DAB2154B1A70154B1B68134A1278104698473B6903F00803002B07D01C
:209180007B691B68FB607B6904331B68FB60FB683B6903F00403002B03D07B691B68BB6093
:2091A000BB683B6903F00203002B03D07B691B687B607B6800BF1837BD4680BD4C00002013
:2091C0005000002080B485B000AF03460A46FB711346BB71FB79012B01D1094B00E0094B83
:2091E000FB60BA7913465B001344DB001033FA68134418461437BD465DF8047B704700BF09
:20920000006002400064024080B485B000AF78607B6803F00303FB60FA6813465B00134472
:209220005B0018461437BD465DF8047B7047000080B586B000AF03460A46FB711346BB71F8
:20924000FB79012B01D10F4B00E00F4B3B61BB79FB60FB68032B03D83B691B687B6102E08C
:209260003B695B687B61F868FFF7CEFFB8607A69BB6822FA03F303F03F0318461837BD4673
:2092800080BD00BF006002400064024080B586B000AF03463A60FB710B46BB71FB79012B04
:2092A00001D10F4B00E00F4B7B61BB793B613869FFF7AAFFF8603B6803F03F02FB6802FACE
:2092C00003F3BB603B69032B03D87B69BA689A6002E07B69BA68DA6000BF1837BD4680BD60
:2092E000006002400064024080B483B000AF00237B601CE000233B6013E012497B68DA004D
:209300003B681344002241F833200E497B68DA003B681344DB000B4400225A603B680133BA
:209320003B603B68072BE8DD7B6801337B607B68012BDFDD00BF00BF0C37BD465DF8047BA3
:20934000704700BF5C00002080B584B000AF78607B68002B02D14FF0FF3392E07B681A78F2
:209360007B685B7819461046FFF72CFFB860BB681B6803F00103002B02D06FF0010380E0EC
:20938000BB6800221A60BB6821225A617B6893F82730002B0CD0BB685B6943F00402BB68DE
:2093A0005A61BB685B6943F00102BB685A6105E0BB685B6923F00402BB685A617B68DA680F
:2093C000BB689A607B681A69BB68DA607B685A69BB685A600023FB607B685B685B0603F0B2
:2093E0006063FA681343FB607B681B7A022B0AD0022B0EDC002B0BD0012B0AD1FB6843F05E
:209400004003FB6005E0FB6843F08003FB6000E000BF7B6893F82530002B03D0FB6843F45B
:209420008063FB607B6893F82430002B03D0FB6843F40073FB607B68DB6903F4C043FA6843
:209440001343FB607B689B6903F4C053FA681343FB607B681B6A03F44033FA681343FB6072
:209460007B6893F82630002B03D0FB6843F48073FB60FB6843F01403FB60BB68FA681A603B
:20948000002318461037BD4680BD80B584B000AF78607B68002B02D14FF0FF332CE07B6893
:2094A0001A787B685B7819461046FFF78BFEF860FB681B6803F00103002B02D06FF001039B
:2094C0001AE07B68DA68FB689A607B681A69FB68DA607B685A69FB685A607B6818787B68F4
:2094E0005B783F221946FFF7D1FEFB681B6843F00102FB681A60002318461037BD4680BD13
:2095000080B584B000AF03460A46FB711346BB71BA79FB7911461846FFF754FEF860FB684A
:209520001B6823F00102FB681A6000E000BFFB681B6803F00103002BF8D1B979FB793F223E
:209540001846FFF7A3FE00BF1037BD4680BD000080B485B000AFBA607B600346FB730B46BB
:20956000BB73BB68002B1DD0FB7B012B14BF01230023DBB21A46BB7B0D49D2001344BA6802
:2095800041F83320FB7B012B14BF01230023DBB21A46BB7B0649D2001344DB000B447A68DC
:2095A0005A6000E000BF1437BD465DF8047B70475C00002080B588B000AF03460A46FB71DC
:2095C0001346BB71BA79FB7911461846FFF730FEF8610223BB6108237B61FA69BB6913400B
:2095E000002B1DD0B979FB793E221846FFF74EFEFB79012B14BF01230023DBB21A46BB79D2
:20960000D2001344DB001A4A13443B613B691B68002B05D03B691B683A695268104698470F
:20962000FA697B691340002B1DD0B979FB793E221846FFF72BFEFB79012B14BF012300233B
:20964000DBB21A46BB79D2001344DB00084A1344FB60FB681B68002B05D0FB681B68FA68B3
:2096600052681046984700BF2037BD4680BD00BF5C00002080B483B000AF0346FB71FB792B
:20968000062B01D1064B04E0FB79072B01D1054BFFE718460C37BD465DF8047B704700BFF6
:2096A000001000400014004080B584B000AF0346FB71FB791846FFF7DDFFF860FB79062B98
:2096C00002D0072B1FD03DE004210320FEF7B2FEFB68283307221A80FB682C3340F2CF72D7
:2096E0001A80FB680C331B889BB2FA680C3243F001039BB213803620FEF762FF03461A4632
:20970000124B1A701EE005210320FEF793FEFB68283307221A80FB682C3340F2CF721A8045
:20972000FB680C331B889BB2FA680C3243F001039BB213803720FEF743FF03461A46034B5B
:209740001A7000BF00BF1037BD4680BD0000002080B584B000AF0346FB71FB791846FFF7C5
:2097600089FFF860FB79062B02D0072B09D011E0FB681B889AB2FB6842F0010292B21A80CE
:2097800008E0FB681B889AB2FB6842F0010292B21A8000BF00BF1037BD4680BD80B584B0AB
:2097A00000AF0346FB71FB791846FFF763FFF860FB79062B02D0072B09D011E0FB681B884A
:2097C0009AB2FB6822F0010292B21A8008E0FB681B889AB2FB6822F0010292B21A8000BF98
:2097E00000BF1037BD4680BD80B584B000AF03463960FB71FB791846FFF73CFFF860FB79EE
:20980000062B02D0072B04D007E0064A3B68136003E0054A3B68136000BF00BF1037BD46E2
:2098200080BD00BFDC000020E000002080B500AF0B4B1B889BB203F00103002B0ED0084BB3
:209840001B889BB2064A23F001039BB21380054B1B68002B02D0034B1B68984700BF80BD55
:2098600010100040DC00002080B500AF0B4B1B889BB203F00103002B0ED0084B1B889BB21F
:20988000064A23F001039BB21380054B1B68002B02D0034B1B68984700BF80BD10140040A1
:2098A000E000002080B483B000AF0346FB71FB79022B0AD0022B0ADC002B02D0012B02D054
:2098C00005E0064B03E0064B01E0064BFFE718460C37BD465DF8047B704700BF0054004084
:2098E00000580040005C004080B586B000AF03463960FB71FB791846FFF7D4FF38613B69F4
:209900001A683B6922F001021A60534BFB60FB68524AA2FB03239B0CBB603B6904331B68B7
:2099200023F03F02BB6803F03F033969043113430B600023FB823B681B68494A93421FD8BE
:209940003B691C331B683A691C3223F4004313603B681B685B00FA68B2FBF3F3FB82FB8A5B
:20996000032B01D80423FB823B691C331A46FB8A13603B6920331A46BB68013313603FE0B1
:209980003B681B68374A93423AD83B691C331B683A691C3243F4004313603B691C331B686F
:2099A0003A691C3223F4804313603B681A6813465B001344FA68B2FBF3F3FB82FB8A002B17
:2099C00001D10123FB823B691C331B6823F47F6323F00F03FA8AC2F30B0239691C311343F5
:2099E0000B60BB684FF4967202FB03F31E4AA2FB03239B099BB201339AB23B6920331A608E
:209A00003B681B795B0019463B6908331A46CBB213603B6908331B683A69083243F48043ED
:209A200013603B685B79002B06D03B691A683B6942F480621A6005E03B691A683B6922F41A
:209A400080621A603B691A683B6942F001021A6000BF1837BD4680BD0024F40083DE1B430C
:209A6000A0860100801A0600D34D621080B584B000AF0346FB71FB791846FFF713FFF8608E
:209A8000FB681A68FB6822F001021A6000BF1037BD4680BD80B584B000AF0346FB71FB7968
:209AA0001846FFF7FFFEB86042F21073FB60BB681A68BB6842F480721A6007E0FB68013B3B
:209AC000FB60FB68002B01D1032307E0BB6814331B6803F00103002BF0D000231846103727
:209AE000BD4680BD80B584B000AF0346FB710B46BB7113467B71FB791846FFF7D3FEB860E6
:209B000042F21073FB60BB795A007B7903F001031A43BB6810331A6007E0FB68013BFB609C
:209B2000FB68002B01D103230DE0BB6814331B6803F00203002BF0D0BB6814331B68BB68D2
:209B400018331B68002318461037BD4680BD80B584B000AF03460A46FB711346BB71FB7919
:209B60001846FFF79FFEB86042F21073FB60BB6810331A46BB79136007E0FB68013BFB607C
:209B8000FB68002B01D1032307E0BB6814331B6803F08003002BF0D0002318461037BD463F
:209BA00080BD80B584B000AF03463960FB711346BB71FB791846FFF775FEB86042F2107373
:209BC000FB60BB79002B06D0BB681A68BB6842F480621A600EE0BB681A68BB6822F48062ED
:209BE0001A6007E0FB68013BFB60FB68002B01D103230DE0BB6814331B6803F04003002B49
:209C0000F0D0BB6810331B68DAB23B681A70002318461037BD4680BD80B584B000AF034679
:209C2000FB71FB791846FFF73DFEF860FB681A68FB6842F400721A60002318461037BD4628
:209C400080BD80B586B000AF3A601A460346FB710B46BB711346BB80FB791846FFF722FE05
:209C6000F860FB791846FFF715FF0346FB72FB7A002B01D0FB7A42E0B979FB7900221846CC
:209C8000FFF730FF0346FB72FB7A002B01D0FB7A35E00023FB8212E0FB8A3A6813441A784C
:209CA000FB7911461846FFF752FF0346FB72FB7A002B01D0FB7A22E0FB8A0133FB82FA8ADC
:209CC000BB889A42E8D342F210733B6107E03B69013B3B613B69002B01D103230FE0FB68DB
:209CE00014331B6803F00403002BF0D097F82030002B03D1FB791846FFF78EFF0023184601
:209D00001837BD4680BD80B483B000AF78607B6814331B68DBB218460C37BD465DF8047B14
:209D2000704780B586B000AF3A601A460346FB710B46BB711346BB80FB791846FFF7B2FD1B
:209D40003861FB791846FFF7A5FE0346FB73FB7B002B01D0FB7B37E0B979FB790122184622
:209D6000FFF7C0FE0346FB73FB7B002B01D0FB7B2AE00023FB821AE0FA8ABB88013B9A420D
:209D8000B4BF01230023DBB2BB73FB8A3A68D118BA7BFB791846FFF704FF0346FB73FB7B11
:209DA000002B01D0FB7B0FE0FB8A0133FB82FA8ABB889A42E0D397F82030002B03D1FB7964
:209DC0001846FFF729FF002318461837BD4680BD80B483B000AF78607B6804331B687A688A
:209DE000043223F4007313607B6804331B687A68043223F4806313607B6804331B687A688F
:209E0000043223F48073136000BF0C37BD465DF8047B704780B584B000AF3A601A460346A4
:209E2000FB710B46BB711346BB80FB791846FFF739FDF860194B01221A70194A3B681360C5
:209E4000184ABB881380184B00221A80BB795B00DAB2164B1A70FB6804331B68FA680432F0
:209E600043F400731360FB6804331B68FA68043243F480631360FB6804331B68FA680432CE
:209E800043F480731360FB681A68FB6842F480721A6000BF1037BD4680BD00BFE80000202E
:209EA000EC000020F0000020F2000020F400002080B582B000AF2C4B7B607B6814331B684B
:209EC0003B603B6803F00103002B05D0274B1A787B6810331A6043E03B6803F00203002BC0
:209EE00006D07B6814331B687B6818331B6837E03B6803F08003002B18D01D4B1B78DBB263
:209F0000012B13D11B4B1A881B4B1B889A4226D21A4B1A68174B1B88591C88B215490880CB
:209F200013441A787B6810331A6018E03B6803F00403002B0FD00F4B1A880F4B1B889A4224
:209F400009D37B681A687B6842F400721A60084B00221A7004E07868FFF73AFF00E000BF2A
:209F60000837BD4680BD00BF00540040F4000020E8000020F2000020F0000020EC000020C5
:209F800080B582B000AF084B7B607B6814331A4600231360054B00221A707868FFF718FF74
:209FA00000BF0837BD4680BD00540040E800002080B400AF00BFBD465DF8047B704780B463
:209FC00000AF00BFBD465DF8047B704780B400AF00BFBD465DF8047B704780B400AF00BFB3
:209FE000BD465DF8047B704780B400AF074B1B68002B05DA064B074A1A60054B064A1A60DB
:20A0000000BFBD465DF8047B704700BF103C0240043C024023016745AB89EFCD80B400AF81
:20A02000054B1B68044A43F00043136000BFBD465DF8047B704700BF103C024080B400AF99
:20A04000044B1B68DB0FDBB21846BD465DF8047B704700BF103C024080B400AF054B1B68C8
:20A06000044A43F0F303136000BFBD465DF8047B704700BF0C3C024080B483B000AF114BEE
:20A080007B6002E07B68013B7B600F4B1B6803F48033002B02D07B68002BF3D17B68002BA5
:20A0A00001D1022308E0084B1B6803F0F203002B01D0012300E0002318460C37BD465DF8E7
:20A0C000047B7047404B4C000C3C024080B483B000AF78607B68B3F1006F05D37B68064AFA
:20A0E000934201D8012300E00023DBB218460C37BD465DF8047B7047FFFF070880B483B05B
:20A1000000AF78607B68184A934201D2002324E07B68164A934201D201231EE07B68144A56
:20A12000934201D2022318E07B68124A934201D8032312E07B68104A934201D804230CE057
:20A140007B680E4A934201D8052306E07B680C4A934201D8062300E0072318460C37BD464A
:20A160005DF8047B704700BF004000080080000800C00008FFFF0008FFFF0108FFFF0308E7
:20A18000FFFF050880B483B000AF78607B68072B23D801A252F823F0B9A10008BFA10008EC
:20A1A000C3A10008C7A10008CBA10008CFA10008D3A10008D7A100084FF000630EE00A4BF6
:20A1C0000CE00A4B0AE00A4B08E00A4B06E00A4B04E00A4B02E00A4B00E0002318460C3773
:20A1E000BD465DF8047B7047004000080080000800C000080000010800000208000004081A
:20A200000000060880B483B000AF78607B68072B2AD801A252F823F039A200083FA200085F
:20A2200045A200084BA2000851A2000857A200085DA2000863A200084FF4804315E04FF4EC
:20A24000804312E04FF480430FE04FF480430CE04FF4803309E04FF4003306E04FF40033B1
:20A2600003E04FF4003300E0002318460C37BD465DF8047B704700BF80B584B000AF7860A4
:20A280007B68072B01D9042334E0FFF7ADFEFFF7E3FEFFF7F1FE0346FB73FB7B002B03D00C
:20A2A000FFF7BCFEFB7B25E0144B1B68134A23F078031360114B1A687B68DB000F491343E9
:20A2C0000B600E4B1B680D4A43F0020313600B4B1B680A4A43F480331360FFF7CDFE0346A1
:20A2E000FB73064B1B68054A23F002031360FFF795FEFB7B18461037BD4680BD103C0240D0
:20A3000090B587B000AF786039607A683B681344013B3B617B687B617868FFF7D7FE03463A
:20A32000002B05D03869FFF7D1FE0346002B19D104231CE07869FFF7E1FEF860F868FFF7D2
:20A340009BFF0346FB72FB7A002B01D0FB7A0EE0F868FFF717FF0446F868FFF753FF034632
:20A3600023447B617A693B699A42E3D9002318461C37BD4690BD000080B582B000AFFFF74B
:20A3800033FEFFF769FEFFF777FE0346FB71FB79002B03D0FFF742FEFB7918E00E4B1B681F
:20A3A0000D4A43F0040313600B4B1B680A4A43F480331360FFF760FE0346FB71064B1B6832
:20A3C000054A23F004031360FFF728FEFB7918460837BD4680BD00BF103C024080B584B07E
:20A3E00000AF78600B46FB707868FFF76FFE0346002B01D104232EE0FFF7F6FDFFF72CFE53
:20A40000FFF73AFE0346FB73FB7B002B03D0FFF705FEFB7B1FE0124B1B68114A23F4407370
:20A4200013600F4B0E4A1B6813600D4B1B680C4A43F0010313607B68FA781A70FFF71CFE37
:20A440000346FB73064B1B68054A23F001031360FFF7E4FDFB7B18461037BD4680BD00BFA7
:20A46000103C024080B584B000AF78600B467B807868FFF72BFE0346002B01D1042337E08F
:20A480007B6803F00103002B01D0032330E0FFF7ABFDFFF7E1FDFFF7EFFD0346FB73FB7B2F
:20A4A000002B03D0FFF7BAFDFB7B21E0124B1B68114A23F4407313600F4B1B680E4A43F496
:20A4C000807313600C4B1B680B4A43F0010313607B687A881A80FFF7CFFD0346FB73064BF4
:20A4E0001B68054A23F001031360FFF797FDFB7B18461037BD4680BD103C024080B584B024
:20A5000000AF786039607868FFF7E0FD0346002B01D1042337E07B6803F00303002B01D00C
:20A52000032330E0FFF760FDFFF796FDFFF7A4FD0346FB73FB7B002B03D0FFF76FFDFB7B6F
:20A5400021E0134B1B68124A23F440731360104B1B680F4A43F4007313600D4B1B680C4AFB
:20A5600043F0010313607B683A681A60FFF784FD0346FB73064B1B68054A23F00103136057
:20A58000FFF74CFDFB7B18461037BD4680BD00BF103C024080B586B000AFF860B9607A606F
:20A5A00000237B61F868FFF791FD0346002B09D0FA687B681344013B1846FFF787FD034672
:20A5C000002B01D1042321E07968F86800F0ABF80346002B15D1062318E0FA687B69D018D9
:20A5E000BA687B6913441B781946FFF7F7FE0346FB74FB7C002B01D0FB7C07E07B69013380
:20A600007B617A697B689A42E7D3002318461837BD4680BD80B588B000AFF860B9607A608B
:20A620000023FB61F868FFF751FD0346002B09D0FA687B681344013B1846FFF747FD0346F1
:20A64000002B01D1042344E0FB6803F00303002B01D003233DE07968F86800F064F8034641
:20A66000002B17D1062334E0BA68FB6913441B687B61FA68FB69134479691846FFF73EFFBE
:20A680000346FB76FB7E002B01D0FB7E21E0FB690433FB61FB6904337A689A42E4D213E018
:20A6A000FA68FB69D018BA68FB6913441B781946FFF794FE0346FB76FB7E002B01D0FB7EED
:20A6C00007E0FB690133FB61FA697B689A42E7D3002318462037BD4680BD80B487B000AF91
:20A6E000F860B9607A60FB683B6100237B610FE03A697B6913441A78B9687B690B441B78CB
:20A700009A4202D04FF0FF3307E07B6901337B617A697B689A42EBD3002318461C37BD4608
:20A720005DF8047B704780B485B000AF786039607B68BB600023FB600AE0BA68FB681344C3
:20A740001B78FF2B01D0002307E0FB680133FB60FA683B689A42F0D3012318461437BD46FB
:20A760005DF8047B704780B586B000AFF860B9607A60FB683B61F868FFF7A8FC0346002B7C
:20A7800009D0FA687B681344013B1846FFF79EFC0346002B01D1042312E000237B610AE0D2
:20A7A0003A697B691A44B9687B690B4412781A707B6901337B617A697B689A42F0D30023D0
:20A7C00018461837BD4680BD80B400AF72B600BFBD465DF8047B704780B400AF62B600BF7A
:20A7E000BD465DF8047B704780B584B000AF78603960FFF7E9FF39687868FFF77FFE034627
:20A80000FB73FFF7E9FFFB7B18461037BD4680BD80B485B000AF786039600023FB607B68A7
:20A82000BB60FB680133FB60BB681C4A82FB03129210DB17D31ABB60BB68002BF1DCFB68D6
:20A840003A68134400221A701DE07A68134B83FB02139910D317C91A0B469B000B445B0077
:20A86000D11ACAB2FB68013BFB60FB6839680B443032D2B21A707B68084A82FB031292104B
:20A88000DB17D31A7B607B68002BDEDC00BF00BF1437BD465DF8047B704700BF6766666687
:20A8A00080B485B000AF78600023FB6002E0FB680133FB607A68FB6813441B78002BF6D135
:20A8C000FB6818461437BD465DF8047B7047000098B500AF174B1B78062B1BD8154B1B78D6
:20A8E0001A46154B53F82240124B1B781A46124B53F822301846FFF7D3FF0346DBB21A4645
:20A9000021460020FEF70EFB0A4B1B780133DAB2084B1A70074B1B78072B08D1074B0122C8
:20A920001A70044B1B780133DAB2024B1A7000BF98BD00BFF600002004000020F5000020F2
:20A9400080B483B000AF084B1B687B60074B1B68054A1360054A7B68136000BF0C37BD46EF
:20A960005DF8047B704700BF200000202400002080B586B002AF03460A46FB711346BB7163
:20A9800000233B73BB797B7307F10C02F8790023009302233C21FFF754F900BF1037BD46C9
:20A9A00080BD80B586B002AF03460A46FB711346BB7140233B73BB797B7307F10C02F8790A
:20A9C0000023009302233C21FFF73BF900BF1037BD4680BD80B584B000AF0346FB710023DF
:20A9E000FB6002E0FB680133FB60FB68404A9342F8D9FB79AE211846FFF7BAFFFB79D521DB
:20AA00001846FFF7B5FFFB7980211846FFF7B0FFFB79A8211846FFF7ABFFFB793F211846A9
:20AA2000FFF7A6FFFB79D3211846FFF7A1FFFB7900211846FFF79CFFFB7940211846FFF772
:20AA400097FFFB79AD211846FFF792FFFB798B211846FFF78DFFFB79A1211846FFF788FF28
:20AA6000FB79C8211846FFF783FFFB79DA211846FFF77EFFFB7912211846FFF779FFFB797C
:20AA800081211846FFF774FFFB7980211846FFF76FFFFB79D9211846FFF76AFFFB791F2197
:20AAA0001846FFF765FFFB79DB211846FFF760FFFB7940211846FFF75BFFFB79A4211846A1
:20AAC000FFF756FFFB79A6211846FFF751FF00F011F8FFF735FFFB79184600F07BF8FB7980
:20AAE000AF211846FFF744FF00BF1037BD4680BD9F86010080B483B000AF0023FB8008E0E7
:20AB0000094B1A68FB88134400221A70FB880133FB80FB88B3F5806FF2D300BF00BF0C3707
:20AB2000BD465DF8047B70472000002080B485B000AF0346FB710B46BB7113467B7197F928
:20AB40000730002B3DDBBB793F2B3AD8FB799AB2BB79DB08DBB29BB2DB019BB21344FB811E
:20AB60007B79012B15D11A4B1A68FB8913441B785AB2BB7903F00703012101FA03F35BB21D
:20AB8000134359B2124B1A68FB891344CAB21A7018E00F4B1A68FB8913441B785AB2BB7912
:20ABA00003F00703012101FA03F35BB2DB435BB2134059B2064B1A68FB891344CAB21A703B
:20ABC00000E000BF1437BD465DF8047B704700BF2000002080B5A6B002AF0346FB710023EA
:20ABE00087F88F3040E097F88F30503BDAB2FB7911461846FFF7BCFEFB7902211846FFF7CE
:20AC0000B7FEFB7910211846FFF7B2FE40233B73002387F88E3015E0184B1B6897F88F204C
:20AC2000D10197F88E200A441A4497F88E300133127890333B4403F8842C97F88E300133E0
:20AC400087F88E3097F98E30002BE5DA07F10C02F8790023009381233C21FEF7F2FF97F8DC
:20AC60008F30013387F88F3097F88F30072BBAD900BF00BF9037BD4680BD00BF2400002008
:20AC800080B500AFFDF7AEFD03494FF4FA60FDF70DFE00BF80BD00BF21AD000880B483B051
:20ACA00000AF03463A60FB710B46BB80FB79012B01D901232CE03B68002B01D1022327E094
:20ACC000FA79164913465B0013449B000B44BA881A80FA79114913465B0013449B000B440F
:20ACE000023301221A80FA790C4913465B0013449B000B4408333A681A60FA790749134632
:20AD00005B0013449B000B44043300221A70002318460C37BD465DF8047B7047FC0800203E
:20AD200080B582B000AF0023BB71444B1B680133424A13600023FB7155E0FA794049134650
:20AD40005B0013449B000B4404331B78002B47D1FA793B4913465B0013449B000B44023329
:20AD60001B88013B98B2364913465B0013449B000B44023302461A80FA79314913465B007E
:20AD800013449B000B4402331B88002B28D1F979FA792B480B465B000B449B0003441888A1
:20ADA000274913465B0013449B000B44023302461A80FA79224913465B0013449B000B4444
:20ADC00008331B68002B0BD0FA791D4913465B0013449B000B4408331B6898470123BB71F4
:20ADE000FB790133FB71FB79012BA6D9BB79002B06D1124B5B680133104A536000F072F92E
:20AE00000E4B1B68B3F57A7F14D10C4B5B68642203FB02F2094B1B68B2FBF3F3DBB2C3F193
:20AE20006403DAB2054B1A72044B00225A60034B00221A6000BF0837BD4680BD14090020B3
:20AE4000FC08002080B400AF034B1B7A1846BD465DF8047B704700BF1409002080B483B0B9
:20AE600000AF0346FB71FB79012B01D9012334E0FA791D4913465B0013449B000B440833B3
:20AE80001B68002B01D1022327E0FA79164913465B0013449B000B44083300221A60FA79F5
:20AEA000114913465B0013449B000B44043303221A70FA790C4913465B0013449B000B44A0
:20AEC00000221A80FA79084913465B0013449B000B44023300221A80002318460C37BD4645
:20AEE0005DF8047B704700BFFC08002080B483B000AF0346FB71FA79074913465B0013444B
:20AF00009B000B44043301221A7000BF0C37BD465DF8047B704700BFFC08002080B483B089
:20AF200000AF0346FB71FA79074913465B0013449B000B44043300221A7000BF0C37BD460D
:20AF40005DF8047B704700BFFC08002080B483B000AF0346FB71FA79074913465B001344EA
:20AF60009B000B44043302221A7000BF0C37BD465DF8047B704700BFFC08002080B586B024
:20AF800000AF00237B6000237B6100233B611B4A1B4BD31A9B107B601A4B7B61184B3B61C8
:20AFA0000023FB600AE07A69131D7B613B69191D396112681A60FB680133FB60FA687B689B
:20AFC0009A42F0D3104A114BD31A9B107B600F4B3B610023BB6007E03B691A1D3A610022F6
:20AFE0001A60BB680133BB60BA687B689A42F3D300F08AF900F07EF8FEE700BF48000020D9
:20B000000000002018B40008380900204800002080B400AFFEE780B500AF05210020FDF78D
:20B02000A2FD00BF80BD000080B500AF054B1B78002B02D1FFF74CFC02E00320FFF756FF22
:20B0400000BF80BDF500002080B500AF0A220B490120FDF767FF0C2209490120FDF762FF0A
:20B06000FFF7F0FE034619460120FDF787FF012204490120FDF756FF00BF80BDE8B3000830
:20B08000F4B3000804B4000880B582B000AF144B1B780133DAB2124B1A700023FB7109E01A
:20B0A0000F4B1978FB7901221846FFF73FFDFB790133FB7197F90730002BF1DA084B1B78C7
:20B0C000402B02D1064B00221A70FFF739FC0020FFF780FDFFF70EFD00BF0837BD4680BD38
:20B0E0003409002080B400AF00BFBD465DF8047B7047000080B500AF00F03AF800F0CAF80B
:20B1000000F0D2F800F010F8054A4FF4FA710020FFF7C4FD034A0A210120FFF7BFFDFEE779
:20B1200017B0000889B0000880B500AF0C4A0D490020FDF75DFE0A4A0B490120FDF758FEED
:20B14000074A09490220FDF753FE08490020FEF7CBFB0020FFF73EFCFFF792FD00BF80BDE8
:20B160000024F40028000020340000204000002080B582B002AF0023019302230093002311
:20B18000012205210020FDF73BFC00230193032300930023022208210020FDF731FC0023D7
:20B1A0000193032300930023022209210020FDF727FC0023019303230093002302220A21B8
:20B1C0000020FDF71DFC00230193032300930023022202210020FDF713FC00230193032368
:20B1E00000930023022203210020FDF709FC0023019303230093002302220A210120FDF741
:20B20000FFFB0023019303230093002302220B210120FDF7F5FB00230193032300930123B8
:20B22000022209210120FDF7EBFB00230193032300930123022208210120FDF7E1FB0722CA
:20B2400009210020FDF7DCFC07220A210020FDF7D7FC072202210020FDF7D2FC0722032122
:20B260000020FDF7CDFC07220A210120FDF7C8FC07220B210120FDF7C3FC0422082101202B
:20B28000FDF7BEFC042209210120FDF7B9FC00BFBD4680BD80B500AF2520FDF791F92620FA
:20B2A000FDF78EF900BF80BD80B500AF0348FDF79FFE0348FDF78AFE00BF80BDE9B20008F1
:20B2C000C5B2000880B584B000AF0346FB71FB793B7307F10C03012219460120FDF722FE42
:20B2E00000BF1037BD4680BD80B582B000AF0346FB710C2203490120FDF714FE00BF08379E
:20B30000BD4680BD08B4000880B500AF0E48FDF749F800210020FDF78DF801210020FDF7CA
:20B3200089F811210320FDF785F812210320FDF781F804210420FDF77DF815210320FDF704
:20B3400079F800BF80BD00BF200900202D0000003000000041540D0A0000000041542B436C
:20B36000574D4F44453F0D0A0000000041542B43574D4F44453D310D0A00000041542B43F4
:20B38000494653520D0A000041542B43495053544152543D22544350222C223139322E3187
:20B3A00036382E3133372E31222C383038300D0A0000000041542B43495053454E443D338C
:20B3C000330D0A00474554202F6170706C69636174696F6E2E62696E20485454502F312E0B
:20B3E000310D0A0D0A00000031306D735F7461736B0A0000637075206C6F6164206973206D
:20B40000000000000A0000005541525432204953520D0A00000002200100000054B300085D
:20B420005CB300086CB300087CB3000888B30008B4B30008C4B30008F8000020F804002032
:20B4400000C201000C0000002000000000100E000C00000020000000801A06000001000012
:00000001FF
