:020000040800F2
:2000000000000220B111000845120008451200084512000845120008451200080000000019
:2000200000000000000000000000000045120008451200080000000045120008550900083D
:200040004512000845120008451200084512000845120008451200084512000845120008A8
:20006000451200084512000845120008451200084512000845120008451200084512000888
:20008000451200084512000845120008451200084512000845120008451200084512000868
:2000A000451200084512000845120008451200084512000845120008451200084512000848
:2000C00045120008451200084512000845120008451200082D11000825100008A910000801
:2000E000451200084512000845120008451200084512000845120008451200084512000808
:200100004512000845120008451200084512000845120008451200084512000845120008E7
:200120004512000845120008451200084512000845120008451200084512000845120008C7
:200140004512000845120008451200084512000845120008451200084512000845120008A7
:2001600045120008451200084512000845120008451200084512000880B400AF094B1B688B
:20018000084A43F00103136000BF064B1B685B0803F00103002BF8D000BF00BFBD465DF8AD
:2001A000047B70470038024080B400AF094B1B68084A43F48033136000BF064B1B685B0C2C
:2001C00003F00103002BF8D000BF00BFBD465DF8047B70470038024080B400AF094B1B68F5
:2001E000084A43F08073136000BF064B1B685B0E03F00103002BF8D000BF00BFBD465DF858
:20020000047B70470038024080B400AF094B1B68084A23F08073136000BF064B1B685B0EAD
:2002200003F00103002BF8D100BF00BFBD465DF8047B70470038024080B483B000AF0346EE
:20024000FB710F4B1B680E4A23F0030313600C4B1A68FB7903F00303094913430B6000BF59
:20026000074B1B689B0803F00302FB799A42F7D100BF00BF0C37BD465DF8047B704700BFE8
:200280000838024080B584B000AF7860FFF7BCFF0023FB607B685B7803F03F03FA6813431A
:2002A000FB607B685B889A0147F6C0731340FA681343FB607B681B795B08DBB2013B1B04EA
:2002C00003F44033FA681343FB607B681B789B05FA681343FB607B685B791B0603F07063DA
:2002E000FA681343FB60034AFB68136000BF1037BD4680BD0438024080B483B000AF0346A5
:20030000FB71094B1B68084A23F0F0031360064B1A68FB791B01044913430B6000BF0C375C
:20032000BD465DF8047B70470838024080B483B000AF0346FB71094B1B68084A23F4E0536F
:200340001360064B1A68FB799B02044913430B6000BF0C37BD465DF8047B70470838024026
:2003600080B483B000AF0346FB71094B1B68084A23F460431360064B1A68FB795B0304496A
:2003800013430B6000BF0C37BD465DF8047B70470838024080B582B000AF78607B68002B8E
:2003A00039D07B681B78022B12D0022B35DC002B02D0012B06D030E0FFF7DEFE0020FFF77A
:2003C0003BFF2BE0FFF7F0FE0120FFF735FF25E07B689B78012B02D1FFF7E6FE01E0FFF7FE
:2003E000CBFE7B6802331846FFF74CFFFFF7F4FE7B681B7A1846FFF77FFF7B685B7A184635
:20040000FFF794FF7B689B7A1846FFF7A9FF0220FFF712FF02E000BF00E000BF0837BD46B4
:2004200080BD000080B483B000AF03460A46FB711346BB71FB79042B43D801A252F823F021
:20044000550400086B0400088104000897040008AD0400081E4B1B68BA79012101FA02F2AB
:2004600011461B4A0B4313602CE01A4B1B68BA79012101FA02F21146164A0B43136021E04E
:20048000154B1B68BA79012101FA02F21146124A0B43136016E0114B1B68BA79012101FA9C
:2004A00002F211460D4A0B4313600BE00C4B1B68BA79012101FA02F21146094A0B43136065
:2004C00000E000BF00BF0C37BD465DF8047B70473038024034380240383802404038024029
:2004E0004438024080B483B000AF03460A46FB711346BB71FB79042B48D801A252F823F0DB
:20050000150500082D050008450500085D05000875050008214B1B68BA79012101FA02F20E
:20052000D24311461D4A0B40136030E01C4B1B68BA79012101FA02F2D2431146184A0B40D3
:20054000136024E0174B1B68BA79012101FA02F2D2431146134A0B40136018E0124B1B689C
:20056000BA79012101FA02F2D24311460E4A0B4013600CE00D4B1B68BA79012101FA02F2AA
:20058000D2431146094A0B40136000E000BF00BF0C37BD465DF8047B704700BF3038024046
:2005A0003438024038380240403802404438024080B485B000AF0346FB710023FB73FB7991
:2005C0001F2B05D8FB7901229A400C4B1A600DE0FB793B2B08D8FB79203BFB71FB79012239
:2005E0009A40074B1A6001E00123FB73FB7B18461437BD465DF8047B704700BF00E100E0B5
:2006000004E100E080B485B000AF0346FB710023FB73FB791F2B05D8FB7901229A400C4B54
:200620001A600DE0FB793B2B08D8FB79203BFB71FB7901229A40074B1A6001E00123FB73AE
:20064000FB7B18461437BD465DF8047B704700BF80E100E084E100E080B485B000AF034647
:20066000FB710023FB73FB791F2B05D8FB7901229A400C4B1A600DE0FB793B2B08D8FB7985
:20068000203BFB71FB7901229A40074B1A6001E00123FB73FB7B18461437BD465DF8047BED
:2006A000704700BF00E200E004E200E080B485B000AF0346FB710023FB73FB791F2B05D843
:2006C000FB7901229A400C4B1A600DE0FB793B2B08D8FB79203BFB71FB7901229A40074B33
:2006E0001A6001E00123FB73FB7B18461437BD465DF8047B704700BF80E200E084E200E019
:2007000080B485B000AF03463960FB710023FB73FB791F2B0BD8134B1A68FB7922FA03F3DB
:20072000DBB203F00103DAB23B681A7013E0FB793B2B0ED8FB79203BFB710B4B1A68FB7942
:2007400022FA03F3DBB203F00103DAB23B681A7001E00123FB73FB7B18461437BD465DF860
:20076000047B704700E300E004E300E080B485B000AF0346FB710B46BB7113467B71134BCC
:20078000134A1A600223FB7397F90730002B16DB97F90730002B12DBBA79FB7B02FA03F392
:2007A0005AB297F9053013435BB2DAB297F9073003F1604303F564431201D2B21A7000BF9C
:2007C0001437BD465DF8047B704700BF0CED00E00005FA0580B400AF044A136823F00403DE
:2007E000136000BFBD465DF8047B704710E000E080B584B000AF78607B684FF4FA6202FBFA
:2008000003F3FB600C4B00221A600C4AFB6813600B4A136843F00103136000BF084B1B6859
:20082000C3F30043DBB2002BF8D000F069F800BF1037BD4680BD00BF18E000E014E000E03D
:2008400010E000E080B485B000AF786039600123FB733B68002B02D10223FB7311E0002365
:20086000FB730B4A3B6813600A4A7B6813600A4A136843F002031360074A136843F0010378
:200880001360FB7B18461437BD465DF8047B70470C00002014E000E010E000E080B485B0FF
:2008A00000AF786039600123FB733B68002B02D10223FB7315E00023FB730D4A3B6813605F
:2008C0000C4A7B68013B13600B4B00221A600B4A136843F002031360084A136843F00103BF
:2008E0001360FB7B18461437BD465DF8047B70470C00002014E000E018E000E010E000E030
:2009000080B400AF044A136823F00103136000BFBD465DF8047B704710E000E080B400AFA1
:20092000044B1A68044B1B68D31A1846BD465DF8047B704714E000E018E000E080B400AFAC
:20094000034B1B681846BD465DF8047B704700BF18E000E080B500AF024B1B68984700BFF1
:2009600080BD00BF0C00002080B483B000AF0346FB71FB79072B23D801A252F823F000BF24
:20098000A1090008A5090008A9090008AD090008B1090008B5090008B9090008BD09000857
:2009A0000B4B0EE00B4B0CE00B4B0AE00B4B08E00B4B06E00B4B04E00B4B02E00B4B00E04F
:2009C000002318460C37BD465DF8047B704700BF000002400004024000080240000C0240E6
:2009E000001002400014024000180240001C024090B585B000AF0446084611461A462346B6
:200A0000FB710346BB710B467B7113463B71FB791846FFF7A9FFF860FB68002B01D1012367
:200A200065E0BB790F2B01D9022360E0FB681B68BA795200032101FA02F2D2431A40FB6874
:200A40001A60FB681B687A7902F00301BA79520001FA02F21A43FB681A607B79012B02D0AD
:200A60007B79022B12D1FB685B68BA79012101FA02F2D2431A40FB685A60FB685B683979A4
:200A8000BA7901FA02F21A43FB685A60FB689B68BA795200032101FA02F2D2431A40FB68EA
:200AA0009A60FB689B6897F8202002F00301BA79520001FA02F21A43FB689A60FB68DB683D
:200AC000BA795200032101FA02F2D2431A40FB68DA60FB68DB6897F8242002F00301BA79D0
:200AE000520001FA02F21A43FB68DA60002318461437BD4690BD80B584B000AF0346FB71D2
:200B00000B46BB7113467B71FB791846FFF72CFFF860FB68002B01D1012318E0BB790F2BDE
:200B200001D9022313E07B79012B07D1BB79012202FA03F31A46FB689A6107E0BB79103366
:200B4000012202FA03F31A46FB689A61002318461037BD4680BD80B584B000AF03460A4609
:200B6000FB711346BB71FB791846FFF7FDFEF860FB68002B01D101230EE0BB790F2B01D9AF
:200B8000022309E0FB685B69BA79012101FA02F25A40FB685A61002318461037BD4680BD1C
:200BA00080B584B000AF03463A60FB710B46BB71FB791846FFF7D8FEF860FB68002B01D1FB
:200BC000012310E0BB790F2B01D902230BE0FB681A69BB7922FA03F3DBB203F00103DAB26D
:200BE0003B681A70002318461037BD4680BD000080B487B000AF0346FB710B46BB7113461B
:200C00007B71FB79072B68D801A252F823F000BF310C0008370C00083D0C0008430C00080B
:200C2000490C00084F0C0008550C00085B0C00082D4B7B6114E02D4B7B6111E02C4B7B613C
:200C40000EE02C4B7B610BE02B4B7B6108E02B4B7B6105E02A4B7B6102E02A4B7B6100BFB4
:200C60007B6920333B617B692433FB60BB79072B18D8BB799B00BB723B691B68BA7A0F212E
:200C800001FA02F2D2431A403B691A603B691B687A7902F00F01BA7A01FA02F21A433B6998
:200CA0001A601BE0BB79083BDBB29B00FB72FB681B68FA7A0F2101FA02F2D2431A40FB6868
:200CC0001A60FB681B687A7902F00F01FA7A01FA02F21A43FB681A6000E000BF1C37BD462D
:200CE0005DF8047B704700BF000002400004024000080240000C02400010024000140240E2
:200D000000180240001C024080B485B000AF0346FB710023FB60FB79022B0CD0022B0DDC3D
:200D2000002B02D0012B03D008E0084BFB6006E0074BFB6003E0074BFB6000E000BFFB68FC
:200D400018461437BD465DF8047B704700100140004400400048004080B586B000AF03469C
:200D60003960FB710023FB751DE03A681B4B83FB02139910D317C91A0B469B000B445B0037
:200D8000D11ACAB2FB7D591CF9753032D2B218333B4403F80C2C3B68104A82FB031292107D
:200DA000DB17D31A3B603B68002BDEDCFB7DBB750CE0BB7D013B07F10C02D118FB790122A3
:200DC000184600F0A6F8BB7D013BBB75BB7D002BEFD100BF00BF1837BD4680BD67666666BA
:200DE00080B586B000AF0346B9607A60FB73BB68002B00F08A80FB7B1846FFF785FF7861C0
:200E00007B690C331B687A690C3223F400531360BB681B685A087B681A44BB681B68B2FB92
:200E2000F3F33B617B6908331A463B691360BB68DB79012B08D17B690C331B687A690C3257
:200E400043F48053136007E07B690C331B687A690C3223F480531360BB685B79002B08D10F
:200E60007B690C331B687A690C3223F4806313601CE07B690C331B687A690C3243F4806361
:200E80001360BB685B79022B08D17B690C331B687A690C3243F40073136007E07B690C33F4
:200EA0001B687A690C3223F4007313607B6910331B687A69103223F4405313607B6910337E
:200EC0001A68BB689B791B037969103113430B607B690C331B68BA68127A11467A690C328B
:200EE0000B4313607B690C331B68BA68127911467A690C320B4313607B690C331B687A691C
:200F00000C3243F40053136000E000BF1837BD4680BD80B584B000AF03463960FB711346A9
:200F2000BB71FB791846FFF7EFFEB8600023FB7311E000BFBB681B68DB0903F00103002BCB
:200F4000F8D0FB7B3A6813441A78BB6804331A60FB7B0133FB73FA7BBB799A42E9D300BFDC
:200F600000BF1037BD4680BD80B582B000AF03463960FB713B68002B08DAFB7901220C492B
:200F80001846FFF7C6FF3B685B423B603B68002B06D1FB79012207491846FFF7BAFF04E0E0
:200FA000FB7939681846FFF7D7FE0837BD4680BD881300088C13000880B483B000AF78603C
:200FC0007B68002B02D0044A7B68136000BF0C37BD465DF8047B70471400002080B483B062
:200FE00000AF78607B68002B02D0044A7B68136000BF0C37BD465DF8047B7047180000201E
:2010000080B483B000AF78607B68002B02D0044A7B68136000BF0C37BD465DF8047B7047CE
:201020001C00002080B586B000AF0120FFF76CFE78617B691B683B613B6903F02003002B18
:201040000BD07B6904331B68DAB2154B1A70154B1B68134A1278104698473B6903F0080300
:20106000002B07D07B691B68FB607B6904331B68FB60FB683B6903F00403002B03D07B69D0
:201080001B68BB60BB683B6903F00203002B03D07B691B687B607B6800BF1837BD4680BD82
:2010A000100000201800002080B586B000AF0220FFF72AFE78617B691B683B613B6903F0FB
:2010C0002003002B0BD07B6904331B68DAB2154B1A70154B1B68134A1278104698473B6930
:2010E00003F00803002B07D07B691B68FB607B6904331B68FB60FB683B6903F00403002B09
:2011000003D07B691B68BB60BB683B6903F00203002B03D07B691B687B607B6800BF18378A
:20112000BD4680BD100000201C00002080B586B000AF0020FFF7E8FD78617B691B683B6112
:201140003B6903F02003002B0BD07B6904331B68DAB2154B1A70154B1B68134A127810469B
:2011600098473B6903F00803002B07D07B691B68FB607B6904331B68FB60FB683B6903F037
:201180000403002B03D07B691B68BB60BB683B6903F00203002B03D07B691B687B607B68E6
:2011A00000BF1837BD4680BD100000201400002080B586B000AF00237B6000237B61002343
:2011C0003B611B4A1B4BD31A9B107B601A4B7B61184B3B610023FB600AE07A69131D7B619E
:2011E0003B69191D396112681A60FB680133FB60FA687B689A42F0D3104A114BD31A9B1063
:201200007B600F4B3B610023BB6007E03B691A1D3A6100221A60BB680133BB60BA687B684F
:201220009A42F3D300F09EF800F010F800BFFDE70C000020000000209C1300083800002090
:201240000C00002080B400AF00BFFDE780B500AF00F064F800F070F8244B1B681B0FDBB2AB
:2012600003F00103DAB2224B1A70204B1B68DB0EDBB203F00103DAB21E4B1A701B4B1B6831
:201280009B0EDBB203F00103DAB21B4B1A70174B1B68164A43F0807313600722174901201D
:2012A000FFF737FE134B1B78002B03D1104B1B78002B0BD0124B134A1A60134B1B681A46AA
:2012C000124B1A60114B1B6898470EE00A4B1B78002BE2D00A4B0E4A1A600E4B1B681A4663
:2012E0000D4B1A600C4B1B689847D6E774380240340000203500002036000020901300080E
:2013000008ED00E000800008048000082C00002000400008044000083000002080B500AFD0
:20132000034A04490120FFF75BFD00BF80BD00BF0024F4000000002080B582B002AF002376
:201340000193032300930023022202210020FFF74FFB072202210020FFF74AFC00BFBD460C
:2013600080BD000080B500AF0648FFF713F800210020FFF757F811210320FFF753F800BF22
:2013800080BD00BF200000202D000000300000000A20424D200A00000000022000C20100EC
:0813A00008000000000000003D
:2040000000000220F55D0008895E0008895E0008895E0008895E0008895E00080000000079
:20402000000000000000000000000000895E0008895E000800000000895E0008554900080D
:20404000895E0008895E0008895E0008895E0008895E0008895E0008895E0008895E0008E8
:20406000895E0008895E0008895E0008895E0008895E0008895E0008895E0008895E0008C8
:20408000895E0008895E0008895E0008895E0008895E0008895E0008895E0008895E0008A8
:2040A000895E0008895E0008895E0008895E0008895E0008895E0008895E0008895E000888
:2040C000895E0008895E0008895E0008895E0008895E00082D51000825500008A950000831
:2040E000895E0008895E0008895E0008895E0008895E0008895E0008895E0008895E000848
:20410000895E0008895E0008895E0008895E0008895E0008895E0008895E0008895E000827
:20412000895E0008895E0008895E0008895E0008895E0008895E0008895E0008895E000807
:20414000895E0008895E0008895E0008895E0008895E0008895E0008895E0008895E0008E7
:20416000895E0008895E0008895E0008895E0008895E0008895E000880B400AF094B1B68EB
:20418000084A43F00103136000BF064B1B685B0803F00103002BF8D000BF00BFBD465DF86D
:2041A000047B70470038024080B400AF094B1B68084A43F48033136000BF064B1B685B0CEC
:2041C00003F00103002BF8D000BF00BFBD465DF8047B70470038024080B400AF094B1B68B5
:2041E000084A43F08073136000BF064B1B685B0E03F00103002BF8D000BF00BFBD465DF818
:20420000047B70470038024080B400AF094B1B68084A23F08073136000BF064B1B685B0E6D
:2042200003F00103002BF8D100BF00BFBD465DF8047B70470038024080B483B000AF0346AE
:20424000FB710F4B1B680E4A23F0030313600C4B1A68FB7903F00303094913430B6000BF19
:20426000074B1B689B0803F00302FB799A42F7D100BF00BF0C37BD465DF8047B704700BFA8
:204280000838024080B584B000AF7860FFF7BCFF0023FB607B685B7803F03F03FA681343DA
:2042A000FB607B685B889A0147F6C0731340FA681343FB607B681B795B08DBB2013B1B04AA
:2042C00003F44033FA681343FB607B681B789B05FA681343FB607B685B791B0603F070639A
:2042E000FA681343FB60034AFB68136000BF1037BD4680BD0438024080B483B000AF034665
:20430000FB71094B1B68084A23F0F0031360064B1A68FB791B01044913430B6000BF0C371C
:20432000BD465DF8047B70470838024080B483B000AF0346FB71094B1B68084A23F4E0532F
:204340001360064B1A68FB799B02044913430B6000BF0C37BD465DF8047B704708380240E6
:2043600080B483B000AF0346FB71094B1B68084A23F460431360064B1A68FB795B0304492A
:2043800013430B6000BF0C37BD465DF8047B70470838024080B582B000AF78607B68002B4E
:2043A00039D07B681B78022B12D0022B35DC002B02D0012B06D030E0FFF7DEFE0020FFF73A
:2043C0003BFF2BE0FFF7F0FE0120FFF735FF25E07B689B78012B02D1FFF7E6FE01E0FFF7BE
:2043E000CBFE7B6802331846FFF74CFFFFF7F4FE7B681B7A1846FFF77FFF7B685B7A1846F5
:20440000FFF794FF7B689B7A1846FFF7A9FF0220FFF712FF02E000BF00E000BF0837BD4674
:2044200080BD000080B483B000AF03460A46FB711346BB71FB79042B43D801A252F823F0E1
:20444000554400086B4400088144000897440008AD4400081E4B1B68BA79012101FA02F22B
:2044600011461B4A0B4313602CE01A4B1B68BA79012101FA02F21146164A0B43136021E00E
:20448000154B1B68BA79012101FA02F21146124A0B43136016E0114B1B68BA79012101FA5C
:2044A00002F211460D4A0B4313600BE00C4B1B68BA79012101FA02F21146094A0B43136025
:2044C00000E000BF00BF0C37BD465DF8047B704730380240343802403838024040380240E9
:2044E0004438024080B483B000AF03460A46FB711346BB71FB79042B48D801A252F823F09B
:20450000154500082D450008454500085D45000875450008214B1B68BA79012101FA02F28E
:20452000D24311461D4A0B40136030E01C4B1B68BA79012101FA02F2D2431146184A0B4093
:20454000136024E0174B1B68BA79012101FA02F2D2431146134A0B40136018E0124B1B685C
:20456000BA79012101FA02F2D24311460E4A0B4013600CE00D4B1B68BA79012101FA02F26A
:20458000D2431146094A0B40136000E000BF00BF0C37BD465DF8047B704700BF3038024006
:2045A0003438024038380240403802404438024080B485B000AF0346FB710023FB73FB7951
:2045C0001F2B05D8FB7901229A400C4B1A600DE0FB793B2B08D8FB79203BFB71FB790122F9
:2045E0009A40074B1A6001E00123FB73FB7B18461437BD465DF8047B704700BF00E100E075
:2046000004E100E080B485B000AF0346FB710023FB73FB791F2B05D8FB7901229A400C4B14
:204620001A600DE0FB793B2B08D8FB79203BFB71FB7901229A40074B1A6001E00123FB736E
:20464000FB7B18461437BD465DF8047B704700BF80E100E084E100E080B485B000AF034607
:20466000FB710023FB73FB791F2B05D8FB7901229A400C4B1A600DE0FB793B2B08D8FB7945
:20468000203BFB71FB7901229A40074B1A6001E00123FB73FB7B18461437BD465DF8047BAD
:2046A000704700BF00E200E004E200E080B485B000AF0346FB710023FB73FB791F2B05D803
:2046C000FB7901229A400C4B1A600DE0FB793B2B08D8FB79203BFB71FB7901229A40074BF3
:2046E0001A6001E00123FB73FB7B18461437BD465DF8047B704700BF80E200E084E200E0D9
:2047000080B485B000AF03463960FB710023FB73FB791F2B0BD8134B1A68FB7922FA03F39B
:20472000DBB203F00103DAB23B681A7013E0FB793B2B0ED8FB79203BFB710B4B1A68FB7902
:2047400022FA03F3DBB203F00103DAB23B681A7001E00123FB73FB7B18461437BD465DF820
:20476000047B704700E300E004E300E080B485B000AF0346FB710B46BB7113467B71134B8C
:20478000134A1A600223FB7397F90730002B16DB97F90730002B12DBBA79FB7B02FA03F352
:2047A0005AB297F9053013435BB2DAB297F9073003F1604303F564431201D2B21A7000BF5C
:2047C0001437BD465DF8047B704700BF0CED00E00005FA0580B400AF044A136823F004039E
:2047E000136000BFBD465DF8047B704710E000E080B584B000AF78607B684FF4FA6202FBBA
:2048000003F3FB600C4B00221A600C4AFB6813600B4A136843F00103136000BF084B1B6819
:20482000C3F30043DBB2002BF8D000F069F800BF1037BD4680BD00BF18E000E014E000E0FD
:2048400010E000E080B485B000AF786039600123FB733B68002B02D10223FB7311E0002325
:20486000FB730B4A3B6813600A4A7B6813600A4A136843F002031360074A136843F0010338
:204880001360FB7B18461437BD465DF8047B70471C00002014E000E010E000E080B485B0AF
:2048A00000AF786039600123FB733B68002B02D10223FB7315E00023FB730D4A3B6813601F
:2048C0000C4A7B68013B13600B4B00221A600B4A136843F002031360084A136843F001037F
:2048E0001360FB7B18461437BD465DF8047B70471C00002014E000E018E000E010E000E0E0
:2049000080B400AF044A136823F00103136000BFBD465DF8047B704710E000E080B400AF61
:20492000044B1A68044B1B68D31A1846BD465DF8047B704714E000E018E000E080B400AF6C
:20494000034B1B681846BD465DF8047B704700BF18E000E080B500AF024B1B68984700BFB1
:2049600080BD00BF1C00002080B483B000AF0346FB71FB79072B23D801A252F823F000BFD4
:20498000A1490008A5490008A9490008AD490008B1490008B5490008B9490008BD49000817
:2049A0000B4B0EE00B4B0CE00B4B0AE00B4B08E00B4B06E00B4B04E00B4B02E00B4B00E00F
:2049C000002318460C37BD465DF8047B704700BF000002400004024000080240000C0240A6
:2049E000001002400014024000180240001C024090B585B000AF0446084611461A46234676
:204A0000FB710346BB710B467B7113463B71FB791846FFF7A9FFF860FB68002B01D1012327
:204A200065E0BB790F2B01D9022360E0FB681B68BA795200032101FA02F2D2431A40FB6834
:204A40001A60FB681B687A7902F00301BA79520001FA02F21A43FB681A607B79012B02D06D
:204A60007B79022B12D1FB685B68BA79012101FA02F2D2431A40FB685A60FB685B68397964
:204A8000BA7901FA02F21A43FB685A60FB689B68BA795200032101FA02F2D2431A40FB68AA
:204AA0009A60FB689B6897F8202002F00301BA79520001FA02F21A43FB689A60FB68DB68FD
:204AC000BA795200032101FA02F2D2431A40FB68DA60FB68DB6897F8242002F00301BA7990
:204AE000520001FA02F21A43FB68DA60002318461437BD4690BD80B584B000AF0346FB7192
:204B00000B46BB7113467B71FB791846FFF72CFFF860FB68002B01D1012318E0BB790F2B9E
:204B200001D9022313E07B79012B07D1BB79012202FA03F31A46FB689A6107E0BB79103326
:204B4000012202FA03F31A46FB689A61002318461037BD4680BD80B584B000AF03460A46C9
:204B6000FB711346BB71FB791846FFF7FDFEF860FB68002B01D101230EE0BB790F2B01D96F
:204B8000022309E0FB685B69BA79012101FA02F25A40FB685A61002318461037BD4680BDDC
:204BA00080B584B000AF03463A60FB710B46BB71FB791846FFF7D8FEF860FB68002B01D1BB
:204BC000012310E0BB790F2B01D902230BE0FB681A69BB7922FA03F3DBB203F00103DAB22D
:204BE0003B681A70002318461037BD4680BD000080B487B000AF0346FB710B46BB711346DB
:204C00007B71FB79072B68D801A252F823F000BF314C0008374C00083D4C0008434C0008CB
:204C2000494C00084F4C0008554C00085B4C00082D4B7B6114E02D4B7B6111E02C4B7B61FC
:204C40000EE02C4B7B610BE02B4B7B6108E02B4B7B6105E02A4B7B6102E02A4B7B6100BF74
:204C60007B6920333B617B692433FB60BB79072B18D8BB799B00BB723B691B68BA7A0F21EE
:204C800001FA02F2D2431A403B691A603B691B687A7902F00F01BA7A01FA02F21A433B6958
:204CA0001A601BE0BB79083BDBB29B00FB72FB681B68FA7A0F2101FA02F2D2431A40FB6828
:204CC0001A60FB681B687A7902F00F01FA7A01FA02F21A43FB681A6000E000BF1C37BD46ED
:204CE0005DF8047B704700BF000002400004024000080240000C02400010024000140240A2
:204D000000180240001C024080B485B000AF0346FB710023FB60FB79022B0CD0022B0DDCFD
:204D2000002B02D0012B03D008E0084BFB6006E0074BFB6003E0074BFB6000E000BFFB68BC
:204D400018461437BD465DF8047B704700100140004400400048004080B586B000AF03465C
:204D60003960FB710023FB751DE03A681B4B83FB02139910D317C91A0B469B000B445B00F7
:204D8000D11ACAB2FB7D591CF9753032D2B218333B4403F80C2C3B68104A82FB031292103D
:204DA000DB17D31A3B603B68002BDEDCFB7DBB750CE0BB7D013B07F10C02D118FB79012263
:204DC000184600F0A6F8BB7D013BBB75BB7D002BEFD100BF00BF1837BD4680BD676666667A
:204DE00080B586B000AF0346B9607A60FB73BB68002B00F08A80FB7B1846FFF785FF786180
:204E00007B690C331B687A690C3223F400531360BB681B685A087B681A44BB681B68B2FB52
:204E2000F3F33B617B6908331A463B691360BB68DB79012B08D17B690C331B687A690C3217
:204E400043F48053136007E07B690C331B687A690C3223F480531360BB685B79002B08D1CF
:204E60007B690C331B687A690C3223F4806313601CE07B690C331B687A690C3243F4806321
:204E80001360BB685B79022B08D17B690C331B687A690C3243F40073136007E07B690C33B4
:204EA0001B687A690C3223F4007313607B6910331B687A69103223F4405313607B6910333E
:204EC0001A68BB689B791B037969103113430B607B690C331B68BA68127A11467A690C324B
:204EE0000B4313607B690C331B68BA68127911467A690C320B4313607B690C331B687A69DC
:204F00000C3243F40053136000E000BF1837BD4680BD80B584B000AF03463960FB71134669
:204F2000BB71FB791846FFF7EFFEB8600023FB7311E000BFBB681B68DB0903F00103002B8B
:204F4000F8D0FB7B3A6813441A78BB6804331A60FB7B0133FB73FA7BBB799A42E9D300BF9C
:204F600000BF1037BD4680BD80B582B000AF03463960FB713B68002B08DAFB7901220C49EB
:204F80001846FFF7C6FF3B685B423B603B68002B06D1FB79012207491846FFF7BAFF04E0A0
:204FA000FB7939681846FFF7D7FE0837BD4680BDE45F0008E85F000880B483B000AF7860AC
:204FC0007B68002B02D0044A7B68136000BF0C37BD465DF8047B70472400002080B483B012
:204FE00000AF78607B68002B02D0044A7B68136000BF0C37BD465DF8047B704728000020CE
:2050000080B483B000AF78607B68002B02D0044A7B68136000BF0C37BD465DF8047B70478E
:205020002C00002080B586B000AF0120FFF76CFE78617B691B683B613B6903F02003002BC8
:205040000BD07B6904331B68DAB2154B1A70154B1B68134A1278104698473B6903F00803C0
:20506000002B07D07B691B68FB607B6904331B68FB60FB683B6903F00403002B03D07B6990
:205080001B68BB60BB683B6903F00203002B03D07B691B687B607B6800BF1837BD4680BD42
:2050A000200000202800002080B586B000AF0220FFF72AFE78617B691B683B613B6903F09B
:2050C0002003002B0BD07B6904331B68DAB2154B1A70154B1B68134A1278104698473B69F0
:2050E00003F00803002B07D07B691B68FB607B6904331B68FB60FB683B6903F00403002BC9
:2051000003D07B691B68BB60BB683B6903F00203002B03D07B691B687B607B6800BF18374A
:20512000BD4680BD200000202C00002080B586B000AF0020FFF7E8FD78617B691B683B61B2
:205140003B6903F02003002B0BD07B6904331B68DAB2154B1A70154B1B68134A127810465B
:2051600098473B6903F00803002B07D07B691B68FB607B6904331B68FB60FB683B6903F0F7
:205180000403002B03D07B691B68BB60BB683B6903F00203002B03D07B691B687B607B68A6
:2051A00000BF1837BD4680BD200000202400002080B400AF074B1B68002B05DA064B074AB9
:2051C0001A60054B064A1A6000BFBD465DF8047B704700BF103C0240043C0240230167454F
:2051E000AB89EFCD80B400AF054B1B68044A43F00043136000BFBD465DF8047B704700BFC6
:20520000103C024080B400AF044B1B68DB0FDBB21846BD465DF8047B704700BF103C02409B
:2052200080B400AF054B1B68044A43F0F303136000BFBD465DF8047B704700BF0C3C024038
:2052400080B483B000AF114B7B6002E07B68013B7B600F4B1B6803F48033002B02D07B68BE
:20526000002BF3D17B68002B01D1022308E0084B1B6803F0F203002B01D0012300E0002371
:2052800018460C37BD465DF8047B7047404B4C000C3C024080B483B000AF78607B68B3F109
:2052A000006F05D37B68064A934201D8012300E00023DBB218460C37BD465DF8047B7047E3
:2052C000FFFF070880B483B000AF78607B68184A934201D2002324E07B68164A934201D2D4
:2052E00001231EE07B68144A934201D2022318E07B68124A934201D8032312E07B68104A44
:20530000934201D804230CE07B680E4A934201D8052306E07B680C4A934201D8062300E0E5
:20532000072318460C37BD465DF8047B704700BF004000080080000800C00008FFFF0008B7
:20534000FFFF0108FFFF0308FFFF050880B483B000AF78607B68072B23D801A252F823F034
:2053600081530008875300088B5300088F53000893530008975300089B5300089F530008CF
:205380004FF000630EE00A4B0CE00A4B0AE00A4B08E00A4B06E00A4B04E00A4B02E00A4BC0
:2053A00000E0002318460C37BD465DF8047B7047004000080080000800C00008000001081A
:2053C00000000208000004080000060880B483B000AF78607B68072B2AD801A252F823F0A4
:2053E00001540008075400080D54000813540008195400081F540008255400082B5400081D
:205400004FF4804315E04FF4804312E04FF480430FE04FF480430CE04FF4803309E04FF490
:20542000003306E04FF4003303E04FF4003300E0002318460C37BD465DF8047B704700BF93
:2054400080B584B000AF78607B68072B01D9042334E0FFF7ADFEFFF7E3FEFFF7F1FE03468C
:20546000FB73FB7B002B03D0FFF7BCFEFB7B25E0144B1B68134A23F078031360114B1A6801
:205480007B68DB000F4913430B600E4B1B680D4A43F0020313600B4B1B680A4A43F4803340
:2054A0001360FFF7CDFE0346FB73064B1B68054A23F002031360FFF795FEFB7B18461037AF
:2054C000BD4680BD103C024090B587B000AF786039607A683B681344013B3B617B687B61EF
:2054E0007868FFF7D7FE0346002B05D03869FFF7D1FE0346002B19D104231CE07869FFF7FA
:20550000E1FEF860F868FFF79BFF0346FB72FB7A002B01D0FB7A0EE0F868FFF717FF044624
:20552000F868FFF753FF034623447B617A693B699A42E3D9002318461C37BD4690BD0000F4
:2055400080B582B000AFFFF733FEFFF769FEFFF777FE0346FB71FB79002B03D0FFF742FEE9
:20556000FB7918E00E4B1B680D4A43F0040313600B4B1B680A4A43F480331360FFF760FE01
:205580000346FB71064B1B68054A23F004031360FFF728FEFB7918460837BD4680BD00BF7A
:2055A000103C024080B584B000AF78600B46FB707868FFF76FFE0346002B01D104232EE0F3
:2055C000FFF7F6FDFFF72CFEFFF73AFE0346FB73FB7B002B03D0FFF705FEFB7B1FE0124B9E
:2055E0001B68114A23F4407313600F4B0E4A1B6813600D4B1B680C4A43F0010313607B682A
:20560000FA781A70FFF71CFE0346FB73064B1B68054A23F001031360FFF7E4FDFB7B18466F
:205620001037BD4680BD00BF103C024080B584B000AF78600B467B807868FFF72BFE034612
:20564000002B01D1042337E07B6803F00103002B01D0032330E0FFF7ABFDFFF7E1FDFFF79B
:20566000EFFD0346FB73FB7B002B03D0FFF7BAFDFB7B21E0124B1B68114A23F44073136077
:205680000F4B1B680E4A43F4807313600C4B1B680B4A43F0010313607B687A881A80FFF7EA
:2056A000CFFD0346FB73064B1B68054A23F001031360FFF797FDFB7B18461037BD4680BDD5
:2056C000103C024080B584B000AF786039607868FFF7E0FD0346002B01D1042337E07B6899
:2056E00003F00303002B01D0032330E0FFF760FDFFF796FDFFF7A4FD0346FB73FB7B002BB4
:2057000003D0FFF76FFDFB7B21E0134B1B68124A23F440731360104B1B680F4A43F4007382
:2057200013600D4B1B680C4A43F0010313607B683A681A60FFF784FD0346FB73064B1B681A
:20574000054A23F001031360FFF74CFDFB7B18461037BD4680BD00BF103C024080B586B01E
:2057600000AFF860B9607A6000237B61F868FFF791FD0346002B09D0FA687B681344013B27
:205780001846FFF787FD0346002B01D1042321E07968F86800F0ABF80346002B15D106236C
:2057A00018E0FA687B69D018BA687B6913441B781946FFF7F7FE0346FB74FB7C002B01D05E
:2057C000FB7C07E07B6901337B617A697B689A42E7D3002318461837BD4680BD80B588B09E
:2057E00000AFF860B9607A600023FB61F868FFF751FD0346002B09D0FA687B681344013B67
:205800001846FFF747FD0346002B01D1042344E0FB6803F00303002B01D003233DE07968E3
:20582000F86800F064F80346002B17D1062334E0BA68FB6913441B687B61FA68FB691344CA
:2058400079691846FFF73EFF0346FB76FB7E002B01D0FB7E21E0FB690433FB61FB6904339A
:205860007A689A42E4D213E0FA68FB69D018BA68FB6913441B781946FFF794FE0346FB7602
:20588000FB7E002B01D0FB7E07E0FB690133FB61FA697B689A42E7D3002318462037BD4688
:2058A00080BD80B487B000AFF860B9607A60FB683B6100237B610FE03A697B6913441A78E9
:2058C000B9687B690B441B789A4202D04FF0FF3307E07B6901337B617A697B689A42EBD387
:2058E000002318461C37BD465DF8047B704780B485B000AF786039607B68BB600023FB6041
:205900000AE0BA68FB6813441B78FF2B01D0002307E0FB680133FB60FA683B689A42F0D393
:20592000012318461437BD465DF8047B704780B586B000AFF860B9607A60FB683B61F86848
:20594000FFF7A8FC0346002B09D0FA687B681344013B1846FFF79EFC0346002B01D104232D
:2059600012E000237B610AE03A697B691A44B9687B690B4412781A707B6901337B617A6928
:205980007B689A42F0D3002318461837BD4680BD80B400AF72B600BFBD465DF8047B70471D
:2059A00080B400AF62B600BFBD465DF8047B704780B584B000AF78603960FFF7E9FF396897
:2059C0007868FFF77FFE0346FB73FFF7E9FFFB7B18461037BD4680BD80B483B000AF034625
:2059E0000A46FB711346BB71FB79094AD35C5BB21B015AB2BB790649CB5C5BB213435BB221
:205A0000DBB218460C37BD465DF8047B704700BF4060000880B485B000AF0023FB6020E0CD
:205A2000FB68BB600023FB7110E0BB6803F00103002B05D0BB685A08104B5340BB6002E0DF
:205A4000BB685B08BB60FB790133FB71FB79072BEBD90B49FB68BA6841F82320FB6801333B
:205A6000FB60FB68FF2BDBD9064B01221A7000BF1437BD465DF8047B704700BF2083B8EDED
:205A8000440000204404002080B485B000AF786039604FF0FF33FB600023BB6011E0FB6853
:205AA0001A0A7968BB680B441B781946FB684B40DBB20A4951F823305340FB60BB680133CE
:205AC000BB60BA683B689A42E9D3FB68DB4318461437BD465DF8047B704700BF4400002073
:205AE00080B483B000AF0346FB71164B1B78002B09D1FB79552B1FD1124B01221A70124B97
:205B000000221A6018E0114B01221A700E4B00221A600F4B00221A700E4B00221A700E4B8F
:205B20001B68032B09D80C4B1B685A1C0A490A600A49FA79CA5400E000BF0C37BD465DF8A8
:205B4000047B704750040020680400203000002031000020320000204C0400204804002040
:205B600080B588B000AF8D4B1B6842F21072934202D98B4B8B4A1A608B4B1B68032B50D973
:205B800072B60023FB610DE0884AFB6913441B78D9B207F10802FB6913440A461A70FB69CB
:205BA0000133FB61FB69032BEED97F4B00221A6062B67F4B1B68012B0CD1FB7A1A06BB7A5E
:205BC0001B041A437B7A1B0213433A7A1343794A136021E0764B1B68022B0CD1FB7A1A06BD
:205BE000BB7A1B041A437B7A1B0213433A7A1343714A136010E06E4B1B68022B0CD96F4B5C
:205C00001B6807F1080104221846FFF7E7FD6B4B1B680433694A1360654B1B680133644AF7
:205C20001360654B1B689B08DA1C614B1B689A4256D15D4B1B68002B29D072B60023BB613D
:205C40000CE05A4ABB6913441B78D9B23A1DBB6913440A461A70BB690133BB61524B1B68DB
:205C6000BA699A42EDD3504B1B68BB614E4B00221A6062B6514B1B68391DBA691846FFF7F2
:205C8000ADFD4E4B1A68BB6913444C4A13604C4B01221A70484B1B6819464A48FFF7F4FE88
:205CA0007861444B1B687A699A4208D1092246490120FFF72EF9454B01221A7010E00D220D
:205CC00043490120FFF725F9394B00221A603A4B00221A60374B00221A60384B394A1A6024
:205CE0002E4B1B68B3F5FA6F03D8384B1B78012B4FD1384B1B78012B4BD1374B1B78002BBC
:205D000047D1304B1B683B61344B1B68FB603B69B3F1005F23D33B69314A93421FD8FB6889
:205D2000284A93421BD3FB682E4A934217D812222D490120FFF7EDF8204B224A1A60234B2A
:205D400000221A701A4B00221A60284B00221A70184B00221A60124B124A1A6013E015221B
:205D600023490120FFF7D5F8114B00221A60114B00221A601D4B00221A70144B00221A70C4
:205D80000E4B104A1A60144B01221A70114B00221A7000BF2037BD4680BD00BF6804002021
:205DA0000CED00E00400FA054C0400204804002034000020400000203800002000000020FF
:205DC0003100002000800008EC5F00083C000020F85F0008300000203200002004800008AE
:205DE000000002200000080808600008500400201C60000880B586B000AF00237B600023CE
:205E00007B6100233B611B4A1B4BD31A9B107B601A4B7B61184B3B610023FB600AE07A691E
:205E2000131D7B613B69191D396112681A60FB680133FB60FA687B689A42F0D3104A114B62
:205E4000D31A9B107B600F4B3B610023BB6007E03B691A1D3A6100221A60BB680133BB6030
:205E6000BA687B689A42F3D300F09CF800F01EF800BFFDE71C000020000000201C6100086D
:205E80006C0400201C00002080B400AF00BFFDE780B400AF044B1B680133034A136000BF48
:205EA000BD465DF8047B70476804002080B500AF00F036F800F020F8FEF78CFC2520FEF707
:205EC00077FB2620FEF774FB09494FF4FA60FEF7E5FC082207490120FFF71BF8FFF79AFDB0
:205EE0000220FFF7ADFA00F073F8FFF739FEFCE7915E00083460000880B500AF054A064963
:205F00000120FEF76DFF034A04490020FEF768FF00BF80BD0024F400100000200400002081
:205F200080B582B002AF00230193032300930023022202210020FEF75BFD07220221002096
:205F4000FEF756FE00230193032300930023022203210020FEF74CFD072203210020FEF75D
:205F600047FE00230193032300930023022209210020FEF73DFD0023019303230093002319
:205F800002220A210020FEF733FD072209210020FEF72EFE07220A210020FEF729FE00BF8A
:205FA000BD4680BD80B500AF0848FEF7F3F900210020FEF737FA04210420FEF733FA112188
:205FC0000320FEF72FFA00BF80BD00BF5C04002080B500AF0248FEF7EFFF00BF80BD00BF79
:205FE000E15A00082D000000300000000A435243204F4B210A0000000A4352432046414968
:206000004C4544210A0000000A566572696669636174696F6E204F4B210A00000A56657277
:20602000696669636174696F6E204641494C4544210A00000A2042544C44200A0000000040
:20604000000000000000000000000000000000000000000000000000000000000000000040
:206060000000000000000000000000000000000000010203040506070809000000000000F3
:20608000000A0B0C0D0E0F00000000000000000000000000000000000000000000000000B5
:2060A000000A0B0C0D0E0F0000000000000002200000000000000000000000000000000073
:2060C0000000000000000000000000000000000000000000000000000000000000000000C0
:2060E00000010203040506070809000000000000000A0B0C0D0E0F00000000000000000028
:2061000000000000000000000000000000000000000A0B0C0D0E0F000000000000800008AC
:1861200000C201000C0000002000000000C201000C0000002000000089
:2080000000000220C9AF00085DB000085DB000085DB000085DB000085DB000080000000055
:208020000000000000000000000000005DB000085DB00008000000005DB00008558900081B
:208040005DB000085DB000085DB000085DB000085DB000085DB000085DB000085DB0000878
:208060005DB000085DB000085DB000085DB000085DB000085DB000085DB000085DB0000858
:208080005DB000085DB000085DB000085DB000085DB000085DB000085DB000085DB0000838
:2080A0005DB000085DB000085DB000085DB000085DB000085DB000085DB000089D9E0008EA
:2080C0006D9F00089D9F0008AB9F00085DB000085DB000082D91000825900008A990000808
:2080E0005DB000085DB000085DB000085DB000085DB000085DB000085DB000085DB00008D8
:208100005DB000085DB000085DB000085DB000085DB000085DB00008199800085598000833
:208120005DB000085DB000085DB000085DB000085DB000085DB000085DB000085DB0000897
:208140005DB000085DB000085DB000085DB000085DB000085DB00008B99F0008C79F0008D3
:208160005DB000085DB000085DB000085DB000085DB000085DB0000880B400AF094B1B68C7
:20818000084A43F00103136000BF064B1B685B0803F00103002BF8D000BF00BFBD465DF82D
:2081A000047B70470038024080B400AF094B1B68084A43F48033136000BF064B1B685B0CAC
:2081C00003F00103002BF8D000BF00BFBD465DF8047B70470038024080B400AF094B1B6875
:2081E000084A43F08073136000BF064B1B685B0E03F00103002BF8D000BF00BFBD465DF8D8
:20820000047B70470038024080B400AF094B1B68084A23F08073136000BF064B1B685B0E2D
:2082200003F00103002BF8D100BF00BFBD465DF8047B70470038024080B483B000AF03466E
:20824000FB710F4B1B680E4A23F0030313600C4B1A68FB7903F00303094913430B6000BFD9
:20826000074B1B689B0803F00302FB799A42F7D100BF00BF0C37BD465DF8047B704700BF68
:208280000838024080B584B000AF7860FFF7BCFF0023FB607B685B7803F03F03FA6813439A
:2082A000FB607B685B889A0147F6C0731340FA681343FB607B681B795B08DBB2013B1B046A
:2082C00003F44033FA681343FB607B681B789B05FA681343FB607B685B791B0603F070635A
:2082E000FA681343FB60034AFB68136000BF1037BD4680BD0438024080B483B000AF034625
:20830000FB71094B1B68084A23F0F0031360064B1A68FB791B01044913430B6000BF0C37DC
:20832000BD465DF8047B70470838024080B483B000AF0346FB71094B1B68084A23F4E053EF
:208340001360064B1A68FB799B02044913430B6000BF0C37BD465DF8047B704708380240A6
:2083600080B483B000AF0346FB71094B1B68084A23F460431360064B1A68FB795B030449EA
:2083800013430B6000BF0C37BD465DF8047B70470838024080B582B000AF78607B68002B0E
:2083A00039D07B681B78022B12D0022B35DC002B02D0012B06D030E0FFF7DEFE0020FFF7FA
:2083C0003BFF2BE0FFF7F0FE0120FFF735FF25E07B689B78012B02D1FFF7E6FE01E0FFF77E
:2083E000CBFE7B6802331846FFF74CFFFFF7F4FE7B681B7A1846FFF77FFF7B685B7A1846B5
:20840000FFF794FF7B689B7A1846FFF7A9FF0220FFF712FF02E000BF00E000BF0837BD4634
:2084200080BD000080B483B000AF03460A46FB711346BB71FB79042B43D801A252F823F0A1
:20844000558400086B8400088184000897840008AD8400081E4B1B68BA79012101FA02F2AB
:2084600011461B4A0B4313602CE01A4B1B68BA79012101FA02F21146164A0B43136021E0CE
:20848000154B1B68BA79012101FA02F21146124A0B43136016E0114B1B68BA79012101FA1C
:2084A00002F211460D4A0B4313600BE00C4B1B68BA79012101FA02F21146094A0B431360E5
:2084C00000E000BF00BF0C37BD465DF8047B704730380240343802403838024040380240A9
:2084E0004438024080B483B000AF03460A46FB711346BB71FB79042B48D801A252F823F05B
:20850000158500082D850008458500085D85000875850008214B1B68BA79012101FA02F20E
:20852000D24311461D4A0B40136030E01C4B1B68BA79012101FA02F2D2431146184A0B4053
:20854000136024E0174B1B68BA79012101FA02F2D2431146134A0B40136018E0124B1B681C
:20856000BA79012101FA02F2D24311460E4A0B4013600CE00D4B1B68BA79012101FA02F22A
:20858000D2431146094A0B40136000E000BF00BF0C37BD465DF8047B704700BF30380240C6
:2085A0003438024038380240403802404438024080B485B000AF0346FB710023FB73FB7911
:2085C0001F2B05D8FB7901229A400C4B1A600DE0FB793B2B08D8FB79203BFB71FB790122B9
:2085E0009A40074B1A6001E00123FB73FB7B18461437BD465DF8047B704700BF00E100E035
:2086000004E100E080B485B000AF0346FB710023FB73FB791F2B05D8FB7901229A400C4BD4
:208620001A600DE0FB793B2B08D8FB79203BFB71FB7901229A40074B1A6001E00123FB732E
:20864000FB7B18461437BD465DF8047B704700BF80E100E084E100E080B485B000AF0346C7
:20866000FB710023FB73FB791F2B05D8FB7901229A400C4B1A600DE0FB793B2B08D8FB7905
:20868000203BFB71FB7901229A40074B1A6001E00123FB73FB7B18461437BD465DF8047B6D
:2086A000704700BF00E200E004E200E080B485B000AF0346FB710023FB73FB791F2B05D8C3
:2086C000FB7901229A400C4B1A600DE0FB793B2B08D8FB79203BFB71FB7901229A40074BB3
:2086E0001A6001E00123FB73FB7B18461437BD465DF8047B704700BF80E200E084E200E099
:2087000080B485B000AF03463960FB710023FB73FB791F2B0BD8134B1A68FB7922FA03F35B
:20872000DBB203F00103DAB23B681A7013E0FB793B2B0ED8FB79203BFB710B4B1A68FB79C2
:2087400022FA03F3DBB203F00103DAB23B681A7001E00123FB73FB7B18461437BD465DF8E0
:20876000047B704700E300E004E300E080B485B000AF0346FB710B46BB7113467B71134B4C
:20878000134A1A600223FB7397F90730002B16DB97F90730002B12DBBA79FB7B02FA03F312
:2087A0005AB297F9053013435BB2DAB297F9073003F1604303F564431201D2B21A7000BF1C
:2087C0001437BD465DF8047B704700BF0CED00E00005FA0580B400AF044A136823F004035E
:2087E000136000BFBD465DF8047B704710E000E080B584B000AF78607B684FF4FA6202FB7A
:2088000003F3FB600C4B00221A600C4AFB6813600B4A136843F00103136000BF084B1B68D9
:20882000C3F30043DBB2002BF8D000F069F800BF1037BD4680BD00BF18E000E014E000E0BD
:2088400010E000E080B485B000AF786039600123FB733B68002B02D10223FB7311E00023E5
:20886000FB730B4A3B6813600A4A7B6813600A4A136843F002031360074A136843F00103F8
:208880001360FB7B18461437BD465DF8047B70474C00002014E000E010E000E080B485B03F
:2088A00000AF786039600123FB733B68002B02D10223FB7315E00023FB730D4A3B681360DF
:2088C0000C4A7B68013B13600B4B00221A600B4A136843F002031360084A136843F001033F
:2088E0001360FB7B18461437BD465DF8047B70474C00002014E000E018E000E010E000E070
:2089000080B400AF044A136823F00103136000BFBD465DF8047B704710E000E080B400AF21
:20892000044B1A68044B1B68D31A1846BD465DF8047B704714E000E018E000E080B400AF2C
:20894000034B1B681846BD465DF8047B704700BF18E000E080B500AF024B1B68984700BF71
:2089600080BD00BF4C00002080B483B000AF0346FB71FB79072B23D801A252F823F000BF64
:20898000A1890008A5890008A9890008AD890008B1890008B5890008B9890008BD890008D7
:2089A0000B4B0EE00B4B0CE00B4B0AE00B4B08E00B4B06E00B4B04E00B4B02E00B4B00E0CF
:2089C000002318460C37BD465DF8047B704700BF000002400004024000080240000C024066
:2089E000001002400014024000180240001C024090B585B000AF0446084611461A46234636
:208A0000FB710346BB710B467B7113463B71FB791846FFF7A9FFF860FB68002B01D10123E7
:208A200065E0BB790F2B01D9022360E0FB681B68BA795200032101FA02F2D2431A40FB68F4
:208A40001A60FB681B687A7902F00301BA79520001FA02F21A43FB681A607B79012B02D02D
:208A60007B79022B12D1FB685B68BA79012101FA02F2D2431A40FB685A60FB685B68397924
:208A8000BA7901FA02F21A43FB685A60FB689B68BA795200032101FA02F2D2431A40FB686A
:208AA0009A60FB689B6897F8202002F00301BA79520001FA02F21A43FB689A60FB68DB68BD
:208AC000BA795200032101FA02F2D2431A40FB68DA60FB68DB6897F8242002F00301BA7950
:208AE000520001FA02F21A43FB68DA60002318461437BD4690BD80B584B000AF0346FB7152
:208B00000B46BB7113467B71FB791846FFF72CFFF860FB68002B01D1012318E0BB790F2B5E
:208B200001D9022313E07B79012B07D1BB79012202FA03F31A46FB689A6107E0BB791033E6
:208B4000012202FA03F31A46FB689A61002318461037BD4680BD80B584B000AF03460A4689
:208B6000FB711346BB71FB791846FFF7FDFEF860FB68002B01D101230EE0BB790F2B01D92F
:208B8000022309E0FB685B69BA79012101FA02F25A40FB685A61002318461037BD4680BD9C
:208BA00080B584B000AF03463A60FB710B46BB71FB791846FFF7D8FEF860FB68002B01D17B
:208BC000012310E0BB790F2B01D902230BE0FB681A69BB7922FA03F3DBB203F00103DAB2ED
:208BE0003B681A70002318461037BD4680BD000080B487B000AF0346FB710B46BB7113469B
:208C00007B71FB79072B68D801A252F823F000BF318C0008378C00083D8C0008438C00088B
:208C2000498C00084F8C0008558C00085B8C00082D4B7B6114E02D4B7B6111E02C4B7B61BC
:208C40000EE02C4B7B610BE02B4B7B6108E02B4B7B6105E02A4B7B6102E02A4B7B6100BF34
:208C60007B6920333B617B692433FB60BB79072B18D8BB799B00BB723B691B68BA7A0F21AE
:208C800001FA02F2D2431A403B691A603B691B687A7902F00F01BA7A01FA02F21A433B6918
:208CA0001A601BE0BB79083BDBB29B00FB72FB681B68FA7A0F2101FA02F2D2431A40FB68E8
:208CC0001A60FB681B687A7902F00F01FA7A01FA02F21A43FB681A6000E000BF1C37BD46AD
:208CE0005DF8047B704700BF000002400004024000080240000C0240001002400014024062
:208D000000180240001C024080B485B000AF0346FB710023FB60FB79022B0CD0022B0DDCBD
:208D2000002B02D0012B03D008E0084BFB6006E0074BFB6003E0074BFB6000E000BFFB687C
:208D400018461437BD465DF8047B704700100140004400400048004080B586B000AF03461C
:208D60003960FB710023FB751DE03A681B4B83FB02139910D317C91A0B469B000B445B00B7
:208D8000D11ACAB2FB7D591CF9753032D2B218333B4403F80C2C3B68104A82FB03129210FD
:208DA000DB17D31A3B603B68002BDEDCFB7DBB750CE0BB7D013B07F10C02D118FB79012223
:208DC000184600F0A6F8BB7D013BBB75BB7D002BEFD100BF00BF1837BD4680BD676666663A
:208DE00080B586B000AF0346B9607A60FB73BB68002B00F08A80FB7B1846FFF785FF786140
:208E00007B690C331B687A690C3223F400531360BB681B685A087B681A44BB681B68B2FB12
:208E2000F3F33B617B6908331A463B691360BB68DB79012B08D17B690C331B687A690C32D7
:208E400043F48053136007E07B690C331B687A690C3223F480531360BB685B79002B08D18F
:208E60007B690C331B687A690C3223F4806313601CE07B690C331B687A690C3243F48063E1
:208E80001360BB685B79022B08D17B690C331B687A690C3243F40073136007E07B690C3374
:208EA0001B687A690C3223F4007313607B6910331B687A69103223F4405313607B691033FE
:208EC0001A68BB689B791B037969103113430B607B690C331B68BA68127A11467A690C320B
:208EE0000B4313607B690C331B68BA68127911467A690C320B4313607B690C331B687A699C
:208F00000C3243F40053136000E000BF1837BD4680BD80B584B000AF03463960FB71134629
:208F2000BB71FB791846FFF7EFFEB8600023FB7311E000BFBB681B68DB0903F00103002B4B
:208F4000F8D0FB7B3A6813441A78BB6804331A60FB7B0133FB73FA7BBB799A42E9D300BF5C
:208F600000BF1037BD4680BD80B582B000AF03463960FB713B68002B08DAFB7901220C49AB
:208F80001846FFF7C6FF3B685B423B603B68002B06D1FB79012207491846FFF7BAFF04E060
:208FA000FB7939681846FFF7D7FE0837BD4680BD88B300088CB3000880B483B000AF78607C
:208FC0007B68002B02D0044A7B68136000BF0C37BD465DF8047B70475400002080B483B0A2
:208FE00000AF78607B68002B02D0044A7B68136000BF0C37BD465DF8047B7047580000205E
:2090000080B483B000AF78607B68002B02D0044A7B68136000BF0C37BD465DF8047B70474E
:209020005C00002080B586B000AF0120FFF76CFE78617B691B683B613B6903F02003002B58
:209040000BD07B6904331B68DAB2154B1A70154B1B68134A1278104698473B6903F0080380
:20906000002B07D07B691B68FB607B6904331B68FB60FB683B6903F00403002B03D07B6950
:209080001B68BB60BB683B6903F00203002B03D07B691B687B607B6800BF1837BD4680BD02
:2090A000500000205800002080B586B000AF0220FFF72AFE78617B691B683B613B6903F0FB
:2090C0002003002B0BD07B6904331B68DAB2154B1A70154B1B68134A1278104698473B69B0
:2090E00003F00803002B07D07B691B68FB607B6904331B68FB60FB683B6903F00403002B89
:2091000003D07B691B68BB60BB683B6903F00203002B03D07B691B687B607B6800BF18370A
:20912000BD4680BD500000205C00002080B586B000AF0020FFF7E8FD78617B691B683B6112
:209140003B6903F02003002B0BD07B6904331B68DAB2154B1A70154B1B68134A127810461B
:2091600098473B6903F00803002B07D07B691B68FB607B6904331B68FB60FB683B6903F0B7
:209180000403002B03D07B691B68BB60BB683B6903F00203002B03D07B691B687B607B6866
:2091A00000BF1837BD4680BD500000205400002080B485B000AF03460A46FB711346BB71DB
:2091C000FB79012B01D1094B00E0094BFB60BA7913465B001344DB001033FA6813441846C7
:2091E0001437BD465DF8047B704700BF006002400064024080B485B000AF78607B6803F0C9
:209200000303FB60FA6813465B0013445B0018461437BD465DF8047B7047000080B586B083
:2092200000AF03460A46FB711346BB71FB79012B01D10F4B00E00F4B3B61BB79FB60FB6861
:20924000032B03D83B691B687B6102E03B695B687B61F868FFF7CEFFB8607A69BB6822FA80
:2092600003F303F03F0318461837BD4680BD00BF006002400064024080B586B000AF03466C
:209280003A60FB710B46BB71FB79012B01D10F4B00E00F4B7B61BB793B613869FFF7AAFF59
:2092A000F8603B6803F03F02FB6802FA03F3BB603B69032B03D87B69BA689A6002E07B699C
:2092C000BA68DA6000BF1837BD4680BD006002400064024080B483B000AF00237B601CE08C
:2092E00000233B6013E012497B68DA003B681344002241F833200E497B68DA003B681344EF
:20930000DB000B4400225A603B6801333B603B68072BE8DD7B6801337B607B68012BDFDD7E
:2093200000BF00BF0C37BD465DF8047B704700BF6000002080B584B000AF78607B68002BA1
:2093400002D14FF0FF3392E07B681A787B685B7819461046FFF72CFFB860BB681B6803F0A5
:209360000103002B02D06FF0010380E0BB6800221A60BB6821225A617B6893F82730002B59
:209380000CD0BB685B6943F00402BB685A61BB685B6943F00102BB685A6105E0BB685B692C
:2093A00023F00402BB685A617B68DA68BB689A607B681A69BB68DA607B685A69BB685A602E
:2093C0000023FB607B685B685B0603F06063FA681343FB607B681B7A022B0AD0022B0EDCA9
:2093E000002B0BD0012B0AD1FB6843F04003FB6005E0FB6843F08003FB6000E000BF7B6851
:2094000093F82530002B03D0FB6843F48063FB607B6893F82430002B03D0FB6843F40073C9
:20942000FB607B68DB6903F4C043FA681343FB607B689B6903F4C053FA681343FB607B68B6
:209440001B6A03F44033FA681343FB607B6893F82630002B03D0FB6843F48073FB60FB68FD
:2094600043F01403FB60BB68FA681A60002318461037BD4680BD80B584B000AF78607B686D
:20948000002B02D14FF0FF332CE07B681A787B685B7819461046FFF78BFEF860FB681B68B4
:2094A00003F00103002B02D06FF001031AE07B68DA68FB689A607B681A69FB68DA607B68F3
:2094C0005A69FB685A607B6818787B685B783F221946FFF7D1FEFB681B6843F00102FB687F
:2094E0001A60002318461037BD4680BD80B584B000AF03460A46FB711346BB71BA79FB79A1
:2095000011461846FFF754FEF860FB681B6823F00102FB681A6000E000BFFB681B6803F0A5
:209520000103002BF8D1B979FB793F221846FFF7A3FE00BF1037BD4680BD000080B485B088
:2095400000AFBA607B600346FB730B46BB73BB68002B1DD0FB7B012B14BF01230023DBB2AD
:209560001A46BB7B0D49D2001344BA6841F83320FB7B012B14BF01230023DBB21A46BB7B49
:209580000649D2001344DB000B447A685A6000E000BF1437BD465DF8047B70476000002095
:2095A00080B588B000AF03460A46FB711346BB71BA79FB7911461846FFF730FEF861022307
:2095C000BB6108237B61FA69BB691340002B1DD0B979FB793E221846FFF74EFEFB79012B30
:2095E00014BF01230023DBB21A46BB79D2001344DB001A4A13443B613B691B68002B05D0AE
:209600003B691B683A69526810469847FA697B691340002B1DD0B979FB793E221846FFF785
:209620002BFEFB79012B14BF01230023DBB21A46BB79D2001344DB00084A1344FB60FB68BB
:209640001B68002B05D0FB681B68FA6852681046984700BF2037BD4680BD00BF60000020BB
:2096600080B483B000AF0346FB71FB79062B01D1064B04E0FB79072B01D1054BFFE7184667
:209680000C37BD465DF8047B704700BF001000400014004080B584B000AF0346FB71FB7955
:2096A0001846FFF7DDFFF860FB79062B02D0072B1FD03DE004210320FEF7B4FEFB682833C0
:2096C00007221A80FB682C3340F2CF721A80FB680C331B889BB2FA680C3243F001039BB242
:2096E00013803620FEF764FF03461A46124B1A701EE005210320FEF795FEFB6828330722E3
:209700001A80FB682C3340F2CF721A80FB680C331B889BB2FA680C3243F001039BB2138097
:209720003720FEF745FF03461A46034B1A7000BF00BF1037BD4680BD0000002080B584B08A
:2097400000AF0346FB71FB791846FFF789FFF860FB79062B02D0072B09D011E0FB681B8884
:209760009AB2FB6842F0010292B21A8008E0FB681B889AB2FB6842F0010292B21A8000BFB8
:2097800000BF1037BD4680BD80B584B000AF0346FB71FB791846FFF763FFF860FB79062B8F
:2097A00002D0072B09D011E0FB681B889AB2FB6822F0010292B21A8008E0FB681B889AB2F9
:2097C000FB6822F0010292B21A8000BF00BF1037BD4680BD80B584B000AF03463960FB71C8
:2097E000FB791846FFF73CFFF860FB79062B02D0072B04D007E0064A3B68136003E0054A12
:209800003B68136000BF00BF1037BD4680BD00BFE0000020E400002080B500AF0B4B1B888D
:209820009BB203F00103002B0ED0084B1B889BB2064A23F001039BB21380054B1B68002B53
:2098400002D0034B1B68984700BF80BD10100040E000002080B500AF0B4B1B889BB203F00D
:209860000103002B0ED0084B1B889BB2064A23F001039BB21380054B1B68002B02D0034B33
:209880001B68984700BF80BD10140040E400002080B483B000AF0346FB71FB79022B0AD0BC
:2098A000022B0ADC002B02D0012B02D005E0064B04E0064B02E0064B00E000BF18460C37BC
:2098C000BD465DF8047B70470054004000580040005C004080B586B000AF03463960FB71CA
:2098E000FB791846FFF7D4FF38613B691A683B6922F001021A60534BFB60FB68524AA2FB46
:2099000003239B0CBB603B6904331B6823F03F02BB6803F03F033969043113430B6000239A
:20992000FB823B681B68494A93421FD83B691C331B683A691C3223F4004313603B681B68CB
:209940005B00FA68B2FBF3F3FB82FB8A032B01D80423FB823B691C331A46FB8A13603B691B
:2099600020331A46BB68013313603FE03B681B68374A93423AD83B691C331B683A691C3256
:2099800043F4004313603B691C331B683A691C3223F4804313603B681A6813465B001344F6
:2099A000FA68B2FBF3F3FB82FB8A002B01D10123FB823B691C331B6823F47F6323F00F037E
:2099C000FA8AC2F30B0239691C3113430B60BB684FF4967202FB03F31E4AA2FB03239B0961
:2099E0009BB201339AB23B6920331A603B681B7959003B6908331A46CBB213603B6908338B
:209A00001B683A69083243F4804313603B685B79002B06D03B691A683B6942F480621A60A5
:209A200005E03B691A683B6922F480621A603B691A683B6942F001021A6000BF1837BD467B
:209A400080BD00BF0024F40083DE1B43A0860100801A0600D34D621080B584B000AF034679
:209A6000FB71FB791846FFF713FFF860FB681A68FB6822F001021A6000BF1037BD4680BD2B
:209A800080B584B000AF0346FB71FB791846FFF7FFFEB86042F21073FB60BB681A68BB6842
:209AA00042F480721A6007E0FB68013BFB60FB68002B01D1032307E0BB6814331B6803F0D6
:209AC0000103002BF0D0002318461037BD4680BD80B584B000AF0346FB710B46BB711346EC
:209AE0007B71FB791846FFF7D3FEB86042F21073FB60BB795A007B7903F001031A43BB68BE
:209B000010331A6007E0FB68013BFB60FB68002B01D103230DE0BB6814331B6803F002034F
:209B2000002BF0D0BB6814331B68BB6818331B68002318461037BD4680BD80B584B000AF3C
:209B400003460A46FB711346BB71FB791846FFF79FFEB86042F21073FB60BB6810331A4626
:209B6000BB79136007E0FB68013BFB60FB68002B01D1032307E0BB6814331B6803F080038D
:209B8000002BF0D0002318461037BD4680BD80B584B000AF03463960FB711346BB71FB7973
:209BA0001846FFF775FEB86042F21073FB60BB79002B06D0BB681A68BB6842F480621A6025
:209BC0000EE0BB681A68BB6822F480621A6007E0FB68013BFB60FB68002B01D103230DE009
:209BE000BB6814331B6803F04003002BF0D0BB6810331B68DAB23B681A70002318461037ED
:209C0000BD4680BD80B584B000AF0346FB71FB791846FFF73DFEF860FB681A68FB6842F45E
:209C200000721A60002318461037BD4680BD80B586B000AF3A601A460346FB710B46BB71EA
:209C40001346BB80FB791846FFF722FEF860FB791846FFF715FF0346FB72FB7A002B01D02D
:209C6000FB7A42E0B979FB7900221846FFF730FF0346FB72FB7A002B01D0FB7A35E000232E
:209C8000FB8212E0FB8A3A6813441A78FB7911461846FFF752FF0346FB72FB7A002B01D0AE
:209CA000FB7A22E0FB8A0133FB82FA8ABB889A42E8D342F210733B6107E03B69013B3B61E3
:209CC0003B69002B01D103230FE0FB6814331B6803F00403002BF0D097F82030002B03D1DE
:209CE000FB791846FFF78EFF002318461837BD4680BD80B483B000AF78607B6814331B6864
:209D0000DBB218460C37BD465DF8047B704780B586B000AF3A601A460346FB710B46BB7141
:209D20001346BB80FB791846FFF7B2FD3861FB791846FFF7A5FE0346FB73FB7B002B01D0EB
:209D4000FB7B37E0B979FB7901221846FFF7C0FE0346FB73FB7B002B01D0FB7B2AE00023CF
:209D6000FB821AE0FA8ABB88013B9A42B4BF01230023DBB2BB73FB8A3A68D118BA7BFB795F
:209D80001846FFF704FF0346FB73FB7B002B01D0FB7B0FE0FB8A0133FB82FA8ABB889A4205
:209DA000E0D397F82030002B03D1FB791846FFF729FF002318461837BD4680BD80B483B0AB
:209DC00000AF78607B6804331B687A68043223F4007313607B6804331B687A68043223F47E
:209DE000806313607B6804331B687A68043223F48073136000BF0C37BD465DF8047B70474B
:209E000080B584B000AF3A601A460346FB710B46BB711346BB80FB791846FFF739FDF86014
:209E2000194B01221A70194A3B681360184ABB881380184B00221A80BB795B00DAB2164BC5
:209E40001A70FB6804331B68FA68043243F400731360FB6804331B68FA68043243F48063D7
:209E60001360FB6804331B68FA68043243F480731360FB681A68FB6842F480721A6000BF74
:209E80001037BD4680BD00BFEC000020F0000020F4000020F6000020F800002080B582B0B7
:209EA00000AF2C4B7B607B6814331B683B603B6803F00103002B05D0274B1A787B68103395
:209EC0001A6043E03B6803F00203002B06D07B6814331B687B6818331B6837E03B6803F03E
:209EE0008003002B18D01D4B1B78DBB2012B13D11B4B1A881B4B1B889A4226D21A4B1A6868
:209F0000174B1B88591C88B21549088013441A787B6810331A6018E03B6803F00403002B5E
:209F20000FD00F4B1A880F4B1B889A4209D37B681A687B6842F400721A60084B00221A7028
:209F400004E07868FFF73AFF00E000BF0837BD4680BD00BF00540040F8000020EC00002079
:209F6000F6000020F4000020F000002080B582B000AF084B7B607B6814331A460023136043
:209F8000054B00221A707868FFF718FF00BF0837BD4680BD00540040EC00002080B400AF17
:209FA00000BFBD465DF8047B704780B400AF00BFBD465DF8047B704780B400AF00BFBD467F
:209FC0005DF8047B704780B400AF00BFBD465DF8047B704780B400AF074B1B68002B05DA04
:209FE000064B074A1A60054B064A1A6000BFBD465DF8047B704700BF103C0240043C02400F
:20A0000023016745AB89EFCD80B400AF054B1B68044A43F00043136000BFBD465DF8047BFD
:20A02000704700BF103C024080B400AF044B1B68DB0FDBB21846BD465DF8047B704700BF45
:20A04000103C024080B400AF054B1B68044A43F0F303136000BFBD465DF8047B704700BFC6
:20A060000C3C024080B483B000AF114B7B6002E07B68013B7B600F4B1B6803F48033002B7B
:20A0800002D07B68002BF3D17B68002B01D1022308E0084B1B6803F0F203002B01D0012351
:20A0A00000E0002318460C37BD465DF8047B7047404B4C000C3C024080B483B000AF78601F
:20A0C0007B68B3F1006F05D37B68064A934201D8012300E00023DBB218460C37BD465DF824
:20A0E000047B7047FFFF070880B483B000AF78607B68184A934201D2002324E07B68164AD8
:20A10000934201D201231EE07B68144A934201D2022318E07B68124A934201D8032312E06A
:20A120007B68104A934201D804230CE07B680E4A934201D8052306E07B680C4A934201D843
:20A14000062300E0072318460C37BD465DF8047B704700BF004000080080000800C0000846
:20A16000FFFF0008FFFF0108FFFF0308FFFF050880B483B000AF78607B68072B23D801A21D
:20A1800052F823F0A5A10008ABA10008AFA10008B3A10008B7A10008BBA10008BFA10008E0
:20A1A000C3A100084FF000630EE00A4B0CE00A4B0AE00A4B08E00A4B06E00A4B04E00A4B1D
:20A1C00002E00A4B00E0002318460C37BD465DF8047B7047004000080080000800C000087E
:20A1E0000000010800000208000004080000060880B483B000AF78607B68072B2AD801A28A
:20A2000052F823F025A200082BA2000831A2000837A200083DA2000843A2000849A20008BA
:20A220004FA200084FF4804315E04FF4804312E04FF480430FE04FF480430CE04FF4803355
:20A2400009E04FF4003306E04FF4003303E04FF4003300E0002318460C37BD465DF8047B6F
:20A26000704700BF80B584B000AF78607B68072B01D9042334E0FFF7ADFEFFF7E3FEFFF7E0
:20A28000F1FE0346FB73FB7B002B03D0FFF7BCFEFB7B25E0144B1B68134A23F07803136039
:20A2A000114B1A687B68DB000F4913430B600E4B1B680D4A43F0020313600B4B1B680A4ADE
:20A2C00043F480331360FFF7CDFE0346FB73064B1B68054A23F002031360FFF795FEFB7BFC
:20A2E00018461037BD4680BD103C024090B587B000AF786039607A683B681344013B3B619B
:20A300007B687B617868FFF7D7FE0346002B05D03869FFF7D1FE0346002B19D104231CE0A3
:20A320007869FFF7E1FEF860F868FFF79BFF0346FB72FB7A002B01D0FB7A0EE0F868FFF73F
:20A3400017FF0446F868FFF753FF034623447B617A693B699A42E3D9002318461C37BD4673
:20A3600090BD000080B582B000AFFFF733FEFFF769FEFFF777FE0346FB71FB79002B03D064
:20A38000FFF742FEFB7918E00E4B1B680D4A43F0040313600B4B1B680A4A43F480331360B1
:20A3A000FFF760FE0346FB71064B1B68054A23F004031360FFF728FEFB7918460837BD46B4
:20A3C00080BD00BF103C024080B584B000AF78600B46FB707868FFF76FFE0346002B01D1BE
:20A3E00004232EE0FFF7F6FDFFF72CFEFFF73AFE0346FB73FB7B002B03D0FFF705FEFB7B57
:20A400001FE0124B1B68114A23F4407313600F4B0E4A1B6813600D4B1B680C4A43F00103B5
:20A4200013607B68FA781A70FFF71CFE0346FB73064B1B68054A23F001031360FFF7E4FD7F
:20A44000FB7B18461037BD4680BD00BF103C024080B584B000AF78600B467B807868FFF742
:20A460002BFE0346002B01D1042337E07B6803F00103002B01D0032330E0FFF7ABFDFFF78F
:20A48000E1FDFFF7EFFD0346FB73FB7B002B03D0FFF7BAFDFB7B21E0124B1B68114A23F45B
:20A4A000407313600F4B1B680E4A43F4807313600C4B1B680B4A43F0010313607B687A88E6
:20A4C0001A80FFF7CFFD0346FB73064B1B68054A23F001031360FFF797FDFB7B1846103717
:20A4E000BD4680BD103C024080B584B000AF786039607868FFF7E0FD0346002B01D10423E5
:20A5000037E07B6803F00303002B01D0032330E0FFF760FDFFF796FDFFF7A4FD0346FB73EC
:20A52000FB7B002B03D0FFF76FFDFB7B21E0134B1B68124A23F440731360104B1B680F4A1D
:20A5400043F4007313600D4B1B680C4A43F0010313607B683A681A60FFF784FD0346FB73D6
:20A56000064B1B68054A23F001031360FFF74CFDFB7B18461037BD4680BD00BF103C024047
:20A5800080B586B000AFF860B9607A6000237B61F868FFF791FD0346002B09D0FA687B68E1
:20A5A0001344013B1846FFF787FD0346002B01D1042321E07968F86800F0ABF80346002B7A
:20A5C00015D1062318E0FA687B69D018BA687B6913441B781946FFF7F7FE0346FB74FB7CDD
:20A5E000002B01D0FB7C07E07B6901337B617A697B689A42E7D3002318461837BD4680BDA1
:20A6000080B588B000AFF860B9607A600023FB61F868FFF751FD0346002B09D0FA687B681E
:20A620001344013B1846FFF747FD0346002B01D1042344E0FB6803F00303002B01D00323E0
:20A640003DE07968F86800F064F80346002B17D1062334E0BA68FB6913441B687B61FA6819
:20A66000FB69134479691846FFF73EFF0346FB76FB7E002B01D0FB7E21E0FB690433FB610C
:20A68000FB6904337A689A42E4D213E0FA68FB69D018BA68FB6913441B781946FFF794FEB3
:20A6A0000346FB76FB7E002B01D0FB7E07E0FB690133FB61FA697B689A42E7D300231846BA
:20A6C0002037BD4680BD80B487B000AFF860B9607A60FB683B6100237B610FE03A697B690A
:20A6E00013441A78B9687B690B441B789A4202D04FF0FF3307E07B6901337B617A697B68CA
:20A700009A42EBD3002318461C37BD465DF8047B704780B485B000AF786039607B68BB60B6
:20A720000023FB600AE0BA68FB6813441B78FF2B01D0002307E0FB680133FB60FA683B6846
:20A740009A42F0D3012318461437BD465DF8047B704780B586B000AFF860B9607A60FB6837
:20A760003B61F868FFF7A8FC0346002B09D0FA687B681344013B1846FFF79EFC0346002BBC
:20A7800001D1042312E000237B610AE03A697B691A44B9687B690B4412781A707B69013380
:20A7A0007B617A697B689A42F0D3002318461837BD4680BD80B400AF72B600BFBD465DF826
:20A7C000047B704780B400AF62B600BFBD465DF8047B704780B584B000AF78603960FFF77C
:20A7E000E9FF39687868FFF77FFE0346FB73FFF7E9FFFB7B18461037BD4680BD80B485B024
:20A8000000AF786039600023FB607B68BB60FB680133FB60BB681C4A82FB03129210DB17FB
:20A82000D31ABB60BB68002BF1DCFB683A68134400221A701DE07A68134B83FB0213991074
:20A84000D317C91A0B469B000B445B00D11ACAB2FB68013BFB60FB6839680B443032D2B2FB
:20A860001A707B68084A82FB03129210DB17D31A7B607B68002BDEDC00BF00BF1437BD4697
:20A880005DF8047B704700BF6766666680B485B000AF78600023FB6002E0FB680133FB6093
:20A8A0007A68FB6813441B78002BF6D1FB6818461437BD465DF8047B7047000098B500AFE1
:20A8C000174B1B78072B1BD8154B1B781A46154B53F82240124B1B781A46124B53F82230B4
:20A8E0001846FFF7D3FF0346DBB21A4621460020FEF70FFB0A4B1B780133DAB2084B1A70F1
:20A90000074B1B78082B08D1074B01221A70044B1B780133DAB2024B1A7000BF98BD00BFFB
:20A92000FA00002004000020F900002080B483B000AF084B1B687B60074B1B68054A136062
:20A94000054A7B68136000BF0C37BD465DF8047B704700BF240000202800002080B586B00C
:20A9600002AF03460A46FB711346BB7100233B73BB797B7307F10C02F87900230093022357
:20A980003C21FFF754F900BF1037BD4680BD80B586B002AF03460A46FB711346BB714023C8
:20A9A0003B73BB797B7307F10C02F8790023009302233C21FFF73BF900BF1037BD4680BDA8
:20A9C00080B584B000AF0346FB710023FB6002E0FB680133FB60FB68404A9342F8D9FB7951
:20A9E000AE211846FFF7BAFFFB79D5211846FFF7B5FFFB7980211846FFF7B0FFFB79A821B4
:20AA00001846FFF7ABFFFB793F211846FFF7A6FFFB79D3211846FFF7A1FFFB79002118461C
:20AA2000FFF79CFFFB7940211846FFF797FFFB79AD211846FFF792FFFB798B211846FFF72B
:20AA40008DFFFB79A1211846FFF788FFFB79C8211846FFF783FFFB79DA211846FFF77EFFE6
:20AA6000FB7912211846FFF779FFFB7981211846FFF774FFFB7980211846FFF76FFFFB793B
:20AA8000D9211846FFF76AFFFB791F211846FFF765FFFB79DB211846FFF760FFFB7940219B
:20AAA0001846FFF75BFFFB79A4211846FFF756FFFB79A6211846FFF751FF00F011F8FFF738
:20AAC00035FFFB79184600F079F8FB79AF211846FFF744FF00BF1037BD4680BD9F860100C8
:20AAE00080B483B000AF0023FB8008E0094B1A68FB88134400221A70FB880133FB80FB88A9
:20AB0000B3F5806FF2D300BF00BF0C37BD465DF8047B70472400002080B485B000AF0346E5
:20AB2000FB710B46BB7113467B7197F90730002B3CDBBB793F2B39D8FB799AB2BB79DB0858
:20AB4000DBB2DB019BB21344FB817B79012B15D1194B1A68FB8913441B785AB2BB7903F0DF
:20AB60000703012101FA03F35BB2134359B2124B1A68FB891344CAB21A7018E00E4B1A68B7
:20AB8000FB8913441B785AB2BB7903F00703012101FA03F35BB2DB435BB2134059B2064B10
:20ABA0001A68FB891344CAB21A7000E000BF1437BD465DF8047B70472400002080B5A6B0EB
:20ABC00002AF0346FB71002387F88F3040E097F88F30503BDAB2FB7911461846FFF7BEFE4E
:20ABE000FB7902211846FFF7B9FEFB7910211846FFF7B4FE40233B73002387F88E3015E0A2
:20AC0000184B1B6897F88F20D10197F88E200A441A4497F88E300133127890333B4403F80D
:20AC2000842C97F88E30013387F88E3097F98E30002BE5DA07F10C02F8790023009381239D
:20AC40003C21FEF7F4FF97F88F30013387F88F3097F88F30072BBAD900BF00BF9037BD4694
:20AC600080BD00BF2800002090B585B000AF0446084611461A462346FB710346BB710B467D
:20AC80007B7113463B717B79FB7314E03B79BB7308E0B97BFB7B01221846FFF73DFFBB7B10
:20ACA0000133BB73BA7BB9793B790B449A42F0DBFB7B0133FB73FA7BF9797B790B449A4203
:20ACC000E4DB00BF00BF1437BD4690BD80B500AFFDF780FD03494FF4FA60FDF7DFFD00BFCF
:20ACE00080BD00BF6DAD000880B483B000AF03463A60FB710B46BB80FB79032B01D90123A5
:20AD00002CE03B68002B01D1022327E0FA79164913465B0013449B000B44BA881A80FA7945
:20AD2000114913465B0013449B000B44023301221A80FA790C4913465B0013449B000B4415
:20AD400008333A681A60FA79074913465B0013449B000B44043300221A70002318460C373D
:20AD6000BD465DF8047B70470009002080B582B000AF0023BB71444B1B680133424A136072
:20AD80000023FB7155E0FA79404913465B0013449B000B4404331B78002B47D1FA793B49FA
:20ADA00013465B0013449B000B4402331B88013B98B2364913465B0013449B000B44023397
:20ADC00002461A80FA79314913465B0013449B000B4402331B88002B28D1F979FA792B485B
:20ADE0000B465B000B449B0003441888274913465B0013449B000B44023302461A80FA79E7
:20AE0000224913465B0013449B000B4408331B68002B0BD0FA791D4913465B0013449B008F
:20AE20000B4408331B6898470123BB71FB790133FB71FB79032BA6D9BB79002B06D1124B0E
:20AE40005B680133104A536000F04CF90E4B1B68B3F57A7F14D10C4B5B68642203FB02F2C5
:20AE6000094B1B68B2FBF3F3DBB2C3F16403DAB2054B1A72044B00225A60034B00221A6043
:20AE800000BF0837BD4680BD300900200009002080B400AF034B1B7A1846BD465DF8047BF7
:20AEA000704700BF3009002080B483B000AF0346FB71FB79032B01D9012334E0FA791D496B
:20AEC00013465B0013449B000B4408331B68002B01D1022327E0FA79164913465B001344B9
:20AEE0009B000B44083300221A60FA79114913465B0013449B000B44043303221A70FA7976
:20AF00000C4913465B0013449B000B4400221A80FA79084913465B0013449B000B4402333D
:20AF200000221A80002318460C37BD465DF8047B704700BF0009002080B483B000AF0346BC
:20AF4000FB71FA79074913465B0013449B000B44043301221A7000BF0C37BD465DF8047B10
:20AF6000704700BF0009002080B483B000AF0346FB71FA79074913465B0013449B000B44AF
:20AF8000043300221A7000BF0C37BD465DF8047B704700BF0009002080B483B000AF0346F7
:20AFA000FB71FA79074913465B0013449B000B44043302221A7000BF0C37BD465DF8047BAF
:20AFC000704700BF0009002080B586B000AF00237B6000237B6100233B611B4A1B4BD31A44
:20AFE0009B107B601A4B7B61184B3B610023FB600AE07A69131D7B613B69191D3961126846
:20B000001A60FB680133FB60FA687B689A42F0D3104A114BD31A9B107B600F4B3B6100239E
:20B02000BB6007E03B691A1D3A6100221A60BB680133BB60BA687B689A42F3D300F07EF97C
:20B0400000F078F800BFFDE74C0000200000002068B40008500900204C00002080B400AF75
:20B0600000BFFDE780B500AF05210020FDF773FD00BF80BD80B500AF0C2209490120FDF72A
:20B0800048FFFFF705FF034619460120FDF76CFF022204490120FDF73CFF00BF80BD00BFCB
:20B0A00038B4000848B4000880B500AF0B4B1B780133DAB2094B1A70084B1A78084B1B7862
:20B0C0000A210A20FFF7D0FDFFF730FC0020FFF775FDFFF705FD00BF80BD00BF480900208A
:20B0E0004909002080B400AF00BF1846BD465DF8047B704780B500AF0E220B490120FDF7D3
:20B1000008FF0A4B1B6819460120FDF72DFF022207490120FDF7FDFE044B1B680133034AD9
:20B12000136000BF80BD00BF4CB400084C09002048B4000880B500AF00F034F800F0C4F8B4
:20B1400000F0CCF800F012F8064A64210020FFF7CBFD054A4FF4FA710120FFF7C5FD00BFF9
:20B16000FDE700BF65B00008F5B0000880B500AF094A0A490020FDF733FE074A08490120D0
:20B18000FDF72EFE044A06490220FDF729FEFFF79DFD00BF80BD00BF0024F4002C00002006
:20B1A0003800002080B582B002AF00230193022300930023012205210020FDF719FC0023F8
:20B1C0000193032300930023022208210020FDF70FFC0023019303230093002302220921B2
:20B1E0000020FDF705FC0023019303230093002302220A210020FDF7FBFB00230193032371
:20B2000000930023022202210020FDF7F1FB00230193032300930023022203210020FDF742
:20B22000E7FB0023019303230093002302220A210120FDF7DDFB00230193032300930023CA
:20B2400002220B210120FDF7D3FB00230193032300930123022209210120FDF7C9FB0023DD
:20B260000193032300930123022208210120FDF7BFFB072209210020FDF7BAFC07220A21D0
:20B280000020FDF7B5FC072202210020FDF7B0FC072203210020FDF7ABFC07220A21012060
:20B2A000FDF7A6FC07220B210120FDF7A1FC042208210120FDF79CFC042209210120FDF790
:20B2C00097FC00BFBD4680BD80B500AF2520FDF76FF92620FDF76CF900BF80BD80B500AFD8
:20B2E0000348FDF77BFE0348FDF766FE00BF80BD25B30008F9B2000880B584B000AF034603
:20B30000FB71FB793B73FB79A12B04D1062204490020FDF7FEFD00BF1037BD4680BD00BF01
:20B3200060B4000880B483B000AF0346FB7100BF0C37BD465DF8047B7047000080B500AFB2
:20B340001048FDF727F800210020FDF76BF801210020FDF767F811210320FDF763F812217E
:20B360000320FDF75FF804210420FDF75BF80C210420FDF757F815210320FDF753F800BFE4
:20B3800080BD00BF3C0900202D0000003000000041540D0A0000000041542B43574D4F4409
:20B3A000453D310D0A00000041542B43574A41503D225A7A5A7A222C2245736D61696C5F5D
:20B3C000313232303031220D0A00000041542B43494653520D0A000041542B50494E473D95
:20B3E00022382E382E382E38220D0A0041542B43495053544152543D22544350222C226543
:20B4000078616D706C652E636F6D222C38300D0A0000000041542B43495053454E443D3137
:20B42000380D0A00474554202F20485454502F312E310D0A0D0A0000637075206C6F616439
