:020000040800F2
:100000000000022039100008CD100008CD100008B3
:10001000CD100008CD100008CD1000080000000031
:10002000000000000000000000000000CD100008EB
:10003000CD10000800000000CD1000086509000880
:10004000CD100008CD100008CD100008CD1000081C
:10005000CD100008CD100008CD100008CD1000080C
:10006000CD100008CD100008CD100008CD100008FC
:10007000CD100008CD100008CD100008CD100008EC
:10008000CD100008CD100008CD100008CD100008DC
:10009000CD100008CD100008CD100008CD100008CC
:1000A000CD100008CD100008CD100008CD100008BC
:1000B000CD100008CD100008CD100008CD100008AC
:1000C000CD100008CD100008CD100008CD1000089C
:1000D000CD100008CD100008CD100008CD1000088C
:1000E000CD100008CD100008CD100008CD1000087C
:1000F000CD100008CD100008CD100008CD1000086C
:10010000CD100008CD100008CD100008CD1000085B
:10011000CD100008CD100008CD100008CD1000084B
:10012000CD100008CD100008CD100008CD1000083B
:10013000CD100008CD100008CD100008CD1000082B
:10014000CD100008CD100008CD100008CD1000081B
:10015000CD100008CD100008CD100008CD1000080B
:10016000CD100008CD100008CD100008CD100008FB
:08017000CD100008CD100008BD
:1001780080B400AF094B1B68084A43F001031360C1
:1001880000BF064B1B685B0803F00103002BF8D087
:1001980000BF00BFBD465DF8047B704700380240D1
:1001A80080B400AF094B1B68084A43F480331360DE
:1001B80000BF064B1B685B0C03F00103002BF8D053
:1001C80000BF00BFBD465DF8047B704700380240A1
:1001D80080B400AF094B1B68084A43F08073136072
:1001E80000BF064B1B685B0E03F00103002BF8D021
:1001F80000BF00BFBD465DF8047B70470038024071
:1002080080B400AF094B1B68084A23F08073136061
:1002180000BF064B1B685B0E03F00103002BF8D1EF
:1002280000BF00BFBD465DF8047B70470038024040
:1002380080B483B000AF0346FB710F4B1B680E4AB6
:1002480023F0030313600C4B1A68FB7903F00303D4
:10025800094913430B6000BF074B1B689B0803F059
:100268000302FB799A42F7D100BF00BF0C37BD46A5
:100278005DF8047B704700BF0838024080B584B041
:1002880000AF7860FFF7BCFF0023FB607B685B78FA
:1002980003F03F03FA681343FB607B685B889B01AC
:1002A8001A4647F6C0731340FA681343FB607B682D
:1002B8001B795B08DBB2013B1B0403F44033FA688B
:1002C8001343FB607B681B789B051A46FB68134346
:1002D800FB607B685B791B0603F07063FA68134365
:1002E800FB60034AFB68136000BF1037BD4680BD42
:1002F8000438024080B483B000AF0346FB710A4B58
:100308001B68094A23F0F0031360074B1B68FA794E
:1003180012011146044A0B43136000BF0C37BD4657
:100328005DF8047B704700BF0838024080B483B092
:1003380000AF0346FB710A4B1B68094A23F4E053DC
:100348001360074B1B68FA7992021146044A0B4363
:10035800136000BF0C37BD465DF8047B704700BFD3
:100368000838024080B483B000AF0346FB710A4BE3
:100378001B68094A23F460431360074B1B68FA792A
:1003880052031146044A0B43136000BF0C37BD46A5
:100398005DF8047B704700BF0838024080B582B022
:1003A80000AF78607B68002B39D07B681B78022B04
:1003B80012D0022B35DC002B02D0012B06D030E006
:1003C800FFF7D6FE0020FFF733FF2BE0FFF7E8FE2C
:1003D8000120FFF72DFF25E07B689B78012B02D1D8
:1003E800FFF7DEFE01E0FFF7C3FE7B680233184625
:1003F800FFF744FFFFF7ECFE7B681B7A1846FFF710
:1004080079FF7B685B7A1846FFF790FF7B689B7AD9
:100418001846FFF7A7FF0220FFF70AFF02E000BF18
:1004280000E000BF0837BD4680BD000080B483B03F
:1004380000AF03460A46FB711346BB71FB79042BD8
:1004480043D801A252F823F0650400087B04000891
:1004580091040008A7040008BD0400081E4B1B688F
:10046800BA79012101FA02F211461B4A0B431360C3
:100478002CE01A4B1B68BA79012101FA02F21146E5
:10048800164A0B43136021E0154B1B68BA7901210A
:1004980001FA02F21146124A0B43136016E0114B9F
:1004A8001B68BA79012101FA02F211460D4A0B4381
:1004B80013600BE00C4B1B68BA79012101FA02F2B8
:1004C8001146094A0B43136000E000BF00BF0C3718
:1004D800BD465DF8047B704730380240343802402E
:1004E80038380240403802404438024080B483B073
:1004F80000AF03460A46FB711346BB71FB79042B18
:1005080048D801A252F823F0250500083D05000847
:10051800550500086D05000885050008214B1B6876
:10052800BA79012101FA02F2D24311461D4A0B4061
:10053800136030E01C4B1B68BA79012101FA02F202
:10054800D2431146184A0B40136024E0174B1B682E
:10055800BA79012101FA02F2D2431146134A0B403B
:10056800136018E0124B1B68BA79012101FA02F2F4
:10057800D24311460E4A0B4013600CE00D4B1B682A
:10058800BA79012101FA02F2D2431146094A0B4015
:10059800136000E000BF00BF0C37BD465DF8047B68
:1005A800704700BF303802403438024038380240C3
:1005B800403802404438024080B485B000AF03465A
:1005C800FB710023FB73FB791F2B05D8FB790122F4
:1005D8009A400C4B1A600DE0FB793B2B08D8FB794D
:1005E800203BFB71FB7901229A40074B1A6001E01E
:1005F8000123FB73FB7B18461437BD465DF8047B6B
:10060800704700BF00E100E004E100E080B485B07D
:1006180000AF0346FB710023FB73FB791F2B05D842
:10062800FB7901229A400C4B1A600DE0FB793B2BB9
:1006380008D8FB79203BFB71FB7901229A40074BD4
:100648001A6001E00123FB73FB7B18461437BD4693
:100658005DF8047B704700BF80E100E084E100E0C2
:1006680080B485B000AF0346FB710023FB73FB79B0
:100678001F2B05D8FB7901229A400C4B1A600DE01C
:10068800FB793B2B08D8FB79203BFB71FB790122D6
:100698009A40074B1A6001E00123FB73FB7B184665
:1006A8001437BD465DF8047B704700BF00E200E0E8
:1006B80004E200E080B485B000AF0346FB7100237C
:1006C800FB73FB791F2B05D8FB7901229A400C4B51
:1006D8001A600DE0FB793B2B08D8FB79203BFB71B6
:1006E800FB7901229A40074B1A6001E00123FB7352
:1006F800FB7B18461437BD465DF8047B704700BF86
:1007080080E200E084E200E080B485B000AF0346F8
:100718003960FB710023FB73FB791F2B0BD8134B3C
:100728001A68FB7922FA03F3DBB203F00103DAB2A9
:100738003B681A7013E0FB793B2B0ED8FB79203B02
:10074800FB710B4B1A68FB7922FA03F3DBB203F057
:100758000103DAB23B681A7001E00123FB73FB7BEB
:1007680018461437BD465DF8047B704700E300E087
:1007780004E300E080B485B000AF0346FB710B468C
:10078800BB7113467B71134B134A1A600223FB7328
:1007980097F90730002B16DB97F90730002B12DB8F
:1007A800BA79FB7B02FA03F35AB297F9053013437F
:1007B8005BB2DAB297F9073003F1604303F564439B
:1007C8001201D2B21A7000BF1437BD465DF8047B1F
:1007D800704700BF0CED00E00005FA0580B400AFDB
:1007E800044A13686FF38203136000BFBD465DF8C7
:1007F800047B704710E000E080B584B000AF7860FB
:100808007B684FF4FA6202FB03F3FB600C4B002297
:100818001A600C4AFB6813600B4A136843F0010323
:10082800136000BF084B1B68C3F30043DBB2002B07
:10083800F8D000F069F800BF1037BD4680BD00BF92
:1008480018E000E014E000E010E000E080B485B0BB
:1008580000AF786039600123FB733B68002B02D13D
:100868000223FB7311E00023FB730B4A3B68136000
:100878000A4A7B6813600A4A136843F0020313604C
:10088800074A136843F001031360FB7B18461437CB
:10089800BD465DF8047B70470C00002014E000E0C2
:1008A80010E000E080B485B000AF786039600123C3
:1008B800FB733B68002B02D10223FB7315E0002376
:1008C800FB730D4A3B6813600C4A7B68013B13605D
:1008D8000B4B00221A600B4A136843F002031360A3
:1008E800084A136843F001031360FB7B184614376A
:1008F800BD465DF8047B70470C00002014E000E062
:1009080018E000E010E000E080B400AF044A13688B
:100918006FF30003136000BFBD465DF8047B7047AA
:1009280010E000E080B400AF044B1A68044B1B6869
:10093800D31A1846BD465DF8047B704714E000E002
:1009480018E000E080B400AF034B1B681846BD46B2
:100958005DF8047B704700BF18E000E080B500AF89
:10096800024B1B68984700BF80BD00BF0C000020E9
:1009780080B483B000AF0346FB71FB79072B23D803
:1009880001A252F823F000BFB1090008B509000818
:10099800B9090008BD090008C1090008C50900080F
:1009A800C9090008CD0900080B4B0EE00B4B0CE001
:1009B8000B4B0AE00B4B08E00B4B06E00B4B04E03B
:1009C8000B4B02E00B4B00E0002318460C37BD46EA
:1009D8005DF8047B704700BF00000240000402403D
:1009E80000080240000C02400010024000140240BF
:1009F80000180240001C024090B585B000AF0446C4
:100A0800084611461A462346FB710346BB710B463E
:100A18007B7113463B71FB791846FFF7A9FFF86015
:100A2800FB68002B01D1012365E0BB790F2B01D9AD
:100A3800022360E0FB681B68BA795200032101FABF
:100A480002F2D2431A40FB681A60FB681B687A7985
:100A580002F00301BA79520001FA02F21A43FB6864
:100A68001A607B79012B02D07B79022B12D1FB68AB
:100A78005B68BA79012101FA02F2D2431A40FB6895
:100A88005A60FB685B683979BA7901FA02F21A434D
:100A9800FB685A60FB689B68BA795200032101FA27
:100AA80002F2D2431A40FB689A60FB689B6897F889
:100AB800202002F00301BA79520001FA02F21A4327
:100AC800FB689A60FB68DB68BA795200032101FA77
:100AD80002F2D2431A40FB68DA60FB68DB6897F8D9
:100AE800242002F00301BA79520001FA02F21A43F3
:100AF800FB68DA60002318461437BD4690BD80B500
:100B080084B000AF0346FB710B46BB7113467B7183
:100B1800FB791846FFF72CFFF860FB68002B01D122
:100B2800012318E0BB790F2B01D9022313E07B794D
:100B3800012B07D1BB79012202FA03F31A46FB689D
:100B48009A6107E0BB791033012202FA03F31A46CF
:100B5800FB689A61002318461037BD4680BD80B5F2
:100B680084B000AF03460A46FB711346BB71FB799C
:100B78001846FFF7FDFEF860FB68002B01D1012342
:100B88000EE0BB790F2B01D9022309E0FB685B69F2
:100B9800BA79012101FA02F25A40FB685A6100232E
:100BA80018461037BD4680BD80B584B000AF0346F7
:100BB8003A60FB710B46BB71FB791846FFF7D8FE0C
:100BC800F860FB68002B01D1012310E0BB790F2BE3
:100BD80001D902230BE0FB681A69BB7922FA03F3F7
:100BE800DBB203F00103DAB23B681A70002318463F
:100BF8001037BD4680BD000080B487B000AF034603
:100C0800FB710B46BB7113467B71FB79072B68D8C8
:100C180001A252F823F000BF410C0008470C00085D
:100C28004D0C0008530C0008590C00085F0C000814
:100C3800650C00086B0C00082D4B7B6114E02D4BF4
:100C48007B6111E02C4B7B610EE02C4B7B610BE050
:100C58002B4B7B6108E02B4B7B6105E02A4B7B61CA
:100C680002E02A4B7B6100BF7B6920333B617B69D3
:100C78002433FB60BB79072B18D8BB799B00BB7268
:100C88003B691B68BA7A0F2101FA02F2D2431A4073
:100C98003B691A603B691B687A7902F00F01BA7ADE
:100CA80001FA02F21A433B691A601BE0BB79083B60
:100CB800DBB29B00FB72FB681B68FA7A0F2101FA12
:100CC80002F2D2431A40FB681A60FB681B687A7903
:100CD80002F00F01FA7A01FA02F21A43FB681A606D
:100CE80000E000BF1C37BD465DF8047B704700BFBD
:100CF800000002400004024000080240000C0240CC
:100D0800001002400014024000180240001C02407B
:100D180080B485B000AF0346FB710023FB60FB790C
:100D2800022B0CD0022B0DDC002B02D0012B03D0A0
:100D380008E0084BFB6006E0074BFB6003E0074B4D
:100D4800FB6000E000BFFB6818461437BD465DF83D
:100D5800047B7047001001400044004000480040F8
:100D680080B586B000AF0346B9607A60FB73BB6894
:100D7800002B00F08B80FB7B1846FFF7C9FF7861DA
:100D88007B690C331B687A690C3223F400531360B7
:100D9800BB681B685A087B681A44BB681B68B2FBAF
:100DA800F3F33B617B6908331A463B691360BB6800
:100DB800DB79012B08D17B690C331B687A690C320B
:100DC80043F48053136007E07B690C331B687A692E
:100DD8000C3223F480531360BB685B79002B08D175
:100DE8007B690C331B687A690C3223F480631360C7
:100DF8001CE07B690C331B687A690C3243F480630E
:100E08001360BB685B79022B08D17B690C331B68C4
:100E18007A690C3243F40073136007E07B690C3382
:100E28001B687A690C3223F4007313607B691033F2
:100E38001B687A69103223F4405313607B691033BE
:100E48001B68BA689279120311467A6910320B430B
:100E580013607B690C331B68BA68127A11467A6989
:100E68000C320B4313607B690C331B68BA68127928
:100E780011467A690C320B4313607B690C331B688B
:100E88007A690C3243F40053136000E000BF18374E
:100E9800BD4680BD80B584B000AF03460A46FB71ED
:100EA8001346BB71FB791846FFF732FFF86000BFA5
:100EB800FB681B68DB0903F00103002BF8D0FB6813
:100EC80004331A46BB79136000BF1037BD4680BD96
:100ED80080B582B000AF03463960FB7108E03B681B
:100EE8005A1C3A601A78FB7911461846FFF7D2FF68
:100EF8003B681B78002BF2D100BF00BF0837BD4606
:100F080080BD80B584B000AF0346FB71FB791846FD
:100F1800FFF7FEFEF86000BFFB681B685B0903F083
:100F28000103002BF8D0FB6804331B68DBB21846BA
:100F38001037BD4680BD80B584B000AF0346396028
:100F4800FB71FB791846FFF7E3FEF86000BFFB680A
:100F58001B685B0903F00103002B04D13B685A1E90
:100F68003A60002BF3D13B68002B01D1FF2303E04B
:100F7800FB6804331B68DBB218461037BD4680BDDA
:100F880080B586B000AF03463960FB713B68002B23
:100F980007DAFB792D211846FFF77CFF3B685B4297
:100FA8003B603B68002B05D1FB7930211846FFF7E1
:100FB80071FF37E00023FB751DE03A681B4B83FB8C
:100FC80002139910D317C91A0B469B000B445B00F8
:100FD800D11ACAB2FB7D591CF9753032D2B2183316
:100FE8003B4403F80C2C3B68104A82FB0312921016
:100FF800DB17D31A3B603B68002BDEDCFB7DBB753F
:101008000DE0BB7D013B18333B4413F80C2CFB79F6
:1010180011461846FFF73EFFBB7D013BBB75BB7D04
:10102800002BEED11837BD4680BD00BF67666666E7
:1010380080B586B000AF00237B6000237B6100236E
:101048003B611B4A1B4BD31A9B107B601A4B7B617D
:10105800184B3B610023FB600AE07A69131D7B6132
:101068003B69191D396112681A60FB680133FB601E
:10107800FA687B689A42F0D3104A114BD31A9B1036
:101088007B600F4B3B610023BB6007E03B691A1D87
:101098003A6100221A60BB680133BB60BA687B689A
:1010A8009A42F3D300F09EF800F010F8FEE700BF74
:1010B8000C000020000000201C120008280000205E
:1010C8000C00002080B400AFFEE7000080B500AF40
:1010D80000F064F800F070F8244B1B681B0FDBB2BB
:1010E80003F00103DAB2224B1A70204B1B68DB0EA7
:1010F800DBB203F00103DAB21E4B1A701B4B1B68FC
:101108009B0EDBB203F00103DAB21B4B1A70174BCC
:101118001B68164A43F08073136018490120FFF7D3
:10112800D7FE144B1B78002B03D1114B1B78002BD7
:101138000BD0134B134A1A60134B1B681A46134BF8
:101148001A60124B1B6898470EE00B4B1B78002B5C
:10115800E3D00B4B0E4A1A600E4B1B681A460E4B17
:101168001A600D4B1B689847D7E700BF74380240D8
:10117800240000202500002026000020101200086E
:1011880008ED00E000800008048000081C00002032
:1011980000400008044000082000002080B500AF8F
:1011A800034A04490120FFF7DBFD00BF80BD00BFF3
:1011B8000024F4000000002080B582B002AF0023B4
:1011C8000193032300930023022202210020FFF74A
:1011D80013FC072202210020FFF70EFD00BFBD46C9
:1011E80080BD000080B500AF0648FFF7D7F80021A2
:1011F8000020FFF71BF911210320FFF717F900BFA3
:0812080080BD00BF10000020B2
:0C1210000A20424D200A000000000220CD
:0C121C0000100E000800000000000000A0
:040000050800017876
:00000001FF
