:020000040800F2
:1040000000000220495C0008DD5C0008DD5C00085F
:10401000DD5C0008DD5C0008DD5C000800000000DD
:10402000000000000000000000000000DD5C00084F
:10403000DD5C000800000000DD5C00086549000848
:10404000DD5C0008DD5C0008DD5C0008DD5C00086C
:10405000DD5C0008DD5C0008DD5C0008DD5C00085C
:10406000DD5C0008DD5C0008DD5C0008DD5C00084C
:10407000DD5C0008DD5C0008DD5C0008DD5C00083C
:10408000DD5C0008DD5C0008DD5C0008DD5C00082C
:10409000DD5C0008DD5C0008DD5C0008DD5C00081C
:1040A000DD5C0008DD5C0008DD5C0008DD5C00080C
:1040B000DD5C0008DD5C0008DD5C0008DD5C0008FC
:1040C000DD5C0008DD5C0008DD5C0008DD5C0008EC
:1040D000DD5C0008DD5C00083D500008DD5C000888
:1040E000DD5C0008DD5C0008DD5C0008DD5C0008CC
:1040F000DD5C0008DD5C0008DD5C0008DD5C0008BC
:10410000DD5C0008DD5C0008DD5C0008DD5C0008AB
:10411000DD5C0008DD5C0008DD5C0008DD5C00089B
:10412000DD5C0008DD5C0008DD5C0008DD5C00088B
:10413000DD5C0008DD5C0008DD5C0008DD5C00087B
:10414000DD5C0008DD5C0008DD5C0008DD5C00086B
:10415000DD5C0008DD5C0008DD5C0008DD5C00085B
:10416000DD5C0008DD5C0008DD5C0008DD5C00084B
:08417000DD5C0008DD5C0008C5
:1041780080B400AF094B1B68084A43F00103136081
:1041880000BF064B1B685B0803F00103002BF8D047
:1041980000BF00BFBD465DF8047B70470038024091
:1041A80080B400AF094B1B68084A43F4803313609E
:1041B80000BF064B1B685B0C03F00103002BF8D013
:1041C80000BF00BFBD465DF8047B70470038024061
:1041D80080B400AF094B1B68084A43F08073136032
:1041E80000BF064B1B685B0E03F00103002BF8D0E1
:1041F80000BF00BFBD465DF8047B70470038024031
:1042080080B400AF094B1B68084A23F08073136021
:1042180000BF064B1B685B0E03F00103002BF8D1AF
:1042280000BF00BFBD465DF8047B70470038024000
:1042380080B483B000AF0346FB710F4B1B680E4A76
:1042480023F0030313600C4B1A68FB7903F0030394
:10425800094913430B6000BF074B1B689B0803F019
:104268000302FB799A42F7D100BF00BF0C37BD4665
:104278005DF8047B704700BF0838024080B584B001
:1042880000AF7860FFF7BCFF0023FB607B685B78BA
:1042980003F03F03FA681343FB607B685B889B016C
:1042A8001A4647F6C0731340FA681343FB607B68ED
:1042B8001B795B08DBB2013B1B0403F44033FA684B
:1042C8001343FB607B681B789B051A46FB68134306
:1042D800FB607B685B791B0603F07063FA68134325
:1042E800FB60034AFB68136000BF1037BD4680BD02
:1042F8000438024080B483B000AF0346FB710A4B18
:104308001B68094A23F0F0031360074B1B68FA790E
:1043180012011146044A0B43136000BF0C37BD4617
:104328005DF8047B704700BF0838024080B483B052
:1043380000AF0346FB710A4B1B68094A23F4E0539C
:104348001360074B1B68FA7992021146044A0B4323
:10435800136000BF0C37BD465DF8047B704700BF93
:104368000838024080B483B000AF0346FB710A4BA3
:104378001B68094A23F460431360074B1B68FA79EA
:1043880052031146044A0B43136000BF0C37BD4665
:104398005DF8047B704700BF0838024080B582B0E2
:1043A80000AF78607B68002B39D07B681B78022BC4
:1043B80012D0022B35DC002B02D0012B06D030E0C6
:1043C800FFF7D6FE0020FFF733FF2BE0FFF7E8FEEC
:1043D8000120FFF72DFF25E07B689B78012B02D198
:1043E800FFF7DEFE01E0FFF7C3FE7B6802331846E5
:1043F800FFF744FFFFF7ECFE7B681B7A1846FFF7D0
:1044080079FF7B685B7A1846FFF790FF7B689B7A99
:104418001846FFF7A7FF0220FFF70AFF02E000BFD8
:1044280000E000BF0837BD4680BD000080B483B0FF
:1044380000AF03460A46FB711346BB71FB79042B98
:1044480043D801A252F823F0654400087B440008D1
:1044580091440008A7440008BD4400081E4B1B688F
:10446800BA79012101FA02F211461B4A0B43136083
:104478002CE01A4B1B68BA79012101FA02F21146A5
:10448800164A0B43136021E0154B1B68BA790121CA
:1044980001FA02F21146124A0B43136016E0114B5F
:1044A8001B68BA79012101FA02F211460D4A0B4341
:1044B80013600BE00C4B1B68BA79012101FA02F278
:1044C8001146094A0B43136000E000BF00BF0C37D8
:1044D800BD465DF8047B70473038024034380240EE
:1044E80038380240403802404438024080B483B033
:1044F80000AF03460A46FB711346BB71FB79042BD8
:1045080048D801A252F823F0254500083D45000887
:10451800554500086D45000885450008214B1B6876
:10452800BA79012101FA02F2D24311461D4A0B4021
:10453800136030E01C4B1B68BA79012101FA02F2C2
:10454800D2431146184A0B40136024E0174B1B68EE
:10455800BA79012101FA02F2D2431146134A0B40FB
:10456800136018E0124B1B68BA79012101FA02F2B4
:10457800D24311460E4A0B4013600CE00D4B1B68EA
:10458800BA79012101FA02F2D2431146094A0B40D5
:10459800136000E000BF00BF0C37BD465DF8047B28
:1045A800704700BF30380240343802403838024083
:1045B800403802404438024080B485B000AF03461A
:1045C800FB710023FB73FB791F2B05D8FB790122B4
:1045D8009A400C4B1A600DE0FB793B2B08D8FB790D
:1045E800203BFB71FB7901229A40074B1A6001E0DE
:1045F8000123FB73FB7B18461437BD465DF8047B2B
:10460800704700BF00E100E004E100E080B485B03D
:1046180000AF0346FB710023FB73FB791F2B05D802
:10462800FB7901229A400C4B1A600DE0FB793B2B79
:1046380008D8FB79203BFB71FB7901229A40074B94
:104648001A6001E00123FB73FB7B18461437BD4653
:104658005DF8047B704700BF80E100E084E100E082
:1046680080B485B000AF0346FB710023FB73FB7970
:104678001F2B05D8FB7901229A400C4B1A600DE0DC
:10468800FB793B2B08D8FB79203BFB71FB79012296
:104698009A40074B1A6001E00123FB73FB7B184625
:1046A8001437BD465DF8047B704700BF00E200E0A8
:1046B80004E200E080B485B000AF0346FB7100233C
:1046C800FB73FB791F2B05D8FB7901229A400C4B11
:1046D8001A600DE0FB793B2B08D8FB79203BFB7176
:1046E800FB7901229A40074B1A6001E00123FB7312
:1046F800FB7B18461437BD465DF8047B704700BF46
:1047080080E200E084E200E080B485B000AF0346B8
:104718003960FB710023FB73FB791F2B0BD8134BFC
:104728001A68FB7922FA03F3DBB203F00103DAB269
:104738003B681A7013E0FB793B2B0ED8FB79203BC2
:10474800FB710B4B1A68FB7922FA03F3DBB203F017
:104758000103DAB23B681A7001E00123FB73FB7BAB
:1047680018461437BD465DF8047B704700E300E047
:1047780004E300E080B485B000AF0346FB710B464C
:10478800BB7113467B71134B134A1A600223FB73E8
:1047980097F90730002B16DB97F90730002B12DB4F
:1047A800BA79FB7B02FA03F35AB297F9053013433F
:1047B8005BB2DAB297F9073003F1604303F564435B
:1047C8001201D2B21A7000BF1437BD465DF8047BDF
:1047D800704700BF0CED00E00005FA0580B400AF9B
:1047E800044A13686FF38203136000BFBD465DF887
:1047F800047B704710E000E080B584B000AF7860BB
:104808007B684FF4FA6202FB03F3FB600C4B002257
:104818001A600C4AFB6813600B4A136843F00103E3
:10482800136000BF084B1B68C3F30043DBB2002BC7
:10483800F8D000F069F800BF1037BD4680BD00BF52
:1048480018E000E014E000E010E000E080B485B07B
:1048580000AF786039600123FB733B68002B02D1FD
:104868000223FB7311E00023FB730B4A3B681360C0
:104878000A4A7B6813600A4A136843F0020313600C
:10488800074A136843F001031360FB7B184614378B
:10489800BD465DF8047B70471400002014E000E07A
:1048A80010E000E080B485B000AF78603960012383
:1048B800FB733B68002B02D10223FB7315E0002336
:1048C800FB730D4A3B6813600C4A7B68013B13601D
:1048D8000B4B00221A600B4A136843F00203136063
:1048E800084A136843F001031360FB7B184614372A
:1048F800BD465DF8047B70471400002014E000E01A
:1049080018E000E010E000E080B400AF044A13684B
:104918006FF30003136000BFBD465DF8047B70476A
:1049280010E000E080B400AF044B1A68044B1B6829
:10493800D31A1846BD465DF8047B704714E000E0C2
:1049480018E000E080B400AF034B1B681846BD4672
:104958005DF8047B704700BF18E000E080B500AF49
:10496800024B1B68984700BF80BD00BF14000020A1
:1049780080B483B000AF0346FB71FB79072B23D8C3
:1049880001A252F823F000BFB1490008B549000858
:10499800B9490008BD490008C1490008C5490008CF
:1049A800C9490008CD4900080B4B0EE00B4B0CE041
:1049B8000B4B0AE00B4B08E00B4B06E00B4B04E0FB
:1049C8000B4B02E00B4B00E0002318460C37BD46AA
:1049D8005DF8047B704700BF0000024000040240FD
:1049E80000080240000C024000100240001402407F
:1049F80000180240001C024090B585B000AF044684
:104A0800084611461A462346FB710346BB710B46FE
:104A18007B7113463B71FB791846FFF7A9FFF860D5
:104A2800FB68002B01D1012365E0BB790F2B01D96D
:104A3800022360E0FB681B68BA795200032101FA7F
:104A480002F2D2431A40FB681A60FB681B687A7945
:104A580002F00301BA79520001FA02F21A43FB6824
:104A68001A607B79012B02D07B79022B12D1FB686B
:104A78005B68BA79012101FA02F2D2431A40FB6855
:104A88005A60FB685B683979BA7901FA02F21A430D
:104A9800FB685A60FB689B68BA795200032101FAE7
:104AA80002F2D2431A40FB689A60FB689B6897F849
:104AB800202002F00301BA79520001FA02F21A43E7
:104AC800FB689A60FB68DB68BA795200032101FA37
:104AD80002F2D2431A40FB68DA60FB68DB6897F899
:104AE800242002F00301BA79520001FA02F21A43B3
:104AF800FB68DA60002318461437BD4690BD80B5C0
:104B080084B000AF0346FB710B46BB7113467B7143
:104B1800FB791846FFF72CFFF860FB68002B01D1E2
:104B2800012318E0BB790F2B01D9022313E07B790D
:104B3800012B07D1BB79012202FA03F31A46FB685D
:104B48009A6107E0BB791033012202FA03F31A468F
:104B5800FB689A61002318461037BD4680BD80B5B2
:104B680084B000AF03460A46FB711346BB71FB795C
:104B78001846FFF7FDFEF860FB68002B01D1012302
:104B88000EE0BB790F2B01D9022309E0FB685B69B2
:104B9800BA79012101FA02F25A40FB685A610023EE
:104BA80018461037BD4680BD80B584B000AF0346B7
:104BB8003A60FB710B46BB71FB791846FFF7D8FECC
:104BC800F860FB68002B01D1012310E0BB790F2BA3
:104BD80001D902230BE0FB681A69BB7922FA03F3B7
:104BE800DBB203F00103DAB23B681A7000231846FF
:104BF8001037BD4680BD000080B487B000AF0346C3
:104C0800FB710B46BB7113467B71FB79072B68D888
:104C180001A252F823F000BF414C0008474C00089D
:104C28004D4C0008534C0008594C00085F4C0008D4
:104C3800654C00086B4C00082D4B7B6114E02D4B34
:104C48007B6111E02C4B7B610EE02C4B7B610BE010
:104C58002B4B7B6108E02B4B7B6105E02A4B7B618A
:104C680002E02A4B7B6100BF7B6920333B617B6993
:104C78002433FB60BB79072B18D8BB799B00BB7228
:104C88003B691B68BA7A0F2101FA02F2D2431A4033
:104C98003B691A603B691B687A7902F00F01BA7A9E
:104CA80001FA02F21A433B691A601BE0BB79083B20
:104CB800DBB29B00FB72FB681B68FA7A0F2101FAD2
:104CC80002F2D2431A40FB681A60FB681B687A79C3
:104CD80002F00F01FA7A01FA02F21A43FB681A602D
:104CE80000E000BF1C37BD465DF8047B704700BF7D
:104CF800000002400004024000080240000C02408C
:104D0800001002400014024000180240001C02403B
:104D180080B485B000AF0346FB710023FB60FB79CC
:104D2800022B0CD0022B0DDC002B02D0012B03D060
:104D380008E0084BFB6006E0074BFB6003E0074B0D
:104D4800FB6000E000BFFB6818461437BD465DF8FD
:104D5800047B7047001001400044004000480040B8
:104D680080B586B000AF0346B9607A60FB73BB6854
:104D7800002B00F08B80FB7B1846FFF7C9FF78619A
:104D88007B690C331B687A690C3223F40053136077
:104D9800BB681B685A087B681A44BB681B68B2FB6F
:104DA800F3F33B617B6908331A463B691360BB68C0
:104DB800DB79012B08D17B690C331B687A690C32CB
:104DC80043F48053136007E07B690C331B687A69EE
:104DD8000C3223F480531360BB685B79002B08D135
:104DE8007B690C331B687A690C3223F48063136087
:104DF8001CE07B690C331B687A690C3243F48063CE
:104E08001360BB685B79022B08D17B690C331B6884
:104E18007A690C3243F40073136007E07B690C3342
:104E28001B687A690C3223F4007313607B691033B2
:104E38001B687A69103223F4405313607B6910337E
:104E48001B68BA689279120311467A6910320B43CB
:104E580013607B690C331B68BA68127A11467A6949
:104E68000C320B4313607B690C331B68BA681279E8
:104E780011467A690C320B4313607B690C331B684B
:104E88007A690C3243F40053136000E000BF18370E
:104E9800BD4680BD80B584B000AF03460A46FB71AD
:104EA8001346BB71FB791846FFF732FFF86000BF65
:104EB800FB681B68DB0903F00103002BF8D0FB68D3
:104EC80004331A46BB79136000BF1037BD4680BD56
:104ED80080B582B000AF03463960FB7108E03B68DB
:104EE8005A1C3A601A78FB7911461846FFF7D2FF28
:104EF8003B681B78002BF2D100BF00BF0837BD46C6
:104F080080BD80B584B000AF0346FB71FB791846BD
:104F1800FFF7FEFEF86000BFFB681B685B0903F043
:104F28000103002BF8D0FB6804331B68DBB218467A
:104F38001037BD4680BD80B584B000AF03463960E8
:104F4800FB71FB791846FFF7E3FEF86000BFFB68CA
:104F58001B685B0903F00103002B04D13B685A1E50
:104F68003A60002BF3D13B68002B01D1FF2303E00B
:104F7800FB6804331B68DBB218461037BD4680BD9A
:104F880080B586B000AF03463960FB713B68002BE3
:104F980005D1FB7930211846FFF77CFF33E0002369
:104FA800FB7519E03968194BA3FB0123DA0813468E
:104FB8009B0013445B00CA1AD2B2FB7D591CF975D9
:104FC8003032D2B218333B4403F80C2C3B680F4AFA
:104FD800A2FB0323DB083B603B68002BE2D1FB7D8F
:104FE800BB750DE0BB7D013B18333B4413F80C2C1B
:104FF800FB7911461846FFF74DFFBB7D013BBB759A
:10500800BB7D002BEED11837BD4680BDCDCCCCCCB6
:1050180080B483B000AF78607B68002B02D0044A6C
:105028007B68136000BF0C37BD465DF8047B704792
:105038001C00002080B586B000AF0120FFF768FE95
:1050480078617B691B683B613B6903F02003002B97
:105058000ED07B6904331B68DAB2174B1A70174BF2
:105068001B68154A127810469847154B00221A609B
:105078003B6903F00803002B07D07B691B68FB60C2
:105088007B6904331B68FB60FB683B6903F004031E
:10509800002B03D07B691B68BB60BB683B6903F0CE
:1050A8000203002B03D07B691B687B607B6800BF11
:1050B8001837BD4680BD00BF180000201C00002026
:1050C800C000002080B400AF074B1B68002B05DA36
:1050D800064B074A1A60054B064A1A6000BFBD46D0
:1050E8005DF8047B704700BF103C0240043C02405E
:1050F80023016745AB89EFCD80B400AF054B1B6832
:10510800044A43F00043136000BFBD465DF8047BCA
:10511800704700BF103C024080B400AF044B1B68CE
:10512800DB0FDBB21846BD465DF8047B704700BF55
:10513800103C024080B400AF054B1B68044A43F0A2
:10514800F303136000BFBD465DF8047B704700BFE2
:105158000C3C024080B483B000AF114B7B6002E08E
:105168007B68013B7B600F4B1B6803F48033002B8B
:1051780002D07B68002BF3D17B68002B01D102237E
:1051880008E0084B1B6803F0F203002B01D0012351
:1051980000E0002318460C37BD465DF8047B7047D5
:1051A800404B4C000C3C024080B483B000AF7860A8
:1051B8007B68B3F1006F05D37B68064A934201D838
:1051C800012300E00023DBB218460C37BD465DF82A
:1051D800047B7047FFFF070880B483B000AF786096
:1051E8007B68184A934201D2002324E07B68164A60
:1051F800934201D201231EE07B68144A934201D2F4
:10520800022318E07B68124A934201D8032312E074
:105218007B68104A934201D804230CE07B680E4A4D
:10522800934201D8052306E07B680C4A934201D8D3
:10523800062300E0072318460C37BD465DF8047BBB
:10524800704700BF004000080080000800C0000848
:10525800FFFF0008FFFF0108FFFF0308FFFF050825
:1052680080B483B000AF78607B68072B23D801A295
:1052780052F823F09D520008A3520008A7520008D4
:10528800AB520008AF520008B3520008B7520008EA
:10529800BB5200084FF000630EE00A4B0CE00A4BCB
:1052A8000AE00A4B08E00A4B06E00A4B04E00A4B06
:1052B80002E00A4B00E0002318460C37BD465DF8B3
:1052C800047B7047004000080080000800C0000808
:1052D8000000010800000208000004080000060899
:1052E80080B483B000AF78607B68072B2AD801A20E
:1052F80052F823F01D5300082353000829530008CF
:105308002F530008355300083B5300084153000849
:10531800475300084FF4804315E04FF4804312E0F0
:105328004FF480430FE04FF480430CE04FF4803398
:1053380009E04FF4003306E04FF4003303E04FF484
:10534800003300E0002318460C37BD465DF8047BA7
:10535800704700BF80B584B000AF78607B68072BCA
:1053680001D9042334E0FFF7ADFEFFF7E3FEFFF7B2
:10537800F1FE0346FB73FB7B002B03D0FFF7BCFE5B
:10538800FB7B25E0144B1B68134A23F0780313605A
:10539800114B1A687B68DB000F4913430B600E4BF7
:1053A8001B680D4A43F0020313600B4B1B680A4A43
:1053B80043F480331360FFF7CDFE0346FB73064BBF
:1053C8001B68054A23F002031360FFF795FEFB7B79
:1053D80018461037BD4680BD103C024090B587B0D6
:1053E80000AF786039607A683B681344013B3B61E1
:1053F8007B687B617868FFF7D7FE0346002B05D0F2
:105408003869FFF7D1FE0346002B19D104231CE0AD
:105418007869FFF7E1FEF860F868FFF79BFF03463D
:10542800FB72FB7A002B01D0FB7A0EE0F868FFF7DD
:1054380017FF0446F868FFF753FF034623447B61D0
:105448007A693B699A42E3D9002318461C37BD465E
:1054580090BD000080B582B000AFFFF733FEFFF7C4
:1054680069FEFFF777FE0346FB71FB79002B03D03B
:10547800FFF742FEFB7918E00E4B1B680D4A43F01C
:10548800040313600B4B1B680A4A43F48033136010
:10549800FFF760FE0346FB71064B1B68054A23F0C5
:1054A80004031360FFF728FEFB7918460837BD464A
:1054B80080BD00BF103C024080B584B000AF78606A
:1054C8000B46FB707868FFF76FFE0346002B01D18F
:1054D80004232EE0FFF7F6FDFFF72CFEFFF73AFE58
:1054E8000346FB73FB7B002B03D0FFF705FEFB7B1A
:1054F8001FE0124B1B68114A23F4407313600F4BD3
:105508000E4A1B6813600D4B1B680C4A43F00103DD
:1055180013607B68FA781A70FFF71CFE0346FB736A
:10552800064B1B68054A23F001031360FFF7E4FDEF
:10553800FB7B18461037BD4680BD00BF103C0240BB
:1055480080B584B000AF78600B467B807868FFF741
:105558002BFE0346002B01D1042337E07B6803F0C0
:105568000103002B01D0032330E0FFF7ABFDFFF769
:10557800E1FDFFF7EFFD0346FB73FB7B002B03D038
:10558800FFF7BAFDFB7B21E0124B1B68114A23F49D
:10559800407313600F4B1B680E4A43F4807313600B
:1055A8000C4B1B680B4A43F0010313607B687A8835
:1055B8001A80FFF7CFFD0346FB73064B1B68054AAD
:1055C80023F001031360FFF797FDFB7B18461037A4
:1055D800BD4680BD103C024080B584B000AF786005
:1055E80039607868FFF7E0FD0346002B01D10423FA
:1055F80037E07B6803F00303002B01D0032330E07E
:10560800FFF760FDFFF796FDFFF7A4FD0346FB7368
:10561800FB7B002B03D0FFF76FFDFB7B21E0134BD7
:105628001B68124A23F440731360104B1B680F4A1F
:1056380043F4007313600D4B1B680C4A43F00103DD
:1056480013607B683A681A60FFF784FD0346FB73B2
:10565800064B1B68054A23F001031360FFF74CFD56
:10566800FB7B18461037BD4680BD00BF103C02408A
:1056780080B586B000AFF860B9607A6000237B61BE
:10568800F868FFF791FD0346002B09D0FA687B689C
:105698001344013B1846FFF787FD0346002B01D151
:1056A800042321E07968F86800F0ABF80346002B82
:1056B80015D1062318E0FA687B69D018BA687B69A7
:1056C80013441B781946FFF7F7FE0346FB74FB7C6F
:1056D800002B01D0FB7C07E07B6901337B617A6991
:1056E8007B689A42E7D3002318461837BD4680BD29
:1056F80080B588B000AFF860B9607A600023FB61BC
:10570800F868FFF751FD0346002B09D0FA687B685B
:105718001344013B1846FFF747FD0346002B01D110
:10572800042344E0FB6803F00303002B01D00323A8
:105738003DE07968F86800F064F80346002B17D15B
:10574800062334E0BA68FB6913441B687B61FA6876
:10575800FB69134479691846FFF73EFF0346FB7659
:10576800FB7E002B01D0FB7E21E0FB690433FB614B
:10577800FB6904337A689A42E4D213E0FA68FB6959
:10578800D018BA68FB6913441B781946FFF794FED2
:105798000346FB76FB7E002B01D0FB7E07E0FB690E
:1057A8000133FB61FA697B689A42E7D30023184604
:1057B8002037BD4680BD80B487B000AFF860B960BF
:1057C8007A60FB683B6100237B610FE03A697B6983
:1057D80013441A78B9687B690B441B789A4202D043
:1057E8004FF0FF3307E07B6901337B617A697B689F
:1057F8009A42EBD3002318461C37BD465DF8047B5C
:10580800704780B485B000AF786039607B68BB6052
:105818000023FB600AE0BA68FB6813441B78FF2B7F
:1058280001D0002307E0FB680133FB60FA683B689E
:105838009A42F0D3012318461437BD465DF8047B1D
:10584800704780B586B000AFF860B9607A60FB68D1
:105858003B61F868FFF7A8FC0346002B09D0FA68FB
:105868007B681344013B1846FFF79EFC0346002B58
:1058780001D1042312E000237B610AE03A697B69C5
:105888001A44B9687B690B4412781A707B69013332
:105898007B617A697B689A42F0D3002318461837EF
:1058A800BD4680BD80B400AF72B600BFBD465DF88E
:1058B800047B704780B400AF62B600BFBD465DF898
:1058C800047B704780B584B000AF78603960FFF71B
:1058D800E9FF39687868FFF77FFE0346FB73FFF737
:1058E800E9FFFB7B18461037BD4680BD80B483B006
:1058F80000AF084B1B687B60074B1B68054A1360A9
:10590800054A7B68136000BF0C37BD465DF8047B11
:10591800704700BF040000200000002080B586B05A
:1059280000AF78607B6801331A787B6802331B7894
:105938001946104600F0BAF803463B757B680333F6
:105948001A787B6804331B781946104600F0AEF8C5
:105958000346FB747B6805331A787B6806331B782B
:105968001946104600F0A2F80346BB74FB7C1B02E4
:105978001AB2BB7C1BB213431BB2FB827B68073392
:105988001A787B6808331B781946104600F08EF8A1
:1059980003467B747B7C002B70D100237B7567E00A
:1059A8007B7D5B0009331A467B6813441A787B7D3C
:1059B80005335B0019467B680B441B781946104673
:1059C80000F074F803463B747B7D5B000B331A468A
:1059D8007B6813441A787B7D06335B0019467B6825
:1059E8000B441B781946104600F060F80346FB7319
:1059F8007B7D5B000D331A467B6813441A787B7DE8
:105A080007335B0019467B680B441B781946104620
:105A180000F04CF80346BB737B7D5B000F331A46DE
:105A28007B6813441A787B7D08335B0019467B68D2
:105A38000B441B781946104600F038F803467B7370
:105A48007B7B1A06BB7B1B041A43FB7B1B021A4396
:105A58003B7C1343BB60FB8A03F10063B9681846BB
:105A6800FFF7BAFDFB8A0433FB827B7D04337B7529
:105A78007A7D3B7D9A4293D300230CE07B7C012BFB
:105A880008D107490120FFF723FA064B064A1A6096
:105A9800FF2300E0002318461837BD4680BD00BF2D
:105AA800D05D00080CED00E00400FA0580B483B076
:105AB80000AF03460A46FB711346BB71FB79084ADF
:105AC800D35C1B015AB2BB790549CB5C5BB213436B
:105AD8005BB2DBB218460C37BD465DF8047B7047F5
:105AE800305E000880B582B000AF0346FB71FB79D9
:105AF8000A2B02D0FB790D2B27D1264B1B78DBB262
:105B0800002B43D0244B1B68224A1278D2B213448C
:105B180000221A70214B1B78DBB21A46204B022157
:105B280099541E4B1B78DBB2002B05D11B4B01226D
:105B38001A70FFF7DBFE04E0184B00221A70FFF71B
:105B4800D5FE144B00221A7020E0124B1B78DBB2F2
:105B58003E2B13D8114B1B78DBB21A46104B012190
:105B680099540D4B1A680B4B1B78DBB2591CC8B201
:105B7800084908701344FA791A7007E009490120A6
:105B8800FFF7A6F9034B00221A70FFE700BF08379A
:105B9800BD4680BDA400002000000020A500002014
:105BA800A8000020045E000880B582B000AF1C4B3E
:105BB8001B6842F21072934210D91A490120FFF76C
:105BC80087F9174B1B6819460120FFF7D9F91649C1
:105BD8000120FFF77DF9154B154A1A600023FB7168
:105BE80016E0FB79134AD35CDBB2022B0DD1FB79AB
:105BF800002B01D1104B00E0104B3B603868FFF7D9
:105C08008DFEFB790B4A0021D154FB790133FB71DE
:105C1800FB79012BE5D900BF00BF0837BD4680BD21
:105C2800C0000020145E0008205E00080CED00E0B3
:105C38000400FA05A80000202400002064000020C9
:105C480080B586B000AF00237B6000237B61002312
:105C58003B611B4A1B4BD31A9B107B601A4B7B6121
:105C6800184B3B610023FB600AE07A69131D7B61D6
:105C78003B69191D396112681A60FB680133FB60C2
:105C8800FA687B689A42F0D3104A114BD31A9B10DA
:105C98007B600F4B3B610023BB6007E03B691A1D2B
:105CA8003A6100221A60BB680133BB60BA687B683E
:105CB8009A42F3D300F076F800F01EF8FEE700BF32
:105CC80014000020000000200C5F0008C400002021
:105CD8001400002080B400AFFEE7000080B400AFDD
:105CE800044B1B680133034A136000BFBD465DF8CF
:105CF800047B7047C000002080B500AF00F02EF88C
:105D080000F01EF8FEF76AFD2620FEF755FC09494B
:105D18004FF4FA60FEF7C6FD07490120FFF7D8F8EF
:105D28000220FFF717FB0548FFF772F9FFF73CFF62
:105D3800FCE700BFE55C0008245E0008ED5A000897
:105D480080B500AF034A04490120FFF709F800BFF6
:105D580080BD00BF0024F4000800002080B582B098
:105D680002AF0023019303230093002302220221A0
:105D78000020FEF741FE072202210020FEF73CFF2B
:105D88000023019303230093002302220321002010
:105D9800FEF732FE072203210020FEF72DFF00BF89
:105DA800BD4680BD80B500AF0648FEF7F7FA002172
:105DB8000020FEF73BFB11210320FEF737FB00BF55
:085DC80080BD00BFB400002003
:105DD0000A454F46207265636F7264207265636581
:105DE00069766564202D206669726D776172652021
:105DF00075706C6F616420636F6D706C6574650A9B
:105E0000000000004C696E6520746F6F206C6F6E2F
:105E100067210A000A6D735F7469636B73210A005E
:105E20000A0000000A2042544C44200A00000000EE
:105E30000000000000000000000000000000000062
:105E40000000000000000000000000000000000052
:105E50000000000000000000000000000000000042
:105E60000001020304050607080900000000000005
:105E7000000A0B0C0D0E0F000000000000000000D7
:105E80000000000000000000000000000000000012
:105E9000000A0B0C0D0E0F00000000000000022095
:105EA00000000000000000000000000000000000F2
:105EB00000000000000000000000000000000000E2
:105EC00000000000000000000000000000000000D2
:105ED0000001020304050607080900000000000095
:105EE000000A0B0C0D0E0F00000000000000000067
:105EF00000000000000000000000000000000000A2
:0C5F0000000A0B0C0D0E0F00000000004A
:105F0C00240000206400002000100E000C00000093
:045F1C002000000061
:040000050800417836
:00000001FF
