:020000040800F2
:1040000000000220B95900084D5A00084D5A000816
:104010004D5A00084D5A00084D5A00080000000093
:104020000000000000000000000000004D5A0008E1
:104030004D5A0008000000004D5A0008554900087C
:104040004D5A00084D5A00084D5A00084D5A0008B4
:104050004D5A00084D5A00084D5A00084D5A0008A4
:104060004D5A00084D5A00084D5A00084D5A000894
:104070004D5A00084D5A00084D5A00084D5A000884
:104080004D5A00084D5A00084D5A00084D5A000874
:104090004D5A00084D5A00084D5A00084D5A000864
:1040A0004D5A00084D5A00084D5A00084D5A000854
:1040B0004D5A00084D5A00084D5A00084D5A000844
:1040C0004D5A00084D5A00084D5A00084D5A000834
:1040D0004D5A00084D5A0008DD4F00084D5A00089F
:1040E0004D5A00084D5A00084D5A00084D5A000814
:1040F0004D5A00084D5A00084D5A00084D5A000804
:104100004D5A00084D5A00084D5A00084D5A0008F3
:104110004D5A00084D5A00084D5A00084D5A0008E3
:104120004D5A00084D5A00084D5A00084D5A0008D3
:104130004D5A00084D5A00084D5A00084D5A0008C3
:104140004D5A00084D5A00084D5A00084D5A0008B3
:104150004D5A00084D5A00084D5A00084D5A0008A3
:104160004D5A00084D5A00084D5A00084D5A000893
:084170004D5A00084D5A0008E9
:1041780080B400AF094B1B68084A43F00103136081
:1041880000BF064B1B685B0803F00103002BF8D047
:1041980000BF00BFBD465DF8047B70470038024091
:1041A80080B400AF094B1B68084A43F4803313609E
:1041B80000BF064B1B685B0C03F00103002BF8D013
:1041C80000BF00BFBD465DF8047B70470038024061
:1041D80080B400AF094B1B68084A43F08073136032
:1041E80000BF064B1B685B0E03F00103002BF8D0E1
:1041F80000BF00BFBD465DF8047B70470038024031
:1042080080B400AF094B1B68084A23F08073136021
:1042180000BF064B1B685B0E03F00103002BF8D1AF
:1042280000BF00BFBD465DF8047B70470038024000
:1042380080B483B000AF0346FB710F4B1B680E4A76
:1042480023F0030313600C4B1A68FB7903F0030394
:10425800094913430B6000BF074B1B689B0803F019
:104268000302FB799A42F7D100BF00BF0C37BD4665
:104278005DF8047B704700BF0838024080B584B001
:1042880000AF7860FFF7BCFF0023FB607B685B78BA
:1042980003F03F03FA681343FB607B685B889A016D
:1042A80047F6C0731340FA681343FB607B681B79B9
:1042B8005B08DBB2013B1B0403F44033FA68134389
:1042C800FB607B681B789B05FA681343FB607B687F
:1042D8005B791B0603F07063FA681343FB60034ABB
:1042E800FB68136000BF1037BD4680BD043802402C
:1042F80080B483B000AF0346FB71094B1B68084AC2
:1043080023F0F0031360064B1A68FB791B0104497C
:1043180013430B6000BF0C37BD465DF8047B704744
:104328000838024080B483B000AF0346FB71094BE4
:104338001B68084A23F4E0531360064B1A68FB799C
:104348009B02044913430B6000BF0C37BD465DF860
:10435800047B70470838024080B483B000AF03463E
:10436800FB71094B1B68084A23F460431360064B32
:104378001A68FB795B03044913430B6000BF0C37D1
:10438800BD465DF8047B70470838024080B582B0AE
:1043980000AF78607B68002B39D07B681B78022BD4
:1043A80012D0022B35DC002B02D0012B06D030E0D6
:1043B800FFF7DEFE0020FFF73BFF2BE0FFF7F0FEE4
:1043C8000120FFF735FF25E07B689B78012B02D1A0
:1043D800FFF7E6FE01E0FFF7CBFE7B6802331846E5
:1043E800FFF74CFFFFF7F4FE7B681B7A1846FFF7D0
:1043F8007FFF7B685B7A1846FFF794FF7B689B7AA0
:104408001846FFF7A9FF0220FFF712FF02E000BFDE
:1044180000E000BF0837BD4680BD000080B483B00F
:1044280000AF03460A46FB711346BB71FB79042BA8
:1044380043D801A252F823F0554400086B44000801
:104448008144000897440008AD4400081E4B1B68CF
:10445800BA79012101FA02F211461B4A0B43136093
:104468002CE01A4B1B68BA79012101FA02F21146B5
:10447800164A0B43136021E0154B1B68BA790121DA
:1044880001FA02F21146124A0B43136016E0114B6F
:104498001B68BA79012101FA02F211460D4A0B4351
:1044A80013600BE00C4B1B68BA79012101FA02F288
:1044B8001146094A0B43136000E000BF00BF0C37E8
:1044C800BD465DF8047B70473038024034380240FE
:1044D80038380240403802404438024080B483B043
:1044E80000AF03460A46FB711346BB71FB79042BE8
:1044F80048D801A252F823F0154500082D450008B8
:10450800454500085D45000875450008214B1B68B6
:10451800BA79012101FA02F2D24311461D4A0B4031
:10452800136030E01C4B1B68BA79012101FA02F2D2
:10453800D2431146184A0B40136024E0174B1B68FE
:10454800BA79012101FA02F2D2431146134A0B400B
:10455800136018E0124B1B68BA79012101FA02F2C4
:10456800D24311460E4A0B4013600CE00D4B1B68FA
:10457800BA79012101FA02F2D2431146094A0B40E5
:10458800136000E000BF00BF0C37BD465DF8047B38
:10459800704700BF30380240343802403838024093
:1045A800403802404438024080B485B000AF03462A
:1045B800FB710023FB73FB791F2B05D8FB790122C4
:1045C8009A400C4B1A600DE0FB793B2B08D8FB791D
:1045D800203BFB71FB7901229A40074B1A6001E0EE
:1045E8000123FB73FB7B18461437BD465DF8047B3B
:1045F800704700BF00E100E004E100E080B485B04E
:1046080000AF0346FB710023FB73FB791F2B05D812
:10461800FB7901229A400C4B1A600DE0FB793B2B89
:1046280008D8FB79203BFB71FB7901229A40074BA4
:104638001A6001E00123FB73FB7B18461437BD4663
:104648005DF8047B704700BF80E100E084E100E092
:1046580080B485B000AF0346FB710023FB73FB7980
:104668001F2B05D8FB7901229A400C4B1A600DE0EC
:10467800FB793B2B08D8FB79203BFB71FB790122A6
:104688009A40074B1A6001E00123FB73FB7B184635
:104698001437BD465DF8047B704700BF00E200E0B8
:1046A80004E200E080B485B000AF0346FB7100234C
:1046B800FB73FB791F2B05D8FB7901229A400C4B21
:1046C8001A600DE0FB793B2B08D8FB79203BFB7186
:1046D800FB7901229A40074B1A6001E00123FB7322
:1046E800FB7B18461437BD465DF8047B704700BF56
:1046F80080E200E084E200E080B485B000AF0346C9
:104708003960FB710023FB73FB791F2B0BD8134B0C
:104718001A68FB7922FA03F3DBB203F00103DAB279
:104728003B681A7013E0FB793B2B0ED8FB79203BD2
:10473800FB710B4B1A68FB7922FA03F3DBB203F027
:104748000103DAB23B681A7001E00123FB73FB7BBB
:1047580018461437BD465DF8047B704700E300E057
:1047680004E300E080B485B000AF0346FB710B465C
:10477800BB7113467B71134B134A1A600223FB73F8
:1047880097F90730002B16DB97F90730002B12DB5F
:10479800BA79FB7B02FA03F35AB297F9053013434F
:1047A8005BB2DAB297F9073003F1604303F564436B
:1047B8001201D2B21A7000BF1437BD465DF8047BEF
:1047C800704700BF0CED00E00005FA0580B400AFAB
:1047D800044A136823F00403136000BFBD465DF864
:1047E800047B704710E000E080B584B000AF7860CB
:1047F8007B684FF4FA6202FB03F3FB600C4B002268
:104808001A600C4AFB6813600B4A136843F00103F3
:10481800136000BF084B1B68C3F30043DBB2002BD7
:10482800F8D000F069F800BF1037BD4680BD00BF62
:1048380018E000E014E000E010E000E080B485B08B
:1048480000AF786039600123FB733B68002B02D10D
:104858000223FB7311E00023FB730B4A3B681360D0
:104868000A4A7B6813600A4A136843F0020313601C
:10487800074A136843F001031360FB7B184614379B
:10488800BD465DF8047B70471800002014E000E086
:1048980010E000E080B485B000AF78603960012393
:1048A800FB733B68002B02D10223FB7315E0002346
:1048B800FB730D4A3B6813600C4A7B68013B13602D
:1048C8000B4B00221A600B4A136843F00203136073
:1048D800084A136843F001031360FB7B184614373A
:1048E800BD465DF8047B70471800002014E000E026
:1048F80018E000E010E000E080B400AF044A13685C
:1049080023F00103136000BFBD465DF8047B7047C8
:1049180010E000E080B400AF044B1A68044B1B6839
:10492800D31A1846BD465DF8047B704714E000E0D2
:1049380018E000E080B400AF034B1B681846BD4682
:104948005DF8047B704700BF18E000E080B500AF59
:10495800024B1B68984700BF80BD00BF18000020AD
:1049680080B483B000AF0346FB71FB79072B23D8D3
:1049780001A252F823F000BFA1490008A549000888
:10498800A9490008AD490008B1490008B54900081F
:10499800B9490008BD4900080B4B0EE00B4B0CE071
:1049A8000B4B0AE00B4B08E00B4B06E00B4B04E00B
:1049B8000B4B02E00B4B00E0002318460C37BD46BA
:1049C8005DF8047B704700BF00000240000402400D
:1049D80000080240000C024000100240001402408F
:1049E80000180240001C024090B585B000AF044694
:1049F800084611461A462346FB710346BB710B460F
:104A08007B7113463B71FB791846FFF7A9FFF860E5
:104A1800FB68002B01D1012365E0BB790F2B01D97D
:104A2800022360E0FB681B68BA795200032101FA8F
:104A380002F2D2431A40FB681A60FB681B687A7955
:104A480002F00301BA79520001FA02F21A43FB6834
:104A58001A607B79012B02D07B79022B12D1FB687B
:104A68005B68BA79012101FA02F2D2431A40FB6865
:104A78005A60FB685B683979BA7901FA02F21A431D
:104A8800FB685A60FB689B68BA795200032101FAF7
:104A980002F2D2431A40FB689A60FB689B6897F859
:104AA800202002F00301BA79520001FA02F21A43F7
:104AB800FB689A60FB68DB68BA795200032101FA47
:104AC80002F2D2431A40FB68DA60FB68DB6897F8A9
:104AD800242002F00301BA79520001FA02F21A43C3
:104AE800FB68DA60002318461437BD4690BD80B5D0
:104AF80084B000AF0346FB710B46BB7113467B7154
:104B0800FB791846FFF72CFFF860FB68002B01D1F2
:104B1800012318E0BB790F2B01D9022313E07B791D
:104B2800012B07D1BB79012202FA03F31A46FB686D
:104B38009A6107E0BB791033012202FA03F31A469F
:104B4800FB689A61002318461037BD4680BD80B5C2
:104B580084B000AF03460A46FB711346BB71FB796C
:104B68001846FFF7FDFEF860FB68002B01D1012312
:104B78000EE0BB790F2B01D9022309E0FB685B69C2
:104B8800BA79012101FA02F25A40FB685A610023FE
:104B980018461037BD4680BD80B584B000AF0346C7
:104BA8003A60FB710B46BB71FB791846FFF7D8FEDC
:104BB800F860FB68002B01D1012310E0BB790F2BB3
:104BC80001D902230BE0FB681A69BB7922FA03F3C7
:104BD800DBB203F00103DAB23B681A70002318460F
:104BE8001037BD4680BD000080B487B000AF0346D3
:104BF800FB710B46BB7113467B71FB79072B68D899
:104C080001A252F823F000BF314C0008374C0008CD
:104C18003D4C0008434C0008494C00084F4C000824
:104C2800554C00085B4C00082D4B7B6114E02D4B64
:104C38007B6111E02C4B7B610EE02C4B7B610BE020
:104C48002B4B7B6108E02B4B7B6105E02A4B7B619A
:104C580002E02A4B7B6100BF7B6920333B617B69A3
:104C68002433FB60BB79072B18D8BB799B00BB7238
:104C78003B691B68BA7A0F2101FA02F2D2431A4043
:104C88003B691A603B691B687A7902F00F01BA7AAE
:104C980001FA02F21A433B691A601BE0BB79083B30
:104CA800DBB29B00FB72FB681B68FA7A0F2101FAE2
:104CB80002F2D2431A40FB681A60FB681B687A79D3
:104CC80002F00F01FA7A01FA02F21A43FB681A603D
:104CD80000E000BF1C37BD465DF8047B704700BF8D
:104CE800000002400004024000080240000C02409C
:104CF800001002400014024000180240001C02404C
:104D080080B485B000AF0346FB710023FB60FB79DC
:104D1800022B0CD0022B0DDC002B02D0012B03D070
:104D280008E0084BFB6006E0074BFB6003E0074B1D
:104D3800FB6000E000BFFB6818461437BD465DF80D
:104D4800047B7047001001400044004000480040C8
:104D580080B586B000AF03463960FB710023FB7550
:104D68001DE03A681B4B83FB02139910D317C91A2D
:104D78000B469B000B445B00D11ACAB2FB7D591C41
:104D8800F9753032D2B218333B4403F80C2C3B6827
:104D9800104A82FB03129210DB17D31A3B603B6860
:104DA800002BDEDCFB7DBB750CE0BB7D013B07F116
:104DB8000C02D118FB790122184600F0A6F8BB7D39
:104DC800013BBB75BB7D002BEFD100BF00BF18377F
:104DD800BD4680BD6766666680B586B000AF03468F
:104DE800B9607A60FB73BB68002B00F08A80FB7B9C
:104DF8001846FFF785FF78617B690C331B687A6971
:104E08000C3223F400531360BB681B685A087B6894
:104E18001A44BB681B68B2FBF3F33B617B69083338
:104E28001A463B691360BB68DB79012B08D17B69A3
:104E38000C331B687A690C3243F48053136007E023
:104E48007B690C331B687A690C3223F48053136036
:104E5800BB685B79002B08D17B690C331B687A69C6
:104E68000C3223F4806313601CE07B690C331B68ED
:104E78007A690C3243F480631360BB685B79022B58
:104E880008D17B690C331B687A690C3243F40073D0
:104E9800136007E07B690C331B687A690C3223F4D2
:104EA800007313607B6910331B687A69103223F42E
:104EB800405313607B6910331A68BB689B791B03E6
:104EC8007969103113430B607B690C331B68BA682E
:104ED800127A11467A690C320B4313607B690C33E2
:104EE8001B68BA68127911467A690C320B43136051
:104EF8007B690C331B687A690C3243F400531360E6
:104F080000E000BF1837BD4680BD80B584B000AF53
:104F180003463960FB711346BB71FB791846FFF7EE
:104F2800EFFEB8600023FB7311E000BFBB681B688D
:104F3800DB0903F00103002BF8D0FB7B3A6813442C
:104F48001A78BB6804331A60FB7B0133FB73FA7B66
:104F5800BB799A42E9D300BF00BF1037BD4680BD78
:104F680080B582B000AF03463960FB713B68002B07
:104F780008DAFB7901220C491846FFF7C6FF3B689F
:104F88005B423B603B68002B06D1FB790122074955
:104F98001846FFF7BAFF04E0FB7939681846FFF7AF
:104FA800D7FE0837BD4680BD405B0008445B00085B
:104FB80080B483B000AF78607B68002B02D0044ACD
:104FC8007B68136000BF0C37BD465DF8047B7047F3
:104FD8002000002080B586B000AF0120FFF790FECA
:104FE80078617B691B683B613B6903F02003002BF8
:104FF8000ED07B6904331B68DAB2174B1A70174B53
:105008001B68154A127810469847154B00221A60FB
:105018003B6903F00803002B07D07B691B68FB6022
:105028007B6904331B68FB60FB683B6903F004037E
:10503800002B03D07B691B68BB60BB683B6903F02E
:105048000203002B03D07B691B687B607B6800BF71
:105058001837BD4680BD00BF1C000020200000207E
:105068004800002080B400AF074B1B68002B05DA0E
:10507800064B074A1A60054B064A1A6000BFBD4630
:105088005DF8047B704700BF103C0240043C0240BE
:1050980023016745AB89EFCD80B400AF054B1B6892
:1050A800044A43F00043136000BFBD465DF8047B2B
:1050B800704700BF103C024080B400AF044B1B682F
:1050C800DB0FDBB21846BD465DF8047B704700BFB6
:1050D800103C024080B400AF054B1B68044A43F003
:1050E800F303136000BFBD465DF8047B704700BF43
:1050F8000C3C024080B483B000AF114B7B6002E0EF
:105108007B68013B7B600F4B1B6803F48033002BEB
:1051180002D07B68002BF3D17B68002B01D10223DE
:1051280008E0084B1B6803F0F203002B01D00123B1
:1051380000E0002318460C37BD465DF8047B704735
:10514800404B4C000C3C024080B483B000AF786008
:105158007B68B3F1006F05D37B68064A934201D898
:10516800012300E00023DBB218460C37BD465DF88A
:10517800047B7047FFFF070880B483B000AF7860F6
:105188007B68184A934201D2002324E07B68164AC0
:10519800934201D201231EE07B68144A934201D254
:1051A800022318E07B68124A934201D8032312E0D5
:1051B8007B68104A934201D804230CE07B680E4AAE
:1051C800934201D8052306E07B680C4A934201D834
:1051D800062300E0072318460C37BD465DF8047B1C
:1051E800704700BF004000080080000800C00008A9
:1051F800FFFF0008FFFF0108FFFF0308FFFF050886
:1052080080B483B000AF78607B68072B23D801A2F5
:1052180052F823F03D520008435200084752000854
:105228004B5200084F5200085352000857520008CA
:105238005B5200084FF000630EE00A4B0CE00A4B8B
:105248000AE00A4B08E00A4B06E00A4B04E00A4B66
:1052580002E00A4B00E0002318460C37BD465DF813
:10526800047B7047004000080080000800C0000868
:1052780000000108000002080000040800000608F9
:1052880080B483B000AF78607B68072B2AD801A26E
:1052980052F823F0BD520008C3520008C952000852
:1052A800CF520008D5520008DB520008E15200082E
:1052B800E75200084FF4804315E04FF4804312E0B2
:1052C8004FF480430FE04FF480430CE04FF48033F9
:1052D80009E04FF4003306E04FF4003303E04FF4E5
:1052E800003300E0002318460C37BD465DF8047B08
:1052F800704700BF80B584B000AF78607B68072B2B
:1053080001D9042334E0FFF7ADFEFFF7E3FEFFF712
:10531800F1FE0346FB73FB7B002B03D0FFF7BCFEBB
:10532800FB7B25E0144B1B68134A23F078031360BA
:10533800114B1A687B68DB000F4913430B600E4B57
:105348001B680D4A43F0020313600B4B1B680A4AA3
:1053580043F480331360FFF7CDFE0346FB73064B1F
:105368001B68054A23F002031360FFF795FEFB7BD9
:1053780018461037BD4680BD103C024090B587B036
:1053880000AF786039607A683B681344013B3B6141
:105398007B687B617868FFF7D7FE0346002B05D052
:1053A8003869FFF7D1FE0346002B19D104231CE00E
:1053B8007869FFF7E1FEF860F868FFF79BFF03469E
:1053C800FB72FB7A002B01D0FB7A0EE0F868FFF73E
:1053D80017FF0446F868FFF753FF034623447B6131
:1053E8007A693B699A42E3D9002318461C37BD46BF
:1053F80090BD000080B582B000AFFFF733FEFFF725
:1054080069FEFFF777FE0346FB71FB79002B03D09B
:10541800FFF742FEFB7918E00E4B1B680D4A43F07C
:10542800040313600B4B1B680A4A43F48033136070
:10543800FFF760FE0346FB71064B1B68054A23F025
:1054480004031360FFF728FEFB7918460837BD46AA
:1054580080BD00BF103C024080B584B000AF7860CA
:105468000B46FB707868FFF76FFE0346002B01D1EF
:1054780004232EE0FFF7F6FDFFF72CFEFFF73AFEB8
:105488000346FB73FB7B002B03D0FFF705FEFB7B7A
:105498001FE0124B1B68114A23F4407313600F4B33
:1054A8000E4A1B6813600D4B1B680C4A43F001033E
:1054B80013607B68FA781A70FFF71CFE0346FB73CB
:1054C800064B1B68054A23F001031360FFF7E4FD50
:1054D800FB7B18461037BD4680BD00BF103C02401C
:1054E80080B584B000AF78600B467B807868FFF7A2
:1054F8002BFE0346002B01D1042337E07B6803F021
:105508000103002B01D0032330E0FFF7ABFDFFF7C9
:10551800E1FDFFF7EFFD0346FB73FB7B002B03D098
:10552800FFF7BAFDFB7B21E0124B1B68114A23F4FD
:10553800407313600F4B1B680E4A43F4807313606B
:105548000C4B1B680B4A43F0010313607B687A8895
:105558001A80FFF7CFFD0346FB73064B1B68054A0D
:1055680023F001031360FFF797FDFB7B1846103704
:10557800BD4680BD103C024080B584B000AF786065
:1055880039607868FFF7E0FD0346002B01D104235A
:1055980037E07B6803F00303002B01D0032330E0DE
:1055A800FFF760FDFFF796FDFFF7A4FD0346FB73C9
:1055B800FB7B002B03D0FFF76FFDFB7B21E0134B38
:1055C8001B68124A23F440731360104B1B680F4A80
:1055D80043F4007313600D4B1B680C4A43F001033E
:1055E80013607B683A681A60FFF784FD0346FB7313
:1055F800064B1B68054A23F001031360FFF74CFDB7
:10560800FB7B18461037BD4680BD00BF103C0240EA
:1056180080B586B000AFF860B9607A6000237B611E
:10562800F868FFF791FD0346002B09D0FA687B68FC
:105638001344013B1846FFF787FD0346002B01D1B1
:10564800042321E07968F86800F0ABF80346002BE2
:1056580015D1062318E0FA687B69D018BA687B6907
:1056680013441B781946FFF7F7FE0346FB74FB7CCF
:10567800002B01D0FB7C07E07B6901337B617A69F1
:105688007B689A42E7D3002318461837BD4680BD89
:1056980080B588B000AFF860B9607A600023FB611C
:1056A800F868FFF751FD0346002B09D0FA687B68BC
:1056B8001344013B1846FFF747FD0346002B01D171
:1056C800042344E0FB6803F00303002B01D0032309
:1056D8003DE07968F86800F064F80346002B17D1BC
:1056E800062334E0BA68FB6913441B687B61FA68D7
:1056F800FB69134479691846FFF73EFF0346FB76BA
:10570800FB7E002B01D0FB7E21E0FB690433FB61AB
:10571800FB6904337A689A42E4D213E0FA68FB69B9
:10572800D018BA68FB6913441B781946FFF794FE32
:105738000346FB76FB7E002B01D0FB7E07E0FB696E
:105748000133FB61FA697B689A42E7D30023184664
:105758002037BD4680BD80B487B000AFF860B9601F
:105768007A60FB683B6100237B610FE03A697B69E3
:1057780013441A78B9687B690B441B789A4202D0A3
:105788004FF0FF3307E07B6901337B617A697B68FF
:105798009A42EBD3002318461C37BD465DF8047BBC
:1057A800704780B485B000AF786039607B68BB60B3
:1057B8000023FB600AE0BA68FB6813441B78FF2BE0
:1057C80001D0002307E0FB680133FB60FA683B68FF
:1057D8009A42F0D3012318461437BD465DF8047B7E
:1057E800704780B586B000AFF860B9607A60FB6832
:1057F8003B61F868FFF7A8FC0346002B09D0FA685C
:105808007B681344013B1846FFF79EFC0346002BB8
:1058180001D1042312E000237B610AE03A697B6925
:105828001A44B9687B690B4412781A707B69013392
:105838007B617A697B689A42F0D30023184618374F
:10584800BD4680BD80B400AF72B600BFBD465DF8EE
:10585800047B704780B400AF62B600BFBD465DF8F8
:10586800047B704780B584B000AF78603960FFF77B
:10587800E9FF39687868FFF77FFE0346FB73FFF797
:10588800E9FFFB7B18461037BD4680BD80B483B066
:1058980000AF786000BF18460C37BD465DF8047B42
:1058A8007047000080B483B000AF03460A46FB711E
:1058B8001346BB71FB79094AD35C5BB21B015AB230
:1058C800BB790649CB5C5BB213435BB2DBB21846CB
:1058D8000C37BD465DF8047B704700BF545B000879
:1058E80080B483B000AF0346FB71084B01221A70E5
:1058F800074B1B685A1C06490A600649FA79CA54BC
:1059080000BF0C37BD465DF8047B704728000020B7
:10591800300000202C00002080B500AF1B4B1B6816
:1059280042F21072934202D9194B1A4A1A60174B65
:105938001B68C82B15D9184B1B78012B11D1174B95
:105948001B68042216491846FFF705FF0346DAB21A
:10595800144B1A70134B1B78002B02D10C4B0D4AB9
:105968001A60114B1B68032B0ED90C4B1B680422C1
:105978000E491846FFF78CFE084B1B680433074A8C
:105988001360094B00221A6000BF80BD4800002048
:105998000CED00E00400FA052800002000000020BB
:1059A8000400002008000020300000202C00002007
:1059B80080B586B000AF00237B6000237B610023A5
:1059C8003B611B4A1B4BD31A9B107B601A4B7B61B4
:1059D800184B3B610023FB600AE07A69131D7B6169
:1059E8003B69191D396112681A60FB680133FB6055
:1059F800FA687B689A42F0D3104A114BD31A9B106D
:105A08007B600F4B3B610023BB6007E03B691A1DBD
:105A18003A6100221A60BB680133BB60BA687B68D0
:105A28009A42F3D300F076F800F01EF800BFFDE7C5
:105A38001800002000000020305C00084C00002006
:105A48001800002080B400AF00BFFDE780B400AFAD
:105A5800044B1B680133034A136000BFBD465DF861
:105A6800047B70474800002080B500AF00F02EF896
:105A780000F01EF8FEF7AAFE2620FEF795FD09495C
:105A88004FF4FA60FEF706FF082207490120FFF7E6
:105A98003CFA0220FFF72EFC0448FFF789FAFFF7CB
:105AA8003BFFFCE7555A0008485B0008E958000826
:105AB80080B500AF034A04490120FFF78DF900BF04
:105AC80080BD00BF0024F4000C00002080B582B027
:105AD80002AF002301930323009300230222022133
:105AE8000020FEF781FF072202210020FFF77CF843
:105AF80000230193032300930023022203210020A3
:105B0800FEF772FF072203210020FFF76DF800BFA0
:105B1800BD4680BD80B500AF0648FEF737FC0021C2
:105B28000020FEF77BFC11210320FEF777FC00BF65
:085B380080BD00BF3C0000200D
:105B40002D000000300000000A2042544C44200A7E
:105B50000000000000000000000000000000000045
:105B60000000000000000000000000000000000035
:105B70000000000000000000000000000000000025
:105B800000000000000102030405060708090000E8
:105B900000000000000A0B0C0D0E0F0000000000BA
:105BA00000000000000000000000000000000000F5
:105BB00000000000000A0B0C0D0E0F00000000009A
:105BC00000000220000000000000000000000000B3
:105BD00000000000000000000000000000000000C5
:105BE00000000000000000000000000000000000B5
:105BF0000000000000010203040506070809000078
:105C000000000000000A0B0C0D0E0F000000000049
:105C10000000000000000000000000000000000084
:105C200000000000000A0B0C0D0E0F000000000029
:105C300000800008FFFFFFFF0500000000100E00BD
:085C40000C0000002000000030
:040000050800417836
:00000001FF
