:020000040800F2
:108000000000022041A40008D5A40008D5A400085F
:10801000D5A40008D5A40008D5A4000800000000DD
:10802000000000000000000000000000D5A40008CF
:10803000D5A4000800000000D5A400086589000848
:10804000D5A40008D5A40008D5A40008D5A400082C
:10805000D5A40008D5A40008D5A40008D5A400081C
:10806000D5A40008D5A40008D5A40008D5A400080C
:10807000D5A40008D5A40008D5A40008D5A40008FC
:10808000D5A40008D5A40008D5A40008D5A40008EC
:10809000D5A40008D5A40008D5A40008D5A40008DC
:1080A000D5A40008D5A40008D5A40008D5A40008CC
:1080B000D5A40008D5A40008D5A400084F9900084D
:1080C0005D9900086B99000879990008D5A400080B
:1080D000D5A400084191000839900008BD9000081F
:1080E000D5A40008D5A40008D5A40008D5A400088C
:1080F000D5A40008D5A40008D5A40008D5A400087C
:10810000D5A40008D5A40008D5A40008D5A400086B
:10811000D5A40008D5A400087D930008B9930008F1
:10812000D5A40008D5A40008D5A40008D5A400084B
:10813000D5A40008D5A40008D5A40008D5A400083B
:10814000D5A40008D5A40008D5A40008D5A400082B
:10815000D5A40008D5A40008339900084199000867
:10816000D5A40008D5A40008D5A40008D5A400080B
:08817000D5A40008D5A4000805
:1081780080B400AF094B1B68084A43F00103136041
:1081880000BF064B1B685B0803F00103002BF8D007
:1081980000BF00BFBD465DF8047B70470038024051
:1081A80080B400AF094B1B68084A43F4803313605E
:1081B80000BF064B1B685B0C03F00103002BF8D0D3
:1081C80000BF00BFBD465DF8047B70470038024021
:1081D80080B400AF094B1B68084A43F080731360F2
:1081E80000BF064B1B685B0E03F00103002BF8D0A1
:1081F80000BF00BFBD465DF8047B704700380240F1
:1082080080B400AF094B1B68084A23F080731360E1
:1082180000BF064B1B685B0E03F00103002BF8D16F
:1082280000BF00BFBD465DF8047B704700380240C0
:1082380080B483B000AF0346FB710F4B1B680E4A36
:1082480023F0030313600C4B1A68FB7903F0030354
:10825800094913430B6000BF074B1B689B0803F0D9
:108268000302FB799A42F7D100BF00BF0C37BD4625
:108278005DF8047B704700BF0838024080B584B0C1
:1082880000AF7860FFF7BCFF0023FB607B685B787A
:1082980003F03F03FA681343FB607B685B889B012C
:1082A8001A4647F6C0731340FA681343FB607B68AD
:1082B8001B795B08DBB2013B1B0403F44033FA680B
:1082C8001343FB607B681B789B051A46FB681343C6
:1082D800FB607B685B791B0603F07063FA681343E5
:1082E800FB60034AFB68136000BF1037BD4680BDC2
:1082F8000438024080B483B000AF0346FB710A4BD8
:108308001B68094A23F0F0031360074B1B68FA79CE
:1083180012011146044A0B43136000BF0C37BD46D7
:108328005DF8047B704700BF0838024080B483B012
:1083380000AF0346FB710A4B1B68094A23F4E0535C
:108348001360074B1B68FA7992021146044A0B43E3
:10835800136000BF0C37BD465DF8047B704700BF53
:108368000838024080B483B000AF0346FB710A4B63
:108378001B68094A23F460431360074B1B68FA79AA
:1083880052031146044A0B43136000BF0C37BD4625
:108398005DF8047B704700BF0838024080B582B0A2
:1083A80000AF78607B68002B39D07B681B78022B84
:1083B80012D0022B35DC002B02D0012B06D030E086
:1083C800FFF7D6FE0020FFF733FF2BE0FFF7E8FEAC
:1083D8000120FFF72DFF25E07B689B78012B02D158
:1083E800FFF7DEFE01E0FFF7C3FE7B6802331846A5
:1083F800FFF744FFFFF7ECFE7B681B7A1846FFF790
:1084080079FF7B685B7A1846FFF790FF7B689B7A59
:108418001846FFF7A7FF0220FFF70AFF02E000BF98
:1084280000E000BF0837BD4680BD000080B483B0BF
:1084380000AF03460A46FB711346BB71FB79042B58
:1084480043D801A252F823F0658400087B84000811
:1084580091840008A7840008BD8400081E4B1B688F
:10846800BA79012101FA02F211461B4A0B43136043
:108478002CE01A4B1B68BA79012101FA02F2114665
:10848800164A0B43136021E0154B1B68BA7901218A
:1084980001FA02F21146124A0B43136016E0114B1F
:1084A8001B68BA79012101FA02F211460D4A0B4301
:1084B80013600BE00C4B1B68BA79012101FA02F238
:1084C8001146094A0B43136000E000BF00BF0C3798
:1084D800BD465DF8047B70473038024034380240AE
:1084E80038380240403802404438024080B483B0F3
:1084F80000AF03460A46FB711346BB71FB79042B98
:1085080048D801A252F823F0258500083D850008C7
:10851800558500086D85000885850008214B1B6876
:10852800BA79012101FA02F2D24311461D4A0B40E1
:10853800136030E01C4B1B68BA79012101FA02F282
:10854800D2431146184A0B40136024E0174B1B68AE
:10855800BA79012101FA02F2D2431146134A0B40BB
:10856800136018E0124B1B68BA79012101FA02F274
:10857800D24311460E4A0B4013600CE00D4B1B68AA
:10858800BA79012101FA02F2D2431146094A0B4095
:10859800136000E000BF00BF0C37BD465DF8047BE8
:1085A800704700BF30380240343802403838024043
:1085B800403802404438024080B485B000AF0346DA
:1085C800FB710023FB73FB791F2B05D8FB79012274
:1085D8009A400C4B1A600DE0FB793B2B08D8FB79CD
:1085E800203BFB71FB7901229A40074B1A6001E09E
:1085F8000123FB73FB7B18461437BD465DF8047BEB
:10860800704700BF00E100E004E100E080B485B0FD
:1086180000AF0346FB710023FB73FB791F2B05D8C2
:10862800FB7901229A400C4B1A600DE0FB793B2B39
:1086380008D8FB79203BFB71FB7901229A40074B54
:108648001A6001E00123FB73FB7B18461437BD4613
:108658005DF8047B704700BF80E100E084E100E042
:1086680080B485B000AF0346FB710023FB73FB7930
:108678001F2B05D8FB7901229A400C4B1A600DE09C
:10868800FB793B2B08D8FB79203BFB71FB79012256
:108698009A40074B1A6001E00123FB73FB7B1846E5
:1086A8001437BD465DF8047B704700BF00E200E068
:1086B80004E200E080B485B000AF0346FB710023FC
:1086C800FB73FB791F2B05D8FB7901229A400C4BD1
:1086D8001A600DE0FB793B2B08D8FB79203BFB7136
:1086E800FB7901229A40074B1A6001E00123FB73D2
:1086F800FB7B18461437BD465DF8047B704700BF06
:1087080080E200E084E200E080B485B000AF034678
:108718003960FB710023FB73FB791F2B0BD8134BBC
:108728001A68FB7922FA03F3DBB203F00103DAB229
:108738003B681A7013E0FB793B2B0ED8FB79203B82
:10874800FB710B4B1A68FB7922FA03F3DBB203F0D7
:108758000103DAB23B681A7001E00123FB73FB7B6B
:1087680018461437BD465DF8047B704700E300E007
:1087780004E300E080B485B000AF0346FB710B460C
:10878800BB7113467B71134B134A1A600223FB73A8
:1087980097F90730002B16DB97F90730002B12DB0F
:1087A800BA79FB7B02FA03F35AB297F905301343FF
:1087B8005BB2DAB297F9073003F1604303F564431B
:1087C8001201D2B21A7000BF1437BD465DF8047B9F
:1087D800704700BF0CED00E00005FA0580B400AF5B
:1087E800044A13686FF38203136000BFBD465DF847
:1087F800047B704710E000E080B584B000AF78607B
:108808007B684FF4FA6202FB03F3FB600C4B002217
:108818001A600C4AFB6813600B4A136843F00103A3
:10882800136000BF084B1B68C3F30043DBB2002B87
:10883800F8D000F069F800BF1037BD4680BD00BF12
:1088480018E000E014E000E010E000E080B485B03B
:1088580000AF786039600123FB733B68002B02D1BD
:108868000223FB7311E00023FB730B4A3B68136080
:108878000A4A7B6813600A4A136843F002031360CC
:10888800074A136843F001031360FB7B184614374B
:10889800BD465DF8047B70471000002014E000E03E
:1088A80010E000E080B485B000AF78603960012343
:1088B800FB733B68002B02D10223FB7315E00023F6
:1088C800FB730D4A3B6813600C4A7B68013B1360DD
:1088D8000B4B00221A600B4A136843F00203136023
:1088E800084A136843F001031360FB7B18461437EA
:1088F800BD465DF8047B70471000002014E000E0DE
:1089080018E000E010E000E080B400AF044A13680B
:108918006FF30003136000BFBD465DF8047B70472A
:1089280010E000E080B400AF044B1A68044B1B68E9
:10893800D31A1846BD465DF8047B704714E000E082
:1089480018E000E080B400AF034B1B681846BD4632
:108958005DF8047B704700BF18E000E080B500AF09
:10896800024B1B68984700BF80BD00BF1000002065
:1089780080B483B000AF0346FB71FB79072B23D883
:1089880001A252F823F000BFB1890008B589000898
:10899800B9890008BD890008C1890008C58900088F
:1089A800C9890008CD8900080B4B0EE00B4B0CE081
:1089B8000B4B0AE00B4B08E00B4B06E00B4B04E0BB
:1089C8000B4B02E00B4B00E0002318460C37BD466A
:1089D8005DF8047B704700BF0000024000040240BD
:1089E80000080240000C024000100240001402403F
:1089F80000180240001C024090B585B000AF044644
:108A0800084611461A462346FB710346BB710B46BE
:108A18007B7113463B71FB791846FFF7A9FFF86095
:108A2800FB68002B01D1012365E0BB790F2B01D92D
:108A3800022360E0FB681B68BA795200032101FA3F
:108A480002F2D2431A40FB681A60FB681B687A7905
:108A580002F00301BA79520001FA02F21A43FB68E4
:108A68001A607B79012B02D07B79022B12D1FB682B
:108A78005B68BA79012101FA02F2D2431A40FB6815
:108A88005A60FB685B683979BA7901FA02F21A43CD
:108A9800FB685A60FB689B68BA795200032101FAA7
:108AA80002F2D2431A40FB689A60FB689B6897F809
:108AB800202002F00301BA79520001FA02F21A43A7
:108AC800FB689A60FB68DB68BA795200032101FAF7
:108AD80002F2D2431A40FB68DA60FB68DB6897F859
:108AE800242002F00301BA79520001FA02F21A4373
:108AF800FB68DA60002318461437BD4690BD80B580
:108B080084B000AF0346FB710B46BB7113467B7103
:108B1800FB791846FFF72CFFF860FB68002B01D1A2
:108B2800012318E0BB790F2B01D9022313E07B79CD
:108B3800012B07D1BB79012202FA03F31A46FB681D
:108B48009A6107E0BB791033012202FA03F31A464F
:108B5800FB689A61002318461037BD4680BD80B572
:108B680084B000AF03460A46FB711346BB71FB791C
:108B78001846FFF7FDFEF860FB68002B01D10123C2
:108B88000EE0BB790F2B01D9022309E0FB685B6972
:108B9800BA79012101FA02F25A40FB685A610023AE
:108BA80018461037BD4680BD80B584B000AF034677
:108BB8003A60FB710B46BB71FB791846FFF7D8FE8C
:108BC800F860FB68002B01D1012310E0BB790F2B63
:108BD80001D902230BE0FB681A69BB7922FA03F377
:108BE800DBB203F00103DAB23B681A7000231846BF
:108BF8001037BD4680BD000080B487B000AF034683
:108C0800FB710B46BB7113467B71FB79072B68D848
:108C180001A252F823F000BF418C0008478C0008DD
:108C28004D8C0008538C0008598C00085F8C000894
:108C3800658C00086B8C00082D4B7B6114E02D4B74
:108C48007B6111E02C4B7B610EE02C4B7B610BE0D0
:108C58002B4B7B6108E02B4B7B6105E02A4B7B614A
:108C680002E02A4B7B6100BF7B6920333B617B6953
:108C78002433FB60BB79072B18D8BB799B00BB72E8
:108C88003B691B68BA7A0F2101FA02F2D2431A40F3
:108C98003B691A603B691B687A7902F00F01BA7A5E
:108CA80001FA02F21A433B691A601BE0BB79083BE0
:108CB800DBB29B00FB72FB681B68FA7A0F2101FA92
:108CC80002F2D2431A40FB681A60FB681B687A7983
:108CD80002F00F01FA7A01FA02F21A43FB681A60ED
:108CE80000E000BF1C37BD465DF8047B704700BF3D
:108CF800000002400004024000080240000C02404C
:108D0800001002400014024000180240001C0240FB
:108D180080B485B000AF0346FB710023FB60FB798C
:108D2800022B0CD0022B0DDC002B02D0012B03D020
:108D380008E0084BFB6006E0074BFB6003E0074BCD
:108D4800FB6000E000BFFB6818461437BD465DF8BD
:108D5800047B704700100140004400400048004078
:108D680080B586B000AF03463960FB710023FB7500
:108D78001DE03A681B4B83FB02139910D317C91ADD
:108D88000B469B000B445B00D11ACAB2FB7D591CF1
:108D9800F9753032D2B218333B4403F80C2C3B68D7
:108DA800104A82FB03129210DB17D31A3B603B6810
:108DB800002BDEDCFB7DBB750CE0BB7D013B07F1C6
:108DC8000C02D118FB790122184600F0A7F8BB7DE8
:108DD800013BBB75BB7D002BEFD100BF00BF18372F
:108DE800BD4680BD6766666680B586B000AF03463F
:108DF800B9607A60FB73BB68002B00F08B80FB7B4B
:108E08001846FFF785FF78617B690C331B687A6920
:108E18000C3223F400531360BB681B685A087B6844
:108E28001A44BB681B68B2FBF3F33B617B690833E8
:108E38001A463B691360BB68DB79012B08D17B6953
:108E48000C331B687A690C3243F48053136007E0D3
:108E58007B690C331B687A690C3223F480531360E6
:108E6800BB685B79002B08D17B690C331B687A6976
:108E78000C3223F4806313601CE07B690C331B689D
:108E88007A690C3243F480631360BB685B79022B08
:108E980008D17B690C331B687A690C3243F4007380
:108EA800136007E07B690C331B687A690C3223F482
:108EB800007313607B6910331B687A69103223F4DE
:108EC800405313607B6910331B68BA6892791203A8
:108ED80011467A6910320B4313607B690C331B68A7
:108EE800BA68127A11467A690C320B4313607B69AF
:108EF8000C331B68BA68127911467A690C320B4335
:108F080013607B690C331B687A690C3243F4005395
:108F1800136000E000BF1837BD4680BD80B584B03F
:108F280000AF03463960FB711346BB71FB791846E5
:108F3800FFF7EEFEB8600023FB7311E000BFBB68CB
:108F48001B68DB0903F00103002BF8D0FB7B3A68B0
:108F580013441A78BB6804331A60FB7B0133FB7334
:108F6800FA7BBB799A42E9D300BF00BF1037BD46F0
:108F780080BD000080B582B000AF03463960FB7148
:108F88003B68002B08DAFB7901220C491846FFF7E9
:108F9800C5FF3B685B423B603B68002B06D1FB7911
:108FA800012207491846FFF7B9FF04E0FB79396841
:108FB8001846FFF7D5FE0837BD4680BD60A70008F4
:108FC80064A7000880B483B000AF78607B68002B8A
:108FD80002D0044A7B68136000BF0C37BD465DF8B9
:108FE800047B70471800002080B483B000AF78601D
:108FF8007B68002B02D0044A7B68136000BF0C37E3
:10900800BD465DF8047B70471C00002080B483B027
:1090180000AF78607B68002B02D0044A7B6813603D
:1090280000BF0C37BD465DF8047B70472000002068
:1090380080B586B000AF0120FFF76AFE78617B69D2
:109048001B683B613B6903F02003002B0BD07B6955
:1090580004331B68DAB2154B1A70154B1B68134A98
:109068001278104698473B6903F00803002B07D095
:109078007B691B68FB607B6904331B68FB60FB68CA
:109088003B6903F00403002B03D07B691B68BB60BA
:10909800BB683B6903F00203002B03D07B691B68A4
:1090A8007B607B6800BF1837BD4680BD1400002078
:1090B8001C00002080B586B000AF0220FFF728FE14
:1090C80078617B691B683B613B6903F02003002BD7
:1090D8000BD07B6904331B68DAB2154B1A70154B39
:1090E8001B68134A1278104698473B6903F0080337
:1090F800002B07D07B691B68FB607B6904331B6806
:10910800FB60FB683B6903F00403002B03D07B6919
:109118001B68BB60BB683B6903F00203002B03D0EC
:109128007B691B687B607B6800BF1837BD4680BDC4
:10913800140000202000002080B586B000AF002079
:10914800FFF7E6FD78617B691B683B613B6903F0CB
:109158002003002B0BD07B6904331B68DAB2154B54
:109168001A70154B1B68134A1278104698473B69CA
:1091780003F00803002B07D07B691B68FB607B6941
:1091880004331B68FB60FB683B6903F00403002B96
:1091980003D07B691B68BB60BB683B6903F00203B3
:1091A800002B03D07B691B687B607B6800BF183786
:1091B800BD4680BD140000201800002080B483B094
:1091C80000AF0346FB71FB79062B01D1064B04E087
:1091D800FB79072B01D1054BFFE718460C37BD4635
:1091E8005DF8047B704700BF001000400014004089
:1091F80080B584B000AF0346FB71FB791846FFF7D2
:10920800DDFFF860FB79062B02D0072B1FD03DE06D
:1092180004210320FFF70AF9FB68283307221A8084
:10922800FB682C3340F2CF721A80FB680C331B8822
:109238009BB2FA680C3243F001039BB213803620CC
:10924800FFF7BAF903461A46124B1A701EE00521B9
:109258000320FFF7EBF8FB68283307221A80FB6826
:109268002C3340F2CF721A80FB680C331B889BB2F8
:10927800FA680C3243F001039BB213803720FFF7E2
:109288009BF903461A46034B1A7000BF00BF1037FC
:10929800BD4680BD0000002080B584B000AF034605
:1092A800FB71FB791846FFF789FFF860FB79062BFD
:1092B80002D0072B09D011E0FB681B889AB2FB6823
:1092C80042F0010292B21A8008E0FB681B889AB249
:1092D800FB6842F0010292B21A8000BF00BF10374B
:1092E800BD4680BD80B584B000AF0346FB71FB79F5
:1092F8001846FFF763FFF860FB79062B02D0072BAF
:1093080009D011E0FB681B889AB2FB6822F00102C1
:1093180092B21A8008E0FB681B889AB2FB6822F0B8
:10932800010292B21A8000BF00BF1037BD4680BD4F
:1093380080B584B000AF03463960FB71FB791846ED
:10934800FFF73CFFF860FB79062B02D0072B04D00F
:1093580007E0064A3B68136003E0054A3B68136070
:1093680000BF00BF1037BD4680BD00BF24000020ED
:109378002800002080B500AF0B4B1B889BB203F080
:109388000103002B0ED0084B1B889BB2064A23F022
:1093980001039BB21380054B1B68002B02D0034BC3
:1093A8001B68984700BF80BD1010004024000020B3
:1093B80080B500AF0B4B1B889BB203F00103002B59
:1093C8000ED0084B1B889BB2064A23F001039BB2C0
:1093D8001380054B1B68002B02D0034B1B68984772
:1093E80000BF80BD101400402800002080B483B066
:1093F80000AF0346FB71FB79022B0AD0022B0ADC73
:10940800002B02D0012B02D005E0064B03E0064BEF
:1094180001E0064BFFE718460C37BD465DF8047BB4
:10942800704700BF0054004000580040005C0040F6
:1094380080B586B000AF03463960FB71FB791846EA
:10944800FFF7D4FF38613B691A683B6922F00102D3
:109458001A60534BFB60FB68524AA2FB03239B0C28
:10946800BB603B6904331B6823F03F02BB6803F011
:109478003F033969043113430B600023FB823B68C7
:109488001B68494A93421FD83B691C331B683A69D9
:109498001C3223F4004313603B681B685B00FA68C6
:1094A800B2FBF3F3FB82FB8A032B01D80423FB8274
:1094B8003B691C331A46FB8A13603B6920331A4602
:1094C800BB68013313603FE03B681B68374A93422F
:1094D8003AD83B691C331B683A691C3243F4004391
:1094E80013603B691C331B683A691C3223F48043C0
:1094F80013603B681A6813465B001344FA68B2FBB2
:10950800F3F3FB82FB8A002B01D10123FB823B6929
:109518001C331B6823F47F6323F00F03FA8AC2F31A
:109528000B0239691C3113430B60BB684FF4967208
:1095380002FB03F31E4AA2FB03239B099BB20133E0
:109548009AB23B6920331A603B681B795B00194665
:109558003B6908331A46CBB213603B6908331B6872
:109568003A69083243F4804313603B685B79002B07
:1095780006D03B691A683B6942F480621A6005E0CC
:109588003B691A683B6922F480621A603B691A6871
:109598003B6942F001021A6000BF1837BD4680BD22
:1095A8000051250283DE1B43A0860100801A0600B5
:1095B800D34D621080B584B000AF0346FB71FB79D0
:1095C8001846FFF713FFF860FB681A68FB6822F07B
:1095D80001021A6000BF1037BD4680BD80B584B057
:1095E80000AF0346FB71FB791846FFF7FFFEB86032
:1095F8000E4BFB60BB681A68BB6842F480721A6045
:1096080007E0FB68013BFB60FB68002B01D10323EB
:1096180007E0BB6814331B6803F00103002BF0D08C
:10962800002318461037BD4680BD00BFA086010044
:1096380080B584B000AF0346FB710B46BB7113467F
:109648007B71FB791846FFF7D1FEB860124BFB60BF
:10965800BB795A007B7903F001031A43BB681033C6
:109668001A6007E0FB68013BFB60FB68002B01D137
:1096780003230DE0BB6814331B6803F00203002BBF
:10968800F0D0BB6814331B68BB6818331B68002311
:1096980018461037BD4680BDA086010080B584B04D
:1096A80000AF03460A46FB711346BB71FB791846A7
:1096B800FFF79CFEB8600E4BFB60BB6810331A4680
:1096C800BB79136007E0FB68013BFB60FB68002B7C
:1096D80001D1032307E0BB6814331B6803F0800340
:1096E800002BF0D0002318461037BD4680BD00BFC0
:1096F800A086010080B584B000AF03463960FB71D5
:109708001346BB71FB791846FFF770FEB860164B1D
:10971800FB60BB79002B06D0BB681A68BB6842F4B3
:1097280080621A600EE0BB681A68BB6822F4806227
:109738001A6007E0FB68013BFB60FB68002B01D166
:1097480003230DE0BB6814331B6803F04003002BB0
:10975800F0D0BB6810331B68DAB23B681A7000237C
:1097680018461037BD4680BDA086010080B584B07C
:1097780000AF0346FB71FB791846FFF737FEF86028
:10978800FB681A68FB6842F400721A6000231846E6
:109798001037BD4680BD000080B586B000AF3A6086
:1097A8001A460346FB710B46BB711346BB80FB7917
:1097B8001846FFF71BFEF860FB791846FFF70EFF07
:1097C8000346FB72FB7A002B01D0FB7A41E0B979A2
:1097D800FB7900221846FFF72BFF0346FB72FB7A42
:1097E800002B01D0FB7A34E00023FB8212E0FB8AD5
:1097F8003A6813441A78FB7911461846FFF74EFF6A
:109808000346FB72FB7A002B01D0FB7A21E0FB8A2E
:109818000133FB82FA8ABB889A42E8D30F4B3B613B
:1098280007E03B69013B3B613B69002B01D1032306
:109838000FE0FB6814331B6803F00403002BF0D01F
:1098480097F82030002B03D1FB791846FFF78EFFDD
:10985800002318461837BD4680BD00BFA08601000A
:1098680080B483B000AF78607B6814331B68DBB2C8
:1098780018460C37BD465DF8047B704780B586B046
:1098880000AF3A601A460346FB710B46BB7113469C
:10989800BB80FB791846FFF7A9FD3861FB791846AC
:1098A800FFF79CFE0346FB73FB7B002B01D0FB7B81
:1098B80037E0B979FB7901221846FFF7B9FE03466C
:1098C800FB73FB7B002B01D0FB7B2AE00023FB8290
:1098D8001AE0FA8ABB88013B9A42B4BF01230023ED
:1098E800DBB2BB73FB8A3A68D118BA7BFB7918469E
:1098F800FFF700FF0346FB73FB7B002B01D0FB7BCC
:109908000FE0FB8A0133FB82FA8ABB889A42E0D3D4
:1099180097F82030002B03D1FB791846FFF726FF74
:10992800002318461837BD4680BD80B400AF00BF7D
:10993800BD465DF8047B704780B400AF00BFBD46EC
:109948005DF8047B704780B400AF00BFBD465DF88A
:10995800047B704780B400AF00BFBD465DF8047B50
:10996800704780B400AF00BFBD465DF8047B704708
:1099780080B400AF00BFBD465DF8047B70470000AF
:1099880080B400AF074B1B68002B05DA064B074A6B
:109998001A60054B064A1A6000BFBD465DF8047B95
:1099A800704700BF103C0240043C02402301674559
:1099B800AB89EFCD80B400AF054B1B68044A43F078
:1099C8000043136000BFBD465DF8047B704700BFCD
:1099D800103C024080B400AF044B1B68DB0FDBB2C5
:1099E8001846BD465DF8047B704700BF103C024036
:1099F80080B400AF054B1B68044A43F0F3031360BF
:109A080000BFBD465DF8047B704700BF0C3C0240B8
:109A180080B483B000AF114B7B6002E07B68013BF0
:109A28007B600F4B1B6803F48033002B02D07B68EC
:109A3800002BF3D17B68002B01D1022308E0084BEF
:109A48001B6803F0F203002B01D0012300E0002380
:109A580018460C37BD465DF8047B7047404B4C00F8
:109A68000C3C024080B483B000AF78607B68B3F1EF
:109A7800006F05D37B68064A934201D8012300E0B2
:109A88000023DBB218460C37BD465DF8047B7047EF
:109A9800FFFF070880B483B000AF78607B68184A7E
:109AA800934201D2002324E07B68164A934201D2F4
:109AB80001231EE07B68144A934201D2022318E076
:109AC8007B68124A934201D8032312E07B68104A4C
:109AD800934201D804230CE07B680E4A934201D8D4
:109AE800052306E07B680C4A934201D8062300E070
:109AF800072318460C37BD465DF8047B704700BF46
:109B0800004000080080000800C00008FFFF0008AF
:109B1800FFFF0108FFFF0308FFFF050880B483B0BB
:109B280000AF78607B68072B23D801A252F823F096
:109B3800599B00085F9B0008639B0008679B00080F
:109B48006B9B00086F9B0008739B0008779B0008BD
:109B58004FF000630EE00A4B0CE00A4B0AE00A4B98
:109B680008E00A4B06E00A4B04E00A4B02E00A4B05
:109B780000E0002318460C37BD465DF8047B7047AB
:109B8800004000080080000800C00008000001082C
:109B980000000208000004080000060880B483B032
:109BA80000AF78607B68072B2AD801A252F823F00F
:109BB800D99B0008DF9B0008E59B0008EB9B000889
:109BC800F19B0008F79B0008FD9B0008039C000818
:109BD8004FF4804315E04FF4804312E04FF4804384
:109BE8000FE04FF480430CE04FF4803309E04FF46A
:109BF800003306E04FF4003303E04FF4003300E095
:109C0800002318460C37BD465DF8047B704700BF3B
:109C180080B584B000AF78607B68072B01D9042336
:109C280034E0FFF7ADFEFFF7E3FEFFF7F1FE034672
:109C3800FB73FB7B002B03D0FFF7BCFEFB7B25E00F
:109C4800144B1B68134A23F078031360114B1A68EE
:109C58007B68DB000F4913430B600E4B1B680D4AF2
:109C680043F0020313600B4B1B680A4A43F480332A
:109C78001360FFF7CDFE0346FB73064B1B68054ACE
:109C880023F002031360FFF795FEFB7B184610379D
:109C9800BD4680BD103C024090B587B000AF7860EB
:109CA80039607A683B681344013B3B617B687B61A0
:109CB8007868FFF7D7FE0346002B05D03869FFF711
:109CC800D1FE0346002B19D104231CE07869FFF765
:109CD800E1FEF860F868FFF79BFF0346FB72FB7A2A
:109CE800002B01D0FB7A0EE0F868FFF717FF044657
:109CF800F868FFF753FF034623447B617A693B69A1
:109D08009A42E3D9002318461C37BD4690BD00008F
:109D180080B582B000AFFFF733FEFFF769FEFFF7AB
:109D280077FE0346FB71FB79002B03D0FFF742FE59
:109D3800FB7918E00E4B1B680D4A43F004031360CF
:109D48000B4B1B680A4A43F480331360FFF760FE2D
:109D58000346FB71064B1B68054A23F00403136096
:109D6800FFF728FEFB7918460837BD4680BD00BFBF
:109D7800103C024080B584B000AF78600B46FB70A1
:109D88007868FFF76FFE0346002B01D104232EE00D
:109D9800FFF7F6FDFFF72CFEFFF73AFE0346FB73CD
:109DA800FB7B002B03D0FFF705FEFB7B1FE0124B6C
:109DB8001B68114A23F4407313600F4B0E4A1B684B
:109DC80013600D4B1B680C4A43F0010313607B685A
:109DD800FA781A70FFF71CFE0346FB73064B1B68E4
:109DE800054A23F001031360FFF7E4FDFB7B1846E7
:109DF8001037BD4680BD00BF103C024080B584B01E
:109E080000AF78600B467B807868FFF72BFE03462F
:109E1800002B01D1042337E07B6803F00103002BFA
:109E280001D0032330E0FFF7ABFDFFF7E1FDFFF7BB
:109E3800EFFD0346FB73FB7B002B03D0FFF7BAFD56
:109E4800FB7B21E0124B1B68114A23F4407313601B
:109E58000F4B1B680E4A43F4807313600C4B1B684E
:109E68000B4A43F0010313607B687A881A80FFF776
:109E7800CFFD0346FB73064B1B68054A23F001031D
:109E88001360FFF797FDFB7B18461037BD4680BD72
:109E9800103C024080B584B000AF786039607868C3
:109EA800FFF7E0FD0346002B01D1042337E07B6870
:109EB80003F00303002B01D0032330E0FFF760FD1C
:109EC800FFF796FDFFF7A4FD0346FB73FB7B002B12
:109ED80003D0FFF76FFDFB7B21E0134B1B68124A91
:109EE80023F440731360104B1B680F4A43F400734C
:109EF80013600D4B1B680C4A43F0010313607B6829
:109F08003A681A60FFF784FD0346FB73064B1B682B
:109F1800054A23F001031360FFF74CFDFB7B18464D
:109F28001037BD4680BD00BF103C024080B586B0EA
:109F380000AFF860B9607A6000237B61F868FFF7CA
:109F480091FD0346002B09D0FA687B681344013B56
:109F58001846FFF787FD0346002B01D1042321E0B3
:109F68007968F86800F0ABF80346002B15D1062392
:109F780018E0FA687B69D018BA687B6913441B78C3
:109F88001946FFF7F7FE0346FB74FB7C002B01D054
:109F9800FB7C07E07B6901337B617A697B689A42C5
:109FA800E7D3002318461837BD4680BD80B588B072
:109FB80000AFF860B9607A600023FB61F868FFF7CA
:109FC80051FD0346002B09D0FA687B681344013B16
:109FD8001846FFF747FD0346002B01D1042344E050
:109FE800FB6803F00303002B01D003233DE07968ED
:109FF800F86800F064F80346002B17D1062334E014
:10A00800BA68FB6913441B687B61FA68FB691344EF
:10A0180079691846FFF73EFF0346FB76FB7E002B67
:10A0280001D0FB7E21E0FB690433FB61FB6904334B
:10A038007A689A42E4D213E0FA68FB69D018BA68E1
:10A04800FB6913441B781946FFF794FE0346FB7619
:10A05800FB7E002B01D0FB7E07E0FB690133FB612F
:10A06800FA697B689A42E7D3002318462037BD4631
:10A0780080BD80B487B000AFF860B9607A60FB68D3
:10A088003B6100237B610FE03A697B6913441A78CE
:10A09800B9687B690B441B789A4202D04FF0FF33B2
:10A0A80007E07B6901337B617A697B689A42EBD36D
:10A0B800002318461C37BD465DF8047B704780B402
:10A0C80085B000AF786039607B68BB600023FB60B7
:10A0D8000AE0BA68FB6813441B78FF2B01D0002301
:10A0E80007E0FB680133FB60FA683B689A42F0D3EB
:10A0F800012318461437BD465DF8047B704780B5C8
:10A1080086B000AFF860B9607A60FB683B61F868B8
:10A11800FFF7A8FC0346002B09D0FA687B681344B4
:10A12800013B1846FFF79EFC0346002B01D1042390
:10A1380012E000237B610AE03A697B691A44B96836
:10A148007B690B4412781A707B6901337B617A69E9
:10A158007B689A42F0D3002318461837BD4680BD65
:10A1680080B400AF72B600BFBD465DF8047B70478F
:10A1780080B400AF62B600BFBD465DF8047B70478F
:10A1880080B584B000AF78603960FFF7E9FF3968BF
:10A198007868FFF77FFE0346FB73FFF7E9FFFB7B59
:10A1A80018461037BD4680BD80B500AFFEF716FBD8
:10A1B80003494FF4FA60FEF775FB00BF80BD00BF8E
:10A1C80051A2000880B483B000AF03463A60FB7127
:10A1D8000B46BB80FB79032B01D901232CE03B689C
:10A1E800002B01D1022327E0FA79164913465B00B8
:10A1F80013449B000B44BA881A80FA791149134614
:10A208005B0013449B000B44023301221A80FA7945
:10A218000C4913465B0013449B000B4408333A680F
:10A228001A60FA79074913465B0013449B000B44F4
:10A23800043300221A70002318460C37BD465DF817
:10A24800047B70473400002080B582B000AF002343
:10A25800BB710023FB7155E0FA792E4913465B0068
:10A2680013449B000B4404331B78002B47D1FA7925
:10A27800284913465B0013449B000B4402331B8898
:10A28800013B98B2234913465B0013449B000B44DF
:10A29800023302461A80FA791E4913465B001344BA
:10A2A8009B000B4402331B88002B28D1F979FA79DB
:10A2B80018480B465B000B449B000344188815495B
:10A2C80013465B0013449B000B44023302461A807A
:10A2D800FA79104913465B0013449B000B4408337A
:10A2E8001B68002B0BD0FA790A4913465B0013440C
:10A2F8009B000B4408331B6898470123BB71FB790B
:10A308000133FB71FB79032BA6D900BF00BF0837C7
:10A31800BD4680BD3400002080B483B000AF034642
:10A32800FB71FB79032B01D9012334E0FA791D492C
:10A3380013465B0013449B000B4408331B68002B37
:10A3480001D1022327E0FA79164913465B0013442A
:10A358009B000B44083300221A60FA79114913460E
:10A368005B0013449B000B44043303221A70FA79F0
:10A378000C4913465B0013449B000B4400221A80CF
:10A38800FA79084913465B0013449B000B440233D7
:10A3980000221A80002318460C37BD465DF8047B5E
:10A3A800704700BF3400002080B483B000AF03467C
:10A3B800FB71FA79074913465B0013449B000B4471
:10A3C800043301221A7000BF0C37BD465DF8047BC8
:10A3D800704700BF3400002080B483B000AF03464C
:10A3E800FB71FA79074913465B0013449B000B4441
:10A3F800043300221A7000BF0C37BD465DF8047B99
:10A40800704700BF3400002080B483B000AF03461B
:10A41800FB71FA79074913465B0013449B000B4410
:10A42800043302221A7000BF0C37BD465DF8047B66
:10A43800704700BF3400002080B586B000AF00230D
:10A448007B6000237B6100233B611B4A1B4BD31AB3
:10A458009B107B601A4B7B61184B3B610023FB60B0
:10A468000AE07A69131D7B613B69191D396112681D
:10A478001A60FB680133FB60FA687B689A42F0D384
:10A48800104A114BD31A9B107B600F4B3B61002382
:10A49800BB6007E03B691A1D3A6100221A60BB687D
:10A4A8000133BB60BA687B689A42F3D300F036F98F
:10A4B80000F07EF8FEE700BF10000020000000203A
:10A4C800BCA70008740000201000002080B400AF72
:10A4D800FEE780B500AF05210020FEF740FB00BF76
:10A4E80080BD000080B500AF1B4B1B78032B2FD815
:10A4F80001A252F823F000BF11A5000823A5000807
:10A5080035A5000847A50008052214490020FEF7D4
:10A5180005FD114B01221A701BE00E221049002084
:10A52800FEF7FCFC0C4B02221A7012E01F220D49A8
:10A538000020FEF7F3FC084B03221A7009E00B22F7
:10A5480009490020FEF7EAFC034B03221A7000E0D9
:10A5580000BF00BF80BD00BF7000002068A70008D2
:10A5680070A7000880A70008A0A7000880B584B0DD
:10A5780000AF0346FB71FB793B7307F10C03012223
:10A5880019460120FEF7CAFC00BF1037BD4680BD42
:10A5980080B582B000AF0346FB710C22034901204D
:10A5A800FEF7BCFC00BF0837BD4680BDACA700085D
:10A5B80080B500AF00F024F800F03CF82520FDF746
:10A5C800FBFF2620FDF7F8FF0948FEF70DFD0948B7
:10A5D800FEF7F8FC084A4FF4FA710020FFF7F2FD85
:10A5E800064A41F288310120FFF7ECFDFEE700BF83
:10A5F80099A5000875A50008DBA40008EDA40008CB
:10A6080080B500AFFFF7D0FD084A09490020FEF7E2
:10A61800EBFB064A06490120FEF7E6FB034A04491C
:10A628000220FEF7E1FB00BF80BD00BF0024F4005C
:10A638000400002080B582B002AF002301930223FA
:10A6480000930023012205210020FEF7D5F90023FD
:10A658000193032300930023022208210020FEF720
:10A66800CBF900230193032300930023022209213D
:10A678000020FEF7C1F90023019303230093002370
:10A6880002220A210020FEF7B7F9002301930323D1
:10A6980000930023022202210020FEF7ADF90023D7
:10A6A8000193032300930023022203210020FEF7D5
:10A6B800A3F90023019303230093002302220A2114
:10A6C8000120FEF799F90023019303230093002347
:10A6D80002220B210120FEF78FF907220921002011
:10A6E800FEF78AFA07220A210020FEF785FA0722D8
:10A6F80002210020FEF780FA072203210020FEF73E
:10A708007BFA07220A210120FEF776FA07220B219D
:10A718000120FEF771FA00BFBD4680BD80B500AFCD
:10A728000C48FDF73BFE00210020FDF77FFE0121CC
:10A738000020FDF77BFE11210320FDF777FE122193
:10A748000320FDF773FE04210420FDF76FFE00BF10
:08A7580080BD00BF6400002079
:10A760002D0000003000000041540D0A00000000E0
:10A7700041542B43574D4F44453F0D0A0000000004
:10A7800041542B43574A41503D225A7A5A7A222C3F
:10A79000224A383730323134332020220D0A00006B
:10A7A00041542B43494653520D0A0000554152541F
:0CA7B00032204953520D0A000000022024
:10A7BC000100000000C201000C000000200000009D
:0400000508008178F6
:00000001FF
