:020000040800F2
:10800000000002204DCF0008E1CF000825CF000876
:1080100039CF0008E1CF0008E1CF000800000000E0
:10802000000000000000000000000000FDCE00087D
:10803000E1CF000800000000CDCE000865890008EF
:10804000E1CF0008E1CF0008E1CF0008E1CF000850
:10805000E1CF0008E1CF0008E1CF0008E1CF000840
:10806000E1CF0008E1CF0008E1CF0008E1CF000830
:10807000E1CF0008E1CF0008E1CF0008E1CF000820
:10808000E1CF0008E1CF0008E1CF0008E1CF000810
:10809000E1CF0008E1CF0008E1CF0008E1CF000800
:1080A000E1CF0008E1CF0008E1CF0008E1CF0008F0
:1080B00029C4000865C40008A1C40008D5B7000899
:1080C000E3B70008F1B70008FFB70008E1CF0008E8
:1080D000E1CF0008E1930008D99200085D93000801
:1080E000E1CF0008E1CF0008E1CF0008E1CF0008B0
:1080F000E1CF0008E1CF0008E1CF0008E1CF0008A0
:10810000E1CF0008E1CF0008DDC40008E1CF00089E
:10811000E1CF0008E1CF000885AC0008C1AC000841
:10812000E1CF0008E1CF0008E1CF0008E1CF00086F
:10813000E1CF0008E1CF0008E1CF0008E1CF00085F
:10814000E1CF0008E1CF0008E1CF0008E1CF00084F
:10815000E1CF0008E1CF00080DB800081BB8000807
:10816000E1CF0008E1CF0008E1CF0008E1CF00082F
:08817000E1CF0008E1CF000897
:1081780080B400AF094B1B68084A43F00103136041
:1081880000BF064B1B685B0803F00103002BF8D007
:1081980000BF00BFBD465DF8047B70470038024051
:1081A80080B400AF094B1B68084A43F4803313605E
:1081B80000BF064B1B685B0C03F00103002BF8D0D3
:1081C80000BF00BFBD465DF8047B70470038024021
:1081D80080B400AF094B1B68084A43F080731360F2
:1081E80000BF064B1B685B0E03F00103002BF8D0A1
:1081F80000BF00BFBD465DF8047B704700380240F1
:1082080080B400AF094B1B68084A23F080731360E1
:1082180000BF064B1B685B0E03F00103002BF8D16F
:1082280000BF00BFBD465DF8047B704700380240C0
:1082380080B483B000AF0346FB710F4B1B680E4A36
:1082480023F0030313600C4B1A68FB7903F0030354
:10825800094913430B6000BF074B1B689B0803F0D9
:108268000302FB799A42F7D100BF00BF0C37BD4625
:108278005DF8047B704700BF0838024080B584B0C1
:1082880000AF7860FFF7BCFF0023FB607B685B787A
:1082980003F03F03FA681343FB607B685B889B012C
:1082A8001A4647F6C0731340FA681343FB607B68AD
:1082B8001B795B08DBB2013B1B0403F44033FA680B
:1082C8001343FB607B681B789B051A46FB681343C6
:1082D800FB607B685B791B0603F07063FA681343E5
:1082E800FB60034AFB68136000BF1037BD4680BDC2
:1082F8000438024080B483B000AF0346FB710A4BD8
:108308001B68094A23F0F0031360074B1B68FA79CE
:1083180012011146044A0B43136000BF0C37BD46D7
:108328005DF8047B704700BF0838024080B483B012
:1083380000AF0346FB710A4B1B68094A23F4E0535C
:108348001360074B1B68FA7992021146044A0B43E3
:10835800136000BF0C37BD465DF8047B704700BF53
:108368000838024080B483B000AF0346FB710A4B63
:108378001B68094A23F460431360074B1B68FA79AA
:1083880052031146044A0B43136000BF0C37BD4625
:108398005DF8047B704700BF0838024080B582B0A2
:1083A80000AF78607B68002B39D07B681B78022B84
:1083B80012D0022B35DC002B02D0012B06D030E086
:1083C800FFF7D6FE0020FFF733FF2BE0FFF7E8FEAC
:1083D8000120FFF72DFF25E07B689B78012B02D158
:1083E800FFF7DEFE01E0FFF7C3FE7B6802331846A5
:1083F800FFF744FFFFF7ECFE7B681B7A1846FFF790
:1084080079FF7B685B7A1846FFF790FF7B689B7A59
:108418001846FFF7A7FF0220FFF70AFF02E000BF98
:1084280000E000BF0837BD4680BD000080B483B0BF
:1084380000AF03460A46FB711346BB71FB79042B58
:1084480043D801A252F823F0658400087B84000811
:1084580091840008A7840008BD8400081E4B1B688F
:10846800BA79012101FA02F211461B4A0B43136043
:108478002CE01A4B1B68BA79012101FA02F2114665
:10848800164A0B43136021E0154B1B68BA7901218A
:1084980001FA02F21146124A0B43136016E0114B1F
:1084A8001B68BA79012101FA02F211460D4A0B4301
:1084B80013600BE00C4B1B68BA79012101FA02F238
:1084C8001146094A0B43136000E000BF00BF0C3798
:1084D800BD465DF8047B70473038024034380240AE
:1084E80038380240403802404438024080B483B0F3
:1084F80000AF03460A46FB711346BB71FB79042B98
:1085080048D801A252F823F0258500083D850008C7
:10851800558500086D85000885850008214B1B6876
:10852800BA79012101FA02F2D24311461D4A0B40E1
:10853800136030E01C4B1B68BA79012101FA02F282
:10854800D2431146184A0B40136024E0174B1B68AE
:10855800BA79012101FA02F2D2431146134A0B40BB
:10856800136018E0124B1B68BA79012101FA02F274
:10857800D24311460E4A0B4013600CE00D4B1B68AA
:10858800BA79012101FA02F2D2431146094A0B4095
:10859800136000E000BF00BF0C37BD465DF8047BE8
:1085A800704700BF30380240343802403838024043
:1085B800403802404438024080B485B000AF0346DA
:1085C800FB710023FB73FB791F2B05D8FB79012274
:1085D8009A400C4B1A600DE0FB793B2B08D8FB79CD
:1085E800203BFB71FB7901229A40074B1A6001E09E
:1085F8000123FB73FB7B18461437BD465DF8047BEB
:10860800704700BF00E100E004E100E080B485B0FD
:1086180000AF0346FB710023FB73FB791F2B05D8C2
:10862800FB7901229A400C4B1A600DE0FB793B2B39
:1086380008D8FB79203BFB71FB7901229A40074B54
:108648001A6001E00123FB73FB7B18461437BD4613
:108658005DF8047B704700BF80E100E084E100E042
:1086680080B485B000AF0346FB710023FB73FB7930
:108678001F2B05D8FB7901229A400C4B1A600DE09C
:10868800FB793B2B08D8FB79203BFB71FB79012256
:108698009A40074B1A6001E00123FB73FB7B1846E5
:1086A8001437BD465DF8047B704700BF00E200E068
:1086B80004E200E080B485B000AF0346FB710023FC
:1086C800FB73FB791F2B05D8FB7901229A400C4BD1
:1086D8001A600DE0FB793B2B08D8FB79203BFB7136
:1086E800FB7901229A40074B1A6001E00123FB73D2
:1086F800FB7B18461437BD465DF8047B704700BF06
:1087080080E200E084E200E080B485B000AF034678
:108718003960FB710023FB73FB791F2B0BD8134BBC
:108728001A68FB7922FA03F3DBB203F00103DAB229
:108738003B681A7013E0FB793B2B0ED8FB79203B82
:10874800FB710B4B1A68FB7922FA03F3DBB203F0D7
:108758000103DAB23B681A7001E00123FB73FB7B6B
:1087680018461437BD465DF8047B704700E300E007
:1087780004E300E080B485B000AF0346FB710B460C
:10878800BB7113467B71134B134A1A600223FB73A8
:1087980097F90730002B16DB97F90730002B12DB0F
:1087A800BA79FB7B02FA03F35AB297F905301343FF
:1087B8005BB2DAB297F9073003F1604303F564431B
:1087C8001201D2B21A7000BF1437BD465DF8047B9F
:1087D800704700BF0CED00E00005FA0580B400AF5B
:1087E800044A13686FF38203136000BFBD465DF847
:1087F800047B704710E000E080B584B000AF78607B
:108808007B684FF4FA6202FB03F3FB600C4B002217
:108818001A600C4AFB6813600B4A136843F00103A3
:10882800136000BF084B1B68C3F30043DBB2002B87
:10883800F8D000F069F800BF1037BD4680BD00BF12
:1088480018E000E014E000E010E000E080B485B03B
:1088580000AF786039600123FB733B68002B02D1BD
:108868000223FB7311E00023FB730B4A3B68136080
:108878000A4A7B6813600A4A136843F002031360CC
:10888800074A136843F001031360FB7B184614374B
:10889800BD465DF8047B70475400002014E000E0FA
:1088A80010E000E080B485B000AF78603960012343
:1088B800FB733B68002B02D10223FB7315E00023F6
:1088C800FB730D4A3B6813600C4A7B68013B1360DD
:1088D8000B4B00221A600B4A136843F00203136023
:1088E800084A136843F001031360FB7B18461437EA
:1088F800BD465DF8047B70475400002014E000E09A
:1089080018E000E010E000E080B400AF044A13680B
:108918006FF30003136000BFBD465DF8047B70472A
:1089280010E000E080B400AF044B1A68044B1B68E9
:10893800D31A1846BD465DF8047B704714E000E082
:1089480018E000E080B400AF034B1B681846BD4632
:108958005DF8047B704700BF18E000E080B500AF09
:10896800024B1B68984700BF80BD00BF5400002021
:1089780080B483B000AF0346FB71FB79072B23D883
:1089880001A252F823F000BFB1890008B589000898
:10899800B9890008BD890008C1890008C58900088F
:1089A800C9890008CD8900080B4B0EE00B4B0CE081
:1089B8000B4B0AE00B4B08E00B4B06E00B4B04E0BB
:1089C8000B4B02E00B4B00E0002318460C37BD466A
:1089D8005DF8047B704700BF0000024000040240BD
:1089E80000080240000C024000100240001402403F
:1089F80000180240001C024090B585B000AF044644
:108A0800084611461A462346FB710346BB710B46BE
:108A18007B7113463B71FB791846FFF7A9FFF86095
:108A2800FB68002B01D1012365E0BB790F2B01D92D
:108A3800022360E0FB681B68BA795200032101FA3F
:108A480002F2D2431A40FB681A60FB681B687A7905
:108A580002F00301BA79520001FA02F21A43FB68E4
:108A68001A607B79012B02D07B79022B12D1FB682B
:108A78005B68BA79012101FA02F2D2431A40FB6815
:108A88005A60FB685B683979BA7901FA02F21A43CD
:108A9800FB685A60FB689B68BA795200032101FAA7
:108AA80002F2D2431A40FB689A60FB689B6897F809
:108AB800202002F00301BA79520001FA02F21A43A7
:108AC800FB689A60FB68DB68BA795200032101FAF7
:108AD80002F2D2431A40FB68DA60FB68DB6897F859
:108AE800242002F00301BA79520001FA02F21A4373
:108AF800FB68DA60002318461437BD4690BD80B580
:108B080084B000AF0346FB710B46BB7113467B7103
:108B1800FB791846FFF72CFFF860FB68002B01D1A2
:108B2800012318E0BB790F2B01D9022313E07B79CD
:108B3800012B07D1BB79012202FA03F31A46FB681D
:108B48009A6107E0BB791033012202FA03F31A464F
:108B5800FB689A61002318461037BD4680BD80B572
:108B680084B000AF03460A46FB711346BB71FB791C
:108B78001846FFF7FDFEF860FB68002B01D10123C2
:108B88000EE0BB790F2B01D9022309E0FB685B6972
:108B9800BA79012101FA02F25A40FB685A610023AE
:108BA80018461037BD4680BD80B584B000AF034677
:108BB8003A60FB710B46BB71FB791846FFF7D8FE8C
:108BC800F860FB68002B01D1012310E0BB790F2B63
:108BD80001D902230BE0FB681A69BB7922FA03F377
:108BE800DBB203F00103DAB23B681A7000231846BF
:108BF8001037BD4680BD000080B487B000AF034683
:108C0800FB710B46BB7113467B71FB79072B68D848
:108C180001A252F823F000BF418C0008478C0008DD
:108C28004D8C0008538C0008598C00085F8C000894
:108C3800658C00086B8C00082D4B7B6114E02D4B74
:108C48007B6111E02C4B7B610EE02C4B7B610BE0D0
:108C58002B4B7B6108E02B4B7B6105E02A4B7B614A
:108C680002E02A4B7B6100BF7B6920333B617B6953
:108C78002433FB60BB79072B18D8BB799B00BB72E8
:108C88003B691B68BA7A0F2101FA02F2D2431A40F3
:108C98003B691A603B691B687A7902F00F01BA7A5E
:108CA80001FA02F21A433B691A601BE0BB79083BE0
:108CB800DBB29B00FB72FB681B68FA7A0F2101FA92
:108CC80002F2D2431A40FB681A60FB681B687A7983
:108CD80002F00F01FA7A01FA02F21A43FB681A60ED
:108CE80000E000BF1C37BD465DF8047B704700BF3D
:108CF800000002400004024000080240000C02404C
:108D0800001002400014024000180240001C0240FB
:108D180080B485B000AF03460A46FB711346BB71A9
:108D2800FB79092B19D81F4B1968FA7913465B0090
:108D38001344072202FA03F3DB431A4A0B40136079
:108D4800184B1968B879FA7913465B00134400FA8E
:108D580003F3144A0B4313601EE0FB79122B1BD854
:108D6800FB791A4652001344DBB21E3BFB730E4BD1
:108D78001B68FA7B072101FA02F2D24311460A4A1C
:108D88000B401360084B1B68B979FA7B01FA02F2B1
:108D98001146054A0B43136000BF1437BD465DF802
:108DA800047B7047102001400C20014080B582B040
:108DB80000AF344B1B68334A23F440331360314B04
:108DC8001B68304A43F4803313602F4B1B682E4ACC
:108DD80023F0010313602D4B1B682C4A23F04073CA
:108DE80013602A4B294A1B681360274B1B68264AC5
:108DF80023F002031360244B1B68234A43F4806367
:108E08001360214B1B68204A23F4006313601D4B39
:108E18001B681C4A23F4800313601A4B1B68194A09
:108E280043F400031360194B1B68184A23F480733A
:108E38001360174B1B68164A23F470031360002352
:108E4800FB7107E0FB7907211846FFF761FFFB7903
:108E58000133FB71FB79122BF4D90B4B1B680A4ABF
:108E680043F00103136000233B6002E03B680133D9
:108E78003B603B68074A9342F8D900BF00BF0837F8
:108E8800BD4680BD04230140082001400420014064
:108E98002C2001409F86010080B483B000AF0346B8
:108EA800FB71154B1B68144A23F022031360FB79EE
:108EB800124A03F01F031360114B1B68104A23F476
:108EC800700313600F4B1B680E4A43F08043136016
:108ED80000BF094B1B6803F00203002BF9D00A4BB3
:108EE8001B689BB2C3F30B039BB218460C37BD46F5
:108EF8005DF8047B704700BF00200140342001402A
:108F08002C200140082001404C20014080B586B04B
:108F180000AF0346FB7100237B610023FB7415E05F
:108F2800FB791846FFF7B8FF03461A467B691344D6
:108F38007B610023FB6002E0FB680133FB60FB6898
:108F4800B3F5FA7FF8D3FB7C0133FB74FB7C3F2B32
:108F5800E6D97B699B099BB218461837BD4680BD88
:108F680080B584B000AF0346FB71FB791846FFF764
:108F7800CDFF0346FB81FB8940F6E44202FB03F385
:108F88001B0B18461037BD4680BD80B582B000AFB8
:108F980003460A46FB711346BB71BA79FB79114641
:108FA8001846FFF7B5FE00BF0837BD4680BD000074
:108FB80080B485B000AF0346FB710023FB60FB79EA
:108FC800022B0CD0022B0DDC002B02D0012B03D07E
:108FD80008E0084BFB6006E0074BFB6003E0074B2B
:108FE800FB6000E000BFFB6818461437BD465DF81B
:108FF800047B7047001001400044004000480040D6
:1090080080B586B000AF03463960FB710023FB755D
:109018001DE03A681B4B83FB02139910D317C91A3A
:109028000B469B000B445B00D11ACAB2FB7D591C4E
:10903800F9753032D2B218333B4403F80C2C3B6834
:10904800104A82FB03129210DB17D31A3B603B686D
:10905800002BDEDCFB7DBB750CE0BB7D013B07F123
:109068000C02D118FB790122184600F0A7F8BB7D45
:10907800013BBB75BB7D002BEFD100BF00BF18378C
:10908800BD4680BD6766666680B586B000AF03469C
:10909800B9607A60FB73BB68002B00F08B80FB7BA8
:1090A8001846FFF785FF78617B690C331B687A697E
:1090B8000C3223F400531360BB681B685A087B68A2
:1090C8001A44BB681B68B2FBF3F33B617B69083346
:1090D8001A463B691360BB68DB79012B08D17B69B1
:1090E8000C331B687A690C3243F48053136007E031
:1090F8007B690C331B687A690C3223F48053136044
:10910800BB685B79002B08D17B690C331B687A69D3
:109118000C3223F4806313601CE07B690C331B68FA
:109128007A690C3243F480631360BB685B79022B65
:1091380008D17B690C331B687A690C3243F40073DD
:10914800136007E07B690C331B687A690C3223F4DF
:10915800007313607B6910331B687A69103223F43B
:10916800405313607B6910331B68BA689279120305
:1091780011467A6910320B4313607B690C331B6804
:10918800BA68127A11467A690C320B4313607B690C
:109198000C331B68BA68127911467A690C320B4392
:1091A80013607B690C331B687A690C3243F40053F3
:1091B800136000E000BF1837BD4680BD80B584B09D
:1091C80000AF03463960FB711346BB71FB79184643
:1091D800FFF7EEFEB8600023FB7311E000BFBB6829
:1091E8001B68DB0903F00103002BF8D0FB7B3A680E
:1091F80013441A78BB6804331A60FB7B0133FB7392
:10920800FA7BBB799A42E9D300BF00BF1037BD464D
:1092180080BD000080B582B000AF03463960FB71A5
:109228003B68002B08DAFB7901220C491846FFF746
:10923800C5FF3B685B423B603B68002B06D1FB796E
:10924800012207491846FFF7B9FF04E0FB7939689E
:109258001846FFF7D5FE0837BD4680BDE4D600089E
:10926800E8D6000880B483B000AF78607B68002B34
:1092780002D0044A7B68136000BF0C37BD465DF816
:10928800047B70475C00002080B483B000AF786036
:109298007B68002B02D0044A7B68136000BF0C3740
:1092A800BD465DF8047B70476000002080B483B041
:1092B80000AF78607B68002B02D0044A7B6813609B
:1092C80000BF0C37BD465DF8047B70476400002082
:1092D80080B586B000AF0120FFF76AFE78617B6930
:1092E8001B683B613B6903F02003002B0BD07B69B3
:1092F80004331B68DAB2154B1A70154B1B68134AF6
:109308001278104698473B6903F00803002B07D0F2
:109318007B691B68FB607B6904331B68FB60FB6827
:109328003B6903F00403002B03D07B691B68BB6017
:10933800BB683B6903F00203002B03D07B691B6801
:109348007B607B6800BF1837BD4680BD5800002091
:109358006000002080B586B000AF0220FFF728FE2D
:1093680078617B691B683B613B6903F02003002B34
:109378000BD07B6904331B68DAB2154B1A70154B96
:109388001B68134A1278104698473B6903F0080394
:10939800002B07D07B691B68FB607B6904331B6863
:1093A800FB60FB683B6903F00403002B03D07B6977
:1093B8001B68BB60BB683B6903F00203002B03D04A
:1093C8007B691B687B607B6800BF1837BD4680BD22
:1093D800580000206400002080B586B000AF00204F
:1093E800FFF7E6FD78617B691B683B613B6903F029
:1093F8002003002B0BD07B6904331B68DAB2154BB2
:109408001A70154B1B68134A1278104698473B6927
:1094180003F00803002B07D07B691B68FB607B699E
:1094280004331B68FB60FB683B6903F00403002BF3
:1094380003D07B691B68BB60BB683B6903F0020310
:10944800002B03D07B691B687B607B6800BF1837E3
:10945800BD4680BD580000205C00002080B400AFED
:10946800BFF34F8F30BF00BFBD465DF8047B704728
:1094780080B400AFBFF34F8F20BF00BFBD465DF87B
:10948800047B704780B582B000AF0346FB71094B7F
:109498001B68084A23F004031360FB79002B02D1F0
:1094A800FFF7DCFF01E0FFF7E3FF00BF0837BD4629
:1094B80080BD00BF10ED00E080B400AF054B1B6815
:1094C800044A43F00203136000BFBD465DF8047B05
:1094D800704700BF10ED00E080B400AF054B1B687B
:1094E800044A23F00203136000BFBD465DF8047B05
:1094F800704700BF10ED00E080B582B000AF0346B2
:10950800FB710B46BB7113467B711F4B1B681E4AD0
:1095180023F002031360FB79012B06D11A4B1B6859
:10952800194A43F00103136005E0174B1B68164AFC
:1095380023F001031360BB79002B06D0124B1B6884
:10954800114A43F40073136005E00F4B1B680E4A81
:1095580023F4007313600D4B1B680C4A43F004039B
:1095680013607B79002B02D1FFF778FF01E0FFF74A
:109578007FFF064B1B68054A23F00403136000BFF6
:109588000837BD4680BD00BF0070004010ED00E008
:1095980080B500AF0A4B1B68094A43F00203136009
:1095A800074B1B68064A43F00C031360054B1B6806
:1095B800044A43F004031360FFF750FFFEE700BFBF
:1095C8000070004010ED00E080B483B000AF0346A7
:1095D800FB71FB79012B06D10A4B1B68094A43F43E
:1095E8008073136008E0FB79022B05D1054B1B68DB
:1095F800044A43F40073136000BF0C37BD465DF89E
:10960800047B70470470004080B483B000AF034609
:10961800FB71FB79012B06D10A4B1B68094A23F41D
:109628008073136008E0FB79022B05D1054B1B689A
:10963800044A23F40073136000BF0C37BD465DF87D
:10964800047B70470470004080B400AF064B1B6871
:1096580003F00203002B01D0012300E00023184689
:10966800BD465DF8047B70470470004080B400AFCD
:10967800054B1B68DBB203F00103DBB21846BD469D
:109688005DF8047B704700BF0470004080B400AFF1
:10969800054B1B68044A43F00C03136000BFBD462A
:1096A8005DF8047B704700BF0070004080B485B04F
:1096B80000AF0346FB710C4B1B68FB60FB6823F093
:1096C800E003FB60FB795B01FA681343FB60FB680E
:1096D80043F01003FB60044AFB68136000BF1437B3
:1096E800BD465DF8047B70470070004080B400AF51
:1096F800054B1B68044A23F01003136000BFBD46E6
:109708005DF8047B704700BF0070004080B400AF74
:10971800064B1B6803F00403002B01D0012300E073
:1097280000231846BD465DF8047B7047047000406E
:1097380080B485B000AF03460A46FB711346BB717F
:10974800FB79012B01D1094B00E0094BFB60BA7989
:1097580013465B001344DB001033FA6813441846C1
:109768001437BD465DF8047B704700BF00600240B7
:109778000064024080B485B000AF78607B6803F075
:109788000303FB60FA6813465B0013445B0018464A
:109798001437BD465DF8047B7047000080B586B07D
:1097A80000AF03460A46FB711346BB71FB79012BD8
:1097B80001D10F4B00E00F4B3B61BB79FB60FB68AD
:1097C800032B03D83B691B687B6102E03B695B683C
:1097D8007B61F868FFF7CEFFB8607A69BB6822FA48
:1097E80003F303F03F0318461837BD4680BD00BF9A
:1097F800006002400064024080B586B000AF0346B6
:109808003A60FB710B46BB71FB79012B01D10F4B01
:1098180000E00F4B7B61BB793B613869FFF7AAFF1A
:10982800F8603B6803F03F02FB6802FA03F3BB6091
:109838003B69032B03D87B69BA689A6002E07B69AD
:10984800BA68DA6000BF1837BD4680BD00600240C4
:109858000064024080B483B000AF00237B601CE04A
:1098680000233B6013E012497B68DA003B6813442D
:10987800002241F833200E497B68DA003B68134424
:10988800DB000B4400225A603B6801333B603B68B5
:10989800072BE8DD7B6801337B607B68012BDFDD0C
:1098A80000BF00BF0C37BD465DF8047B704700BFA2
:1098B8006800002080B584B000AF78607B68002B1A
:1098C80002D14FF0FF3392E07B681A787B685B78AF
:1098D80019461046FFF72CFFB860BB681B6803F0F9
:1098E8000103002B02D06FF0010380E0BB68002267
:1098F8001A60BB6821225A617B6893F82730002BD5
:109908000CD0BB685B6943F00402BB685A61BB6852
:109918005B6943F00102BB685A6105E0BB685B699B
:1099280023F00402BB685A617B68DA68BB689A60F6
:109938007B681A69BB68DA607B685A69BB685A60D9
:109948000023FB607B685B685B0603F06063FA6872
:109958001343FB607B681B7A022B0AD0022B0EDCB8
:10996800002B0BD0012B0AD1FB6843F04003FB60AE
:1099780005E0FB6843F08003FB6000E000BF7B6804
:1099880093F82530002B03D0FB6843F48063FB6019
:109998007B6893F82430002B03D0FB6843F40073F2
:1099A800FB607B68DB6903F4C043FA681343FB6020
:1099B8007B689B6903F4C053FA681343FB607B68B8
:1099C8001B6A03F44033FA681343FB607B6893F81F
:1099D8002630002B03D0FB6843F48073FB60FB68E0
:1099E80043F01403FB60BB68FA681A60002318464A
:1099F8001037BD4680BD80B584B000AF78607B6805
:109A0800002B02D14FF0FF332CE07B681A787B687B
:109A18005B7819461046FFF78BFEF860FB681B68F9
:109A280003F00103002B02D06FF001031AE07B68FA
:109A3800DA68FB689A607B681A69FB68DA607B6899
:109A48005A69FB685A607B6818787B685B783F22A4
:109A58001946FFF7D1FEFB681B6843F00102FB685B
:109A68001A60002318461037BD4680BD80B584B003
:109A780000AF03460A46FB711346BB71BA79FB79FE
:109A880011461846FFF754FEF860FB681B6823F080
:109A98000102FB681A6000E000BFFB681B6803F066
:109AA8000103002BF8D1B979FB793F221846FFF75B
:109AB800A3FE00BF1037BD4680BD000080B485B04E
:109AC80000AFBA607B600346FB730B46BB73BB6891
:109AD800002B1DD0FB7B012B14BF01230023DBB21D
:109AE8001A46BB7B0D49D2001344BA6841F83320AB
:109AF800FB7B012B14BF01230023DBB21A46BB7B7F
:109B08000649D2001344DB000B447A685A6000E02F
:109B180000BF1437BD465DF8047B7047680000201D
:109B280080B588B000AF03460A46FB711346BB7187
:109B3800BA79FB7911461846FFF730FEF86102231F
:109B4800BB6108237B61FA69BB691340002B1DD0F8
:109B5800B979FB793E221846FFF74EFEFB79012BB7
:109B680014BF01230023DBB21A46BB79D200134489
:109B7800DB001A4A13443B613B691B68002B05D084
:109B88003B691B683A69526810469847FA697B69CD
:109B98001340002B1DD0B979FB793E221846FFF7F8
:109BA8002BFEFB79012B14BF01230023DBB21A46DD
:109BB800BB79D2001344DB00084A1344FB60FB68FE
:109BC8001B68002B05D0FB681B68FA6852681046B2
:109BD800984700BF2037BD4680BD00BF6800002001
:109BE80080B483B000AF03460A46FB711346BB80BE
:109BF800144B45F255521A6000BF134B1B6803F013
:109C08000103002BF9D1FB79104A03F00703136015
:109C180000BF0D4B1B6803F00203002BF9D1BB8872
:109C28000B4AC3F30B031360064B4AF6AA221A60C9
:109C3800044B4CF6CC421A6000BF0C37BD465DF8A9
:109C4800047B7047003000400C3000400430004076
:109C58000830004080B400AF044B4AF6AA221A60CC
:109C680000BFBD465DF8047B704700BF0030004070
:109C780080B487B000AFF8600B467A60FB72FB7A5D
:109C8800062B02D87B68002B02D140F6FF731FE039
:109C9800FB7A124A32F813303B617A683B69B2FBAF
:109CA800F3F3FA6802FB03F30D4AA2FB03239B09B3
:109CB8007B617B69002B02D07B69013B7B617B69FF
:109CC800B3F5805F02D340F6FF737B617B699BB27B
:109CD80018461C37BD465DF8047B70474CD8000811
:109CE800D34D621080B485B000AF78607B68002BDC
:109CF80023D00023FB607B681B78DB0103F4C0736F
:109D0800FA681343FB607B685B7803F07F03FA68AB
:109D18001343FB607B68DB78002B03D0FB6843F4BC
:109D28000073FB60084AFB6813607B689B7863F0EC
:109D38007F03DAB2054B1A6000E000BF1437BD4656
:109D48005DF8047B704700BF042C0040002C0040E5
:109D580080B483B000AF0346FB71FB7963F07F03E7
:109D6800DAB2044B1A6000BF0C37BD465DF8047BBD
:109D7800704700BF002C004080B400AF054B1B6843
:109D8800044A23F00103136000BFBD465DF8047B5D
:109D9800704700BF082C004080B400AF054B1B681B
:109DA800DBB203F00103DBB21846BD465DF8047B65
:109DB800704700BF082C004080B489B000AFF8603D
:109DC8000B467A60FB727B68002B01D17F2323E06E
:109DD800FB7A012202FA03F3BB61BB69114A03FB58
:109DE80002F27B68B2FBF3F37B617B69002B01D144
:109DF8007F2311E0FB684FF47A7203FB02F27B6960
:109E0800B2FBF3F3FB61FB693F2B01D93F23FB61F5
:109E1800FB69DBB24033DBB218462437BD465DF838
:109E2800047B7047000024F480B483B000AF03467D
:109E3800FB71FB790C4AA2FB0323DB08DBB21B0195
:109E4800D8B2FA79084BA3FB0213D9080B469B003A
:109E58000B445B00D31ADBB20343DBB218460C3762
:109E6800BD465DF8047B7047CDCCCCCC80B483B0C4
:109E780000AF0346FB71FB791B09DBB21A4692005F
:109E880013445B00DAB2FB7903F00F03DBB213442F
:109E9800DBB218460C37BD465DF8047B70470000FE
:109EA80080B400AF054BCA221A60044B53221A60D3
:109EB80000BFBD465DF8047B704700BF2428004002
:109EC80080B400AF034BFF221A6000BFBD465DF8A7
:109ED800047B70472428004080B483B000AF0F4B48
:109EE8007B600F4B1B680E4A43F08003136007E04A
:109EF8007B68013B7B607B68002B01D1022306E075
:109F0800074B1B6803F04003002BF1D000231846D1
:109F18000C37BD465DF8047B704700BFA086010082
:109F28000C28004080B400AF054B1B68044A23F09E
:109F38008003136000BFBD465DF8047B704700BF17
:109F48000C28004080B586B000AF78607B68002B95
:109F580001D1012388E0464B1B68454A43F48073CE
:109F680013607B681B78012B17D1424B1B68414A51
:109F780043F001031360404B7B6107E07B69013BC1
:109F88007B617B69002B01D102236DE0394B1B6893
:109F980003F00203002BF1D01AE07B681B78022B38
:109FA80016D1364B1B68354A43F001031360344B16
:109FB8003B6107E03B69013B3B613B69002B01D1F9
:109FC800022351E02D4B1B6803F00203002BF1D054
:109FD800284B1B681B0A03F00303FB60FB68002B7C
:109FE80007D1244B1A687B681B781B02214913434D
:109FF8000B60204B1B681F4A43F400431360FFF7B4
:10A008004FFFFFF769FF0346FB72FB7A002B03D073
:10A01800FFF756FFFB7A27E07B685B681B0403F4B5
:10A02800FE027B689B68C3F30E03164913430B605B
:10A038007B681B7B012B06D1134B1B68124A43F02C
:10A048004003136005E0104B1B680F4A23F04003E0
:10A0580013600D4B1B680C4A43F020031360FFF795
:10A0680061FFFFF72DFF002318461837BD4680BD56
:10A07800007000407038024020A107007438024088
:10A08800A0860100102800400828004080B584B050
:10A0980000AF78607B68002B01D1012341E0FFF716
:10A0A800FFFEFFF719FF0346FB72FB7A002B03D074
:10A0B800FFF706FFFB7A34E00023FB607B689B78A0
:10A0C8001846FFF7B1FE034603F07F03FA6813430F
:10A0D800FB607B685B781846FFF7A6FE03461B0209
:10A0E80003F4FE43FA681343FB607B681B78184649
:10A0F800FFF79AFE03461B0403F47C13FA68134324
:10A10800FB607B68DB78012B03D1FB6843F4800399
:10A11800FB60064AFB681360FFF704FFFFF7D0FEF9
:10A12800002318461037BD4680BD00BF00280040F8
:10A1380080B584B000AF78607B68002B01D1012323
:10A1480031E01B4B1B68FB60FB68DBB203F07F034D
:10A15800DBB21846FFF78AFE03461A467B689A70F8
:10A16800FB681B0ADBB203F07F03DBB21846FFF77C
:10A178007DFE03461A467B685A70FB681B0CDBB2EF
:10A1880003F03F03DBB21846FFF770FE03461A469A
:10A198007B681A70FB689B0DDBB203F00103DAB22F
:10A1A8007B68DA70002318461037BD4680BD00BFB3
:10A1B8000028004080B584B000AF78607B68002B31
:10A1C80001D101233EE0FFF76BFEFFF785FE034652
:10A1D800FB73FB7B002B03D0FFF772FEFB7B31E0A8
:10A1E8000023BB607B681B781846FFF71DFE0346FB
:10A1F80003F03F03BA681343BB607B685B7818467B
:10A20800FFF712FE03461B0203F4F853BA68134320
:10A21800BB607B68DB785B039BB2BA681343BB60A7
:10A228007B689B781846FFF7FFFD03461B04BA6856
:10A238001343BB60054ABB681360FFF773FEFFF763
:10A248003FFE002318461037BD4680BD0428004055
:10A2580080B584B000AF78607B68002B01D1012302
:10A2680030E01A4B1B681A4B1B68FB60FB68DBB2BB
:10A2780003F03F03DBB21846FFF7F8FD03461A4622
:10A288007B681A70FB681B0ADBB203F01F03DBB2A2
:10A298001846FFF7EBFD03461A467B685A70FB68C1
:10A2A8005B0BDBB203F00703DAB27B68DA70FB689A
:10A2B8001B0CDBB21846FFF7D9FD03461A467B682C
:10A2C8009A70002318461037BD4680BD002800400C
:10A2D8000428004080B586B000AF03463960FB71A2
:10A2E8001346BB713B68002B01D10123C2E0FFF785
:10A2F800D7FDFB79002B06D1604B1B685F4A23F41E
:10A308008073136005E05D4B1B685C4A23F400739F
:10A318001360FB79002B01D1012300E00223FB60CD
:10A32800574B7B6109E07B69013B7B617B69002BB3
:10A3380003D1FFF7C5FD02239CE0524B1A68FB6866
:10A348001340002BEFD000233B613B689B781846F5
:10A35800FFF76AFD034603F07F033A6913433B6145
:10A368003B685B781846FFF75FFD03461B0203F462
:10A37800FE433A6913433B613B681B781846FFF775
:10A3880053FD03461B0403F47C133A6913433B61F2
:10A398003B68DB78012B03D13B6943F480033B61C5
:10A3A8003B685B79002B0AD03B681B791B0603F0DE
:10A3B80070623B69134343F080433B610BE03B68A9
:10A3C8001B791846FFF730FD03461B0603F07C5344
:10A3D8003A6913433B613B681B7A002B03D03B6906
:10A3E80043F080033B613B68DB79002B03D03B697A
:10A3F80043F400433B613B689B79002B03D03B69E6
:10A4080043F400033B613B685B7A002B03D03B6954
:10A4180043F000433B61FB79002B03D11A4A3B69A7
:10A42800136002E0194A3B691360FB79002B0FD1D6
:10A43800124B1B68114A43F480731360BB79002BDD
:10A4480015D00E4B1B680D4A43F4805313600EE081
:10A458000A4B1B68094A43F400731360BB79002B4D
:10A4680005D0064B1B68054A43F400531360FFF7F9
:10A4780027FD002318461837BD4680BD0828004030
:10A48800A08601000C2800401C280040202800401D
:10A4980080B582B000AF0346FB71FFF701FDFB7981
:10A4A800002B06D1094B1B68084A23F48853136014
:10A4B80005E0064B1B68054A23F408531360FFF7B1
:10A4C800FFFC00BF0837BD4680BD00BF082800401C
:10A4D80080B483B000AF0346FB71FB79002B06D133
:10A4E800094B1B68084A23F48073136005E0064B88
:10A4F8001B68054A23F40073136000BF0C37BD4680
:10A508005DF8047B704700BF0C28004080B485B01C
:10A5180000AF0346FB71FB79002B02D14FF4807327
:10A5280001E04FF40073FB60074B1A68FB681340A7
:10A53800002B01D0012300E0002318461437BD4644
:10A548005DF8047B704700BF0C28004080B584B0DC
:10A5580000AF0346FB710B46BB801346BB71FFF788
:10A568009FFC1E4B1B681D4A23F4806313601C4B21
:10A57800FB6009E0FB68013BFB60FB68002B03D133
:10A58800FFF79EFC022324E0164B1B6803F004032C
:10A59800002BEFD0114B1B6823F00702FB7903F067
:10A5A80007030E4913430B600F4ABB8813600B4B1C
:10A5B8001B680A4A43F480631360BB79002B05D0FB
:10A5C800064B1B68054A43F480431360FFF778FC89
:10A5D800002318461037BD4680BD00BF082800403C
:10A5E800A08601000C2800401428004080B500AF68
:10A5F800FFF756FC044B1B68034A23F48843136097
:10A60800FFF75EFC00BF80BD0828004080B400AFA3
:10A61800054B1B68044A23F48063136000BFBD46E2
:10A628005DF8047B704700BF0C28004080B400AF81
:10A63800064B1B6803F48063002B01D0012300E064
:10A6480000231846BD465DF8047B70470C2800407F
:10A6580080B582B000AF03460A46FB711346BB7152
:10A66800FFF71EFCFB79002B06D0114B1B68104A24
:10A6780043F00803136005E00D4B1B680C4A23F0F8
:10A68800080313600A4B1B68094A43F4006313600C
:10A69800BB79002B05D0064B1B68054A43F40043E1
:10A6A8001360FFF70DFC00BF0837BD4680BD00BF33
:10A6B8000828004080B500AFFFF7F2FB044B1B6889
:10A6C800034A23F408431360FFF7FAFB00BF80BD79
:10A6D8000828004080B584B000AF786039607B6896
:10A6E800002B30D02F4B1B68FB60FB68DBB203F0FC
:10A6F8007F03DBB21846FFF7B9FB03461A467B68AF
:10A708009A70FB681B0ADBB203F07F03DBB21846C2
:10A71800FFF7ACFB03461A467B685A70FB681B0CB4
:10A72800DBB203F03F03DBB21846FFF79FFB03469B
:10A738001A467B681A70FB689B0DDBB203F00103B5
:10A74800DAB27B68DA703B68002B26D0164B1B68A0
:10A75800BB60BB68DBB203F03F03DBB21846FFF710
:10A7680085FB03461A463B681A70BB681B0ADBB2B6
:10A7780003F01F03DBB21846FFF778FB03461A46BF
:10A788003B685A70BB685B0BDBB203F00703DAB2B5
:10A798003B68DA703B6800229A7000BF1037BD46EC
:10A7A80080BD00BF302800403428004080B400AF8E
:10A7B800054B1B68044A23F40063136000BFBD46C1
:10A7C8005DF8047B704700BF0C28004080B483B05C
:10A7D80000AF03463960FB71FB79132B0FD80B4B85
:10A7E8001B680A4A43F480731360FB7903F18053B2
:10A7F80003F614239B001A463B68136000E000BF71
:10A808000C37BD465DF8047B704700BF0070004000
:10A8180080B483B000AF0346FB71FB79132B01D9D9
:10A82800002306E0FB7903F1805303F614239B0011
:10A838001B6818460C37BD465DF8047B704700005E
:10A8480080B400AF064B1B6803F01003002B01D047
:10A85800012300E000231846BD465DF8047B7047DD
:10A868000C28004080B483B000AF0D4B1B680C4A25
:10A8780023F0200313600B4B7B6000BF084B1B6861
:10A8880003F02003002B05D17B68013B7B607B68CC
:10A89800002BF3D100BF0C37BD465DF8047B704731
:10A8A8000C280040A086010080B483B000AFF1EE10
:10A8B800103A7B607B6818460C37BD465DF8047B10
:10A8C800704780B483B000AF78607B68E1EE103ADF
:10A8D80000BF0C37BD465DF8047B704780B400AFFD
:10A8E8000A4B1B68094A43F470031360BFF34F8F88
:10A8F800BFF36F8F064B1B68054A43F04043136054
:10A9080000BFBD465DF8047B704700BF88ED00E0DE
:10A9180034EF00E080B400AF074B1B68064A23F40D
:10A9280070031360BFF34F8FBFF36F8F00BFBD4637
:10A938005DF8047B704700BF88ED00E080B485B007
:10A9480000AF0346FB714FF47003FB60FB791B05F6
:10A9580003F44012FB799B0503F440031343BB60E7
:10A96800094B1A68FB68DB431A400749BB68134365
:10A978000B60BFF34F8FBFF36F8F00BF1437BD4617
:10A988005DF8047B704700BF88ED00E080B400AF3D
:10A99800054B1B68044A43F04043136000BFBD46A3
:10A9A8005DF8047B704700BF34EF00E080B400AF6F
:10A9B800084B1B68074A43F000431360054B1B68AC
:10A9C800044A23F08043136000BFBD465DF8047B52
:10A9D800704700BF34EF00E080B584B000AF034695
:10A9E800FB71FFF761FFF860FB6823F44003FB602D
:10A9F800FB799B0503F44003FA681343FB60F8688E
:10AA0800FFF75FFF00BF1037BD4680BD80B500AFC0
:10AA1800FFF74AFF03469B0DDBB203F00303DBB2EB
:10AA2800184680BD80B584B000AF0346FB71FFF7C0
:10AA38003BFFF860FB79002B04D0FB6843F0807380
:10AA4800FB6003E0FB6823F08073FB60F868FFF7A6
:10AA580038FF00BF1037BD4680BD80B584B000AF59
:10AA68000346FB71FFF720FFF860FB79002B04D049
:10AA7800FB6843F00073FB6003E0FB6823F000739E
:10AA8800FB60F868FFF71DFF00BF1037BD4680BDAB
:10AA980080B500AFFFF708FF034603F09F03184691
:10AAA80080BD80B584B000AF7860FFF7FDFEF86028
:10AAB8007B6803F09F03DB43FA681340FB60F86888
:10AAC800FFF7FFFE00BF1037BD4680BD80B483B0DE
:10AAD80000AF0346FB71FB79062B01D1064B05E05D
:10AAE800FB79072B01D1054B00E0002318460C37F2
:10AAF800BD465DF8047B704700100040001400401C
:10AB080080B584B000AF0346FB71FB791846FFF7A8
:10AB1800DDFFF860FB79062B02D0072B1FD03DE044
:10AB280004210320FDF782FCFB68283307221A80E2
:10AB3800FB682C3340F2CF721A80FB680C331B88F9
:10AB48009BB2FA680C3243F001039BB213803620A3
:10AB5800FDF732FD03461A46124B1A701EE0052116
:10AB68000320FDF763FCFB68283307221A80FB6883
:10AB78002C3340F2CF721A80FB680C331B889BB2CF
:10AB8800FA680C3243F001039BB213803720FDF7BB
:10AB980013FD03461A46034B1A7000BF00BF103757
:10ABA800BD4680BD0000002080B584B000AF0346DC
:10ABB800FB71FB791846FFF789FFF860FB79062BD4
:10ABC80002D0072B09D011E0FB681B889AB2FB68FA
:10ABD80042F0010292B21A8008E0FB681B889AB220
:10ABE800FB6842F0010292B21A8000BF00BF103722
:10ABF800BD4680BD80B584B000AF0346FB71FB79CC
:10AC08001846FFF763FFF860FB79062B02D0072B85
:10AC180009D011E0FB681B889AB2FB6822F0010298
:10AC280092B21A8008E0FB681B889AB2FB6822F08F
:10AC3800010292B21A8000BF00BF1037BD4680BD26
:10AC480080B483B000AF03463960FB71FB79062BF3
:10AC580002D0072B04D007E0064A3B68136003E0E4
:10AC6800054A3B68136000BF00BF0C37BD465DF85E
:10AC7800047B7047E8000020EC00002080B500AF9E
:10AC88000B4B1B889BB203F00103002B0ED0084B23
:10AC98001B889BB2064A23F001039BB21380054B25
:10ACA8001B68002B02D0034B1B68984700BF80BD70
:10ACB80010100040E800002080B500AF0B4B1B8847
:10ACC8009BB203F00103002B0ED0084B1B889BB2EC
:10ACD800064A23F001039BB21380054B1B68002B27
:10ACE80002D0034B1B68984700BF80BD101400407A
:10ACF800EC00002080B483B000AF0346FB71FB7901
:10AD0800022B01D9002303E0FB79044A52F82330CF
:10AD180018460C37BD465DF8047B70475CD80008C0
:10AD280080B483B000AF78607B6804331B687A68AE
:10AD3800043223F4E063136000BF0C37BD465DF8AE
:10AD4800047B704780B588B000AF03463960FB715B
:10AD5800FB791846FFF7CEFFF860FB68002B00F080
:10AD6800C4803B68002B00F0C080FB681A68FB6851
:10AD780022F001021A603B681B685E4AA2FB0323AB
:10AD88009B0CBB60FB6804331B6823F03F02BB6865
:10AD980003F03F03F968043113430B600023FB61A0
:10ADA8003B685B68544A934217D83B681A683B680B
:10ADB8005B685B00B2FBF3F3BB61BB69032B01D893
:10ADC8000423BB61BB69C3F30B03FB61FB6820333E
:10ADD8001A46BB68013313603AE0FB6943F4004349
:10ADE800FB613B681B7A012B10D1FB6943F480435C
:10ADF800FB613B6819683B685A6813469B0013441B
:10AE08009A001344B1FBF3F37B6109E03B681968CE
:10AE18003B685A6813465B001344B1FBF3F37B614C
:10AE28007B69002B01D101237B617B69C3F30B0391
:10AE3800FA691343FB61BB684FF4967202FB03F394
:10AE48002E4AA2FB03239B09FA68203201331360C0
:10AE5800FB681C331A46FB6913603B685B7A012B5D
:10AE680009D13B685B89C3F30903FA68083243F4E4
:10AE78000043136008E03B685B895B00DBB2FA685B
:10AE8800083243F4804313603B68DB7B002B09D016
:10AE98003B681B7C5B00DBB2FA680C3243F00103B1
:10AEA800136004E0FB680C331A4600231360012387
:10AEB8003B613B681B7B002B03D03B6943F48063F9
:10AEC8003B613B685B7B002B03D03B6943F040034D
:10AED8003B613B689B7B002B03D03B6943F08003BD
:10AEE8003B61FB683A691A6000E000BF2037BD4645
:10AEF80080BD00BF83DE1B43A0860100D34D6210D6
:10AF080080B584B000AF0346FB71FB791846FFF7A4
:10AF1800F1FEF860FB68002B12D0FB681A68FB682A
:10AF280022F001021A60F868FFF7FAFEFA7906497A
:10AF38001346DB009B1A9B000B4400221A7000E0AA
:10AF480000BF1037BD4680BDF400002080B584B036
:10AF580000AF0346FB71FB791846FFF7CBFEB860DC
:10AF680042F21073FB60BB681A68BB6842F48072D7
:10AF78001A6007E0FB68013BFB60FB68002B01D10E
:10AF8800032307E0BB6814331B6803F00103002B9D
:10AF9800F0D0002318461037BD4680BD80B584B078
:10AFA80000AF0346FB71FB791846FFF7A3FEF86074
:10AFB800FB681A68FB6842F400721A60002318469E
:10AFC8001037BD4680BD80B584B000AF0346FB7125
:10AFD8000B46BB801346BB71FB791846FFF78AFE08
:10AFE800B86042F21073FB60BB885A00BB7903F06B
:10AFF8000103B968103113430B6016E0BB681433C2
:10B008001B6803F48063002B07D0BB681A68BB6811
:10B0180042F400721A60012315E0FB68013BFB60F3
:10B02800FB68002B01D103230DE0BB6814331B68B8
:10B0380003F00203002BE1D0BB6814331B68BB6824
:10B0480018331B68002318461037BD4680BD80B5ED
:10B0580084B000AF03460A46FB711346BB71FB7907
:10B068001846FFF747FEB86042F21073FB60BB68F2
:10B0780010331A46BB79136007E0FB68013BFB609D
:10B08800FB68002B01D1032307E0BB6814331B685E
:10B0980003F08003002BF0D0002318461037BD467C
:10B0A80080BD80B584B000AF03463960FB7113469C
:10B0B800BB71FB791846FFF71DFEB86042F21073AA
:10B0C800FB60BB79002B06D0BB681A68BB6842F4EA
:10B0D80080621A600EE0BB681A68BB6822F480625E
:10B0E8001A6007E0FB68013BFB60FB68002B01D19D
:10B0F80003230DE0BB6814331B6803F04003002BE7
:10B10800F0D0BB6810331B68DAB23B681A700023B2
:10B1180018461037BD4680BD80B588B000AFBA600C
:10B128001A460346FB730B46BB811346FB80FB7B29
:10B138001846FFF7DFFD7861FB7B1846FFF706FF2F
:10B148000346FB74FB7C002B01D0FB7C42E0B989F1
:10B15800FB7B00221846FFF736FF0346FB74FB7C97
:10B16800002B01D0FB7C35E00023FB8312E0FB8B36
:10B17800BA6813441A78FB7B11461846FFF767FF35
:10B188000346FB74FB7C002B01D0FB7C22E0FB8B8D
:10B198000133FB83FA8BFB889A42E8D342F210739F
:10B1A800BB6107E0BB69013BBB61BB69002B01D1F7
:10B1B80003230FE07B6914331B6803F00403002B9F
:10B1C800F0D097F82830002B03D1FB7B1846FFF707
:10B1D800E5FE002318462037BD4680BD80B586B001
:10B1E80000AFBA601A460346FB730B46BB81134691
:10B1F800FB80FB7B1846FFF7A9FE03467B757B7D2A
:10B20800002B01D07B7D37E0B989FB7B01221846F2
:10B21800FFF7D9FE03467B757B7D002B01D07B7D34
:10B228002AE00023FB821AE0FA8AFB88013B9A4253
:10B2380001D2012300E000233B75FB8ABA68D118CC
:10B248003A7DFB7B1846FFF72CFF03467B757B7D19
:10B25800002B01D07B7D0FE0FB8A0133FB82FA8A49
:10B26800FB889A42E0D397F82030002B03D1FB7B70
:10B278001846FFF793FE002318461837BD4680BDD1
:10B2880090B587B002AF0446084611461A462346D1
:10B29800FB710346BB710B467B7113463B717B798F
:10B2A8003B733B797B73BB7999B207F10C02F87950
:10B2B800002300930223FFF72FFF03461846143795
:10B2C800BD4690BD80B586B002AF3B600346FB71BA
:10B2D8000B46BB7113467B71BB7999B27A1DF8791D
:10B2E800012300930123FFF717FF0346FB73FB7B42
:10B2F800002B01D0FB7B09E0BB7999B2F8790023D8
:10B30800009301233A68FFF769FF03461846103790
:10B31800BD4680BD80B586B002AF3B600346FB7179
:10B328000B46BB7113467B71BB7999B27A1DF879CC
:10B33800012300930123FFF7EFFE0346FB73FB7B1A
:10B34800002B01D0FB7B09E0BB7999B23B8BF879E4
:10B35800002200923A68FFF741FF0346184610376B
:10B36800BD4680BD80B483B000AF03463960FB7131
:10B37800FB79022B09D8FA7907491346DB009B1A97
:10B388009B000B4410333A681A6000BF0C37BD4667
:10B398005DF8047B704700BFF400002080B483B0E0
:10B3A80000AF03463960FB71FB79022B09D8FA79A3
:10B3B80007491346DB009B1A9B000B4414333A6879
:10B3C8001A6000BF0C37BD465DF8047B704700BFAC
:10B3D800F400002080B483B000AF03463960FB71ED
:10B3E800FB79022B09D8FA7907491346DB009B1A27
:10B3F8009B000B4418333A681A6000BF0C37BD46EF
:10B408005DF8047B704700BFF400002080B483B06F
:10B4180000AF0346FB71FB79022B01D9002308E03A
:10B42800FA7907491346DB009B1A9B000B441B78EB
:10B43800DBB218460C37BD465DF8047B704700BF89
:10B44800F400002080B483B000AF78607B681433C8
:10B458001B68DBB218460C37BD465DF8047B7047A5
:10B4680080B586B000AFBA601A460346FB730B4638
:10B47800BB811346FB80FB7B1846FFF73BFC7861DA
:10B488007B69002B05D0BB68002B02D0FB88002B02
:10B4980001D1012334E0FA7B1B491346DB009B1AD8
:10B4A8009B000B441B78DBB2002B01D0022327E062
:10B4B800FA7B1346DB009B1A9B00134A13443B613B
:10B4C8003B6901221A703B69BA685A603B69FA887D
:10B4D8001A813B6900225A81BB895B009AB23B6999
:10B4E8009A817B6904331B687A69043243F4E06308
:10B4F80013607B691A687B6942F480721A600023C2
:10B5080018461837BD4680BDF400002080B586B0C7
:10B5180000AFBA601A460346FB730B46BB8113465D
:10B52800FB80FB7B1846FFF7E5FB78617B69002B06
:10B5380005D0BB68002B02D0FB88002B01D101236A
:10B548003DE0FA7B20491346DB009B1A9B000B4425
:10B558001B78DBB2002B01D0022330E0FA7B1346C4
:10B56800DB009B1A9B00184A13443B613B6902228B
:10B578001A703B69BA685A603B69FA881A813B6954
:10B5880000225A81BB895B009BB243F001039AB247
:10B598003B699A817B691A687B6942F480621A6008
:10B5A8007B6904331B687A69043243F4E0631360EF
:10B5B8007B691A687B6942F480721A600023184616
:10B5C8001837BD4680BD00BFF400002090B587B095
:10B5D80000AF0346FB71FB791846FFF78BFB7861D8
:10B5E8007B6914331B683B61FA791346DB009B1AAD
:10B5F8009B00594A1344FB603B6903F00103002B8D
:10B6080005D0FB689A897B6910331A60A0E03B6912
:10B6180003F00203002B06D07B6914331B687B6997
:10B6280018331B6894E03B6903F08003002B18D0A3
:10B63800FB681B78DBB2012B13D1FB685A89FB68C6
:10B648001B899A427FD2FB685A68FB685B89591C40
:10B6580088B2F968488113441A787B6910331A60F4
:10B6680071E03B6903F00403002B20D0FB681B78D2
:10B67800DBB2012B1BD1FB685A89FB681B899A42F4
:10B6880015D37B691A687B6942F400721A6078697D
:10B69800FFF746FBFB6800221A70FB681B69002B4A
:10B6A80053D0FB681B69FA79104698474DE03B690F
:10B6B80003F04003002B42D0FB681B78DBB2022B5F
:10B6C8003DD1FB685A89FB681B899A423FD2FB68C7
:10B6D8005B891A46FB681B89013B9A420BD17B693F
:10B6E8001A687B6922F480621A607B691A687B6930
:10B6F80042F400721A607B6910331868FB685A6854
:10B70800FB685B89591C8CB2F9684C811344C2B23E
:10B718001A70FB685A89FB681B899A4217D37869A3
:10B72800FFF7FEFAFB6800221A70FB685B69002BC2
:10B738000DD0FB685B69FA791046984707E078698D
:10B74800FFF7EEFA04E000BF02E000BF00E000BF30
:10B758001C37BD4690BD00BFF400002080B584B002
:10B7680000AF0346FB71FB791846FFF7C3FAF86090
:10B77800FB6814331A4600231360FA7912491346FA
:10B78800DB009B1A9B000B4400221A70F868FFF735
:10B79800C7FAFA790C491346DB009B1A9B000B4445
:10B7A80018331B68002B0BD0FA7907491346DB00C6
:10B7B8009B1A9B000B4418331B68FA79104698476C
:10B7C80000BF1037BD4680BDF400002080B500AF33
:10B7D8000020FFF7FBFE00BF80BD80B500AF002052
:10B7E800FFF7BCFF00BF80BD80B500AF0120FFF7A9
:10B7F800EDFE00BF80BD80B500AF0120FFF7AEFFB2
:10B8080000BF80BD80B500AF0220FFF7DFFE00BF9C
:10B8180080BD80B500AF0220FFF7A0FF00BF80BD4C
:10B8280080B400AF074B1B68002B05DA064B074AAC
:10B838001A60054B064A1A6000BFBD465DF8047BD6
:10B84800704700BF103C0240043C0240230167459A
:10B85800AB89EFCD80B400AF054B1B68044A43F0B9
:10B868000043136000BFBD465DF8047B704700BF0E
:10B87800103C024080B400AF044B1B68DB0FDBB206
:10B888001846BD465DF8047B704700BF103C024077
:10B8980080B400AF054B1B68044A43F0F303136000
:10B8A80000BFBD465DF8047B704700BF0C3C0240FA
:10B8B80080B483B000AF114B7B6002E07B68013B32
:10B8C8007B600F4B1B6803F48033002B02D07B682E
:10B8D800002BF3D17B68002B01D1022308E0084B31
:10B8E8001B6803F0F203002B01D0012300E00023C2
:10B8F80018460C37BD465DF8047B7047404B4C003A
:10B908000C3C024080B483B000AF78607B68B3F130
:10B91800006F05D37B68064A934201D8012300E0F3
:10B928000023DBB218460C37BD465DF8047B704730
:10B93800FFFF070880B483B000AF78607B68184ABF
:10B94800934201D2002324E07B68164A934201D235
:10B9580001231EE07B68144A934201D2022318E0B7
:10B968007B68124A934201D8032312E07B68104A8D
:10B97800934201D804230CE07B680E4A934201D815
:10B98800052306E07B680C4A934201D8062300E0B1
:10B99800072318460C37BD465DF8047B704700BF87
:10B9A800004000080080000800C00008FFFF0008F1
:10B9B800FFFF0108FFFF0308FFFF050880B483B0FD
:10B9C80000AF78607B68072B23D801A252F823F0D8
:10B9D800F9B90008FFB9000803BA000807BA000857
:10B9E8000BBA00080FBA000813BA000817BA000803
:10B9F8004FF000630EE00A4B0CE00A4B0AE00A4BDA
:10BA080008E00A4B06E00A4B04E00A4B02E00A4B46
:10BA180000E0002318460C37BD465DF8047B7047EC
:10BA2800004000080080000800C00008000001086D
:10BA380000000208000004080000060880B483B073
:10BA480000AF78607B68072B2AD801A252F823F050
:10BA580079BA00087FBA000885BA00088BBA0008CE
:10BA680091BA000897BA00089DBA0008A3BA00085E
:10BA78004FF4804315E04FF4804312E04FF48043C5
:10BA88000FE04FF480430CE04FF4803309E04FF4AB
:10BA9800003306E04FF4003303E04FF4003300E0D6
:10BAA800002318460C37BD465DF8047B704700BF7D
:10BAB80080B584B000AF78607B68072B01D9042378
:10BAC80034E0FFF7ADFEFFF7E3FEFFF7F1FE0346B4
:10BAD800FB73FB7B002B03D0FFF7BCFEFB7B25E051
:10BAE800144B1B68134A23F078031360114B1A6830
:10BAF8007B68DB000F4913430B600E4B1B680D4A34
:10BB080043F0020313600B4B1B680A4A43F480336B
:10BB18001360FFF7CDFE0346FB73064B1B68054A0F
:10BB280023F002031360FFF795FEFB7B18461037DE
:10BB3800BD4680BD103C024090B587B000AF78602C
:10BB480039607A683B681344013B3B617B687B61E1
:10BB58007868FFF7D7FE0346002B05D03869FFF752
:10BB6800D1FE0346002B19D104231CE07869FFF7A6
:10BB7800E1FEF860F868FFF79BFF0346FB72FB7A6B
:10BB8800002B01D0FB7A0EE0F868FFF717FF044698
:10BB9800F868FFF753FF034623447B617A693B69E2
:10BBA8009A42E3D9002318461C37BD4690BD0000D1
:10BBB80080B582B000AFFFF733FEFFF769FEFFF7ED
:10BBC80077FE0346FB71FB79002B03D0FFF742FE9B
:10BBD800FB7918E00E4B1B680D4A43F00403136011
:10BBE8000B4B1B680A4A43F480331360FFF760FE6F
:10BBF8000346FB71064B1B68054A23F004031360D8
:10BC0800FFF728FEFB7918460837BD4680BD00BF00
:10BC1800103C024080B584B000AF78600B46FB70E2
:10BC28007868FFF76FFE0346002B01D104232EE04E
:10BC3800FFF7F6FDFFF72CFEFFF73AFE0346FB730E
:10BC4800FB7B002B03D0FFF705FEFB7B1FE0124BAD
:10BC58001B68114A23F4407313600F4B0E4A1B688C
:10BC680013600D4B1B680C4A43F0010313607B689B
:10BC7800FA781A70FFF71CFE0346FB73064B1B6825
:10BC8800054A23F001031360FFF7E4FDFB7B184628
:10BC98001037BD4680BD00BF103C024080B584B05F
:10BCA80000AF78600B467B807868FFF72BFE034671
:10BCB800002B01D1042337E07B6803F00103002B3C
:10BCC80001D0032330E0FFF7ABFDFFF7E1FDFFF7FD
:10BCD800EFFD0346FB73FB7B002B03D0FFF7BAFD98
:10BCE800FB7B21E0124B1B68114A23F4407313605D
:10BCF8000F4B1B680E4A43F4807313600C4B1B6890
:10BD08000B4A43F0010313607B687A881A80FFF7B7
:10BD1800CFFD0346FB73064B1B68054A23F001035E
:10BD28001360FFF797FDFB7B18461037BD4680BDB3
:10BD3800103C024080B584B000AF78603960786804
:10BD4800FFF7E0FD0346002B01D1042337E07B68B1
:10BD580003F00303002B01D0032330E0FFF760FD5D
:10BD6800FFF796FDFFF7A4FD0346FB73FB7B002B53
:10BD780003D0FFF76FFDFB7B21E0134B1B68124AD2
:10BD880023F440731360104B1B680F4A43F400738D
:10BD980013600D4B1B680C4A43F0010313607B686A
:10BDA8003A681A60FFF784FD0346FB73064B1B686D
:10BDB800054A23F001031360FFF74CFDFB7B18468F
:10BDC8001037BD4680BD00BF103C024080B586B02C
:10BDD80000AFF860B9607A6000237B61F868FFF70C
:10BDE80091FD0346002B09D0FA687B681344013B98
:10BDF8001846FFF787FD0346002B01D1042321E0F5
:10BE08007968F86800F0ABF80346002B15D10623D3
:10BE180018E0FA687B69D018BA687B6913441B7804
:10BE28001946FFF7F7FE0346FB74FB7C002B01D095
:10BE3800FB7C07E07B6901337B617A697B689A4206
:10BE4800E7D3002318461837BD4680BD80B588B0B3
:10BE580000AFF860B9607A600023FB61F868FFF70B
:10BE680051FD0346002B09D0FA687B681344013B57
:10BE78001846FFF747FD0346002B01D1042344E091
:10BE8800FB6803F00303002B01D003233DE079682E
:10BE9800F86800F064F80346002B17D1062334E055
:10BEA800BA68FB6913441B687B61FA68FB69134431
:10BEB80079691846FFF73EFF0346FB76FB7E002BA9
:10BEC80001D0FB7E21E0FB690433FB61FB6904338D
:10BED8007A689A42E4D213E0FA68FB69D018BA6823
:10BEE800FB6913441B781946FFF794FE0346FB765B
:10BEF800FB7E002B01D0FB7E07E0FB690133FB6171
:10BF0800FA697B689A42E7D3002318462037BD4672
:10BF180080BD80B487B000AFF860B9607A60FB6814
:10BF28003B6100237B610FE03A697B6913441A780F
:10BF3800B9687B690B441B789A4202D04FF0FF33F3
:10BF480007E07B6901337B617A697B689A42EBD3AE
:10BF5800002318461C37BD465DF8047B704780B443
:10BF680085B000AF786039607B68BB600023FB60F8
:10BF78000AE0BA68FB6813441B78FF2B01D0002342
:10BF880007E0FB680133FB60FA683B689A42F0D32C
:10BF9800012318461437BD465DF8047B704780B509
:10BFA80086B000AFF860B9607A60FB683B61F868FA
:10BFB800FFF7A8FC0346002B09D0FA687B681344F6
:10BFC800013B1846FFF79EFC0346002B01D10423D2
:10BFD80012E000237B610AE03A697B691A44B96878
:10BFE8007B690B4412781A707B6901337B617A692B
:10BFF8007B689A42F0D3002318461837BD4680BDA7
:10C0080080B400AF72B600BFBD465DF8047B7047D0
:10C0180080B400AF62B600BFBD465DF8047B7047D0
:10C0280080B584B000AF78603960FFF7E9FF396800
:10C038007868FFF77FFE0346FB73FFF7E9FFFB7B9A
:10C0480018461037BD4680BD80B483B000AF0346A4
:10C05800FB71FB79023B032B13D801A252F823F0A2
:10C0680079C000087FC0000883C0000887C00008A6
:10C078004FF0804306E0064B04E0064B02E0064B17
:10C0880000E0002318460C37BD465DF8047B704776
:10C098000004004000080040000C004080B584B057
:10C0A80000AF0346FB71FB791846FFF7CDFFF86038
:10C0B800FB79023B032B4ED801A252F823F000BFB4
:10C0C800D9C00008F3C000080DC1000827C1000846
:10C0D800FB68283307221A80FB682C3340F2CF72A2
:10C0E8001A801C20FCF768FA26E0FB682833072230
:10C0F8001A80FB682C3340F2CF721A801D20FCF79F
:10C108005BFA19E0FB68283307221A80FB682C3396
:10C1180040F2CF721A801E20FCF74EFA0CE0FB6842
:10C12800283307221A80FB682C3340F2CF721A801A
:10C138003220FCF741FA00BFFB680C331B889BB226
:10C14800FA680C3243F001039BB21380FB68243376
:10C1580000221A8000E000BF1037BD4680BD00BF36
:10C1680080B584B000AF0346FB71FB791846FFF732
:10C178006BFFF860FB79032B02D0042B05D08EE00F
:10C1880001210320FCF752F904E002210320FCF707
:10C198004DF900BFFB6828330F221A80FB682C3347
:10C1A80040F2E7321A80FB6818331B68FA681832C5
:10C1B80043F060031360FB6818331B68FA68183291
:10C1C80043F008031360FB6820331B68FA682032C9
:10C1D80043F001031360FB6818331B68FA681832D0
:10C1E80043F4C0431360FB6818331B68FA681832BD
:10C1F80043F400631360FB6820331B68FA6820323D
:10C2080043F010031360FB681C331B68FA681C3288
:10C2180043F060031360FB681C331B68FA681C3228
:10C2280043F008031360FB6820331B68FA68203268
:10C2380043F480731360FB681C331B68FA681C3274
:10C2480043F4C0431360FB681C331B68FA681C3254
:10C2580043F400631360FB6820331B68FA682032DC
:10C2680043F480531360FB6834331A460023136089
:10C27800FB6838331A4600231360FB683C331A46C0
:10C2880000231360FB6840331A4600231360FB68E1
:10C298001B889AB2FB6842F0010292B21A801037EA
:10C2A800BD4680BD80B584B000AF0346FB710B4628
:10C2B800BB7113467B71FB791846FFF7C5FEF86022
:10C2C8007B79642B01D964237B71FB682C331B8831
:10C2D8009BB201337A7902FB03F31A4A82FB0312F9
:10C2E8005211DB17D31ABB60BB79013B032B23D850
:10C2F80001A252F823F000BF11C300081DC30008B3
:10C3080029C3000835C30008FB6834331A46BB68E4
:10C31800136012E0FB6838331A46BB6813600CE000
:10C32800FB683C331A46BB68136006E0FB68403381
:10C338001A46BB68136000E000BF00BF1037BD4657
:10C3480080BD00BF1F85EB5180B584B000AF0346A8
:10C35800FB71FB791846FFF777FEF860FB6810332E
:10C368001B889BB2FA68103223F001039BB213803A
:10C37800FB681B889AB2FB6842F0010292B21A80ED
:10C3880000BF1037BD4680BD80B584B000AF0346FE
:10C39800FB71FB791846FFF757FEF860FB681B88AE
:10C3A8009AB2FB6822F0010292B21A8000BF1037DD
:10C3B800BD4680BD80B483B000AF03463960FB71D1
:10C3C800FB79023B032B1BD801A252F823F000BFD4
:10C3D800E9C30008F1C30008F9C3000801C4000854
:10C3E8000B4A3B6813600CE00A4A3B68136008E09C
:10C3F800094A3B68136004E0084A3B68136000E0A0
:10C4080000BF00BF0C37BD465DF8047B704700BF16
:10C41800480100204C010020500100205401002058
:10C4280080B500AF0B4B1B889BB203F00103002BB8
:10C438000ED0084B1B889BB2064A23F001039BB21F
:10C448001380054B1B68002B02D0034B1B689847D1
:10C4580000BF80BD100000404801002080B500AF3B
:10C468000B4B1B889BB203F00103002B0ED0084B2B
:10C478001B889BB2064A23F001039BB21380054B2D
:10C488001B68002B02D0034B1B68984700BF80BD78
:10C49800100400404C01002080B500AF0B4B1B88F6
:10C4A8009BB203F00103002B0ED0084B1B889BB2F4
:10C4B800064A23F001039BB21380054B1B68002B2F
:10C4C80002D0034B1B68984700BF80BD100800408E
:10C4D8005001002080B500AF0B4B1B889BB203F0C6
:10C4E8000103002B0ED0084B1B889BB2064A23F091
:10C4F80001039BB21380054B1B68002B02D0034B32
:10C508001B68984700BF80BD100C004054010020F4
:10C5180080B400AF054B1B68044A43F47F031360E3
:10C5280000BFBD465DF8047B704700BF20ED00E00A
:10C5380080B400AF054B1B68044A43F08053136076
:10C5480000BFBD465DF8047B704700BF04ED00E006
:10C5580080B485B000AF786039600023FB607B68E9
:10C56800BB60FB680133FB60BB681C4A82FB03129B
:10C578009210DB17D31ABB60BB68002BF1DCFB6899
:10C588003A68134400221A701DE07A68134B83FB43
:10C5980002139910D317C91A0B469B000B445B0072
:10C5A800D11ACAB2FB68013BFB60FB6839680B44CF
:10C5B8003032D2B21A707B68084A82FB031292109A
:10C5C800DB17D31A7B607B68002BDEDC00BF00BF63
:10C5D8001437BD465DF8047B704700BF6766666622
:10C5E80080B485B000AF78600023FB6002E0FB6890
:10C5F8000133FB607A68FB6813441B78002BF6D183
:10C60800FB6818461437BD465DF8047B7047000088
:10C6180098B500AF174B1B78072B1BD8154B1B7809
:10C628001A46154B53F82240124B1B781A46124BE8
:10C6380053F822301846FFF7D3FF0346DBB21A46F9
:10C6480021460020FCF7BAFD0A4B1B780133DAB209
:10C65800084B1A70074B1B78082B08D1074B01228F
:10C668001A70044B1B780133DAB2024B1A7000BF00
:10C6780098BD00BF5D010020040000205C0100207F
:10C6880080B483B000AF084B1B687B60074B1B6806
:10C69800054A1360054A7B68136000BF0C37BD4626
:10C6A8005DF8047B704700BF2400002028000020AC
:10C6B80080B586B002AF03460A46FB711346BB71CC
:10C6C80000233B73BB797B7307F10C02F8790023D5
:10C6D800009302233C21FEF71FFD00BF1037BD4623
:10C6E80080BD80B586B002AF03460A46FB7113468B
:10C6F800BB7140233B73BB797B7307F10C02F8795C
:10C708000023009302233C21FEF706FD00BF1037EB
:10C71800BD4680BD80B584B000AF0346FB710023E1
:10C72800FB6002E0FB680133FB60FB68404A934210
:10C73800F8D9FB79AE211846FFF7BAFFFB79D52166
:10C748001846FFF7B5FFFB7980211846FFF7B0FFC1
:10C75800FB79A8211846FFF7ABFFFB793F21184664
:10C76800FFF7A6FFFB79D3211846FFF7A1FFFB7956
:10C7780000211846FFF79CFFFB7940211846FFF778
:10C7880097FFFB79AD211846FFF792FFFB798B21C4
:10C798001846FFF78DFFFB79A1211846FFF788FFA0
:10C7A800FB79C8211846FFF783FFFB79DA21184681
:10C7B800FFF77EFFFB7912211846FFF779FFFB7917
:10C7C80081211846FFF774FFFB7980211846FFF78F
:10C7D8006FFFFB79D9211846FFF76AFFFB791F2104
:10C7E8001846FFF765FFFB79DB211846FFF760FF66
:10C7F800FB7940211846FFF75BFFFB79A421184617
:10C80800FFF756FFFB79A6211846FFF751FF00F006
:10C8180011F8FFF735FFFB79184600F07BF8FB7934
:10C82800AF211846FFF744FF00BF1037BD4680BD53
:10C838009F86010080B483B000AF0023FB8008E02E
:10C84800094B1A68FB88134400221A70FB880133CD
:10C85800FB80FB88B3F5806FF2D300BF00BF0C37B5
:10C86800BD465DF8047B70472400002080B485B085
:10C8780000AF0346FB710B46BB7113467B7197F9FA
:10C888000730002B3DDBBB793F2B3AD8FB799AB2B6
:10C89800BB79DB08DBB29BB2DB019BB21344FB81A3
:10C8A8007B79012B15D11A4B1A68FB8913441B7825
:10C8B8005AB2BB7903F00703012101FA03F35BB213
:10C8C800134359B2124B1A68FB891344CAB21A703F
:10C8D80018E00F4B1A68FB8913441B785AB2BB79CE
:10C8E80003F00703012101FA03F35BB2DB435BB2F8
:10C8F800134059B2064B1A68FB891344CAB21A701E
:10C9080000E000BF1437BD465DF8047B704700BFE8
:10C918002400002080B5A6B002AF0346FB710023B7
:10C9280087F88F3040E097F88F30503BDAB2FB79C8
:10C9380011461846FFF7BCFEFB7902211846FFF79F
:10C94800B7FEFB7910211846FFF7B2FE40233B7370
:10C95800002387F88E3015E0184B1B6897F88F2056
:10C96800D10197F88E200A441A4497F88E30013383
:10C97800127890333B4403F8842C97F88E300133B7
:10C9880087F88E3097F98E30002BE5DA07F10C0224
:10C99800F8790023009381233C21FEF7BDFB97F82B
:10C9A8008F30013387F88F3097F88F30072BBAD93B
:10C9B80000BF00BF9037BD4680BD00BF28000020E3
:10C9C80090B585B000AF0446084611461A4623467E
:10C9D800FB710346BB710B467B7113463B717B7938
:10C9E800FB7314E03B79BB7308E0B97BFB7B012246
:10C9F8001846FFF73BFFBB7B0133BB73BA7BB979A2
:10CA08003B790B449A42F0DBFB7B0133FB73FA7BE7
:10CA1800F9797B790B449A42E4DB00BF00BF1437F5
:10CA2800BD4690BD80B500AFFFF772FDFBF7D6FE9F
:10CA380007494FF4FA60FBF735FF0022054906481D
:10CA480000F038F8054B044A1A6000DFFEE700BF23
:10CA58008BCB000869CA0008C0150020C417002045
:10CA680080B400AF00BFFDE780B582B000AF0346D9
:10CA7800FB71FA790C4913465B0113441B010B4403
:10CA880008331B689847FA79074913465B01134432
:10CA98001B010B44043301221A70044B044A1A6028
:10CAA800FFF746FDE5E700BF60090020C817002032
:10CAB800C015002080B487B000AFF860B960134695
:10CAC800FB71FB6803F500737B617B691A1F7A6150
:10CAD8004FF080721A607B691A1F7A61BA681A600F
:10CAE8007B691A1F7A616FF002021A607B691A1F4C
:10CAF8007A6100221A607B691A1F7A6100221A6023
:10CB08007B691A1F7A6100221A607B691A1F7A6191
:10CB180000221A607B691A1F7A61FA791A607B69A8
:10CB28001A1F7A6100221A607B691A1F7A61002233
:10CB38001A607B691A1F7A6100221A607B691A1FC2
:10CB48007A6100221A607B691A1F7A6100221A60D2
:10CB58007B691A1F7A6100221A607B691A1F7A6141
:10CB680000221A607B691A1F7A6100221A607B69A9
:10CB78001A1DFB681A6000BF1C37BD465DF8047BB0
:10CB8800704780B500AF00F003F800BF80BD00001B
:10CB980080B582B000AF00233B600023FB719AE0B0
:10CBA800FA79554913465B0113441B010B440833BA
:10CBB8001B68002B00F08580FA794F4913465B010A
:10CBC80013441B010B4404331B78032B7BD0FA79E5
:10CBD800494913465B0113441B010B4404331B787A
:10CBE800022B72D0FA79444913465B0113441B01A6
:10CBF8000B4404331B78002B1AD1FA7913465B01D6
:10CC080013441B0108333C4A13441A1D3B4B1B6851
:10CC18009A425CD03B68002B59D1FA7913465B01E4
:10CC280013441B010833344A134404333B604EE079
:10CC3800FA79314913465B0113441B010B44023353
:10CC48001B88013B98B22C4913465B0113441B0116
:10CC58000B44023302461A80FA79274913465B01CE
:10CC680013441B010B4402331B88002B30D1F97984
:10CC7800FA7921480B465B010B441B0103441888D1
:10CC88001D4913465B0113441B010B440233024642
:10CC98001A80FA79184913465B0113441B010B44A7
:10CCA800043300221A703B68002B11D1FA7913461D
:10CCB8005B0113441B0108330F4A134404333B60E0
:10CCC80006E000BF04E000BF02E000BF00E000BFD4
:10CCD800FB790133FB71FB79052B7FF661AF3B686C
:10CCE800002B04D0064A3B681360FFF721FC00BF05
:10CCF8000837BD4680BD00BF60090020C41700206A
:10CD0800C817002080B582B000AF03463A60FB71B7
:10CD18000B46BB80FB79052B01D901233AE03B6820
:10CD2800002B01D1022335E0FA791C4913465B0137
:10CD380013441B010B44BA881A80FA791749134621
:10CD48005B0113441B010B440233BA881A80FA7939
:10CD5800124913465B0113441B010B4408333A681C
:10CD68001A60FA790D4913465B0113441B010B4401
:10CD7800043301221A70FA7913465B0113441B012C
:10CD88000833064A13440433FA7905491846FFF76D
:10CD980091FE002318460837BD4680BD6009002073
:10CDA80071CA000880B483B000AF0346FB71FB79F9
:10CDB800052B01D9012334E0FA791D4913465B019B
:10CDC80013441B010B4408331B68002B01D10223B9
:10CDD80027E0FA79164913465B0113441B010B44FB
:10CDE800083300221A60FA79114913465B0113448B
:10CDF8001B010B44043303221A70FA790C491346B9
:10CE08005B0113441B010B4400221A80FA7908497C
:10CE180013465B0113441B010B44023300221A80A2
:10CE2800002318460C37BD465DF8047B704700BFE9
:10CE38006009002080B483B000AF0346FB71FA7923
:10CE4800074913465B0113441B010B4404330122B9
:10CE58001A7000BF0C37BD465DF8047B704700BFF1
:10CE68006009002080B483B000AF0346FB71FA79F3
:10CE7800074913465B0113441B010B44043300228A
:10CE88001A7000BF0C37BD465DF8047B704700BFC1
:10CE98006009002080B483B000AF0346FB71FA79C3
:10CEA800074913465B0113441B010B440433022258
:10CEB8001A7000BF0C37BD465DF8047B704700BF91
:10CEC80060090020094B186870B1094B196888423D
:10CED8000AD0EFF3098222E9F00F0A6018600268AD
:10CEE800B2E8F00F82F30988704700BFC817002026
:10CEF800C417002008480068006800F1200080F38B
:10CF080009884FF0020080F31488BFF36F8F6FF029
:10CF1800020E704700BF0000C417002080B500AFA4
:10CF28000B2202490120FCF749F9FEE794D70008D3
:10CF380080B500AF112202490120FCF73FF9FEE756
:10CF4800A0D7000880B586B000AF00237B6000231F
:10CF58007B6100233B611B4A1B4BD31A9B107B60F0
:10CF68001A4B7B61184B3B610023FB600AE07A692E
:10CF7800131D7B613B69191D396112681A60FB68D2
:10CF88000133FB60FA687B689A42F0D3104A114B70
:10CF9800D31A9B107B600F4B3B610023BB6007E0FB
:10CFA8003B691A1D3A6100221A60BB680133BB60F5
:10CFB800BA687B689A42F3D300F054F800F042F85C
:10CFC800FEE700BF540000200000002074D80008CD
:10CFD800F41700205400002080B400AFFEE70000E2
:10CFE80080B500AF114A05210020FFF78BFE104ADB
:10CFF8000A210120FFF786FE0E4A14210220FFF7BE
:10D0080081FE0D4A32210320FFF77CFE0B4A642182
:10D018000420FFF777FE0A4A4FF47A710520FFF7DC
:10D0280071FEFFF7FFFC00BF80BD00BFC1D0000844
:10D03800CFD00008DBD00008E9D00008F7D00008FE
:10D0480005D1000880B500AF00F0B4F900F035FA5A
:10D0580000F03EFA00F07AF9FFF7C2FF0023184605
:10D0680080BD000080B500AF1248FBF797F900219A
:10D078000020FBF7DBF901210020FBF7D7F902219B
:10D088000020FBF7D3F911210320FBF7CFF9042186
:10D098000420FBF7CBF908210420FBF7C7F91C2172
:10D0A8000320FBF7C3F90B210320FBF7BFF900BFEF
:10D0B80080BD00BFCC17002080B400AF00BFBD46C4
:10D0C8005DF8047B704780B500AF00F04BFA00BFF5
:10D0D80080BD80B400AF00BFBD465DF8047B7047DB
:10D0E80080B400AF00BFBD465DF8047B704780B5D3
:10D0F80000AFFCF7AFFD00BF80BD000080B500AFFA
:10D10800174B1B780133DAB2154B1A7000F040FA4E
:10D11800134B1A78134BA3FB021399080B469B0079
:10D128000B44D31ADBB2002B01D100F0D1F80C4B21
:10D138001A780C4BA3FB0213D9080B469B000B442F
:10D148005B00D31ADBB2002B01D100F00DF8044BC1
:10D158001B78012B01D100F03BFA00BF80BD00BF56
:10D16800EC170020CDCCCCCC80B500AF1A48FCF72A
:10D17800DFFF062219490120FCF720F8164B1B781F
:10D1880019460120FCF746F8032215490120FCF74F
:10D1980015F8082213490120FCF710F80E4B5B78AC
:10D1A80019460120FCF736F801220F490120FCF747
:10D1B80005F809220D490120FCF700F8064B9B7879
:10D1C80019460120FCF726F8012209490120FBF73E
:10D1D800F5FF00BF80BD00BFE8170020B4D70008E6
:10D1E800BCD70008C0D70008CCD70008D0D70008A3
:10D1F800DCD7000880B500AF0A4B1B780133DAB2E0
:10D20800084B1A70074B1B78642B02D1054B002280
:10D218001A70044B1B781A4602210320FFF742F8C4
:10D2280000BF80BDED17002080B584B000AF00209E
:10D23800FBF76CFE0346FB81FB8940F6E44202FBE8
:10D2480003F31B0BBB60FB89642202FB03F31A4A3E
:10D2580082FB03121A44D212DB17D31AFB71052280
:10D2680016490120FBF7AAFFFB8919460120FBF7A5
:10D27800D1FF062212490120FBF7A0FFBB6819461F
:10D288000120FBF7C7FF0C220E490120FBF796FF90
:10D29800FB7919460120FBF7BDFF03220A4901204B
:10D2A800FBF78CFF022209490120FBF787FF00BF2B
:10D2B8001037BD4680BD00BF81000880E0D7000858
:10D2C800E8D70008F0D7000800D8000804D80008FC
:10D2D80080B584B000AF1020FBF718FE0346FB8131
:10D2E800FB8940F6E44203FB02F2144BA3FB021352
:10D2F800D21A52081344DB0ABB60BB68C3F53E72FE
:10D3080013469B0013445B000D4A82FB0312D210A4
:10D31800DB17D31A19337B600F220A490120FBF768
:10D328004DFF79680120FBF775FF042206490120AB
:10D33800FBF744FF00BF1037BD4680BD0101100058
:10D348001F85EB5108D8000818D8000880B500AF31
:10D35800134A14490020FBF797FE114A124901208D
:10D36800FBF792FEFBF722FD0320FEF7F9FE0F48BC
:10D37800FCF7E8FDFDF764FA0346002B02D10C48E0
:10D38800FCF784FE4FF4FA4203217820FCF770FC86
:10D39800034619460320FCF723FC00BF80BD00BFED
:10D3A8000024F4002C000020380000204400002055
:10D3B800D817002080B582B002AF00230193022362
:10D3C80000930023012205210020FBF715FB002311
:10D3D8000193032300930023022208210020FBF776
:10D3E8000BFB00230193032300930023022209214E
:10D3F8000020FBF701FB0023019303230093002384
:10D4080002220A210020FBF7F7FA002301930323E5
:10D4180000930023022202210020FBF7EDFA0023EB
:10D428000193032300930023022203210020FBF72A
:10D43800E3FA072209210020FBF7DEFB07220A2175
:10D448000020FBF7D9FB072202210020FBF7D4FBC1
:10D45800072203210020FBF7CFFB002301930223BF
:10D4680000930023032200210020FBF7C5FA0023C4
:10D478000193022300930023032201210020FBF7DC
:10D48800BBFA002301930323009300230222072100
:10D498000220FBF7B1FA022207210220FBF7ACFBBE
:10D4A8000123019302230093002300220321022079
:10D4B800FBF7A2FA00BFBD4680BD80B500AF2520AE
:10D4C800FBF77AF82620FBF777F800BF80BD00004D
:10D4D80080B500AF0348FBF7C5FE0348FBF7D4FE51
:10D4E80000BF80BD75D600080DD6000880B400AF17
:10D4F800034B01221A7000BFBD465DF8047B7047DC
:10D50800E417002080B400AF034B00221A7000BF5C
:10D51800BD465DF8047B7047E417002080B582B0F3
:10D5280002AF002301930223009300230122032169
:10D538000220FBF761FA002203210220FBF7DFFA41
:10D5480000BFBD4680BD80B582B000AF0423FB712B
:10D55800FB1D012219460020FBF730FE00BF0837EB
:10D56800BD4680BD80B500AF044B1B781A46052127
:10D578000020FBF7C4FA00BF80BD00BFE4170020FD
:10D5880080B400AF00BFBD465DF8047B7047000063
:10D5980080B500AF0E220B490120FBF70FFE0A4BA6
:10D5A8001B6819460120FBF735FE022207490120B6
:10D5B800FBF704FE044B1B680133034A136000BFEA
:10D5C80080BD00BF20D80008F017002004D800084C
:10D5D80080B500AF192208490120FBF7EFFD0522AD
:10D5E80006490120FBF7EAFD022205490120FBF765
:10D5F800E5FD00BF80BD00BF30D800086CD800082A
:10D6080004D8000880B582B000AF0346FB71FB79EF
:10D61800052B11DC002B24DD013B042B21D801A2B2
:10D6280052F823F047D600084DD6000853D6000814
:10D6380059D600085FD60008A12B0FD011E0FFF7DC
:10D6480055FF0FE0FFF75EFF0CE0FFF767FF09E00B
:10D65800FFF779FF06E0FFF787FD03E0FFF7B8FF64
:10D6680000E000BF00BF0837BD4680BD80B582B06E
:10D6780000AF0346FB71FB79052B11DC002B26DD7F
:10D68800013B042B23D801A252F823F0AFD600089F
:10D69800B5D60008BBD60008D7D60008C1D6000802
:10D6A800A12B0CD013E0FFF721FF11E0FFF72AFFB1
:10D6B8000EE0FFF733FF0BE0FFF756FD08E0052209
:10D6C80005490020FBF77AFDFFF782FF00E000BF65
:0CD6D80000BF0837BD4680BD6CD80008BC
:10D6E4002D0000003000000041540D0A000000002D
:10D6F40041542B43574D4F44453D310D0A00000022
:10D7040041542B43574A41503D225A7A5A7A222C8B
:10D714002245736D61696C5F313232303031220DD4
:10D724000A00000041542B43494653520D0A00009D
:10D7340041542B50494E473D22382E382E382E382E
:10D74400220D0A0041542B43495053544152543D35
:10D7540022544350222C226578616D706C652E63CF
:10D764006F6D222C38300D0A0000000041542B4309
:10D77400495053454E443D31380D0A004745542025
:10D784002F20485454502F312E310D0A0D0A000019
:10D79400486172644661756C740D0A004D656D4D87
:10D7A400616E616765204661756C740D0A00000046
:10D7B400486F75723A200000092009004D696E75A2
:10D7C40074733A2000000000090000005365636F81
:10D7D4006E64733A200000000A0000005241573A78
:10D7E40020000000207C20563A2000006D56207C4A
:10D7F400204C696768743A2000000000250D0A0077
:10D804000D0A0000496E7465726E616C2054656D7A
:10D81400703A200020430D0A000000004C69666540
:10D8240020636F756E7465723A20000053544D2066
:10D834004170706C69636174696F6E2056657273B0
:10D84400696F6E3A200000000400080010002000F8
:10D8540040008000000100000054004000580040D7
:10D86400005C004000000220312E302E3500000004
:10D8740001000000ECD60008F4D6000804D7000824
:10D8840028D7000834D7000848D7000870D7000804
:10D8940080D70008600100206005002000C201005C
:10D8A4000C0000002000000000C201000C00000079
:10D8B4002000000002000000630000003F0100009F
:04D8C4000000000060
:0400000508008178F6
:00000001FF
