:020000040800F2
:10800000000002200DE50008A1E50008E5E40008F5
:10801000F9E40008A1E50008A1E50008000000005F
:10802000000000000000000000000000BDE40008A7
:10803000A1E50008000000008DE400088D8900081B
:10804000A1E50008A1E50008A1E50008A1E50008F8
:10805000A1E50008A1E50008A1E50008A1E50008E8
:10806000A1E50008A1E50008A1E50008A1E50008D8
:10807000A1E50008A1E50008A1E50008A1E50008C8
:10808000A1E50008A1E50008A1E50008A1E50008B8
:10809000A1E50008A1E50008A1E50008A1E50008A8
:1080A000A1E50008A1E50008A1E50008A1E5000898
:1080B000EDC6000829C7000865C7000899BA00087E
:1080C000A7BA0008B5BA0008C3BA0008A1E50008BD
:1080D000A1E50008099400080193000885930008B1
:1080E000A1E50008A1E50008A1E50008A1E5000858
:1080F000A1E50008A1E50008A1E50008A1E5000848
:10810000A1E50008A1E50008A1C70008A1E5000855
:10811000A1E50008A1E5000849AF000885AF000807
:10812000A1E50008A1E50008A1E50008A1E5000817
:10813000A1E50008A1E50008A1E50008A1E5000807
:10814000A1E50008A1E50008A1E50008A1E50008F7
:10815000A1E50008A1E50008D1BA0008DFBA0008CF
:10816000A1E50008A1E50008A1E50008A1E50008D7
:08817000A1E50008A1E50008EB
:1081780080B400AF094B1B68084A43F00103136041
:1081880000BF064B1B685B0803F00103002BF8D007
:1081980000BF00BFBD465DF8047B70470038024051
:1081A80080B400AF0C4B1B680B4A43F48023136068
:1081B800094B1B68084A43F48033136000BF064B21
:1081C8001B685B0C03F00103002BF8D000BF00BF55
:1081D800BD465DF8047B70470038024080B400AFAC
:1081E800094B1B68084A43F08073136000BF064BB5
:1081F8001B685B0E03F00103002BF8D000BF00BF23
:10820800BD465DF8047B70470038024080B400AF7B
:10821800094B1B68084A23F08073136000BF064BA4
:108228001B685B0E03F00103002BF8D100BF00BFF1
:10823800BD465DF8047B70470038024080B483B0C7
:1082480000AF0346FB71134B1B68124A43F4E0630B
:1082580043F005031360104B1B680F4A23F0030318
:1082680013600D4B1A68FB7903F003030A491343A3
:108278000B6000BF084B1B689B0803F00302FB79E7
:108288009A42F7D100BF00BF0C37BD465DF8047BAA
:10829800704700BF003C02400838024080B584B0F7
:1082A80000AF7860FFF7B2FF0023FB607B685B7864
:1082B80003F03F03FA681343FB607B685B889B010C
:1082C8001A4647F6C0731340FA681343FB607B688D
:1082D8001B795B08DBB2013B1B0403F44033FA68EB
:1082E8001343FB607B681B789B051A46FB681343A6
:1082F800FB607B685B791B0603F07063FA681343C5
:10830800FB60034AFB68136000BF1037BD4680BDA1
:108318000438024080B483B000AF0346FB710A4BB7
:108328001B68094A23F0F0031360074B1B68FA79AE
:1083380012011146044A0B43136000BF0C37BD46B7
:108348005DF8047B704700BF0838024080B483B0F2
:1083580000AF0346FB710A4B1B68094A23F4E0533C
:108368001360074B1B68FA7992021146044A0B43C3
:10837800136000BF0C37BD465DF8047B704700BF33
:108388000838024080B483B000AF0346FB710A4B43
:108398001B68094A23F460431360074B1B68FA798A
:1083A80052031146044A0B43136000BF0C37BD4605
:1083B8005DF8047B704700BF0838024080B582B082
:1083C80000AF78607B68002B3ED07B681B78022B5F
:1083D80012D0022B3ADC002B02D0012B06D035E05C
:1083E800FFF7C6FE0020FFF729FF30E0FFF7D8FEB1
:1083F8000120FFF723FF2AE0FFF7BAFE0020FFF76E
:108408001DFF7B689B78012B02D1FFF7C9FE01E0B5
:10841800FFF7AEFE7B6802331846FFF73FFFFFF712
:10842800DDFE7B681B7A1846FFF774FF7B685B7A72
:108438001846FFF78BFF7B689B7A1846FFF7A2FF69
:108448000220FFF7FBFE02E000BF00E000BF083794
:10845800BD4680BD80B483B000AF03460A46FB71B9
:108468001346BB71FB79042B43D801A252F823F0C1
:108478008D840008A3840008B9840008CF8400080C
:10848800E58400081E4B1B68BA79012101FA02F243
:1084980011461B4A0B4313602CE01A4B1B68BA7930
:1084A800012101FA02F21146164A0B43136021E03A
:1084B800154B1B68BA79012101FA02F21146124ADA
:1084C8000B43136016E0114B1B68BA79012101FABE
:1084D80002F211460D4A0B4313600BE00C4B1B686C
:1084E800BA79012101FA02F21146094A0B431360D5
:1084F80000E000BF00BF0C37BD465DF8047B704745
:10850800303802403438024038380240403802409F
:108518004438024080B483B000AF03460A46FB717A
:108528001346BB71FB79042B48D801A252F823F0FB
:108538004D850008658500087D850008958500083B
:10854800AD850008214B1B68BA79012101FA02F2B6
:10855800D24311461D4A0B40136030E01C4B1B6888
:10856800BA79012101FA02F2D2431146184A0B40A6
:10857800136024E0174B1B68BA79012101FA02F253
:10858800D2431146134A0B40136018E0124B1B6884
:10859800BA79012101FA02F2D24311460E4A0B4080
:1085A80013600CE00D4B1B68BA79012101FA02F245
:1085B800D2431146094A0B40136000E000BF00BFD8
:1085C8000C37BD465DF8047B704700BF3038024069
:1085D80034380240383802404038024044380240BB
:1085E80080B485B000AF0346FB710023FB73FB79B1
:1085F8001F2B05D8FB7901229A400C4B1A600DE01D
:10860800FB793B2B08D8FB79203BFB71FB790122D6
:108618009A40074B1A6001E00123FB73FB7B184665
:108628001437BD465DF8047B704700BF00E100E0E9
:1086380004E100E080B485B000AF0346FB7100237D
:10864800FB73FB791F2B05D8FB7901229A400C4B51
:108658001A600DE0FB793B2B08D8FB79203BFB71B6
:10866800FB7901229A40074B1A6001E00123FB7352
:10867800FB7B18461437BD465DF8047B704700BF86
:1086880080E100E084E100E080B485B000AF0346FB
:10869800FB710023FB73FB791F2B05D8FB790122A3
:1086A8009A400C4B1A600DE0FB793B2B08D8FB79FC
:1086B800203BFB71FB7901229A40074B1A6001E0CD
:1086C8000123FB73FB7B18461437BD465DF8047B1A
:1086D800704700BF00E200E004E200E080B485B02B
:1086E80000AF0346FB710023FB73FB791F2B05D8F2
:1086F800FB7901229A400C4B1A600DE0FB793B2B69
:1087080008D8FB79203BFB71FB7901229A40074B83
:108718001A6001E00123FB73FB7B18461437BD4642
:108728005DF8047B704700BF80E200E084E200E06F
:1087380080B485B000AF03463960FB710023FB733A
:10874800FB791F2B0BD8134B1A68FB7922FA03F31A
:10875800DBB203F00103DAB23B681A7013E0FB796D
:108768003B2B0ED8FB79203BFB710B4B1A68FB792E
:1087780022FA03F3DBB203F00103DAB23B681A70A2
:1087880001E00123FB73FB7B18461437BD465DF8F7
:10879800047B704700E300E004E300E080B485B0A8
:1087A80000AF0346FB710B46BB7113467B71134B3D
:1087B800134A1A600223FB7397F90730002B16DB64
:1087C80097F90730002B12DBBA79FB7B02FA03F327
:1087D8005AB297F9053013435BB2DAB297F907300A
:1087E80003F1604303F564431201D2B21A7000BF6B
:1087F8001437BD465DF8047B704700BF0CED00E000
:108808000005FA0580B400AF044A13686FF38203C9
:10881800136000BFBD465DF8047B704710E000E0C0
:1088280080B584B000AF78607B6845F2E47202FBE3
:1088380003F3FB600C4B00221A600C4AFB681360C0
:108848000B4A136843F00103136000BF084B1B6811
:10885800C3F30043DBB2002BF8D000F069F800BF87
:108868001037BD4680BD00BF18E000E014E000E00E
:1088780010E000E080B485B000AF78603960012373
:10888800FB733B68002B02D10223FB7311E000232A
:10889800FB730B4A3B6813600A4A7B6813600A4AF9
:1088A800136843F002031360074A136843F0010397
:1088B8001360FB7B18461437BD465DF8047B704790
:1088C8007000002014E000E010E000E080B485B003
:1088D80000AF786039600123FB733B68002B02D13D
:1088E8000223FB7315E00023FB730D4A3B681360FA
:1088F8000C4A7B68013B13600B4B00221A600B4A41
:10890800136843F002031360084A136843F0010335
:108918001360FB7B18461437BD465DF8047B70472F
:108928007000002014E000E018E000E010E000E033
:1089380080B400AF044A13686FF30003136000BFEC
:10894800BD465DF8047B704710E000E080B400AFDE
:10895800044B1A68044B1B68D31A1846BD465DF8C9
:10896800047B704714E000E018E000E080B400AF3A
:10897800034B1B681846BD465DF8047B704700BF73
:1089880018E000E080B500AF024B1B68984700BFB5
:1089980080BD00BF7000002080B483B000AF0346E4
:1089A800FB71FB79072B23D801A252F823F000BFF3
:1089B800D9890008DD890008E1890008E5890008EF
:1089C800E9890008ED890008F1890008F58900089F
:1089D8000B4B0EE00B4B0CE00B4B0AE00B4B08E08B
:1089E8000B4B06E00B4B04E00B4B02E00B4B00E09B
:1089F800002318460C37BD465DF8047B704700BF5E
:108A0800000002400004024000080240000C02403E
:108A1800001002400014024000180240001C0240EE
:108A280090B585B000AF0446084611461A4623465D
:108A3800FB710346BB710B467B7113463B71FB7997
:108A48001846FFF7A9FFF860FB68002B01D1012346
:108A580065E0BB790F2B01D9022360E0FB681B6836
:108A6800BA795200032101FA02F2D2431A40FB6894
:108A78001A60FB681B687A7902F00301BA79520020
:108A880001FA02F21A43FB681A607B79012B02D0C3
:108A98007B79022B12D1FB685B68BA79012101FA54
:108AA80002F2D2431A40FB685A60FB685B68397966
:108AB800BA7901FA02F21A43FB685A60FB689B68AC
:108AC800BA795200032101FA02F2D2431A40FB6834
:108AD8009A60FB689B6897F8202002F00301BA7936
:108AE800520001FA02F21A43FB689A60FB68DB68DD
:108AF800BA795200032101FA02F2D2431A40FB6804
:108B0800DA60FB68DB6897F8242002F00301BA7981
:108B1800520001FA02F21A43FB68DA600023184691
:108B28001437BD4690BD80B584B000AF0346FB71D5
:108B38000B46BB7113467B71FB791846FFF72CFF78
:108B4800F860FB68002B01D1012318E0BB790F2BDB
:108B580001D9022313E07B79012B07D1BB790122CC
:108B680002FA03F31A46FB689A6107E0BB791033EF
:108B7800012202FA03F31A46FB689A610023184699
:108B88001037BD4680BD80B584B000AF03460A46A5
:108B9800FB711346BB71FB791846FFF7FDFEF860C1
:108BA800FB68002B01D101230EE0BB790F2B01D903
:108BB800022309E0FB685B69BA79012101FA02F234
:108BC8005A40FB685A61002318461037BD4680BDDD
:108BD80080B584B000AF03463A60FB710B46BB71A9
:108BE800FB791846FFF7D8FEF860FB68002B01D127
:108BF800012310E0BB790F2B01D902230BE0FB689E
:108C08001A69BB7922FA03F3DBB203F00103DAB283
:108C18003B681A70002318461037BD4680BD000017
:108C280080B487B000AF0346FB710B46BB71134697
:108C38007B71FB79072B68D801A252F823F000BF9B
:108C4800698C00086F8C0008758C00087B8C000804
:108C5800818C0008878C00088D8C0008938C000894
:108C68002D4B7B6114E02D4B7B6111E02C4B7B611C
:108C78000EE02C4B7B610BE02B4B7B6108E02B4B10
:108C88007B6105E02A4B7B6102E02A4B7B6100BFD8
:108C98007B6920333B617B692433FB60BB79072BFD
:108CA80018D8BB799B00BB723B691B68BA7A0F2145
:108CB80001FA02F2D2431A403B691A603B691B6809
:108CC8007A7902F00F01BA7A01FA02F21A433B6983
:108CD8001A601BE0BB79083BDBB29B00FB72FB68A8
:108CE8001B68FA7A0F2101FA02F2D2431A40FB6894
:108CF8001A60FB681B687A7902F00F01FA7A01FAA8
:108D080002F21A43FB681A6000E000BF1C37BD4638
:108D18005DF8047B704700BF000002400004024079
:108D280000080240000C02400010024000140240FB
:108D380000180240001C024080B485B000AF034612
:108D48000A46FB711346BB71FB79092B19D81F4BD7
:108D58001968FA7913465B001344072202FA03F3F1
:108D6800DB431A4A0B401360184B1968B879FA7933
:108D780013465B00134400FA03F3144A0B431360D1
:108D88001EE0FB79122B1BD8FB791A4652001344BC
:108D9800DBB21E3BFB730E4B1B68FA7B072101FA03
:108DA80002F2D24311460A4A0B401360084B1B6873
:108DB800B979FA7B01FA02F21146054A0B431360AE
:108DC80000BF1437BD465DF8047B70471020014092
:108DD8000C20014080B582B000AF344B1B68334A89
:108DE80023F440331360314B1B68304A43F480331B
:108DF80013602F4B1B682E4A23F0010313602D4B81
:108E08001B682C4A23F0407313602A4B294A1B68BD
:108E18001360274B1B68264A23F002031360244B78
:108E28001B68234A43F480631360214B1B68204A64
:108E380023F4006313601D4B1B681C4A23F4800352
:108E480013601A4B1B68194A43F400031360194B4B
:108E58001B68184A23F480731360174B1B68164A63
:108E680023F4700313600023FB7107E0FB790721EB
:108E78001846FFF761FFFB790133FB71FB79122B71
:108E8800F4D90B4B1B680A4A43F001031360002313
:108E98003B6002E03B6801333B603B68074A934212
:108EA800F8D900BF00BF0837BD4680BD0423014084
:108EB80008200140042001402C2001409F86010029
:108EC80080B483B000AF0346FB71154B1B68144A8E
:108ED80023F022031360FB79124A03F01F03136087
:108EE800114B1B68104A23F4700313600F4B1B6867
:108EF8000E4A43F08043136000BF094B1B6803F020
:108F08000203002BF9D00A4B1B689BB2C3F30B0377
:108F18009BB218460C37BD465DF8047B704700BF0E
:108F280000200140342001402C200140082001404D
:108F38004C20014080B586B000AF0346FB7100238A
:108F48007B610023FB7415E0FB791846FFF7B8FF37
:108F580003461A467B6913447B610023FB6002E0E9
:108F6800FB680133FB60FB68B3F5FA7FF8D3FB7C41
:108F78000133FB74FB7C3F2BE6D97B699B099BB2D1
:108F880018461837BD4680BD80B584B000AF03468B
:108F9800FB71FB791846FFF7CDFF0346FB81FB8980
:108FA80040F6E44202FB03F31B0B18461037BD469C
:108FB80080BD80B582B000AF03460A46FB711346F8
:108FC800BB71BA79FB7911461846FFF7B5FE00BFA9
:108FD8000837BD4680BD000080B485B000AF0346A9
:108FE800FB710023FB60FB79022B0CD0022B0DDCFC
:108FF800002B02D0012B03D008E0084BFB6006E0F1
:10900800074BFB6003E0074BFB6000E000BFFB6819
:1090180018461437BD465DF8047B704700100140C0
:10902800004400400048004080B586B000AF0346C9
:109038003960FB710023FB751DE03A681B4B83FB0D
:1090480002139910D317C91A0B469B000B445B00F7
:10905800D11ACAB2FB7D591CF9753032D2B2183315
:109068003B4403F80C2C3B68104A82FB0312921015
:10907800DB17D31A3B603B68002BDEDCFB7DBB753E
:109088000CE0BB7D013B07F10C02D118FB790122F2
:10909800184600F0A7F8BB7D013BBB75BB7D002BD4
:1090A800EFD100BF00BF1837BD4680BD6766666652
:1090B80080B586B000AF0346B9607A60FB73BB68C1
:1090C800002B00F08B80FB7B1846FFF785FF78614B
:1090D8007B690C331B687A690C3223F400531360E4
:1090E800BB681B685A087B681A44BB681B68B2FBDC
:1090F800F3F33B617B6908331A463B691360BB682D
:10910800DB79012B08D17B690C331B687A690C3237
:1091180043F48053136007E07B690C331B687A695A
:109128000C3223F480531360BB685B79002B08D1A1
:109138007B690C331B687A690C3223F480631360F3
:109148001CE07B690C331B687A690C3243F480633A
:109158001360BB685B79022B08D17B690C331B68F1
:109168007A690C3243F40073136007E07B690C33AF
:109178001B687A690C3223F4007313607B6910331F
:109188001B687A69103223F4405313607B691033EB
:109198001B68BA689279120311467A6910320B4338
:1091A80013607B690C331B68BA68127A11467A69B6
:1091B8000C320B4313607B690C331B68BA68127955
:1091C80011467A690C320B4313607B690C331B68B8
:1091D8007A690C3243F40053136000E000BF18377B
:1091E800BD4680BD80B584B000AF03463960FB71D1
:1091F8001346BB71FB791846FFF7EEFEB8600023F3
:10920800FB7311E000BFBB681B68DB0903F00103B7
:10921800002BF8D0FB7B3A6813441A78BB680433F8
:109228001A60FB7B0133FB73FA7BBB799A42E9D363
:1092380000BF00BF1037BD4680BD000080B582B0BA
:1092480000AF03463960FB713B68002B08DAFB79F5
:1092580001220C491846FFF7C5FF3B685B423B609B
:109268003B68002B06D1FB79012207491846FFF716
:10927800B9FF04E0FB7939681846FFF7D5FE0837CF
:10928800BD4680BDF4F70008F8F7000880B483B045
:1092980000AF78607B68002B02D0044A7B681360BB
:1092A80000BF0C37BD465DF8047B7047780000208E
:1092B80080B483B000AF78607B68002B02D0044A8A
:1092C8007B68136000BF0C37BD465DF8047B7047B0
:1092D8007C00002080B483B000AF78607B68002BEE
:1092E80002D0044A7B68136000BF0C37BD465DF8A6
:1092F800047B70478000002080B586B000AF012055
:10930800FFF76AFE78617B691B683B613B6903F084
:109318002003002B0BD07B6904331B68DAB2154B92
:109328001A70154B1B68134A1278104698473B6908
:1093380003F00803002B07D07B691B68FB607B697F
:1093480004331B68FB60FB683B6903F00403002BD4
:1093580003D07B691B68BB60BB683B6903F00203F1
:10936800002B03D07B691B687B607B6800BF1837C4
:10937800BD4680BD740000207C00002080B586B00A
:1093880000AF0220FFF728FE78617B691B683B610C
:109398003B6903F02003002B0BD07B6904331B6867
:1093A800DAB2154B1A70154B1B68134A127810461F
:1093B80098473B6903F00803002B07D07B691B68BB
:1093C800FB607B6904331B68FB60FB683B6903F047
:1093D8000403002B03D07B691B68BB60BB683B6937
:1093E80003F00203002B03D07B691B687B607B685A
:1093F80000BF1837BD4680BD7400002080000020E3
:1094080080B586B000AF0020FFF7E6FD78617B6984
:109418001B683B613B6903F02003002B0BD07B6981
:1094280004331B68DAB2154B1A70154B1B68134AC4
:109438001278104698473B6903F00803002B07D0C1
:109448007B691B68FB607B6904331B68FB60FB68F6
:109458003B6903F00403002B03D07B691B68BB60E6
:10946800BB683B6903F00203002B03D07B691B68D0
:109478007B607B6800BF1837BD4680BD7400002044
:109488007800002080B400AFBFF34F8F30BF00BF1B
:10949800BD465DF8047B704780B400AFBFF34F8FC3
:1094A80020BF00BFBD465DF8047B704780B582B021
:1094B80000AF0346FB71094B1B68084A23F00403FD
:1094C8001360FB79002B02D1FFF7DCFF01E0FFF707
:1094D800E3FF00BF0837BD4680BD00BF10ED00E0C8
:1094E80080B400AF054B1B68044A43F002031360C5
:1094F80000BFBD465DF8047B704700BF10ED00E07B
:1095080080B400AF054B1B68044A23F002031360C4
:1095180000BFBD465DF8047B704700BF10ED00E05A
:1095280080B582B000AF0346FB710B46BB71134692
:109538007B711F4B1B681E4A23F002031360FB79E3
:10954800012B06D11A4B1B68194A43F0010313601B
:1095580005E0174B1B68164A23F001031360BB791B
:10956800002B06D0124B1B68114A43F4007313609A
:1095780005E00F4B1B680E4A23F4007313600D4B74
:109588001B680C4A43F0040313607B79002B02D15B
:10959800FFF778FF01E0FFF77FFF064B1B68054ADE
:1095A80023F00403136000BF0837BD4680BD00BF29
:1095B8000070004010ED00E080B500AF0A4B1B685A
:1095C800094A43F002031360074B1B68064A43F03D
:1095D8000C031360054B1B68044A43F00403136033
:1095E800FFF750FFFEE700BF0070004010ED00E0FD
:1095F80080B483B000AF0346FB71FB79012B06D121
:109608000A4B1B68094A43F48073136008E0FB792E
:10961800022B05D1054B1B68044A43F40073136001
:1096280000BF0C37BD465DF8047B704704700040EE
:1096380080B483B000AF0346FB71FB79012B06D1E0
:109648000A4B1B68094A23F48073136008E0FB790E
:10965800022B05D1054B1B68044A23F400731360E1
:1096680000BF0C37BD465DF8047B704704700040AE
:1096780080B400AF064B1B6803F00203002B01D037
:10968800012300E000231846BD465DF8047B7047BF
:109698000470004080B400AF054B1B68DBB203F0D8
:1096A8000103DBB21846BD465DF8047B704700BF76
:1096B8000470004080B400AF054B1B68044A43F0B7
:1096C8000C03136000BFBD465DF8047B704700BF04
:1096D8000070004080B485B000AF0346FB710C4BAE
:1096E8001B68FB60FB6823F0E003FB60FB795B0110
:1096F800FA681343FB60FB6843F01003FB60044AFD
:10970800FB68136000BF1437BD465DF8047B7047E3
:109718000070004080B400AF054B1B68044A23F07A
:109728001003136000BFBD465DF8047B704700BF9F
:109738000070004080B400AF064B1B6803F00403C0
:10974800002B01D0012300E000231846BD465DF838
:10975800047B70470470004080B485B000AF0346B6
:109768000A46FB711346BB71FB79012B01D1094BEA
:1097780000E0094BFB60BA7913465B001344DB0039
:109788001033FA68134418461437BD465DF8047B55
:10979800704700BF006002400064024080B485B09A
:1097A80000AF78607B6803F00303FB60FA68134638
:1097B8005B0013445B0018461437BD465DF8047B14
:1097C8007047000080B586B000AF03460A46FB71BB
:1097D8001346BB71FB79012B01D10F4B00E00F4BF6
:1097E8003B61BB79FB60FB68032B03D83B691B68B3
:1097F8007B6102E03B695B687B61F868FFF7CEFF3D
:10980800B8607A69BB6822FA03F303F03F0318468D
:109818001837BD4680BD00BF0060024000640240AA
:1098280080B586B000AF03463A60FB710B46BB714A
:10983800FB79012B01D10F4B00E00F4B7B61BB790A
:109848003B613869FFF7AAFFF8603B6803F03F0205
:10985800FB6802FA03F3BB603B69032B03D87B69FF
:10986800BA689A6002E07B69BA68DA6000BF1837A4
:10987800BD4680BD006002400064024080B483B0F1
:1098880000AF00237B601CE000233B6013E012491B
:109898007B68DA003B681344002241F833200E4904
:1098A8007B68DA003B681344DB000B4400225A60F3
:1098B8003B6801333B603B68072BE8DD7B6801337D
:1098C8007B607B68012BDFDD00BF00BF0C37BD4626
:1098D8005DF8047B704700BF8400002080B584B029
:1098E80000AF78607B68002B02D14FF0FF3392E025
:1098F8007B681A787B685B7819461046FFF72CFF5F
:10990800B860BB681B6803F00103002B02D06FF03E
:10991800010380E0BB6800221A60BB6821225A61FB
:109928007B6893F82730002B0CD0BB685B6943F049
:109938000402BB685A61BB685B6943F00102BB68FB
:109948005A6105E0BB685B6923F00402BB685A6191
:109958007B68DA68BB689A607B681A69BB68DA60FA
:109968007B685A69BB685A600023FB607B685B6848
:109978005B0603F06063FA681343FB607B681B7A3D
:10998800022B0AD0022B0EDC002B0BD0012B0AD1A4
:10999800FB6843F04003FB6005E0FB6843F080038D
:1099A800FB6000E000BF7B6893F82530002B03D0F4
:1099B800FB6843F48063FB607B6893F82430002BDA
:1099C80003D0FB6843F40073FB607B68DB6903F436
:1099D800C043FA681343FB607B689B6903F4C05378
:1099E800FA681343FB607B681B6A03F44033FA6828
:1099F8001343FB607B6893F82630002B03D0FB6889
:109A080043F48073FB60FB6843F01403FB60BB689E
:109A1800FA681A60002318461037BD4680BD80B525
:109A280084B000AF78607B68002B02D14FF0FF3321
:109A38002CE07B681A787B685B7819461046FFF73C
:109A48008BFEF860FB681B6803F00103002B02D053
:109A58006FF001031AE07B68DA68FB689A607B683C
:109A68001A69FB68DA607B685A69FB685A607B6828
:109A780018787B685B783F221946FFF7D1FEFB68B0
:109A88001B6843F00102FB681A6000231846103770
:109A9800BD4680BD80B584B000AF03460A46FB7161
:109AA8001346BB71BA79FB7911461846FFF754FE85
:109AB800F860FB681B6823F00102FB681A6000E08D
:109AC80000BFFB681B6803F00103002BF8D1B979CC
:109AD800FB793F221846FFF7A3FE00BF1037BD46AB
:109AE80080BD000080B485B000AFBA607B600346DB
:109AF800FB730B46BB73BB68002B1DD0FB7B012B94
:109B080014BF01230023DBB21A46BB7B0D49D200E8
:109B18001344BA6841F83320FB7B012B14BF01239F
:109B28000023DBB21A46BB7B0649D2001344DB0094
:109B38000B447A685A6000E000BF1437BD465DF8F0
:109B4800047B70478400002080B588B000AF0346CE
:109B58000A46FB711346BB71BA79FB791146184660
:109B6800FFF730FEF8610223BB6108237B61FA69C5
:109B7800BB691340002B1DD0B979FB793E221846EA
:109B8800FFF74EFEFB79012B14BF01230023DBB244
:109B98001A46BB79D2001344DB001A4A13443B61CE
:109BA8003B691B68002B05D03B691B683A69526802
:109BB80010469847FA697B691340002B1DD0B97984
:109BC800FB793E221846FFF72BFEFB79012B14BFC9
:109BD80001230023DBB21A46BB79D2001344DB0011
:109BE800084A1344FB60FB681B68002B05D0FB6820
:109BF8001B68FA6852681046984700BF2037BD4670
:109C080080BD00BF8400002080B483B000AF03464D
:109C18000A46FB711346BB80144B45F255521A6035
:109C280000BF134B1B6803F00103002BF9D1FB792C
:109C3800104A03F00703136000BF0D4B1B6803F0C5
:109C48000203002BF9D1BB880B4AC3F30B03136043
:109C5800064B4AF6AA221A60044B4CF6CC421A600C
:109C680000BF0C37BD465DF8047B704700300040EC
:109C78000C300040043000400830004080B400AF91
:109C8800044B4AF6AA221A6000BFBD465DF8047B61
:109C9800704700BF0030004080B487B000AFF86064
:109CA8000B467A60FB72FB7A062B02D87B68002B86
:109CB80002D140F6FF731FE0FB7A124A32F81330E4
:109CC8003B617A683B69B2FBF3F3FA6802FB03F382
:109CD8000D4AA2FB03239B097B617B69002B02D001
:109CE8007B69013B7B617B69B3F5805F02D340F6FA
:109CF800FF737B617B699BB218461C37BD465DF8D4
:109D0800047B704780FB0008D34D621080B485B097
:109D180000AF78607B68002B23D00023FB607B6852
:109D28001B78DB0103F4C073FA681343FB607B689C
:109D38005B7803F07F03FA681343FB607B68DB788A
:109D4800002B03D0FB6843F40073FB60084AFB68F0
:109D580013607B689B7863F07F03DAB2054B1A6067
:109D680000E000BF1437BD465DF8047B704700BFB4
:109D7800042C0040002C004080B483B000AF0346A0
:109D8800FB71FB7963F07F03DAB2044B1A6000BF02
:109D98000C37BD465DF8047B704700BF002C0040BF
:109DA80080B400AF054B1B68044A23F0010313601D
:109DB80000BFBD465DF8047B704700BF082C00401B
:109DC80080B400AF054B1B68DBB203F00103DBB2C4
:109DD8001846BD465DF8047B704700BF082C00405C
:109DE80080B489B000AFF8600B467A60FB727B687C
:109DF800002B01D17F2323E0FB7A012202FA03F32F
:109E0800BB61BB69114A03FB02F27B68B2FBF3F347
:109E18007B617B69002B01D17F2311E0FB684FF444
:109E28007A7203FB02F27B69B2FBF3F3FB61FB6915
:109E38003F2B01D93F23FB61FB69DBB24033DBB227
:109E480018462437BD465DF8047B7047000024F4AB
:109E580080B483B000AF0346FB71FB790C4AA2FBC8
:109E68000323DB08DBB21B01D8B2FA79084BA3FB4A
:109E78000213D9080B469B000B445B00D31ADBB2D4
:109E88000343DBB218460C37BD465DF8047B7047C8
:109E9800CDCCCCCC80B483B000AF0346FB71FB794A
:109EA8001B09DBB21A46920013445B00DAB2FB7955
:109EB80003F00F03DBB21344DBB218460C37BD4680
:109EC8005DF8047B7047000080B400AF054BCA22E0
:109ED8001A60044B53221A6000BFBD465DF8047B2C
:109EE800704700BF2428004080B400AF034BFF2216
:109EF8001A6000BFBD465DF8047B70472428004007
:109F080080B483B000AF0F4B7B600F4B1B680E4AC9
:109F180043F08003136007E07B68013B7B607B684C
:109F2800002B01D1022306E0074B1B6803F0400316
:109F3800002BF1D0002318460C37BD465DF8047B92
:109F4800704700BFA08601000C28004080B400AF15
:109F5800054B1B68044A23F08003136000BFBD460D
:109F68005DF8047B704700BF0C28004080B586B0C0
:109F780000AF78607B68002B01D1012388E0464B55
:109F88001B68454A43F4807313607B681B78012B78
:109F980017D1424B1B68414A43F001031360404B01
:109FA8007B6107E07B69013B7B617B69002B01D109
:109FB80002236DE0394B1B6803F00203002BF1D03C
:109FC8001AE07B681B78022B16D1364B1B68354A82
:109FD80043F001031360344B3B6107E03B69013BED
:109FE8003B613B69002B01D1022351E02D4B1B68DB
:109FF80003F00203002BF1D0284B1B681B0A03F067
:10A008000303FB60FB68002B07D1244B1A687B68AD
:10A018001B781B02214913430B60204B1B681F4A06
:10A0280043F400431360FFF74FFFFFF769FF034650
:10A03800FB72FB7A002B03D0FFF756FFFB7A27E071
:10A048007B685B681B0403F4FE027B689B68C3F3B0
:10A058000E03164913430B607B681B7B012B06D14B
:10A06800134B1B68124A43F04003136005E0104B82
:10A078001B680F4A23F0400313600D4B1B680C4A02
:10A0880043F020031360FFF761FFFFF72DFF002364
:10A0980018461837BD4680BD007000407038024031
:10A0A80020A1070074380240A08601001028004053
:10A0B8000828004080B584B000AF78607B68002B2A
:10A0C80001D1012341E0FFF7FFFEFFF719FF034627
:10A0D800FB72FB7A002B03D0FFF706FFFB7A34E014
:10A0E8000023FB607B689B781846FFF7B1FE0346A8
:10A0F80003F07F03FA681343FB607B685B781846BC
:10A10800FFF7A6FE03461B0203F4FE43FA68134357
:10A11800FB607B681B781846FFF79AFE03461B0412
:10A1280003F47C13FA681343FB607B68DB78012B2C
:10A1380003D1FB6843F48003FB60064AFB681360A5
:10A14800FFF704FFFFF7D0FE002318461037BD467F
:10A1580080BD00BF0028004080B584B000AF7860A3
:10A168007B68002B01D1012331E01B4B1B68FB608E
:10A17800FB68DBB203F07F03DBB21846FFF78AFE09
:10A1880003461A467B689A70FB681B0ADBB203F029
:10A198007F03DBB21846FFF77DFE03461A467B684D
:10A1A8005A70FB681B0CDBB203F03F03DBB21846A6
:10A1B800FFF770FE03461A467B681A70FB689B0D12
:10A1C800DBB203F00103DAB27B68DA7000231846C9
:10A1D8001037BD4680BD00BF0028004080B584B060
:10A1E80000AF78607B68002B01D101233EE0FFF7C8
:10A1F8006BFEFFF785FE0346FB73FB7B002B03D04A
:10A20800FFF772FEFB7B31E00023BB607B681B78A5
:10A218001846FFF71DFE034603F03F03BA681343D1
:10A22800BB607B685B781846FFF712FE03461B028B
:10A2380003F4F853BA681343BB607B68DB785B03AD
:10A248009BB2BA681343BB607B689B781846FFF7DC
:10A25800FFFD03461B04BA681343BB60054ABB688D
:10A268001360FFF773FEFFF73FFE00231846103711
:10A27800BD4680BD0428004080B584B000AF78603A
:10A288007B68002B01D1012330E01A4B1B681A4B65
:10A298001B68FB60FB68DBB203F03F03DBB21846C8
:10A2A800FFF7F8FD03461A467B681A70FB681B0A1D
:10A2B800DBB203F01F03DBB21846FFF7EBFD0346E2
:10A2C8001A467B685A70FB685B0BDBB203F0070326
:10A2D800DAB27B68DA70FB681B0CDBB21846FFF752
:10A2E800D9FD03461A467B689A7000231846103732
:10A2F800BD4680BD002800400428004080B586B0D7
:10A3080000AF03463960FB711346BB713B68002BF5
:10A3180001D10123C2E0FFF7D7FDFB79002B06D15D
:10A32800604B1B685F4A23F48073136005E05D4B44
:10A338001B685C4A23F400731360FB79002B01D17E
:10A34800012300E00223FB60574B7B6109E07B6936
:10A35800013B7B617B69002B03D1FFF7C5FD02231D
:10A368009CE0524B1A68FB681340002BEFD0002387
:10A378003B613B689B781846FFF76AFD034603F08C
:10A388007F033A6913433B613B685B781846FFF7E4
:10A398005FFD03461B0203F4FE433A6913433B6126
:10A3A8003B681B781846FFF753FD03461B0403F46C
:10A3B8007C133A6913433B613B68DB78012B03D17B
:10A3C8003B6943F480033B613B685B79002B0AD00F
:10A3D8003B681B791B0603F070623B69134343F02B
:10A3E80080433B610BE03B681B791846FFF730FD63
:10A3F80003461B0603F07C533A6913433B613B68F1
:10A408001B7A002B03D03B6943F080033B613B6818
:10A41800DB79002B03D03B6943F400433B613B6885
:10A428009B79002B03D03B6943F400033B613B68F5
:10A438005B7A002B03D03B6943F000433B61FB7917
:10A44800002B03D11A4A3B69136002E0194A3B69A1
:10A458001360FB79002B0FD1124B1B68114A43F490
:10A4680080731360BB79002B15D00E4B1B680D4A07
:10A4780043F4805313600EE00A4B1B68094A43F407
:10A4880000731360BB79002B05D0064B1B68054A87
:10A4980043F400531360FFF727FD002318461837CD
:10A4A800BD4680BD08280040A08601000C28004059
:10A4B8001C2800402028004080B582B000AF034629
:10A4C800FB71FFF701FDFB79002B06D1094B1B68D7
:10A4D800084A23F48853136005E0064B1B68054AB5
:10A4E80023F408531360FFF7FFFC00BF0837BD468D
:10A4F80080BD00BF0828004080B483B000AF034689
:10A50800FB71FB79002B06D1094B1B68084A23F421
:10A518008073136005E0064B1B68054A23F400733B
:10A52800136000BF0C37BD465DF8047B704700BF61
:10A538000C28004080B485B000AF0346FB71FB795E
:10A54800002B02D14FF4807301E04FF40073FB60DD
:10A55800074B1A68FB681340002B01D0012300E069
:10A56800002318461437BD465DF8047B704700BFCA
:10A578000C28004080B584B000AF0346FB710B4641
:10A58800BB801346BB71FFF79FFC1E4B1B681D4A1F
:10A5980023F4806313601C4BFB6009E0FB68013BFC
:10A5A800FB60FB68002B03D1FFF79EFC022324E02D
:10A5B800164B1B6803F00403002BEFD0114B1B68EC
:10A5C80023F00702FB7903F007030E4913430B60DE
:10A5D8000F4ABB8813600B4B1B680A4A43F480631D
:10A5E8001360BB79002B05D0064B1B68054A43F462
:10A5F80080431360FFF778FC002318461037BD46E8
:10A6080080BD00BF08280040A08601000C2800403B
:10A618001428004080B500AFFFF756FC044B1B68B8
:10A62800034A23F488431360FFF75EFC00BF80BD34
:10A638000828004080B400AF054B1B68044A23F487
:10A648008063136000BFBD465DF8047B704700BFA0
:10A658000C28004080B400AF064B1B6803F48063ED
:10A66800002B01D0012300E000231846BD465DF809
:10A67800047B70470C28004080B582B000AF0346C9
:10A688000A46FB711346BB71FFF71EFCFB79002BD2
:10A6980006D0114B1B68104A43F00803136005E00D
:10A6A8000D4B1B680C4A23F0080313600A4B1B6808
:10A6B800094A43F400631360BB79002B05D0064BAD
:10A6C8001B68054A43F400431360FFF70DFC00BF05
:10A6D8000837BD4680BD00BF0828004080B500AFE0
:10A6E800FFF7F2FB044B1B68034A23F4084313608B
:10A6F800FFF7FAFB00BF80BD0828004080B584B092
:10A7080000AF786039607B68002B30D02F4B1B6816
:10A71800FB60FB68DBB203F07F03DBB21846FFF790
:10A72800B9FB03461A467B689A70FB681B0ADBB2C2
:10A7380003F07F03DBB21846FFF7ACFB03461A466B
:10A748007B685A70FB681B0CDBB203F03F03DBB27B
:10A758001846FFF79FFB03461A467B681A70FB688A
:10A768009B0DDBB203F00103DAB27B68DA703B6859
:10A77800002B26D0164B1B68BB60BB68DBB203F00E
:10A788003F03DBB21846FFF785FB03461A463B68D2
:10A798001A70BB681B0ADBB203F01F03DBB2184652
:10A7A800FFF778FB03461A463B685A70BB685B0B99
:10A7B800DBB203F00703DAB23B68DA703B680022C9
:10A7C8009A7000BF1037BD4680BD00BF30280040DA
:10A7D8003428004080B400AF054B1B68044A23F4BA
:10A7E8000063136000BFBD465DF8047B704700BF7F
:10A7F8000C28004080B483B000AF03463960FB7179
:10A80800FB79132B0FD80B4B1B680A4A43F4807350
:10A818001360FB7903F1805303F614239B001A4657
:10A828003B68136000E000BF0C37BD465DF8047B51
:10A83800704700BF0070004080B483B000AF03468B
:10A84800FB71FB79132B01D9002306E0FB7903F197
:10A85800805303F614239B001B6818460C37BD462B
:10A868005DF8047B7047000080B400AF064B1B689E
:10A8780003F01003002B01D0012300E00023184649
:10A88800BD465DF8047B70470C28004080B483B057
:10A8980000AF0D4B1B680C4A23F0200313600B4BD1
:10A8A8007B6000BF084B1B6803F02003002B05D119
:10A8B8007B68013B7B607B68002BF3D100BF0C37C2
:10A8C800BD465DF8047B70470C280040A086010057
:10A8D80080B483B000AFF1EE103A7B607B68184615
:10A8E8000C37BD465DF8047B704780B483B000AF79
:10A8F80078607B68E1EE103A00BF0C37BD465DF822
:10A90800047B704780B400AF0A4B1B68094A43F4C4
:10A9180070031360BFF34F8FBFF36F8F064B1B6835
:10A92800054A43F04043136000BFBD465DF8047B11
:10A93800704700BF88ED00E034EF00E080B400AF5E
:10A94800074B1B68064A23F470031360BFF34F8F4D
:10A95800BFF36F8F00BFBD465DF8047B704700BF33
:10A9680088ED00E080B485B000AF0346FB714FF47A
:10A978007003FB60FB791B0503F44012FB799B0510
:10A9880003F440031343BB60094B1A68FB68DB43BD
:10A998001A400749BB6813430B60BFF34F8FBFF3DF
:10A9A8006F8F00BF1437BD465DF8047B704700BF4A
:10A9B80088ED00E080B400AF054B1B68044A43F003
:10A9C8004043136000BFBD465DF8047B704700BF7D
:10A9D80034EF00E080B400AF084B1B68074A43F02F
:10A9E80000431360054B1B68044A23F0804313603F
:10A9F80000BFBD465DF8047B704700BF34EF00E040
:10AA080080B584B000AF0346FB71FFF761FFF860C3
:10AA1800FB6823F44003FB60FB799B0503F44003C8
:10AA2800FA681343FB60F868FFF75FFF00BF103751
:10AA3800BD4680BD80B500AFFFF74AFF03469B0DBA
:10AA4800DBB203F00303DBB2184680BD80B584B0E7
:10AA580000AF0346FB71FFF73BFFF860FB79002B63
:10AA680004D0FB6843F08073FB6003E0FB6823F0CD
:10AA78008073FB60F868FFF738FF00BF1037BD46EA
:10AA880080BD80B584B000AF0346FB71FFF720FF9F
:10AA9800F860FB79002B04D0FB6843F00073FB607F
:10AAA80003E0FB6823F00073FB60F868FFF71DFF05
:10AAB80000BF1037BD4680BD80B500AFFFF708FF67
:10AAC800034603F09F03184680BD80B584B000AFED
:10AAD8007860FFF7FDFEF8607B6803F09F03DB43B7
:10AAE800FA681340FB60F868FFF7FFFE00BF1037F5
:10AAF800BD4680BD80B483B000AF0346FB71FB79CF
:10AB0800002B06D00E4B1B680D4A43F0040313605C
:10AB180005E00B4B1B680A4A23F004031360084B3B
:10AB28001B68074A43F001031360BFF34F8FBFF35D
:10AB38006F8F00BF0C37BD465DF8047B704700BFC0
:10AB480094ED00E080B400AF074B1B68064A23F081
:10AB580001031360BFF34F8FBFF36F8F00BFBD4674
:10AB68005DF8047B704700BF94ED00E080B483B0CB
:10AB780000AF786000BF0C37BD465DF8047B7047B6
:10AB880080B483B000AF0346FB7100BF0C37BD46ED
:10AB98005DF8047B704780B483B000AF0346FB7157
:10ABA80000BF0C37BD465DF8047B704780B400AF2A
:10ABB80000231846BD465DF8047B704780B400AF9B
:10ABC80000231846BD465DF8047B704780B500AF8A
:10ABD8000C210020FDF73EFC00F002F800BF80BD0C
:10ABE80080B400AF034B01221A6000BFBD465DF878
:10ABF800047B70470830024080B483B000AF7860AF
:10AC0800054A7B681360044B1B6818460C37BD4621
:10AC18005DF8047B704700BF0030024080B588B003
:10AC280000AF786039603B6803F003037B613B68E1
:10AC38009B083B61FFF7D4FF0023FB6123E0FB691E
:10AC48009B007A6813441B781A06FB699B00013342
:10AC580079680B441B781B041A43FB699B00023379
:10AC680079680B441B781B021343FA69920003327C
:10AC780079680A4412781343BB61224ABB6913609E
:10AC8800FB690133FB61FA693B699A42D7D37B6957
:10AC9800002B30D00023BB613B699B00FB607B69C4
:10ACA800032B09D07B69032B21D87B69012B15D095
:10ACB8007B69022B09D01AE0FB6802337A681344D7
:10ACC8001B781B02BA691343BB61FB6801337A68BE
:10ACD80013441B781B04BA691343BB617A68FB6889
:10ACE80013441B781B06BA691343BB6100E000BF1D
:10ACF800044ABB691360034B1B6818462037BD46DE
:10AD080080BD00BF0030024080B586B000AF7860DB
:10AD180039603B68042B01D8012328E03B68043BD9
:10AD28007B617A687B6913441B781A067B69013357
:10AD380079680B441B781B041A437B6902337968D2
:10AD48000B441B781B0213437A69033279680A445F
:10AD5800127813433B6179697868FFF75FFFF86001
:10AD6800FA683B699A4214BF01230023DBB21846F4
:10AD78001837BD4680BD000080B400AF034B1B6888
:10AD88001846BD465DF8047B704700BF003002409E
:10AD980080B483B000AF0346FB71FB79062B01D169
:10ADA800064B05E0FB79072B01D1054B00E000239A
:10ADB80018460C37BD465DF8047B7047001000400C
:10ADC8000014004080B584B000AF0346FB71FB79E6
:10ADD8001846FFF7DDFFF860FB79062B02D0072B3A
:10ADE8001FD03DE004210320FDF734FBFB68283326
:10ADF80007221A80FB682C3340F2CF721A80FB6856
:10AE08000C331B889BB2FA680C3243F001039BB2E7
:10AE180013803620FDF7E4FB03461A46124B1A70DE
:10AE28001EE005210320FDF715FBFB6828330722E8
:10AE38001A80FB682C3340F2CF721A80FB680C33FF
:10AE48001B889BB2FA680C3243F001039BB2138053
:10AE58003720FDF7C5FB03461A46034B1A7000BF9F
:10AE680000BF1037BD4680BD0000002080B584B00B
:10AE780000AF0346FB71FB791846FFF789FFF860BE
:10AE8800FB79062B02D0072B09D011E0FB681B8841
:10AE98009AB2FB6842F0010292B21A8008E0FB689D
:10AEA8001B889AB2FB6842F0010292B21A8000BF76
:10AEB80000BF1037BD4680BD80B584B000AF0346E3
:10AEC800FB71FB791846FFF763FFF860FB79062BE7
:10AED80002D0072B09D011E0FB681B889AB2FB68E7
:10AEE80022F0010292B21A8008E0FB681B889AB22D
:10AEF800FB6822F0010292B21A8000BF00BF10372F
:10AF0800BD4680BD80B483B000AF03463960FB7195
:10AF1800FB79062B02D0072B04D007E0064A3B68D2
:10AF2800136003E0054A3B68136000BF00BF0C379D
:10AF3800BD465DF8047B704704010020080100202D
:10AF480080B500AF0B4B1B889BB203F00103002BAD
:10AF58000ED0084B1B889BB2064A23F001039BB214
:10AF68001380054B1B68002B02D0034B1B689847C6
:10AF780000BF80BD101000400401002080B500AF64
:10AF88000B4B1B889BB203F00103002B0ED0084B20
:10AF98001B889BB2064A23F001039BB21380054B22
:10AFA8001B68002B02D0034B1B68984700BF80BD6D
:10AFB800101400400801002080B483B000AF03469D
:10AFC800FB71FB79022B01D9002303E0FB79044ACA
:10AFD80052F8233018460C37BD465DF8047B70479D
:10AFE80090FB000880B483B000AF78607B680433BE
:10AFF8001B687A68043223F4E063136000BF0C37DF
:10B00800BD465DF8047B704780B588B000AF034645
:10B018003960FB71FB791846FFF7CEFFF860FB68D3
:10B02800002B00F0C4803B68002B00F0C080FB6858
:10B038001A68FB6822F001021A603B681B685E4AC6
:10B04800A2FB03239B0CBB60FB6804331B6823F043
:10B058003F02BB6803F03F03F968043113430B60F8
:10B068000023FB613B685B68544A934217D83B68EE
:10B078001A683B685B685B00B2FBF3F3BB61BB69B2
:10B08800032B01D80423BB61BB69C3F30B03FB612A
:10B09800FB6820331A46BB68013313603AE0FB694A
:10B0A80043F40043FB613B681B7A012B10D1FB6919
:10B0B80043F48043FB613B6819683B685A68134650
:10B0C8009B0013449A001344B1FBF3F37B6109E03E
:10B0D8003B6819683B685A6813465B001344B1FB28
:10B0E800F3F37B617B69002B01D101237B617B69D1
:10B0F800C3F30B03FA691343FB61BB684FF4967201
:10B1080002FB03F32E4AA2FB03239B09FA682032B1
:10B1180001331360FB681C331A46FB6913603B68F4
:10B128005B7A012B09D13B685B89C3F30903FA6891
:10B13800083243F40043136008E03B685B895B0016
:10B14800DBB2FA68083243F4804313603B68DB7B68
:10B15800002B09D03B681B7C5B00DBB2FA680C3221
:10B1680043F00103136004E0FB680C331A46002324
:10B17800136001233B613B681B7B002B03D03B69B9
:10B1880043F480633B613B685B7B002B03D03B69E6
:10B1980043F040033B613B689B7B002B03D03B693A
:10B1A80043F080033B61FB683A691A6000E000BF26
:10B1B8002037BD4680BD00BF83DE1B43A08601004B
:10B1C800D34D621080B584B000AF0346FB71FB79A4
:10B1D8001846FFF7F1FEF860FB68002B12D0FB68F9
:10B1E8001A68FB6822F001021A60F868FFF7FAFE95
:10B1F800FA7906491346DB009B1A9B000B44002290
:10B208001A7000E000BF1037BD4680BD1001002055
:10B2180080B584B000AF0346FB71FB791846FFF791
:10B22800CBFEB86042F21073FB60BB681A68BB685B
:10B2380042F480721A6007E0FB68013BFB60FB6820
:10B24800002B01D1032307E0BB6814331B6803F00C
:10B258000103002BF0D0002318461037BD4680BDEF
:10B2680080B584B000AF0346FB71FB791846FFF741
:10B27800A3FEF860FB681A68FB6842F400721A6063
:10B28800002318461037BD4680BD80B584B000AF96
:10B298000346FB710B46BB801346BB71FB7918460E
:10B2A800FFF78AFEB86042F21073FB60BB885A0051
:10B2B800BB7903F00103B968103113430B6016E042
:10B2C800BB6814331B6803F48063002B07D0BB688A
:10B2D8001A68BB6842F400721A60012315E0FB6823
:10B2E800013BFB60FB68002B01D103230DE0BB6829
:10B2F80014331B6803F00203002BE1D0BB6814333E
:10B308001B68BB6818331B68002318461037BD46F6
:10B3180080BD80B584B000AF03460A46FB71134672
:10B32800BB71FB791846FFF747FEB86042F210730D
:10B33800FB60BB6810331A46BB79136007E0FB68F3
:10B34800013BFB60FB68002B01D1032307E0BB68CE
:10B3580014331B6803F08003002BF0D00023184639
:10B368001037BD4680BD80B584B000AF0346396054
:10B37800FB711346BB71FB791846FFF71DFEB860D9
:10B3880042F21073FB60BB79002B06D0BB681A68C9
:10B39800BB6842F480621A600EE0BB681A68BB683A
:10B3A80022F480621A6007E0FB68013BFB60FB68DF
:10B3B800002B01D103230DE0BB6814331B6803F095
:10B3C8004003002BF0D0BB6810331B68DAB23B682F
:10B3D8001A70002318461037BD4680BD80B588B066
:10B3E80000AFBA601A460346FB730B46BB8113468F
:10B3F800FB80FB7B1846FFF7DFFD7861FB7B184677
:10B40800FFF706FF0346FB74FB7C002B01D0FB7C97
:10B4180042E0B989FB7B00221846FFF736FF034656
:10B42800FB74FB7C002B01D0FB7C35E00023FB8305
:10B4380012E0FB8BBA6813441A78FB7B1146184656
:10B44800FFF767FF0346FB74FB7C002B01D0FB7CF6
:10B4580022E0FB8B0133FB83FA8BFB889A42E8D30B
:10B4680042F21073BB6107E0BB69013BBB61BB697A
:10B47800002B01D103230FE07B6914331B6803F011
:10B488000403002BF0D097F82830002B03D1FB7B66
:10B498001846FFF7E5FE002318462037BD4680BD55
:10B4A80080B586B000AFBA601A460346FB730B46F8
:10B4B800BB811346FB80FB7B1846FFF7A9FE0346BA
:10B4C8007B757B7D002B01D07B7D37E0B989FB7BC9
:10B4D80001221846FFF7D9FE03467B757B7D002BBA
:10B4E80001D07B7D2AE00023FB821AE0FA8AFB88E0
:10B4F800013B9A4201D2012300E000233B75FB8AFD
:10B50800BA68D1183A7DFB7B1846FFF72CFF034633
:10B518007B757B7D002B01D07B7D0FE0FB8A01339F
:10B52800FB82FA8AFB889A42E0D397F82030002BF6
:10B5380003D1FB7B1846FFF793FE00231846183704
:10B54800BD4680BD90B587B002AF04460846114697
:10B558001A462346FB710346BB710B467B711346A3
:10B568003B717B793B733B797B73BB7999B207F16C
:10B578000C02F879002300930223FFF72FFF0346FC
:10B5880018461437BD4690BD80B586B002AF3B6003
:10B598000346FB710B46BB7113467B71BB7999B2AD
:10B5A8007A1DF879012300930123FFF717FF03465B
:10B5B800FB73FB7B002B01D0FB7B09E0BB7999B2C5
:10B5C800F8790023009301233A68FFF769FF0346DF
:10B5D80018461037BD4680BD80B586B002AF3B60C7
:10B5E8000346FB710B46BB7113467B71BB7999B25D
:10B5F8007A1DF879012300930123FFF7EFFE034634
:10B60800FB73FB7B002B01D0FB7B09E0BB7999B274
:10B618003B8BF879002200923A68FFF741FF034616
:10B6280018461037BD4680BD80B483B000AF0346CE
:10B638003960FB71FB79022B09D8FA79074913465F
:10B64800DB009B1A9B000B4410333A681A6000BF5A
:10B658000C37BD465DF8047B704700BF1001002021
:10B6680080B483B000AF03463960FB71FB79022BCD
:10B6780009D8FA7907491346DB009B1A9B000B444B
:10B6880014333A681A6000BF0C37BD465DF8047B76
:10B69800704700BF1001002080B483B000AF03469C
:10B6A8003960FB71FB79022B09D8FA7907491346EF
:10B6B800DB009B1A9B000B4418333A681A6000BFE2
:10B6C8000C37BD465DF8047B704700BF10010020B1
:10B6D80080B483B000AF0346FB71FB79022B01D91C
:10B6E800002308E0FA7907491346DB009B1A9B0000
:10B6F8000B441B78DBB218460C37BD465DF8047B5B
:10B70800704700BF1001002080B483B000AF78609C
:10B718007B6814331B68DBB218460C37BD465DF8EE
:10B72800047B704780B586B000AFBA601A460346FE
:10B73800FB730B46BB811346FB80FB7B1846FFF768
:10B748003BFC78617B69002B05D0BB68002B02D0DD
:10B75800FB88002B01D1012334E0FA7B1B491346F7
:10B76800DB009B1A9B000B441B78DBB2002B01D03B
:10B77800022327E0FA7B1346DB009B1A9B00134A3F
:10B7880013443B613B6901221A703B69BA685A60ED
:10B798003B69FA881A813B6900225A81BB895B00A0
:10B7A8009AB23B699A817B6904331B687A690432CF
:10B7B80043F4E06313607B691A687B6942F4807222
:10B7C8001A60002318461837BD4680BD10010020B6
:10B7D80080B586B000AFBA601A460346FB730B46C5
:10B7E800BB811346FB80FB7B1846FFF7E5FB7861BE
:10B7F8007B69002B05D0BB68002B02D0FB88002B8F
:10B8080001D101233DE0FA7B20491346DB009B1A56
:10B818009B000B441B78DBB2002B01D0022330E0E5
:10B82800FA7B1346DB009B1A9B00184A13443B61C2
:10B838003B6902221A703B69BA685A603B69FA8808
:10B848001A813B6900225A81BB895B009BB243F095
:10B8580001039AB23B699A817B691A687B6942F451
:10B8680080621A607B6904331B687A69043243F486
:10B87800E06313607B691A687B6942F480721A601E
:10B88800002318461837BD4680BD00BF10010020B0
:10B8980090B587B000AF0346FB71FB791846FFF7F8
:10B8A8008BFB78617B6914331B683B61FA7913461B
:10B8B800DB009B1A9B00594A1344FB603B6903F069
:10B8C8000103002B05D0FB689A897B6910331A6045
:10B8D800A0E03B6903F00203002B06D07B69143318
:10B8E8001B687B6918331B6894E03B6903F080038D
:10B8F800002B18D0FB681B78DBB2012B13D1FB6837
:10B908005A89FB681B899A427FD2FB685A68FB6890
:10B918005B89591C88B2F968488113441A787B6995
:10B9280010331A6071E03B6903F00403002B20D048
:10B93800FB681B78DBB2012B1BD1FB685A89FB68BB
:10B948001B899A4215D37B691A687B6942F4007295
:10B958001A607869FFF746FBFB6800221A70FB68DB
:10B968001B69002B53D0FB681B69FA79104698476E
:10B978004DE03B6903F04003002B42D0FB681B7885
:10B98800DBB2022B3DD1FB685A89FB681B899A42BE
:10B998003FD2FB685B891A46FB681B89013B9A42C8
:10B9A8000BD17B691A687B6922F480621A607B6913
:10B9B8001A687B6942F400721A607B691033186850
:10B9C800FB685A68FB685B89591C8CB2F9684C8122
:10B9D8001344C2B21A70FB685A89FB681B899A42E1
:10B9E80017D37869FFF7FEFAFB6800221A70FB6824
:10B9F8005B69002B0DD0FB685B69FA7910469847A4
:10BA080007E07869FFF7EEFA04E000BF02E000BF44
:10BA180000E000BF1C37BD4690BD00BF10010020EC
:10BA280080B584B000AF0346FB71FB791846FFF779
:10BA3800C3FAF860FB6814331A4600231360FA79D6
:10BA480012491346DB009B1A9B000B4400221A7014
:10BA5800F868FFF7C7FAFA790C491346DB009B1A16
:10BA68009B000B4418331B68002B0BD0FA7907494D
:10BA78001346DB009B1A9B000B4418331B68FA79AA
:10BA88001046984700BF1037BD4680BD1001002002
:10BA980080B500AF0020FFF7FBFE00BF80BD80B57A
:10BAA80000AF0020FFF7BCFF00BF80BD80B500AF2E
:10BAB8000120FFF7EDFE00BF80BD80B500AF01207B
:10BAC800FFF7AEFF00BF80BD80B500AF0220FFF7D3
:10BAD800DFFE00BF80BD80B500AF0220FFF7A0FFEA
:10BAE80000BF80BD80B400AF074B1B68002B05DA90
:10BAF800064B074A1A60054B064A1A6000BFBD4646
:10BB08005DF8047B704700BF103C0240043C0240D3
:10BB180023016745AB89EFCD80B400AF054B1B68A7
:10BB2800044A43F00043136000BFBD465DF8047B40
:10BB3800704700BF103C024080B400AF044B1B6844
:10BB4800DB0FDBB21846BD465DF8047B704700BFCB
:10BB5800103C024080B400AF054B1B68044A43F018
:10BB6800F303136000BFBD465DF8047B704700BF58
:10BB78000C3C024080B483B000AF114B7B6002E004
:10BB88007B68013B7B600F4B1B6803F48033002B01
:10BB980002D07B68002BF3D17B68002B01D10223F4
:10BBA80008E0084B1B6803F0F203002B01D00123C7
:10BBB80000E0002318460C37BD465DF8047B70474B
:10BBC800404B4C000C3C024080B483B000AF78601E
:10BBD8007B68B3F1006F05D37B68064A934201D8AE
:10BBE800012300E00023DBB218460C37BD465DF8A0
:10BBF800047B7047FFFF070880B483B000AF78600C
:10BC08007B68184A934201D2002324E07B68164AD5
:10BC1800934201D201231EE07B68144A934201D269
:10BC2800022318E07B68124A934201D8032312E0EA
:10BC38007B68104A934201D804230CE07B680E4AC3
:10BC4800934201D8052306E07B680C4A934201D849
:10BC5800062300E0072318460C37BD465DF8047B31
:10BC6800704700BF004000080080000800C00008BE
:10BC7800FFFF0008FFFF0108FFFF0308FFFF05089B
:10BC880080B483B000AF78607B68072B23D801A20B
:10BC980052F823F0BDBC0008C3BC0008C7BC0008AC
:10BCA800CBBC0008CFBC0008D3BC0008D7BC000838
:10BCB800DBBC00084FF000630EE00A4B0CE00A4BB7
:10BCC8000AE00A4B08E00A4B06E00A4B04E00A4B7C
:10BCD80002E00A4B00E0002318460C37BD465DF829
:10BCE800047B7047004000080080000800C000087E
:10BCF800000001080000020800000408000006080F
:10BD080080B483B000AF78607B68072B2AD801A283
:10BD180052F823F03DBD000843BD000849BD0008A6
:10BD28004FBD000855BD00085BBD000861BD000897
:10BD380067BD00084FF4804315E04FF4804312E0DC
:10BD48004FF480430FE04FF480430CE04FF480330E
:10BD580009E04FF4003306E04FF4003303E04FF4FA
:10BD6800003300E0002318460C37BD465DF8047B1D
:10BD7800704700BF80B584B000AF78607B68072B40
:10BD880001D9042334E0FFF7ADFEFFF7E3FEFFF728
:10BD9800F1FE0346FB73FB7B002B03D0FFF7BCFED1
:10BDA800FB7B25E0144B1B68134A23F078031360D0
:10BDB800114B1A687B68DB000F4913430B600E4B6D
:10BDC8001B680D4A43F0020313600B4B1B680A4AB9
:10BDD80043F480331360FFF7CDFE0346FB73064B35
:10BDE8001B68054A23F002031360FFF795FEFB7BEF
:10BDF80018461037BD4680BD103C024090B587B04C
:10BE080000AF786039607A683B681344013B3B6156
:10BE18007B687B617868FFF7D7FE0346002B05D067
:10BE28003869FFF7D1FE0346002B19D104231CE023
:10BE38007869FFF7E1FEF860F868FFF79BFF0346B3
:10BE4800FB72FB7A002B01D0FB7A0EE0F868FFF753
:10BE580017FF0446F868FFF753FF034623447B6146
:10BE68007A693B699A42E3D9002318461C37BD46D4
:10BE780090BD000080B582B000AFFFF733FEFFF73A
:10BE880069FEFFF777FE0346FB71FB79002B03D0B1
:10BE9800FFF742FEFB7918E00E4B1B680D4A43F092
:10BEA800040313600B4B1B680A4A43F48033136086
:10BEB800FFF760FE0346FB71064B1B68054A23F03B
:10BEC80004031360FFF728FEFB7918460837BD46C0
:10BED80080BD00BF103C024080B584B000AF7860E0
:10BEE8000B46FB707868FFF76FFE0346002B01D105
:10BEF80004232EE0FFF7F6FDFFF72CFEFFF73AFECE
:10BF08000346FB73FB7B002B03D0FFF705FEFB7B8F
:10BF18001FE0124B1B68114A23F4407313600F4B48
:10BF28000E4A1B6813600D4B1B680C4A43F0010353
:10BF380013607B68FA781A70FFF71CFE0346FB73E0
:10BF4800064B1B68054A23F001031360FFF7E4FD65
:10BF5800FB7B18461037BD4680BD00BF103C024031
:10BF680080B584B000AF78600B467B807868FFF7B7
:10BF78002BFE0346002B01D1042337E07B6803F036
:10BF88000103002B01D0032330E0FFF7ABFDFFF7DF
:10BF9800E1FDFFF7EFFD0346FB73FB7B002B03D0AE
:10BFA800FFF7BAFDFB7B21E0124B1B68114A23F413
:10BFB800407313600F4B1B680E4A43F48073136081
:10BFC8000C4B1B680B4A43F0010313607B687A88AB
:10BFD8001A80FFF7CFFD0346FB73064B1B68054A23
:10BFE80023F001031360FFF797FDFB7B184610371A
:10BFF800BD4680BD103C024080B584B000AF78607B
:10C0080039607868FFF7E0FD0346002B01D104236F
:10C0180037E07B6803F00303002B01D0032330E0F3
:10C02800FFF760FDFFF796FDFFF7A4FD0346FB73DE
:10C03800FB7B002B03D0FFF76FFDFB7B21E0134B4D
:10C048001B68124A23F440731360104B1B680F4A95
:10C0580043F4007313600D4B1B680C4A43F0010353
:10C0680013607B683A681A60FFF784FD0346FB7328
:10C07800064B1B68054A23F001031360FFF74CFDCC
:10C08800FB7B18461037BD4680BD00BF103C024000
:10C0980080B586B000AFF860B9607A6000237B6134
:10C0A800F868FFF791FD0346002B09D0FA687B6812
:10C0B8001344013B1846FFF787FD0346002B01D1C7
:10C0C800042321E07968F86800F0ABF80346002BF8
:10C0D80015D1062318E0FA687B69D018BA687B691D
:10C0E80013441B781946FFF7F7FE0346FB74FB7CE5
:10C0F800002B01D0FB7C07E07B6901337B617A6907
:10C108007B689A42E7D3002318461837BD4680BD9E
:10C1180080B588B000AFF860B9607A600023FB6131
:10C12800F868FFF751FD0346002B09D0FA687B68D1
:10C138001344013B1846FFF747FD0346002B01D186
:10C14800042344E0FB6803F00303002B01D003231E
:10C158003DE07968F86800F064F80346002B17D1D1
:10C16800062334E0BA68FB6913441B687B61FA68EC
:10C17800FB69134479691846FFF73EFF0346FB76CF
:10C18800FB7E002B01D0FB7E21E0FB690433FB61C1
:10C19800FB6904337A689A42E4D213E0FA68FB69CF
:10C1A800D018BA68FB6913441B781946FFF794FE48
:10C1B8000346FB76FB7E002B01D0FB7E07E0FB6984
:10C1C8000133FB61FA697B689A42E7D3002318467A
:10C1D8002037BD4680BD80B487B000AFF860B96035
:10C1E8007A60FB683B6100237B610FE03A697B69F9
:10C1F80013441A78B9687B690B441B789A4202D0B9
:10C208004FF0FF3307E07B6901337B617A697B6814
:10C218009A42EBD3002318461C37BD465DF8047BD1
:10C22800704780B485B000AF786039607B68BB60C8
:10C238000023FB600AE0BA68FB6813441B78FF2BF5
:10C2480001D0002307E0FB680133FB60FA683B6814
:10C258009A42F0D3012318461437BD465DF8047B93
:10C26800704780B586B000AFF860B9607A60FB6847
:10C278003B61F868FFF7A8FC0346002B09D0FA6871
:10C288007B681344013B1846FFF79EFC0346002BCE
:10C2980001D1042312E000237B610AE03A697B693B
:10C2A8001A44B9687B690B4412781A707B690133A8
:10C2B8007B617A697B689A42F0D300231846183765
:10C2C800BD4680BD80B400AF72B600BFBD465DF804
:10C2D800047B704780B400AF62B600BFBD465DF80E
:10C2E800047B704780B584B000AF78603960FFF791
:10C2F800E9FF39687868FFF77FFE0346FB73FFF7AD
:10C30800E9FFFB7B18461037BD4680BD80B483B07B
:10C3180000AF0346FB71FB79023B032B13D801A244
:10C3280052F823F03DC3000843C3000847C3000880
:10C338004BC300084FF0804306E0064B04E0064B71
:10C3480002E0064B00E0002318460C37BD465DF8B6
:10C35800047B70470004004000080040000C0040C7
:10C3680080B584B000AF0346FB71FB791846FFF730
:10C37800CDFFF860FB79023B032B4ED801A252F89F
:10C3880023F000BF9DC30008B7C30008D1C300084D
:10C39800EBC30008FB68283307221A80FB682C339C
:10C3A80040F2CF721A801C20FCF71AF926E0FB68CD
:10C3B800283307221A80FB682C3340F2CF721A8088
:10C3C8001D20FCF70DF919E0FB68283307221A80B5
:10C3D800FB682C3340F2CF721A801E20FCF700F95C
:10C3E8000CE0FB68283307221A80FB682C3340F2E4
:10C3F800CF721A803220FCF7F3F800BFFB680C33C9
:10C408001B889BB2FA680C3243F001039BB213807D
:10C41800FB68243300221A8000E000BF1037BD46B5
:10C4280080BD00BF80B584B000AF0346FB71FB79C7
:10C438001846FFF76BFFF860FB79032B02D0042B3B
:10C4480005D08EE001210320FCF704F804E0022166
:10C458000320FBF7FFFF00BFFB68283359221A802F
:10C46800FB682C3340F2E7321A80FB6818331B68EC
:10C47800FA68183243F060031360FB6818331B68CE
:10C48800FA68183243F008031360FB6820331B680E
:10C49800FA68203243F001031360FB6818331B6805
:10C4A800FA68183243F4C0431360FB6818331B68FA
:10C4B800FA68183243F400631360FB6820331B6882
:10C4C800FA68203243F010031360FB681C331B68C2
:10C4D800FA681C3243F060031360FB681C331B6866
:10C4E800FA681C3243F008031360FB6820331B68AA
:10C4F800FA68203243F480731360FB681C331B68AE
:10C50800FA681C3243F4C0431360FB681C331B6891
:10C51800FA681C3243F400631360FB6820331B681D
:10C52800FA68203243F480531360FB6834331A46A8
:10C5380000231360FB6838331A4600231360FB6836
:10C548003C331A4600231360FB6840331A46002325
:10C558001360FB681B889AB2FB6842F0010292B232
:10C568001A801037BD4680BD80B584B000AF034641
:10C57800FB710B46BB7113467B71FB791846FFF7BD
:10C58800C5FEF8607B79642B01D964237B71FB6855
:10C598002C331B889BB201337A7902FB03F31A4AC6
:10C5A80082FB03125211DB17D31ABB60BB79013B24
:10C5B800032B23D801A252F823F000BFD5C50008E9
:10C5C800E1C50008EDC50008F9C50008FB6834336B
:10C5D8001A46BB68136012E0FB6838331A46BB681A
:10C5E80013600CE0FB683C331A46BB68136006E036
:10C5F800FB6840331A46BB68136000E000BF00BF09
:10C608001037BD4680BD00BF1F85EB5180B584B093
:10C6180000AF0346FB71FB791846FFF777FEF86019
:10C62800FB6810331B889BB2FA68103223F00103B1
:10C638009BB21380FB681B889AB2FB6842F0010228
:10C6480092B21A8000BF1037BD4680BD80B584B055
:10C6580000AF0346FB71FB791846FFF757FEF860F9
:10C66800FB681B889AB2FB6822F0010292B21A801A
:10C6780000BF1037BD4680BD80B483B000AF03460D
:10C688003960FB71FB79023B032B1BD801A252F8DE
:10C6980023F000BFADC60008B5C60008BDC6000837
:10C6A800C5C600080B4A3B6813600CE00A4A3B68A1
:10C6B800136008E0094A3B68136004E0084A3B68D5
:10C6C800136000E000BF00BF0C37BD465DF8047B77
:10C6D800704700BF64010020680100206C01002041
:10C6E8007001002080B500AF0B4B1B889BB203F094
:10C6F8000103002B0ED0084B1B889BB2064A23F07F
:10C7080001039BB21380054B1B68002B02D0034B1F
:10C718001B68984700BF80BD1000004064010020DE
:10C7280080B500AF0B4B1B889BB203F00103002BB5
:10C738000ED0084B1B889BB2064A23F001039BB21C
:10C748001380054B1B68002B02D0034B1B689847CE
:10C7580000BF80BD100400406801002080B500AF14
:10C768000B4B1B889BB203F00103002B0ED0084B28
:10C778001B889BB2064A23F001039BB21380054B2A
:10C788001B68002B02D0034B1B68984700BF80BD75
:10C79800100800406C01002080B500AF0B4B1B88CF
:10C7A8009BB203F00103002B0ED0084B1B889BB2F1
:10C7B800064A23F001039BB21380054B1B68002B2C
:10C7C80002D0034B1B68984700BF80BD100C004087
:10C7D8007001002080B400AF054B1B68044A43F485
:10C7E8007F03136000BFBD465DF8047B704700BF40
:10C7F80020ED00E080B400AF054B1B68044A43F00D
:10C808008053136000BFBD465DF8047B704700BFCE
:10C8180004ED00E080B485B000AF78603960002393
:10C82800FB607B68BB60FB680133FB60BB681C4A2C
:10C8380082FB03129210DB17D31ABB60BB68002B74
:10C84800F1DCFB683A68134400221A701DE07A682C
:10C85800134B83FB02139910D317C91A0B469B007D
:10C868000B445B00D11ACAB2FB68013BFB60FB6852
:10C8780039680B443032D2B21A707B68084A82FB9E
:10C8880003129210DB17D31A7B607B68002BDEDC67
:10C8980000BF00BF1437BD465DF8047B704700BF7A
:10C8A8006766666680B485B000AF78600023FB6079
:10C8B80002E0FB680133FB607A68FB6813441B786D
:10C8C800002BF6D1FB6818461437BD465DF8047B8B
:10C8D8007047000098B500AF174B1B78072B1BD883
:10C8E800154B1B781A46154B53F82240124B1B78F0
:10C8F8001A46124B53F822301846FFF7D3FF034667
:10C90800DBB21A4621460020FCF76CFC0A4B1B7868
:10C918000133DAB2084B1A70074B1B78082B08D181
:10C92800074B01221A70044B1B780133DAB2024B11
:10C938001A7000BF98BD00BF7901002004000020D4
:10C948007801002080B586B002AF03460A46FB7125
:10C958001346BB7100233B73BB797B7307F10C0251
:10C96800F8790023009302233C21FEF737FD00BF2E
:10C978001037BD4680BD80B586B002AF03460A4673
:10C98800FB711346BB7140233B73BB797B7307F183
:10C998000C02F8790023009302233C21FEF71EFDC8
:10C9A80000BF1037BD4680BD80B584B000AF0346D8
:10C9B800FB710023FB6002E0FB680133FB60FB684E
:10C9C800404A9342F8D9FB79AE211846FFF7BAFFDF
:10C9D800FB79D5211846FFF7B5FFFB79802118466A
:10C9E800FFF7B0FFFB79A8211846FFF7ABFFFB79EB
:10C9F8003F211846FFF7A6FFFB79D3211846FFF71A
:10CA0800A1FFFB7900211846FFF79CFFFB79402125
:10CA18001846FFF797FFFB79AD211846FFF792FFFD
:10CA2800FB798B211846FFF78DFFFB79A12118466A
:10CA3800FFF788FFFB79C8211846FFF783FFFB79CA
:10CA4800DA211846FFF77EFFFB7912211846FFF717
:10CA580079FFFB7981211846FFF774FFFB79BF2125
:10CA68001846FFF76FFFFB79D9211846FFF76AFFD1
:10CA7800FB7922211846FFF765FFFB79DB21184671
:10CA8800FFF760FFFB7940211846FFF75BFFFB7952
:10CA9800A4211846FFF756FFFB79A6211846FFF791
:10CAA80051FF00F011F8FB7908220021184600F028
:10CAB80071F8FB79AF211846FFF744FF00BF103724
:10CAC800BD4680BD9F86010080B483B000AF0023BF
:10CAD800FB8006E0FB88084A0021D154FB8801331B
:10CAE800FB80FB88B3F5806FF4D300BF00BF0C3721
:10CAF800BD465DF8047B70477C01002080B485B09A
:10CB080000AF0346FB710B46BB7113467B7197F967
:10CB18000730002B35DBBB793F2B32D8FB799AB233
:10CB2800BB79DB08DBB29BB2DB019BB21344FB8110
:10CB38007B79012B11D1FB89154AD35C5AB2BB7999
:10CB480003F00703012101FA03F35BB213435AB25E
:10CB5800FB89D1B20E4AD15414E0FB890C4AD35C4C
:10CB68005AB2BB7903F00703012101FA03F35BB260
:10CB7800DB435BB213405AB2FB89D1B2044AD154A9
:10CB880000E000BF1437BD465DF8047B704700BF66
:10CB98007C01002080B5A6B002AF0346FB710B46AE
:10CBA800BB7113467B71BB7987F88F303EE097F8ED
:10CBB8008F30503BDAB2FB7911461846FFF7C2FEB8
:10CBC800FB7902211846FFF7BDFEFB7910211846B4
:10CBD800FFF7B8FE40233B73002387F88E3013E03D
:10CBE80097F88F30DA0197F88E301A4497F88E301C
:10CBF800013313498A5C90333B4403F8842C97F83B
:10CC08008E30013387F88E3097F98E30002BE7DAB3
:10CC180007F10C02F8790023009381233C21FEF7E9
:10CC2800DDFB97F88F30013387F88F3097F88F2026
:10CC38007B799A42BBD300BF00BF9037BD4680BD09
:10CC48007C01002080B584B000AF0346FB710B4621
:10CC5800BB7113467B717B792F2B0CD97B79392BD0
:10CC680009D87B79A3F1300213469B001344384A54
:10CC78001344FB603CE07B79402B0CD97B795A2B21
:10CC880009D87B79A3F1410213469B001344314A2A
:10CC98001344FB602CE07B79602B0CD97B797A2BD1
:10CCA80009D87B79A3F1610213469B0013442A4AF1
:10CCB8001344FB601CE07B79202B02D1274BFB60DF
:10CCC80016E07B79212B02D1254BFB6010E07B79A4
:10CCD8002D2B02D1234BFB600AE07B792E2B02D14E
:10CCE800214BFB6004E07B793A2B2CD11F4BFB6076
:10CCF8000023FB7223E00023BB721AE0FB7AFA6878
:10CD080013441B781A46BB7A42FA03F303F0010373
:10CD1800002B0BD0FA79FB7A1344D8B2BA79BB7AD4
:10CD28001344DBB201221946FFF7E8FEBB7A013350
:10CD3800BB72BB7A072BE1D9FB7A0133FB72FB7A12
:10CD4800042BD8D900E000BF1037BD4680BD00BF16
:10CD58009CFB0008D0FB000854FC0008D8FC000825
:10CD6800DDFC0008E2FC0008E7FC0008ECFC000819
:10CD780080B582B000AF03463A60FB710B46BB71C9
:10CD88000CE03B681A78B979FB791846FFF75AFF27
:10CD9800FB790633FB713B6801333B603B681B78CA
:10CDA800002BEED100BF00BF0837BD4680BD000094
:10CDB80080B500AF03490020FEF726F900F004F81B
:10CDC80000BF80BD4000002080B500AF00236B226B
:10CDD80068210020FEF7B6FB00BF80BD80B586B095
:10CDE80002AF3B1D02220092412268210020FEF77B
:10CDF800F3FB0346FB73FB7B002B03D0FFF7D8FF45
:10CE0800002316E03B791B021AB27B791BB213434D
:10CE1800BB81B7F90C30642202FB03F3074A82FB9B
:10CE28000312D211DB17D31A03F64563BB60BB6844
:10CE38001BB218461037BD4680BD00BF61606060F8
:10CE480080B588B002AF78600023BB600023BB8147
:10CE580007F10803062200923B2268210020FEF712
:10CE6800BBFB0346FB75FB7D002B02D0FFF7A0FF41
:10CE78003EE03B7A1B021AB27B7A1BB21343BB8299
:10CE8800BB7A1B021AB2FB7A1BB213437B823B7B31
:10CE98001B021AB27B7B1BB213433B82B7F91430D7
:10CEA800642202FB03F3002B02DA03F57F533F33BE
:10CEB8009B131AB27B681A80B7F91230642202FBFE
:10CEC80003F3002B02DA03F57F533F339B131AB2A7
:10CED8007B685A80B7F91030642202FB03F3002BF9
:10CEE80002DA03F57F533F339B131AB27B689A80AB
:10CEF8001837BD4680BD000080B588B002AF7860A5
:10CF08000023BB600023BB8107F1080306220092BF
:10CF1800432268210020FEF75FFB0346FB75FB7D7B
:10CF2800002B02D0FFF744FF3EE03B7A1B021AB207
:10CF38007B7A1BB21343BB82BB7A1B021AB2FB7A01
:10CF48001BB213437B823B7B1B021AB27B7B1BB257
:10CF580013433B82B7F91430642202FB03F3144AEB
:10CF680082FB03125211DB17D31A1AB27B681A809C
:10CF7800B7F91230642202FB03F30D4A82FB031255
:10CF88005211DB17D31A1AB27B685A80B7F91030DE
:10CF9800642202FB03F3064A82FB03125211DB17D9
:10CFA800D31A1AB27B689A801837BD4680BD00BF75
:10CFB8003DCB883E80B58AB000AF786039600023E9
:10CFC8007B6200233B620023FB610023BB610023DB
:10CFD8007B6100233B6141F28833BB810023FB81E5
:10CFE80032E07868FFF72CFF3868FFF785FF7B6829
:10CFF800B3F900301A467B6A13447B627B68B3F945
:10D0080002301A463B6A13443B627B68B3F904302A
:10D018001A46FB691344FB613B68B3F900301A46B2
:10D02800BB691344BB613B68B3F902301A467B699C
:10D0380013447B613B68B3F904301A463B691344D7
:10D048003B61FB890133FB81FA89BB899A42C8D3CA
:10D05800BB897A6A92FBF3F31AB27B681A80BB89A0
:10D068003A6A92FBF3F31AB27B685A80BB89FA6971
:10D0780092FBF3F31AB27B689A80BB89BA6992FB78
:10D08800F3F31AB23B681A80BB897A6992FBF3F30F
:10D098001AB23B685A80BB893A6992FBF3F31AB219
:10D0A8003B689A8000BF2837BD4680BD80B500AF79
:10D0B800FBF75CFC0346184680BD000080B500AF56
:10D0C800074B00221A70074B00221A70064B0722E2
:10D0D8001A70064B01221A8000F0E8FA00BF80BDE2
:10D0E800864500207C050020240000202600002022
:10D0F80080B582B000AF154B5B88FB8010E0FB88E1
:10D10800124A5B0013449879FB88104A5B00134469
:10D11800DB7901221946FFF7F1FCFB880133FB801C
:10D12800FA880A4B5B881946084B9B880B449A423D
:10D13800E5DB074B1B78064A517801221846FFF7B2
:10D14800DDFC00BF0837BD4680BD00BF800500205C
:10D158008845002080B582B000AF0123FB803EE007
:10D16800244B1B88234A5B0013449A79214B1B8864
:10D1780003F50051FB88CB1A5942C3F30C03C1F3E2
:10D188000C0158BF4B421B495B000B449B799A42E8
:10D1980022D1184B1B88174A5B001344DA79154BC8
:10D1A8001B8803F50051FB88CB1A5942C3F30C03C3
:10D1B800C1F30C0158BF4B420E495B000B44DB79AD
:10D1C8009A4209D1FFF780FC0B4A00211E20FFF785
:10D1D800CFFD0A4B01221A70FB880133FB80054BF7
:10D1E8009B88FA889A42BBD900BF00BF0837BD4662
:10D1F80080BD00BF80050020A4F8000886450020F7
:10D2080080B483B000AF0123FB71A84B1B78002BBF
:10D2180040F0F981A64B1A78A64B1B78DBB29A42EC
:10D2280000F0FA80A34B1B78DBB2013B032B00F222
:10D23800EB8101A252F823F051D2000839D300083B
:10D24800C5D20008ADD300089B4B1B889A4A5B00E7
:10D258001344DB88BB80984B1B8801335A42C3F3C5
:10D268000C03C2F30C0258BF53429AB2924B1A8075
:10D278007B79914A12881046013BD9B28E4A430005
:10D2880013440A46DA718C4B1B8839798A4A5B0049
:10D2980013440A469A71884B5B8801335A42C3F398
:10D2A8000C03C2F30C0258BF53429AB2824B5A8005
:10D2B8007F4B02221A700023FB71A5E17E4B1B886D
:10D2C8007D4A5B001344DB88BB807B4B1B880133A2
:10D2D8005A42C3F30C03C2F30C0258BF53429AB22A
:10D2E800754B1A803B79744A128810460133D9B2BB
:10D2F800714A430013440A469A716F4B1B88797927
:10D308006D4A5B0013440A46DA716B4B5B88013344
:10D318005A42C3F30C03C2F30C0258BF53429AB2E9
:10D32800654B5A80624B04221A700023FB716BE133
:10D33800614B1B88604A5B001344DB88BB805E4BF3
:10D348001B8801335A42C3F30C03C2F30C0258BFC3
:10D3580053429AB2584B1A807B79574A1288104622
:10D368000133D9B2544A430013440A46DA71524B86
:10D378001B883979504A5B0013440A469A714E4B10
:10D388005B8801335A42C3F30C03C2F30C0258BF43
:10D3980053429AB2484B5A80454B01221A700023D7
:10D3A800FB7131E1444B1B88434A5B001344DB8823
:10D3B800BB80414B1B8801335A42C3F30C03C2F3B1
:10D3C8000C0258BF53429AB23B4B1A803B793A4AF7
:10D3D80012881046013BD9B2374A430013440A4623
:10D3E8009A71354B1B887979334A5B0013440A4696
:10D3F800DA71314B5B8801335A42C3F30C03C2F331
:10D408000C0258BF53429AB22B4B5A80284B032226
:10D418001A700023FB71F7E0264B1B78DBB2013B47
:10D42800032B00F2F18001A252F823F045D4000842
:10D4380033D50008C5D40008A1D500081E4B1B88A9
:10D448001D4A5B001344DB88BB801B4B1B880133E0
:10D458005A42C3F30C03C2F30C0258BF53429AB2A8
:10D46800154B1A807B79144A128810460133D9B2B9
:10D47800114A430013440A46DA710F4B1B88397965
:10D488000D4A5B0013440A469A710B4B5B880133C3
:10D498005A42C3F30C03C2F30C0258BF53429AB268
:10D4A800054B5A800023FB71AEE000BF8645002083
:10D4B800240000207C05002080050020564B1B8896
:10D4C800554A5B001344DB88BB80534B1B880133F0
:10D4D8005A42C3F30C03C2F30C0258BF53429AB228
:10D4E8004D4B1A803B794C4A12881046013BD9B201
:10D4F800494A430013440A469A71474B1B88797975
:10D50800454A5B0013440A46DA71434B5B88013392
:10D518005A42C3F30C03C2F30C0258BF53429AB2E7
:10D528003D4B5A800023FB716EE03B4B1B883A4A07
:10D538005B001344DB88BB80374B1B8801335A429E
:10D54800C3F30C03C2F30C0258BF53429AB2324BD6
:10D558001A807B79304A12881046013BD9B22E4A8C
:10D56800430013440A46DA712B4B1B8839792A4A3F
:10D578005B0013440A469A71274B5B8801335A4271
:10D58800C3F30C03C2F30C0258BF53429AB2224BA6
:10D598005A800023FB7137E01F4B1B881E4A5B0033
:10D5A8001344DB88BB801C4B1B8801335A42C3F3EE
:10D5B8000C03C2F30C0258BF53429AB2164B1A809E
:10D5C8003B79154A128810460133D9B2124A4300F2
:10D5D80013440A469A71104B1B8879790E4A5B00EE
:10D5E80013440A46DA710C4B5B8801335A42C3F381
:10D5F8000C03C2F30C0258BF53429AB2064B5A802E
:10D608000023FB7100E000BFFB7918460C37BD46CC
:10D618005DF8047B704700BF8005002080B400AF30
:10D62800214B1B88204A5B001344DB79FF2B07D171
:10D638001D4B1B881C4A5B0013443F22DA712EE005
:10D64800194B1B88184A5B001344DB79402B07D120
:10D65800154B1B88144A5B0013440022DA711EE044
:10D66800114B1B88104A5B0013449B79802B07D110
:10D678000D4B1B880C4A5B00134400229A710EE084
:10D68800094B1B88084A5B0013449B79FF2B06D182
:10D69800054B1B88044A5B0013447F229A7100BF24
:10D6A800BD465DF8047B70478005002080B483B0D8
:10D6B80000AF164B01229A80144B00225A80134B5C
:10D6C8009B88013B9AB2114B1A80104B5B88FB80F8
:10D6D80010E0FB88FA88D1B20C4A5B0013440A4672
:10D6E8009A71FB88094A5B0013442022DA71FB888F
:10D6F8000133FB80054B9B88FA889A42E9D300BF27
:10D7080000BF0C37BD465DF8047B704780050020DC
:10D7180080B582B000AF6E4B1B78DBB2052B01D110
:10D72800FFF7CCFCFFF7D0F96A4B1B78002B40F0D1
:10D73800BB80FFF765FD0346012B05D1664A1E2114
:10D748000020FFF715FBB9E0FFF768FFFFF7D0FCF3
:10D75800FFF700FD614B1B88012B14D1FFF7A6FCD6
:10D768000346DBB203F03F03DAB25D4B5A70FFF7B2
:10D778009DFC0346DBB203F07F03DAB2584B1A7004
:10D78800564B00221A80574B1B88564A5B0013449D
:10D798009A79534B1B789A4240F09080514B1B88E2
:10D7A800504A5B001344DA794D4B5B789A4240F05B
:10D7B80085804C4B1B884B4A5B001344DB88BB803D
:10D7C800484B1B8801335A42C3F30C03C2F30C02C3
:10D7D80058BF53429AB2434B1A803D4B1B78DBB279
:10D7E800013B032B56D801A252F823F005D80008B4
:10D7F8002BD8000851D8000877D80008394B1B8867
:10D808003979384A5B0013440A469A717A79531E6B
:10D81800DBB27B71334B1B8832495B000B44DA71F6
:10D8280038E0304B1B8839792E4A5B0013440A468E
:10D838009A717A79531CDBB27B712A4B1B88294970
:10D848005B000B44DA7125E03A79531CDBB23B717B
:10D85800244B1B8823495B000B449A71214B1B887E
:10D868007979204A5B0013440A46DA7112E03A7962
:10D87800531EDBB23B711B4B1B881A495B000B44E0
:10D888009A71184B1B887979164A5B0013440A462B
:10D89800DA7100BF134B9B8801339AB2114B9A80FF
:10D8A8000E4B01221A8009E00F4A00211E20FFF7C3
:10D8B8005FFA0E4A08210020FFF75AFA08220021D1
:10D8C8000020FFF767F900BF0837BD4680BD00BFDD
:10D8D8007C05002086450020B0F8000826000020BE
:10D8E8008845002080050020A4F80008C8F8000832
:10D8F80080B582B000AF2A4B1B78002B21D10023C2
:10D90800FB8006E0FB88274A0021D154FB880133BD
:10D91800FB80FB88FF2BF5D94FF44073BB8006E0F2
:10D92800BB88204A0021D154BB880133BB80BB8807
:10D93800B3F5806FF4D31A4B1B780133DAB2184B66
:10D948001A70194B1B780B2B02D9174B00221A702F
:10D9580000237B8010E0144B1B781A46134B53F8B6
:10D9680022207B881A447B8803F5807311780D4A3E
:10D97800D1547B8801337B807B88B3F5007FEAD361
:10D98800094B1B780133DAB2074B1A7006220221C1
:10D998000020FFF7FFF800BF0837BD4680BD00BF75
:10D9A8008A4500207C0100208B450020F4140108E2
:10D9B80080B500AF284B1B78002B04D0274B1B7871
:10D9C800DBB2052B20D1FFF77FF8234B00221A701A
:10D9D800234A00210020FFF7CBF9224A0821002022
:10D9E800FFF7C6F9204A10210020FFF7C1F91F4AA6
:10D9F80038210020FFF7BCF9082200210020FFF79A
:10DA0800C9F81B4B01221A70144B1B78DBB2692B27
:10DA180013D1FFF759F8164B1B78012B04D10822B4
:10DA280000210020FFF7B6F8FFF762FF104B002235
:10DA38001A70094B01221A700CE0084B1B78DBB2F4
:10DA48006A2B07D1FFF764FE034B01221A70084BBB
:10DA580001221A7000BF80BD8D4500208C45002032
:10DA6800DCF80008F4F80008FCF800080CF90008D5
:10DA78008E45002080B500AF0E210420FAF7EAFC9D
:10DA8800124B1B68114A23F0F00313600F4B1B68FD
:10DA98000E4A43F0200313600D4B1B680C4A23F415
:10DAA800005313600B4B1B680A4A43F4005313607E
:10DAB800094B1B68084A43F400531360074B1B6863
:10DAC800064A43F40053136000BF80BD1438014078
